:100000000C9406010C9431010C9431010C943101D3
:100010000C9431010C9431010C9431010C94310198
:100020000C9431010C9431010C9431010C94310188
:100030000C9431010C9431010C9431010C94310178
:100040000C9431010C9431010C9431010C94310168
:100050000C9431010C9431010C9431010C949A4BA5
:100060000C9431010C942C3D0C9431010C94310111
:100070000C9431010C9431010C9431010C94310138
:100080000C9431010C9431010C9431010C94310128
:100090000C94613D0C9431010C9431010C943101AC
:1000A0000C9431010C9431010C9431010C94310108
:1000B0000C9431010C9431010C9431010C943101F8
:1000C0000C9431010C9431010C9431010C94963D47
:1000D0000C9431010C9431010C94CB3D0C94310102
:1000E0000C94310100002100240027002A002D007B
:1000F0003000330001010000040107010A01000083
:100100002200250028002B002E00310034000201BF
:100110000000050108010B0100002000230026005B
:1001200029002C002F00320000010000030106010D
:10013000090105050505070508080808020202026D
:100140000A0A080804040404010101010101010173
:100150000303030303030303040707070C0C0C0C3E
:100160000C0C0C0C02020202060606060606060627
:100170000B0B0B0B0B0B0B0B0102102020080810B4
:100180002040102040800201020108040201010207
:1001900004081020408080402010080402018004E0
:1001A000020180402010080402010804020101023B
:1001B0000408102040800102040810204080000044
:1001C000090A02080B0C0D070603040100000000D9
:1001D000000000000000000000000000000000001F
:1001E00000000000000000000000100F0E000000E2
:1001F00000000000000000000000000000000000FF
:1002000000000000360C831E513F2F0C11241FBE2E
:10021000CFEFD1E2DEBFCDBF16E0A0E0B2E0E0E874
:10022000FFE900E00BBF02C007900D92A431B107B7
:10023000D9F71BBE19E0A4E1B6E001C01D92A93DAB
:10024000B107E1F712E0CAE0D2E004C02297FE0154
:100250000E94804FC430D107C9F70E94710D0C94E1
:10026000B34F0C940000EF92FF920F931F937B010A
:100270008C0120E030E040E05FE40E94AF0488237E
:100280008CF0C801B70120E030E040E05FE40E945C
:10029000AB020E946D059B01AC01205030404040F4
:1002A000504806C0C801B7010E946D059B01AC0112
:1002B000B901CA011F910F91FF90EF900895A0E03E
:1002C000B0E0E5E6F1E00C94474FDC012B01FA01C8
:1002D0009C91923008F439C1EB018881823008F496
:1002E00033C1943069F4843009F02FC111969C9188
:1002F00011978981981709F428C1A8E2B4E025C1B3
:10030000843009F421C18230A9F4923009F01DC172
:100310009A01AD0188E0EA010990AE01E901099274
:100320009E018150C1F7E201898111969C91892338
:10033000818308C1923009F407C112962D903C9038
:100340001397EB018A819B811496AD90BD90CD905F
:10035000DC901797EC80FD800E811F819101281B96
:10036000390BB90137FF04C066277727621B730B6F
:10037000603271050CF061C0121613066CF537017E
:100380004801062E04C096948794779467940A9443
:10039000D2F721E030E040E050E004C0220F331FEC
:1003A000441F551F6A95D2F72150304040405040BD
:1003B0002E213F21402351232115310541055105AF
:1003C00021F021E030E040E050E079018A01E628A8
:1003D000F728082919293CC0232BD1F1260E371EF6
:1003E00035014601062E04C096948794779467944D
:1003F0000A94D2F721E030E040E050E004C0220F40
:10040000331F441F551F6A95D2F72150304040409A
:1004100050402A213B214C215D2121153105410508
:10042000510521F021E030E040E050E059016A013F
:10043000A628B728C828D9280BC0821593052CF008
:100440001C01AA24BB24650103C0EE24FF248701FC
:1004500011969C91D20111968C91981709F445C080
:10046000992339F0A80197012A193B094C095D0924
:1004700006C0A60195012E193F09400B510B57FDEF
:1004800008C01182338222822483358346835783B6
:100490001DC081E081833382228288279927DC0175
:1004A000821B930BA40BB50B84839583A683B78320
:1004B0000DC0220F331F441F551F248335834683ED
:1004C000578382819381019793838283248135812D
:1004D00046815781DA01C9010197A109B1098F5FEE
:1004E0009F4FAF4FBF4328F30BC0918333822282CB
:1004F000EA0CFB1C0C1D1D1DE482F582068317838C
:1005000083E08083248135814681578157FF1AC05B
:10051000C901AA2797FDA095BA2F81709070A0708D
:10052000B0705695479537952795822B932BA42B22
:10053000B52B84839583A683B783828193810196AB
:1005400093838283DF0101C0D201CD01CDB7DEB735
:10055000E2E10C94634FA0E2B0E0E1EBF2E00C9436
:10056000534F69837A838B839C832D833E834F8390
:100570005887E9E0EE2EF12CEC0EFD1ECE0101961F
:10058000B7010E945E078E010F5E1F4FCE010596D8
:10059000B8010E945E078A8991E089278A8BC7018A
:1005A000B801AE01475E5F4F0E945F010E9489065D
:1005B000A096E6E00C946F4FA0E2B0E0E2EEF2E02D
:1005C0000C94534F69837A838B839C832D833E8362
:1005D0004F835887F9E0EF2EF12CEC0EFD1ECE0173
:1005E0000196B7010E945E078E010F5E1F4FCE017C
:1005F0000596B8010E945E07C701B801AE01475ECB
:100600005F4F0E945F010E948906A096E6E00C946D
:100610006F4FA0E2B0E0EFE0F3E00C94474F698346
:100620007A838B839C832D833E834F835887CE01AF
:100630000196BE01675F7F4F0E945E07CE0105965F
:10064000BE016F5E7F4F0E945E079985923088F0F1
:1006500089898230C8F0943019F4823051F404C092
:10066000843029F4923081F488E294E0C6C092305C
:1006700049F420E09A858A89981321E02A87CE01DF
:100680000996BBC0823049F420E09A858A89981384
:1006900021E02A8BCE014196B0C02D843E844F8448
:1006A00058886D887E888F88988CEE24FF24870177
:1006B000AA24BB24650140E050E060E070E0E0E087
:1006C000F0E0C10181709070892BE9F0E60CF71C15
:1006D000081D191D9A01AB012A0D3B1D4C1D5D1D06
:1006E00080E090E0A0E0B0E0E614F704080519050A
:1006F00020F481E090E0A0E0B0E0BA01A901480F49
:10070000591F6A1F7B1FAA0CBB1CCC1CDD1C97FE4B
:1007100008C081E090E0A0E0B0E0A82AB92ACA2A87
:10072000DB2A3196E032F10549F0660C771C881C13
:10073000991C5694479437942794C3CFFA85EA8935
:100740002B893C898B859C85280F391F2E5F3F4F55
:1007500017C0CA0181709070892B61F016950795BA
:10076000F794E79480E090E0A0E0B0E8E82AF92A66
:100770000A2B1B2B76956795579547952F5F3F4F13
:1007800077FDE7CF0CC0440F551F661F771F17FD7D
:100790004160EE0CFF1C001F111F21503040403003
:1007A00090E0590790E0690790E4790760F32B8F98
:1007B0003C8FDB01CA018F779070A070B0708034DD
:1007C0009105A105B10561F447FD0AC0E114F104EA
:1007D0000105110529F0405C5F4F6F4F7F4F407856
:1007E0001A8EFE1711F081E08A8F4D8F5E8F6F8F0A
:1007F00078A383E0898FCE0149960E948906A0964E
:10080000E2E10C94634FA8E1B0E0E9E0F4E00C947D
:100810004F4F69837A838B839C832D833E834F83E1
:100820005887B9E0EB2EF12CEC0EFD1ECE0101969F
:10083000B7010E945E078E010F5E1F4FCE01059625
:10084000B8010E945E072985223008F47EC03989EC
:10085000323010F4B8017CC08A859A8989278A874A
:10086000243011F0223031F4231709F06EC068E211
:1008700074E06EC0343039F41D861E861F86188AD7
:100880001C861B8604C0323021F484E08987B701BE
:100890005FC02B853C858B899C89281B390B3C8745
:1008A0002B87ED84FE840F851889AD88BE88CF889C
:1008B000D88CEA14FB040C051D0540F4EE0CFF1C5B
:1008C000001F111F215030403C872B8720E030E073
:1008D00040E050E080E090E0A0E0B0E460E070E054
:1008E000EA14FB040C051D0540F0282B392B4A2B7C
:1008F0005B2BEA18FB080C091D09B695A79597957F
:100900008795EE0CFF1C001F111F6F5F7F4F6F312B
:10091000710531F7DA01C9018F779070A070B0705E
:1009200080349105A105B10561F427FD0AC0E114E9
:10093000F1040105110529F0205C3F4F4F4F5F4F37
:1009400020782D873E874F87588BBE01675F7F4F8A
:10095000CB010E9489066896EAE00C946B4FA8E1EF
:10096000B0E0E5EBF4E00C94534F69837A838B831A
:100970009C832D833E834F83588789E0E82EF12C9A
:10098000EC0EFD1ECE010196B7010E945E078E019E
:100990000F5E1F4FCE010596B8010E945E07898544
:1009A000823040F08989823028F0C701B8010E9466
:1009B000D60701C08FEF6896E6E00C946F4FA8E170
:1009C000B0E0E5EEF4E00C94534F69837A838B83B7
:1009D0009C832D833E834F83588789E0E82EF12C3A
:1009E000EC0EFD1ECE010196B7010E945E078E013E
:1009F0000F5E1F4FCE010596B8010E945E078985E4
:100A0000823040F08989823028F0C701B8010E9405
:100A1000D60701C081E06896E6E00C946F4FA8E02D
:100A2000B0E0E5E1F5E00C94504F9B01AC0183E0B0
:100A30008983DA01C9018827B7FD83959927AA27F9
:100A4000BB27B82E211531054105510519F482E067
:100A500089833AC08823A9F0203080E0380780E0FD
:100A6000480780E8580729F460E070E080E09FECD8
:100A700030C0EE24FF248701E21AF30A040B150BA1
:100A800002C079018A018EE1C82ED12CDC82CB8292
:100A9000ED82FE820F831887C801B7010E943A06D3
:100AA00001971816190684F4082E04C0EE0CFF1CDA
:100AB000001F111F0A94D2F7ED82FE820F83188760
:100AC000C81AD90ADC82CB82BA82CE0101960E9472
:100AD00089062896E9E00C946C4FACE0B0E0E3E7BF
:100AE000F5E00C94574F69837A838B839C83CE0106
:100AF0000196BE016B5F7F4F0E945E078D81823041
:100B000061F1823050F1843021F48E81882351F1DB
:100B10002EC02F81388537FD20C06E812F313105E1
:100B20001CF06623F9F023C08EE190E0821B930B4A
:100B300029853A854B855C8504C056954795379540
:100B400027958A95D2F76623B1F050954095309558
:100B500021953F4F4F4F5F4F0EC020E030E040E007
:100B600050E009C02FEF3FEF4FEF5FE704C020E0F8
:100B700030E040E050E8B901CA012C96E2E00C9464
:100B8000734FA8E0B0E0E7ECF5E00C944F4F7B0129
:100B90008C01611571058105910519F482E0898345
:100BA00060C083E089838EE1C82ED12CDC82CB82A9
:100BB000ED82FE820F831887C801B7010E943A06B2
:100BC000FC013197F7FF3BC0222733272E1B3F0B39
:100BD00057016801022E04C0D694C794B794A79415
:100BE0000A94D2F740E050E060E070E081E090E0ED
:100BF000A0E0B0E004C0880F991FAA1FBB1F2A9570
:100C0000D2F70197A109B1098E219F21A023B12319
:100C10000097A105B10521F041E050E060E070E0EF
:100C20004A295B296C297D294D835E836F837887F0
:100C30008EE190E08E1B9F0B9C838B8312C03097BC
:100C400081F00E2E04C0EE0CFF1C001F111F0A9431
:100C5000D2F7ED82FE820F831887CE1ADF0ADC827C
:100C6000CB821A82CE0101960E9489062896EAE07C
:100C70000C946B4FEF92FF920F931F937B018C01AB
:100C800080E0E81680E0F80681E0080780E01807B9
:100C900088F48FEFE816F1040105110531F028F012
:100CA00088E090E0A0E0B0E017C080E090E0A0E035
:100CB000B0E012C080E0E81680E0F80680E00807A7
:100CC00081E0180728F088E190E0A0E0B0E004C0DF
:100CD00080E190E0A0E0B0E020E230E040E050E0D1
:100CE000281B390B4A0B5B0B04C016950795F7942C
:100CF000E7948A95D2F7F701E05DFB4F8081281BCE
:100D0000310941095109C9011F910F91FF90EF90DD
:100D10000895DF92EF92FF920F931F93FC01E480FE
:100D2000F58006811781D1808081823048F480E08F
:100D300090E0A0E1B0E0E82AF92A0A2B1B2BA5C01D
:100D4000843009F49FC0823021F4EE24FF2487010F
:100D500005C0E114F1040105110519F4E0E0F0E02B
:100D600096C0628173819FEF623879070CF05BC097
:100D700022E83FEF261B370B2A3131052CF020E00B
:100D800030E040E050E02AC0B801A701022E04C0C4
:100D900076956795579547950A94D2F781E090E04C
:100DA000A0E0B0E004C0880F991FAA1FBB1F2A95BE
:100DB000D2F70197A109B1098E219F21A023B12368
:100DC0000097A105B10521F081E090E0A0E0B0E03E
:100DD0009A01AB01282B392B4A2B5B2BDA01C90175
:100DE0008F779070A070B07080349105A105B10527
:100DF00039F427FF09C0205C3F4F4F4F5F4F04C0BD
:100E0000215C3F4F4F4F5F4FE0E0F0E02030A0E02B
:100E10003A07A0E04A07A0E45A0710F0E1E0F0E04A
:100E200079018A0127C06038710564F5FB01E1583A
:100E3000FF4FD801C7018F779070A070B0708034D9
:100E40009105A105B10539F4E7FE0DC080E490E0FD
:100E5000A0E0B0E004C08FE390E0A0E0B0E0E80ED6
:100E6000F91E0A1F1B1F17FF05C016950795F7945B
:100E7000E794319687E016950795F794E7948A955D
:100E8000D1F705C0EE24FF248701EFEFF0E06E2FCD
:100E9000679566276795902F9F77D794DD24D79421
:100EA0008E2F8695492F462B582F5D29B701CA01F1
:100EB0001F910F91FF90EF90DF900895FC01DB01EF
:100EC000408151812281622F6F7770E0221F22279B
:100ED000221F9381892F880F822B282F30E0991FA2
:100EE0009927991F11969C93119721153105A9F502
:100EF000411551056105710511F482E037C082E8A2
:100F00009FEF13969C938E9312979A01AB0167E023
:100F1000220F331F441F551F6A95D1F783E08C932E
:100F20000DC0220F331F441F551F12968D919C91A7
:100F30001397019713969C938E931297203080E01D
:100F4000380780E0480780E4580758F314962D933B
:100F50003D934D935C93179708952F3F310579F496
:100F6000411551056105710519F484E08C930895CC
:100F700064FF03C081E08C9312C01C9210C02F57F5
:100F8000304013963C932E93129783E08C9387E026
:100F9000440F551F661F771F8A95D1F7706414960A
:100FA0004D935D936D937C93179708951F93DC0188
:100FB000FB019C91923008F447C08081823008F494
:100FC00043C0943051F411961C91843099F581817D
:100FD000682F70E0611B71093FC0843021F09230AE
:100FE00031F48230B9F18181882389F12DC01196C5
:100FF0001C9111978230F1F081811817D9F4129663
:101000002D913C911397828193818217930794F0DD
:1010100028173907BCF014968D919D910D90BC91C5
:10102000A02D2481358146815781281739074A0729
:101030005B0718F4112341F00AC082179307A40735
:10104000B50740F4112319F061E070E005C06FEFBF
:101050007FEF02C060E070E0CB011F910895CF9355
:10106000DF93BC018230910510F462E070E0A09142
:10107000D709B091D809ED01E0E0F0E040E050E0A0
:1010800021C0888199818617970769F48A819B819D
:10109000309719F09383828304C09093D80980938A
:1010A000D709FE0134C06817790738F44115510596
:1010B00019F08417950708F4AC01FE018A819B8121
:1010C0009C01E9012097E9F641155105A9F1CA01F2
:1010D000861B970B049708F4BA01E0E0F0E02AC001
:1010E0008D919C91119784179507F9F464177507F2
:1010F00081F412968D919C911397309719F09383F8
:10110000828304C09093D8098093D709FD01329659
:101110004CC0CA01861B970BFD01E80FF91F6193B4
:10112000719302978D939C9340C0FD0182819381BE
:101130009C01D9011097A1F68091D5099091D6090B
:10114000892B41F480913205909133059093D60913
:101150008093D509409134055091350541155105CD
:1011600041F44DB75EB78091300590913105481B31
:10117000590B2091D5093091D609CA01821B930BD6
:101180008617970780F0AB014E5F5F4F8417950776
:1011900050F0420F531F5093D6094093D509F901DF
:1011A0006193719302C0E0E0F0E0CF01DF91CF9155
:1011B0000895CF93DF93009709F450C0EC01229774
:1011C0001B821A82A091D709B091D809109709F112
:1011D00040E050E0AC17BD0708F1BB83AA83FE01D5
:1011E00021913191E20FF31FAE17BF0779F48D9172
:1011F0009C911197280F391F2E5F3F4F3983288309
:1012000012968D919C9113979B838A83411551056A
:1012100071F4D093D809C093D70920C012968D914C
:101220009C911397AD01009711F0DC01D3CFFA0127
:10123000D383C28321913191E20FF31FCE17DF07D1
:1012400069F488819981280F391F2E5F3F4FFA0179
:10125000318320838A819B8193838283DF91CF9125
:101260000895A0E0B0E0E7E3F9E00C944F4FEC0103
:10127000A880B980CA80DB80A114B104C104D10464
:1012800041F484E2A82E89EDB82E8BE5C82E87E0C4
:10129000D82EC601B5012DE133EF41E050E00E94A8
:1012A0002C4F27EA31E440E050E00E94EB4E7B01F6
:1012B0008C01C601B5012DE133EF41E050E00E9401
:1012C0002C4FCA01B9012CEE34EF4FEF5FEF0E94B3
:1012D000EB4E6E0D7F1D801F911F97FF04C0615064
:1012E000704080409048688379838A839B839B0108
:1012F000AC015F77B901CA01CDB7DEB7EAE00C9463
:101300006B4F0E943109089586E395E00E943109F0
:101310000895609336057093370580933805909350
:1013200039050895A0E0B0E0E8E9F9E00C94494FF0
:101330006C01009729F4CB010E942F086C01C1C0F9
:101340008EEF882E8FEF982E8C0C9D1C8601060F39
:10135000171F0815190508F4B2C0F401A081B18166
:10136000A617B707B8F0A530B10508F4AAC0CD019B
:1013700004978617970708F4A4C01297A61BB70B0B
:10138000F801A193B193D4016D937C93CF010E9496
:10139000D90897C07B01EA1AFB0AEEEFFFEFEE0EC9
:1013A000FF1E36016A0E7B1EC091D709D091D80965
:1013B00044245524AA24BB244AC0C615D705E1F508
:1013C000488159814E155F05B8F1CA0104978E1501
:1013D0009F05B0F41296A40FB51FF401B183A0834A
:1013E0002A813B814114510431F0D20113963C9380
:1013F0002E93129766C03093D8092093D70961C005
:101400008A819B81F80193838283425050404E1918
:101410005F09518340834114510431F0D201139686
:101420001C930E93129704C01093D8090093D70908
:10143000F4017183608345C088819981A816B9063B
:1014400008F45C012E018A819B819C01E9012097AF
:1014500009F0B3CF8091D5099091D60986159705EB
:10146000E9F4A616B706D0F420913405309135057D
:101470002115310541F42DB73EB78091300590918B
:101480003105281B390B02171307C8F41093D6092E
:101490000093D509D4016D937C9313C0CB010E94B6
:1014A0002F08EC01009759F0F40140815181B601F9
:1014B0000E948E0AC6010E94D9086E0102C0CC2487
:1014C000DD24C601CDB7DEB7E0E10C94654F1F9374
:1014D000FC0199278827BC01E89411911032E9F3A7
:1014E000193010F01E30C8F31B3251F01D3249F490
:1014F000689406C00E94540B610F711D811D911DDF
:10150000119110531A30B0F33EF490958095709578
:1015100061957F4F8F4F9F4F1F910895FB01DC0115
:1015200002C001900D9241505040D8F70895FB0140
:10153000DC010D900020E9F7119701900D92002039
:10154000E1F70895FC018191861721F08823D9F7EE
:10155000992708953197CF010895FB01DC018D9102
:10156000019080190110D9F3990B0895FB01DC015A
:1015700001900D920020E1F70895FB01DC0141503C
:10158000504030F08D910190801919F40020B9F786
:10159000881B990B0895FB01DC014150504048F035
:1015A00001900D920020C9F701C01D92415050409A
:1015B000E0F70895FC0181E090E00190061609F43F
:1015C000CF010020D1F701970895FB0151915523D8
:1015D000A9F0BF01DC014D9145174111E1F759F424
:1015E000CD010190002049F04D9140154111C9F302
:1015F000FB014111EFCF81E090E001970895FB01DD
:101600009F01E8944230C4F04532B4F44A3029F4E2
:1016100097FB1EF4909581959F4F642F77270E942A
:101620009F4F805D8A330CF0895D8193CB010097D9
:10163000A1F716F45DE251931082C9010C948E0B50
:10164000FA01CF93FF93EF93223044F1253234F522
:10165000C22FE894CA3049F497FB3EF490958095E8
:10166000709561957F4F8F4F9F4F2C2F33274427C5
:101670005527FF93EF930E940A4FEF91FF91605D12
:101680006A330CF0695D6193B901CA016050704022
:101690008040904051F716F4CDE2C19310828F91B3
:1016A0009F91CF910C948E0B592F482F372F262FB7
:1016B000660F771F881F991F660F771F881F991F56
:1016C000620F731F841F951F660F771F881F991F56
:1016D0000895FA01CF93FF93EF932230CCF0253297
:1016E000BCF4C22F2C2F332744275527FF93EF93A9
:1016F0000E940A4FEF91FF91605D6A330CF0695DC3
:101700006193B901CA01605070408040904051F728
:1017100010828F919F91CF910C948E0BDC01FC0174
:10172000672F71917723E1F7329704C07C916D9315
:1017300070836291AE17BF07C8F30895F894FFCF86
:10174000FC01DB0112968C911297828313968C9187
:101750008383CF010895EF92FF920F931F937C0133
:101760008B010E94A00BF80184819581F70195837C
:101770008483F80186819781F70197838683F80136
:101780008085F7018087C7011F910F91FF90EF902F
:101790000895E4E1F6E0119286E0EC33F807D9F71A
:1017A0000895ECE3F6E0119286E0E436F807D9F705
:1017B00008950F931F938C01FC01808191810E94F9
:1017C000D908F80113821282158214821F910F9199
:1017D00008958130910589F56F5F7F4F09F03EC014
:1017E0008FEA96E060E072E00E949F4785EB96E00A
:1017F0006DE072E00E949F478BEB96E068E172E03B
:101800000E949F4790914405809145058093C106B1
:101810009093C20683EC96E00E94521382E497E014
:101820000E941B0F8CE497E060E475E00E94291C85
:1018300085E597E00E94230F0895892B79F46F5F67
:101840007F4F61F48BEB96E00E94D90B85EB96E01D
:101850000E94D90B8FEA96E00E94D90B089580E090
:1018600090E06FEF7FEF0E94E90B089581E090E038
:101870006FEF7FEF0E94E90B08951F9383EC96E0D2
:1018800068EE73E00E94941E882319F183EC96E0C1
:101890000E94AB130E94040E893809F583EC96E090
:1018A0000E94AB1362E477E00E94F91282E497E0B1
:1018B0000E944010882341F48FE799E06DE272E0C6
:1018C0000E94044211E00CC08FE799E063E472E0EB
:1018D00004C08FE799E063E672E00E94044210E0E2
:1018E0000E94C90B0E94D10B812F1F910895CF93A5
:1018F000DF938FE799E06BE872E00E94044283EC8B
:1019000096E06CE477E00E94F51E83EC96E068E8D0
:1019100073E10E94941E882309F4A5C083EC96E02D
:101920000E94AB130E94040E883809F088C083EC33
:1019300096E00E94AB1365E577E00E94901285E582
:1019400097E00E94770F882309F469C08FE799E038
:1019500067EA72E00E94584085E597E00E947F0F99
:10196000FC018FE799E0608140E050E00E94424135
:1019700085E597E00E947F0FFC018FE799E0618188
:1019800040E050E00E9442418FE799E061EB72E055
:101990000E94044285E597E00E94240F882309F401
:1019A00084C08FE799E063EC72E00E94584085E5BF
:1019B00097E00E94240F682F8FE799E04AE050E0FB
:1019C0000E94EA418FE799E06CED72E00E94584076
:1019D000C0E0D0E015C085E597E00E945E0FFC01F5
:1019E000EC0FFD1F8FE799E0608140E150E00E941D
:1019F00042418FE799E06CEE72E00E9458402196D8
:101A000085E597E00E94240F90E0C817D9071CF3E2
:101A10008FE799E06EEE72E00E94044246C08FE7C5
:101A200099E06FEE72E00E94584085E597E00E94D1
:101A3000720F682F8FE799E040E150E02DC08FE7EB
:101A400099E06BE073E00E94584083EC96E00E94BE
:101A5000AB130E94040E682F8FE799E040E150E03D
:101A60000E94424122C083EC96E00E94AB130E9488
:101A7000280E8823A1F08FE799E069E273E00E94C5
:101A8000584083EC96E00E94AB130E942D0E682F05
:101A90008FE799E040E050E00E94EA4106C08FE7FE
:101AA00099E06DE473E00E945840DF91CF91089572
:101AB0000E94C90B60E070E080E090E023E030E03D
:101AC00040E050E00E94674326E0629FC00111247D
:101AD0008155994F64E176E048E250E00E94EB4383
:101AE00008950F931F93DF93CF93CDB7DEB76C9715
:101AF0000FB6F894DEBF0FBECDBF0E94794C82E9CD
:101B000099E040E855E260E070E00E94603E83ECBE
:101B100096E062E979E00E94A41380E00E94DE4C26
:101B20000E9485438FE799E040E855E260E070E06D
:101B30000E94603E8FE799E064E673E00E940442F1
:101B400068E873E180E090E00E94164C8E010F5F20
:101B50001F4FC80160E475E041EC56E022E00E94AE
:101B6000D61B8CE497E0B8010E94AB0B0E94770C67
:101B70008E01065F1F4FC80162E475E00E94291CB8
:101B80008CE497E0B8010E94AB0B0E94770C8FE7C2
:101B900099E06EEA73E00E9404428FE799E06BEBF4
:101BA00073E00E9404428FE799E06EEC73E00E94BC
:101BB00058408E010D5E1F4F64E670E080E090E0BB
:101BC0000E94164C0E94580D8FE799E06FED73E06C
:101BD0000E9404426091460570914705C80144E1A6
:101BE00056E028E20E944B1A83EC96E0B8010E946E
:101BF000F51E0E943D0C68EE73E080E090E00E94CC
:101C0000164CDACF08950895FC0182810895FC01F5
:101C100062830895FC0183810895FC016383089524
:101C2000FC0184810895FC0164830895FC01858191
:101C30000895FC0165830895FC0186810895FC01E7
:101C400066830895FC0187810895FC0167830895E8
:101C5000FC018085811181E00895FC018085089553
:101C6000FC0160870895EF92FF920F931F938C0100
:101C70007B010E94040E682FC7010E94070EC80155
:101C80000E94220E682FC7010E94250EC8010E94E3
:101C9000160E682FC7010E94190EC8010E942D0E52
:101CA000682FC7010E94300EC8010E941C0E682FC9
:101CB000C7010E941F0EC8010E940A0E682FC701AB
:101CC0000E940D0EC8010E94100E682FC7010E94CD
:101CD000130E1F910F91FF90EF9008958BE00895E0
:101CE0009C01255F3F4FC90108959C01255F3F4F2F
:101CF000C9010895FC01A081B18114962D913C91F8
:101D00001597F90109958E5F089582E008959C0169
:101D1000255F3F4FC901089588E00895FC01A08127
:101D2000B18114962D913C911597F90109958E5F1B
:101D3000089582E0089588E008950E941C0E8E5058
:101D400008959C01265F3F4FC9010895FC018FEC67
:101D500095E09183808308950F931F938C010E94D7
:101D6000A60E89E995E0F801918380831F910F9178
:101D700008950F931F938C010E94A60E89E995E0A8
:101D8000F801918380831F910F9108950F931F9302
:101D90008C010E94B90E87ED95E0F8019183808354
:101DA0001F910F9108950F931F938C010E94B90EFC
:101DB00087ED95E0F801918380831F910F9108953D
:101DC0000F931F938C010E94D30E8DEA95E0F801CA
:101DD000918380831F910F9108950F931F938C011E
:101DE0000E94D30E8DEA95E0F801918380831F91C4
:101DF0000F9108950F931F938C010E94B90E8FE8E5
:101E000095E0F801918380831F910F9108950F93BE
:101E10001F938C010E94B90E8FE895E0F801918321
:101E200080831F910F910895FC018FEC95E09183C1
:101E30008083089508950895089508950895089554
:101E400008950895089508950E941C0E84500895E1
:101E5000FC01848190E00895FF920F931F938C0101
:101E600002960E94280FF82ED801ED91FC91028075
:101E7000F381E02DC8010995FA94F81A8F2D1F916E
:101E80000F91FF900895FF920F931F938C0102967C
:101E90000E94280FF82ED801ED91FC910280F38169
:101EA000E02DC8010995FA94F81A8F2D1F910F9112
:101EB000FF900895FC01808191810895CF93DF9375
:101EC000EC010E94240F882319F420E030E006C0C2
:101ED000CE010E945A0F9C012C5F3F4FC901DF9138
:101EE000CF9108950E945A0FFC01838108950E94AA
:101EF000720F90E0882309F491E0892F08950E94E1
:101F00005A0F9C012F5F3F4FC90108950E945A0F3D
:101F1000FC01808108950E945A0FFC018081089580
:101F2000EF92FF920F931F937C0102960E945A0F2B
:101F30008C01D701ED91FC910280F381E02DC70166
:101F40000995080F111DC8011F910F91FF90EF9087
:101F50000895CF92DF92EF92FF920F931F937C012F
:101F60006B0102960E945A0F8C01D701ED91FC91F2
:101F70000280F381E02DC70109950C0D1D1D080F8E
:101F8000111DF80180811F910F91FF90EF90DF905C
:101F9000CF9008950E945A0FFC01318520E0828580
:101FA000280F311DC9010895CF93DF93EC010E94E2
:101FB0009D0E882319F420E030E006C0CE010E9477
:101FC0005A0F9C01225F3F4FC901DF91CF910895C5
:101FD0000E945A0FFC01858508950E94E80F90E049
:101FE000882309F491E0892F08950E945A0F9C01DB
:101FF000255F3F4FC9010895EF92FF920F931F9302
:102000008C0102960E945A0F7C01D801ED91FC913F
:102010000480F581E02DC8010995E80EF11CF70157
:1020200081811F910F91FF90EF9008950E94FC0F06
:1020300090E09695879596958795817008950E9472
:10204000FC0F90E09695879581700895EF92FF922E
:102050000F931F938C0102960E945A0F7C01D801A6
:10206000ED91FC910480F581E02DC8010995E80E01
:10207000F11CF70180811F910F91FF90EF9008955F
:102080000E945A0FFC01818108950E94401090E047
:10209000882309F491E0892F089502960E945A0F2F
:1020A000FC018181308120E0280F311DC901089594
:1020B000FF920F931F93CF93DF93EC01F62E0296BE
:1020C00027E0261788F00E945A0F8C01CE010E944B
:1020D0007A0E080F111DF801848190E002C09595D9
:1020E0008795FA94E2F70AC00E945A0F8C01CE013C
:1020F0000E947A0E080F111DF80183818170DF9113
:10210000CF911F910F91FF900895FF920F931F930E
:10211000CF93DF93EC01F62E029627E0261788F086
:102120000E945A0F8C01CE010E947A0E080F111DD9
:10213000F801848190E002C095958795FA94E2F7C2
:102140000AC00E945A0F8C01CE010E947A0E080F1D
:10215000111DF80183818170DF91CF911F910F9143
:10216000FF900895CF92DF92EF92FF920F931F930B
:102170006C01E62E02960E945A0F8C01C6010E9445
:102180007A0E080F111DF801818190E0FF24089458
:10219000E11CF11C02C095958795EA94E2F78170E5
:1021A0001F910F91FF90EF90DF90CF900895EF92E5
:1021B000FF920F931F93CF93DF93EC0142E0E42E45
:1021C000F12CE80EF91EC7010E945A0F8C01CE01B6
:1021D0000E947A0E080F111DF801818180FD0CC04C
:1021E000C7010E945A0F8C01CE010E947A0E080F7F
:1021F000111DF8018281811181E0DF91CF911F9142
:102200000F91FF90EF9008958F929F92AF92BF929F
:10221000CF92DF92EF92FF920F931F93CF93DF93B2
:102220004C01162FF42E0E94D710882319F4E3E0F6
:10223000EE2E08C08F2D90E00196880F991F63E065
:10224000E62EE80ECC2400E0C401602F0E94B210FC
:10225000882311F082E0C80E0F5F0630A9F7C0E0B6
:10226000D0E0012F10E009C0C4016C2F0E94B21011
:10227000882311F0E2E0EE0E2196C017D107A4F3F7
:1022800052E0A52EB12CA80CB91CC5010E945A0F12
:102290008C01C4010E947A0ECF9C902D1124E90E6E
:1022A000CE2CDD240C0D1D1D080F111DF801F08032
:1022B000EE24C5010E945A0F8C01C4010E947A0EBF
:1022C0000C0D1D1D080F111DF8018181E80EF11C78
:1022D000C701DF91CF911F910F91FF90EF90DF9099
:1022E000CF90BF90AF909F908F900895EF92FF9204
:1022F0000F931F937C0102960E945A0F8C01C70115
:102300000E947A0E90E0080F111DF80181818E77EE
:1023100009F091E0892F1F910F91FF90EF900895A0
:10232000EF92FF920F931F937C0102960E945A0F27
:102330008C01C7010E947A0E080F111DF8018081DF
:102340001F910F91FF90EF90089502960E945A0FEF
:10235000FC018181308120E0280F311DC9010895E1
:102360001F93162F0296683058F40E945A0FFC01F2
:10237000808990E002C0959587951A95E2F70EC086
:102380000E945A0FFC01278530E0812F90E00897CA
:1023900002C0359527958A95E2F7822F81701F91AB
:1023A000089502960E945A0FFC0186858F78089541
:1023B0001F93162F0E94D11190E002C0959587952A
:1023C0001A95E2F781701F9108950E94D111811131
:1023D00081E0089502960E945A0FFC0185850895B8
:1023E00002960E945A0FFC0184858C7108951F93F8
:1023F000162F683048F40E94EA1190E002C09595CB
:1024000087951A95E2F70CC00E94F01190E0212FF9
:1024100030E02850304002C0959587952A95E2F724
:1024200081701F910895CF93DF93EC010E94F0110A
:10243000882321F4CE010E94EA11811181E0DF910D
:10244000CF910895CF92DF92FF920F931F93CF9376
:10245000DF938C01D62E0E941312882319F0A1E17C
:10246000FA2E02C0FFE0FF2EC0E0D0E0CD2CDD242C
:1024700009C0C8016C2F0E94D811882311F082E096
:10248000F80E2196CC15DD05A4F3C80102960E9432
:102490005A0FFC01EF0DF11D8181308120E0280FE2
:1024A000311DC901DF91CF911F910F91FF90DF90F6
:1024B000CF90089502960E945A0FFC0182850895DC
:1024C00002960E945A0FFC01308520E08185280F7A
:1024D000311DC90108950E945A0FFC01858108959C
:1024E0000E945A0FFC01848108950E94701290E0AE
:1024F000882309F491E0892F08950E945A0FFC0166
:10250000838108950E945A0FFC01318120E082816D
:10251000280F311DC9010895FC017183608308955E
:10252000EF92FF920F931F938C017B010E945A0F31
:10253000BC01C7010E948C12C801B7010E94330E72
:102540001F910F91FF90EF900895EF92FF920F93DC
:102550001F938C017B010E945A0FBC01C7010E948E
:102560008C12C801B7010E94330E1F910F91FF908A
:10257000EF900895EF92FF920F931F938C017B01D0
:102580000E945A0FBC01C7010E948C12C801B701FA
:102590000E94330E1F910F91FF90EF900895EF92DC
:1025A000FF920F931F938C017B010E945A0FBC0175
:1025B000C7010E948C12C801B7010E94330E1F91FF
:1025C0000F91FF90EF900895EF92FF920F931F935A
:1025D0008C017B010E945A0FBC01C7010E948C1222
:1025E000C801B7010E94330E1F910F91FF90EF9029
:1025F0000895EF92FF920F931F938C017B010E942D
:102600005A0FBC01C7010E948C12C801B7010E9479
:10261000330E1F910F91FF90EF900895FC011782E8
:102620001086158208950F931F93CF93DF93EC01CB
:102630000E940E131A821B821C821D821E82188623
:1026400000E010E0CE010E945A0FFC01E00FF11FE4
:1026500010820F5F1F4F0E361105A1F7DF91CF914A
:102660001F910F910895FC01128611860E94131389
:1026700008950F931F938C01FC0112861186148616
:1026800015860E940E13C801025F1F4FB8010E94F9
:102690008C1200591F4FF8011082129212921F9152
:1026A0000F9108950F931F938C01FC0112861186E0
:1026B000148615860E940E13C801025F1F4FB801D1
:1026C0000E948C1200591F4FF80110821292129230
:1026D0001F910F910895FC0185858F5F8587882361
:1026E00011F481E0858785850895FC01E458FF4F4A
:1026F000A081B181ED91FC9111970680F781E02DC9
:10270000CD01099520E0892B09F021E0822F089561
:10271000FC01E458FF4FA081B181ED91FC9111972C
:102720000084F185E02DCD0109950895FC01E45860
:10273000FF4FA081B181ED91FC9111970484F58543
:10274000E02DCD0109950895FC01E458FF4F6193F8
:102750007193108208950895EF92FF920F931F9343
:10276000F82EE92E8B010E940A0E682FC8010E94E4
:102770000D0E8F2D9E2D0E94100E682FC8010E94F5
:10278000130E8F2D9E2D0E94040E682FC8010E94EB
:10279000070E8F2D9E2D0E941C0E682FC8010E94CF
:1027A0001F0E8F2D9E2D0E945A0FBC01C8010E9442
:1027B0008C121F910F91FF90EF900895CF92DF92AE
:1027C000EF92FF920F931F93CF93DF93EC01F82EBC
:1027D000ED2E0E94220E882331F4CE010E94280E95
:1027E000882309F491C0CE010E9433138DC0CE011D
:1027F0000E948813982F8B878A858823A9F09E379B
:1028000021F48F2D9E2D63E044C09D3769F4CE01E5
:102810000E947513882331F0CE010E9488138D2504
:102820008B8702C0C98674C08985882321F08B8577
:102830008D258B8719868A85833020F08C859B8532
:10284000890F8C878A85813069F0813028F0823049
:1028500079F08330C9F412C08B858E3709F058C0E7
:10286000CA8656C08F2D9E2D6B850E940D0E48C0C6
:102870008F2D9E2D6B850E94130E42C08F2D9E2D95
:102880006B850E94070E3CC08F3630F08F2D9E2D39
:1028900062E00E94300E42C0082F10E08F2D9E2D66
:1028A0000E94280F039608171907F9F48C858F3FAB
:1028B00071F48F2D9E2D6B850E94190E8F2D9E2DEC
:1028C00061E00E94250E8F2D9E2D60E003C08F2DAC
:1028D0009E2D61E00E94300E6A8564508F2D9E2DE2
:1028E0000E941F0E1A861C8619C08F2D9E2D0E94D5
:1028F0005A0F080F191F045010408B85F801808370
:102900008A858F5F8A8704C0CC24C394B0E2DB2E13
:10291000CE010E947513882309F069CFDF91CF9112
:102920001F910F91FF90EF90DF90CF9008950F933C
:102930001F93CF93DF938C010E94AB13EC01CE0168
:102940000E94220E882349F4CE010E94280E88237B
:1029500021F4C8010E94DE13F2CFDF91CF911F91C5
:102960000F910895FC0187EC95E091838083628349
:1029700043830895FC0187EC95E091838083628313
:1029800043830895FC0163830895FC0183810895C6
:10299000FC0182810895FC0162830895CF92DF9249
:1029A000EF92FF920F937C0169010E94B2148FEBAA
:1029B00095E0F70191838083D582C48206830F91CD
:1029C000FF90EF90DF90CF900895CF92DF92EF923B
:1029D000FF920F937C0169010E94B2148FEB95E086
:1029E000F70191838083D582C48206830F91FF9083
:1029F000EF90DF90CF900895FC0184819581089538
:102A0000FC01758364830895FC0186810895FC01AF
:102A10006683089508950895089508950895089582
:102A20000F931F93DF93CF93CDB7DEB728970FB6E1
:102A3000F894DEBF0FBECDBF8C010E94D30E83EA97
:102A400095E0F80191838083D8011B96FE013196B1
:102A500088E001900D928150E1F728960FB6F89426
:102A6000DEBF0FBECDBFCF91DF911F910F910895B3
:102A70000F931F93DF93CF93CDB7DEB728970FB691
:102A8000F894DEBF0FBECDBF8C010E94D30E83EA47
:102A900095E0F80191838083D8011B96FE01319661
:102AA00088E001900D928150E1F728960FB6F894D6
:102AB000DEBF0FBECDBFCF91DF911F910F91089563
:102AC0000F931F93DF93CF93CDB7DEB728970FB641
:102AD000F894DEBF0FBECDBF8C010E94B90E85E811
:102AE00095E0F80191838083D8011B96FE01319611
:102AF00088E001900D928150E1F728960FB6F89486
:102B0000DEBF0FBECDBFCF91DF911F910F91089512
:102B10000F931F93DF93CF93CDB7DEB728970FB6F0
:102B2000F894DEBF0FBECDBF8C010E94B90E85E8C0
:102B300095E0F80191838083D8011B96FE013196C0
:102B400088E001900D928150E1F728960FB6F89435
:102B5000DEBF0FBECDBFCF91DF911F910F910895C2
:102B60000F931F93DF93CF93CDB7DEB728970FB6A0
:102B7000F894DEBF0FBECDBF8C010E94A60E87EB7E
:102B800095E0F80191838083D8011B96FE01319670
:102B900088E001900D928150E1F728960FB6F894E5
:102BA000DEBF0FBECDBFCF91DF911F910F91089572
:102BB0000F931F93DF93CF93CDB7DEB728970FB650
:102BC000F894DEBF0FBECDBF8C010E94A60E87EB2E
:102BD00095E0F80191838083D8011B96FE01319620
:102BE00088E001900D928150E1F728960FB6F89495
:102BF000DEBF0FBECDBFCF91DF911F910F91089522
:102C00000F931F938C010E94D81581EE95E0F80177
:102C1000918380831F910F9108950F931F938C01CF
:102C20000E94D81581EE95E0F801918380831F9171
:102C30000F9108950F931F93FC014083518362838A
:102C4000738304831583268337831F910F9108951F
:102C50000F931F93FC01408351836283738304832A
:102C60001583268337831F910F910895FC0160819E
:102C70007181828193810895FC0140835183628335
:102C800073830895FC01648175818681978108951D
:102C9000FC0144835583668377830895EF92FF9206
:102CA0000F931F937C01162F072F0E945A0FBC0110
:102CB000812F902F0E948C12C701612F702F0E94CC
:102CC000330E812F902F0E94A10E8C01C7010E940C
:102CD0005A0FFC01418150E060E070E0742F6627DC
:102CE00055274427828190E0A0E0B0E0DC019927DD
:102CF0008827480F591F6A1F7B1F8481480F511D69
:102D0000611D711D938180E0A0E0B0E0480F591F64
:102D10006A1F7B1FC8010E943C16C7010E945A0F00
:102D2000FC01458150E060E070E0742F6627552774
:102D30004427868190E0A0E0B0E0DC019927882755
:102D4000480F591F6A1F7B1F8085480F511D611D49
:102D5000711D978180E0A0E0B0E0480F591F6A1F05
:102D60007B1FC8010E9448161F910F91FF90EF90A2
:102D70000895EF92FF920F931F937C018B010E94A5
:102D80005A0FBC01C8010E948C12C701B8010E94F1
:102D9000330E02501040C8010E94750E8C01C7010D
:102DA0000E945A0FFC018381408150E060E070E096
:102DB000742F662755274427480F511D611D711D2B
:102DC000818190E0A0E0B0E0DC0199278827480FDE
:102DD000591F6A1F7B1F928180E0A0E0B0E0480F7E
:102DE000591F6A1F7B1FC8010E943C16C7010E9421
:102DF0005A0FFC01448150E060E070E0742F6627B8
:102E000055274427858190E0A0E0B0E0DC019927B8
:102E10008827480F591F6A1F7B1F8781480F511D44
:102E2000611D711D968180E0A0E0B0E0480F591F40
:102E30006A1F7B1FC8010E9448161F910F91FF90C7
:102E4000EF900895EF92FF920F931F937C018B01F7
:102E50000E945A0FBC01C8010E948C12C701B80120
:102E60000E94330E02501040C8010E94870E8C0150
:102E7000C7010E945A0FFC018381408150E060E04D
:102E800070E0742F662755274427480F511D611D98
:102E9000711D818190E0A0E0B0E0DC0199278827D6
:102EA000480F591F6A1F7B1F928180E0A0E0B0E0AD
:102EB000480F591F6A1F7B1FC8010E943C16C7019B
:102EC0000E945A0FFC01448150E060E070E0742FD2
:102ED000662755274427858190E0A0E0B0E0DC011B
:102EE00099278827480F591F6A1F7B1F8781480F22
:102EF000511D611D711D968180E0A0E0B0E0480F7A
:102F0000591F6A1F7B1FC8010E9448161F910F910D
:102F1000FF90EF900895EF92FF920F931F937C0123
:102F20008B010E945A0FBC01C8010E948C12C7017C
:102F3000B8010E94330E02501040C8010E94700E6A
:102F40008C01C7010E945A0FFC018381408150E02F
:102F500060E070E0742F662755274427480F511D05
:102F6000611D711D818190E0A0E0B0E0DC01992736
:102F70008827480F591F6A1F7B1F928180E0A0E0BD
:102F8000B0E0480F591F6A1F7B1FC8010E943C1602
:102F9000C7010E945A0FFC01448150E060E070E0DC
:102FA000742F662755274427858190E0A0E0B0E084
:102FB000DC0199278827480F591F6A1F7B1F8781CB
:102FC000480F511D611D711D968180E0A0E0B0E0A9
:102FD000480F591F6A1F7B1FC8010E9448161F9186
:102FE0000F91FF90EF900895EF92FF920F931F9330
:102FF0007C018B010E945A0FBC01C8010E948C12F7
:10300000C701B8010E94330E02501040C8010E944F
:10301000700E8C01C7010E945A0FFC018381408110
:1030200050E060E070E0742F662755274427480F72
:10303000511D611D711D818190E0A0E0B0E0DC01B7
:1030400099278827480F591F6A1F7B1F928180E0AC
:10305000A0E0B0E0480F591F6A1F7B1FC8010E9403
:103060003C16C7010E945A0FFC01448150E060E009
:1030700070E0742F662755274427858190E0A0E0F3
:10308000B0E0DC0199278827480F591F6A1F7B1F72
:103090008781480F511D611D711D968180E0A0E060
:1030A000B0E0480F591F6A1F7B1FC8010E944816D5
:1030B0001F910F91FF90EF900895EF92FF920F9361
:1030C0007C0160E141E020E030E000E00E94CE14AD
:1030D0008DE795E0F701918380830F91FF90EF904A
:1030E0000895EF92FF920F937C0160E141E020E0B0
:1030F00030E000E00E94CE148DE795E0F701918367
:1031000080830F91FF90EF9008957F928F929F920E
:10311000AF92BF92CF92DF92EF92FF920F931F93E5
:10312000CF93DF93EC01162FD72E4A01B22E702ECB
:1031300097010C2D4A2D60E10E94CE148DE795E099
:1031400099838883DE011796212F3D2DC901FC014B
:1031500088E001900D928150E1F7988A8F86B98AB4
:103160007A8ADF91CF911F910F91FF90EF90DF90BE
:10317000CF90BF90AF909F908F907F9008957F9257
:103180008F929F92AF92BF92CF92DF92EF92FF9277
:103190000F931F93CF93DF93EC01162FD72E4A0185
:1031A000B22E702E97010C2D4A2D60E10E94CE1494
:1031B0008DE795E099838883DE011796212F3D2DB9
:1031C000C901FC0188E001900D928150E1F7988AD5
:1031D0008F86B98A7A8ADF91CF911F910F91FF90E4
:1031E000EF90DF90CF90BF90AF909F908F907F90A7
:1031F0000895FF920F931F93CF93DF93EC01162F47
:10320000F72EFA01022F60E141E09F010E94CE14E7
:103210008DE795E099838883DE011796212F3F2D56
:10322000C901FC0188E001900D928150E1F78EEF19
:103230009FEF988B8F87198A1A8ADF91CF911F9100
:103240000F91FF900895FF920F931F93CF93DF93F9
:10325000EC01162FF72EFA01022F60E141E09F01E9
:103260000E94CE148DE795E099838883DE0117963E
:10327000212F3F2DC901FC0188E001900D92815062
:10328000E1F78EEF9FEF988B8F87198A1A8ADF916B
:10329000CF911F910F91FF9008951F93FC01162F5E
:1032A000662321F407960E94361617C0613021F478
:1032B00007960E9436161BC0623021F407960E94C2
:1032C00036161EC0633021F407960E9436163AC0A7
:1032D000643041F407960E944216692F77278827A9
:1032E000992730C0653039F407960E944216BC0118
:1032F0008827992727C0663041F407960E94421616
:10330000672F782F892F99271DC0673021F40796E2
:103310000E94421617C0683011F4608913C06930EA
:1033200011F467850FC06A3011F461890BC06B30EE
:1033300011F4628907C00E94FC14FC01E10FF11D29
:103340003C976081862F1F9108950E940415845F29
:1033500008959C01295F3F4FC9010895FC018785AD
:1033600090890895FC0181890895FC01828908955E
:10337000DC011796FB0188E001900D928150E1F786
:103380000895FC01708B67870895FC01618B089597
:10339000FC01628B0895EF92FF920F937C0161E034
:1033A00041E020E030E000E00E94CE1485E795E0A7
:1033B000F701918380830F91FF90EF900895EF9232
:1033C000FF920F937C0161E041E020E030E000E0FB
:1033D0000E94CE1485E795E0F701918380830F91D9
:1033E000FF90EF900895AF92BF92CF92DF92EF924D
:1033F0000F931F936C015B01142F4E2D61E00E940F
:10340000CE1485E795E0F60191838083B086A7828C
:1034100011871F910F91EF90DF90CF90BF90AF90E9
:103420000895AF92BF92CF92DF92EF920F931F93C6
:103430006C015B01142F4E2D61E00E94CE1485E7D4
:1034400095E0F60191838083B086A78211871F9152
:103450000F91EF90DF90CF90BF90AF900895CF92F3
:10346000DF92EF92FF920F937C016B01FA01022F22
:1034700061E041E09F010E94CE1485E795E0F701ED
:1034800091838083D086C78211860F91FF90EF9041
:10349000DF90CF900895CF92DF92EF92FF920F933B
:1034A0007C016B01FA01022F61E041E09F010E9463
:1034B000CE1485E795E0F70191838083D086C7829B
:1034C00011860F91FF90EF90DF90CF9008951F939A
:1034D000FC01162F662311F480850FC0613011F4B2
:1034E00087810BC0623011F4818507C00E94FC14F3
:1034F000FC01E10FF11D339780811F9108950E9417
:1035000004158D5F0895FC01878190850895FC0165
:10351000708767830895FC0181850895FC016187A8
:103520000895EF92FF920F937C0160E041E020E06C
:1035300030E000E00E94CE148DE695E0F701918323
:1035400080830F91FF90EF900895EF92FF920F9379
:103550007C0160E041E020E030E000E00E94CE1419
:103560008DE695E0F701918380830F91FF90EF90B6
:103570000895DF92EF92FF920F931F93CF93DF9303
:10358000EC01162FF72ED42E4E2D60E00E94CE14A3
:103590008DE695E099838883DE011796212F3F2DD4
:1035A000C901FC0188E001900D928150E1F7DF86AE
:1035B000DF91CF911F910F91FF90EF90DF900895D1
:1035C000DF92EF92FF920F931F93CF93DF93EC0163
:1035D000162FF72ED42E4E2D60E00E94CE148DE6CD
:1035E00095E099838883DE011796212F3F2DC9012D
:1035F000FC0188E001900D928150E1F7DF86DF91B8
:10360000CF911F910F91FF90EF90DF900895FF925F
:103610000F931F93CF93DF93EC01162FF72EFA0130
:10362000022F60E041E09F010E94CE148DE695E0FC
:1036300099838883DE011796212F3F2DC901FC0154
:1036400088E001900D928150E1F71F86DF91CF91C4
:103650001F910F91FF900895FF920F931F93CF93A7
:10366000DF93EC01162FF72EFA01022F60E041E004
:103670009F010E94CE148DE695E099838883DE0138
:103680001796212F3F2DC901FC0188E001900D9272
:103690008150E1F71F86DF91CF911F910F91FF902D
:1036A00008951F93FC01162F662321F407960E94AC
:1036B000361617C0613021F407960E9436161BC0DB
:1036C000623021F407960E9436161EC0633021F442
:1036D00007960E9436162EC0643041F407960E9469
:1036E0004216692F77278827992724C0653039F437
:1036F00007960E944216BC01882799271BC0663096
:1037000041F407960E944216672F782F892F992738
:1037100011C0673021F407960E9442160BC0683032
:1037200011F4678507C00E94FC14FC01E10FF11D34
:1037300039976081862F1F9108950E940415875F35
:1037400008959C01295F3F4FC9010895DC01179638
:10375000FB0188E001900D928150E1F70895FC0192
:1037600087850895FC0167870895BF92CF92DF9205
:10377000EF92FF920F931F938C017B016A01B22E8F
:1037800068E041E00E94B21485E695E0F80191837B
:103790008083F582E482D782C682B0861F910F9122
:1037A000FF90EF90DF90CF90BF900895BF92CF929F
:1037B000DF92EF92FF920F931F938C017B016A01BE
:1037C000B22E68E041E00E94B21485E695E0F8016F
:1037D00091838083F582E482D782C682B0861F916E
:1037E0000F91FF90EF90DF90CF90BF900895FC0174
:1037F000848195810895FC01868197810895FC015B
:1038000080850895FC01758364830895FC017783A6
:1038100066830895FC0160870895FC01662329F4FE
:103820000480F581E02D80810895613029F40480C1
:10383000F581E02D818108950680F781E02DE60F66
:10384000F11D329780810895FC011782168210863F
:103850000895EF92FF920F931F938C017B0168E014
:1038600041E00E94B21485E695E0F80191838083DF
:10387000F582E482C8010E94241C1F910F91FF90E1
:10388000EF900895EF92FF920F931F938C017B01AD
:1038900068E041E00E94B21485E695E0F80191836A
:1038A0008083F582E482C8010E94241C1F910F913D
:1038B000FF90EF9008950F931F938C0168E041E013
:1038C0000E94B21485E695E0F80191838083158209
:1038D0001482C8010E94241C1F910F9108950F9318
:1038E0001F938C0168E041E00E94B21485E695E0E8
:1038F000F8019183808315821482C8010E94241CE0
:103900001F910F910895FC0180858E5F08950F939C
:103910001F938C0160E070E040E050E020E00E94E6
:10392000B51B8DE595E0F80191838083128A118A99
:10393000138AC80167E10E94CB141F910F9108956B
:103940000F931F938C0160E070E040E050E020E0B6
:103950000E94B51B8DE595E0F80191838083128A62
:10396000118A138AC80167E10E94CB141F910F913D
:103970000895EF92FF920F93CF93DF93EC017B01B9
:10398000BA01A901202F0E94B51B8DE595E099830E
:103990008883DE011996EFE5F7E088E001900D924B
:1039A0008150E1F7FA8AE98A81E08B8BCE0167E1E9
:1039B0000E94CB14DF91CF910F91FF90EF9008956B
:1039C000EF92FF920F93CF93DF93EC017B01BA014B
:1039D000A901202F0E94B51B8DE595E0998388836E
:1039E000DE011996EFE5F7E088E001900D92815035
:1039F000E1F7FA8AE98A81E08B8BCE0167E10E94C8
:103A0000CB14DF91CF910F91FF90EF9008950F931A
:103A10001F93CF93DF93EC018B01BA0140E050E09C
:103A200020E00E94B51B8DE595E099838883DE0137
:103A30001996EFE5F7E088E001900D928150E1F7EB
:103A40001A8B098B1B8ACE0167E10E94CB14DF9190
:103A5000CF911F910F9108950F931F93CF93DF93F1
:103A6000EC018B01BA0140E050E020E00E94B51B60
:103A70008DE595E099838883DE011996EFE5F7E0FF
:103A800088E001900D928150E1F71A8B098B1B8A17
:103A9000CE0167E10E94CB14DF91CF911F910F916E
:103AA0000895FF920F931F93CF93DF93EC01162F8E
:103AB000F72EBA01A901202F0E94B51B8DE595E0D4
:103AC00099838883DE011996212F3F2DC901FC01BE
:103AD00088E001900D928150E1F78EEF9FEF9A8B75
:103AE000898B81E08B8BCE0167E10E94CB14DF9143
:103AF000CF911F910F91FF900895FF920F931F9305
:103B0000CF93DF93EC01162FF72EBA01A901202FD6
:103B10000E94B51B8DE595E099838883DE01199697
:103B2000212F3F2DC901FC0188E001900D928150A9
:103B3000E1F78EEF9FEF9A8B898B81E08B8BCE0123
:103B400067E10E94CB14DF91CF911F910F91FF90FD
:103B500008950F931F93CF93DF93EC01162F072F38
:103B6000BA0140E050E020E00E94B51B8DE595E0F1
:103B700099838883DE011996212F302FC901FC011A
:103B800088E001900D928150E1F78EEF9FEF9A8BC4
:103B9000898B1B8ACE0167E10E94CB14DF91CF9104
:103BA0001F910F9108950F931F93CF93DF93EC0113
:103BB000162F072FBA0140E050E020E00E94B51B0D
:103BC0008DE595E099838883DE011996212F302FAA
:103BD000C901FC0188E001900D928150E1F78EEF60
:103BE0009FEF9A8B898B1B8ACE0167E10E94CB14D1
:103BF000DF91CF911F910F910895FC0181899289E6
:103C00000895FC01728B618B08959C01275F3F4FE3
:103C1000C9010895DC011996FB0188E001900D921D
:103C20008150E1F70895FC0183890895FC01638BBD
:103C300008951F93FC01162F662321F409960E9414
:103C4000361617C0613021F409960E9436161BC043
:103C5000623021F409960E9436161EC0633021F4AA
:103C600009960E94361648C0643041F409960E94B5
:103C70004216692F7727882799273EC0653039F487
:103C800009960E944216BC018827992735C06630E4
:103C900041F409960E944216672F782F892F9927A1
:103CA0002BC0673021F409960E94421625C0683067
:103CB00011F4628921C0693011F461891DC06A3034
:103CC00039F48389882311F460E016C062E014C0DF
:103CD0006B3021F40E94F71BFC010DC06C3029F4FD
:103CE0000E94F71BFC01618107C00E94FB1BFC01C5
:103CF000E10FF11D3D976081862F1F9108950E946D
:103D0000FF1B835F08950F931F938FE597E040E0BB
:103D100050E060E070E00FEF1FEF20E030E00E9425
:103D200028161F910F910895AF92BF92CF92DF9204
:103D3000EF92FF920F931F93CF93DF935C016B0180
:103D400077FD1EC00E94E24B7B018C0112C0C501B1
:103D50000E94DE13C5010E94AB13EC010E94220EEB
:103D6000882311F081E00DC0CE010E94280E882327
:103D700039F40E94E24B6E197F096C157D053CF306
:103D800080E0DF91CF911F910F91FF90EF90DF9036
:103D9000CF90BF90AF900895FC01E458FF4F808111
:103DA000918140E050E00E94424108951F93CF93DB
:103DB000DF93EC01162F442381F0862F8D5782303C
:103DC00020F0613111F0633141F4CE016DE70E94C2
:103DD000CC1E60E26127CE0102C0CE01612F0E949D
:103DE000CC1EDF91CF911F910895CF92DF92FF9269
:103DF0000F931F93CF93DF936C01EB016EE740E0CD
:103E00000E94D61EE881F9810280F381E02DCE0167
:103E10000995082FE881F9810280F381E02DCE0118
:103E20000995F82E10E00E5F1F4FC601612F41E08B
:103E30000E94D61E82E0F80EC6016F2D41E00E945E
:103E4000D61ECE010E94C814682FC60141E00E9410
:103E5000D61ECE010E94C514682FC60141E00E9403
:103E6000D61ECE010E94C814F82ECE010E94C514A1
:103E7000F80E00E010E018C0E881F9810190F081AF
:103E8000E02DCE01602F0995682FC60141E00E9408
:103E9000D61EE881F9810190F081E02DCE01602FDE
:103EA0000995F80E0F5F1F4FE881F9810280F381B9
:103EB000E02DCE01099590E008171907ECF2F09477
:103EC000C6016F2D41E00E94D61EDF91CF911F9158
:103ED0000F91FF90DF90CF900895FC01E458FF4FC1
:103EE000808191810E94603E0895FC0111821082C0
:103EF000138214821582168217821086118612860A
:103F00000895FC0111821082138214821582168298
:103F1000178210861186128608954F925F926F92D3
:103F20007F928F929F92BF92CF92DF92EF92FF92F9
:103F30000F931F93CF93DF932B013A01F22EE32EC1
:103F4000480180914A058F5F80934A05882319F4C0
:103F500081E080934A058FE799E06EE770E040E0EA
:103F600050E00E948A418FE799E060E070E040E015
:103F700050E00E948A41B301625F7F4F8FE799E072
:103F800040E050E00E948A418FE799E060E170E0F4
:103F900040E050E00E948A418FE799E060914A0535
:103FA00040E050E00E9442419FEEB92E80914A05C8
:103FB000B81A2F2D3E2DC9016C01EE24FF2426C016
:103FC000F60120813181428153810C2E04C0559528
:103FD0004795379527950A94D2F7122F8FE799E0E6
:103FE000622F40E050E00E944241B11A2897FFEF53
:103FF000C83FDF0729F70894E11CF11C84E090E03A
:10400000C80ED91E92E0E916F10419F0C8E1D0E01B
:10401000D7CF692D772767FD7A95062F8FE799E02F
:1040200040E050E00E944241B01A0B2D8FE799E02A
:10403000682D40E050E00E94424108198FE799E066
:1040400060E070E040E050E00E948A418FE799E034
:1040500060E070E040E050E00E948A41C0E0D0E0C3
:104060000DC0F201EC0FFD1F10818FE799E0612F69
:1040700040E050E00E944241011B2196C615D70541
:1040800084F38FE799E0602F40E050E00E944241C6
:1040900081E0DF91CF911F910F91FF90EF90DF9022
:1040A000CF90BF909F908F907F906F905F904F9038
:1040B00008954F925F926F927F928F929F92AF92EC
:1040C000BF92CF92DF92EF92FF920F931F93CF9305
:1040D000DF937C012B018A010E94E24B5B016C01A2
:1040E0003801882499248FE799E00E94E33E18164E
:1040F00019060CF071C18FE799E00E940E3F182F4E
:104100000E94E24B6A197B098C099D0966167706A5
:104110008806990608F460C11E3729F70E94E24B11
:104120005B016C010CC00E94E24B6A197B098C098F
:104130009D09661677068806990608F44DC18FE733
:1041400099E00E94E33E029774F38FE799E00E94A2
:10415000E33E029784F08FE799E00E940E3F182F0C
:104160008FE799E00E940E3F312F20E0280F391F82
:10417000F70131832083F701808191811816190698
:104180000CF028C18AE5F70182830E94E24B5B01B3
:104190006C010CC00E94E24B6A197B098C099D09D5
:1041A000661677068806990608F416C18FE799E027
:1041B0000E94E33E181619066CF78FE799E00E94FB
:1041C000E33E181619060CF007C18FE799E00E942C
:1041D0000E3FF701828313821482158216821782A2
:1041E0001086118612860E94E24B5B016C010CC0A6
:1041F0000E94E24B6A197B098C099D0966167706B5
:104200008806990608F4E8C08FE799E00E94E33E2B
:10421000089774F38FE799E00E94E33E08970CF447
:10422000DBC000E010E0C8E1D0E08FE799E00E9439
:104230000E3F282F30E040E050E004301105B4F488
:104240000C2E04C0220F331F441F551F0A94D2F7AF
:10425000F70183819481A581B681820F931FA41FEA
:10426000B51F83839483A583B68317C0A0960C2EB5
:1042700004C0220F331F441F551F0A94D2F7A09782
:10428000F70187819085A185B285820F931FA41FB6
:10429000B51F87839087A187B2870F5F1F4F28972D
:1042A0000830110511F60E94E24B5B016C010CC055
:1042B0000E94E24B6A197B098C099D0966167706F4
:1042C0008806990608F488C08FE799E00E94E33ECB
:1042D000029774F38FE799E00E940E3F182F8FE743
:1042E00099E00E940E3F312F20E0280F391FF7017F
:1042F000348723870E94E24B5B016C010CC00E9453
:10430000E24B6A197B098C099D09661677068806B7
:10431000990608F461C08FE799E00E94E33E181601
:1043200019066CF78FE799E00E940E3FF701858729
:104330000E94E24B5B016C01F701808191810C9737
:10434000928B818B0BC00E94E24B6A197B098C090E
:104350009D096616770688069906F0F18FE799E0C1
:104360000E94E33EF701208131812C5030408217BA
:1043700093074CF3C0E0D0E009C08FE799E00E94BA
:104380000E3FF201EC0FFD1F80832196F701808123
:1043900091810C97C817D90784F30E94E24B5B0107
:1043A0006C010BC00E94E24B6A197B098C099D09C4
:1043B000661677068806990678F08FE799E00E94DE
:1043C000E33E1816190674F78FE799E00E940E3F36
:1043D000F701808B81E001C080E0DF91CF911F91D8
:1043E0000F91FF90EF90DF90CF90BF90AF909F9094
:1043F0008F907F906F905F904F9008954F925F9253
:104400006F927F928F929F92AF92BF92CF92DF92E4
:10441000EF92FF920F931F93CF93DF936C018B0169
:104420000E94E24B2B013C014801AA24BB248FE7E8
:1044300099E00E94E33E181619060CF08EC18FE732
:1044400099E00E940E3F182F0E94E24B64197509F3
:104450008609970986169706A806B90608F47DC14D
:104460001E3729F70E94E24B7B018C010CC00E9491
:10447000E24B6E197F09800B910B86169706A806F2
:10448000B90608F46AC18FE799E00E94E33E0297FB
:1044900074F38FE799E00E94E33E029784F08FE780
:1044A00099E00E940E3F182F8FE799E00E940E3F7F
:1044B000312F20E0280F391FF60131832083F601C8
:1044C00080819181181619060CF045C18AE5F60124
:1044D00082830E94E24B7B018C010CC00E94E24B64
:1044E0006E197F09800B910B86169706A806B906F0
:1044F00008F433C18FE799E00E94E33E18161906CD
:104500006CF78FE799E00E94E33E181619060CF04D
:1045100024C18FE799E00E940E3FF6018283138247
:1045200014821582168217821086118612860E94C6
:10453000E24B7B018C010CC00E94E24B6E197F099B
:10454000800B910B86169706A806B90608F405C1DC
:104550008FE799E00E94E33E089774F38FE799E0B4
:104560000E94E33E08970CF4F8C0C0E0D0E008E1F8
:1045700010E08FE799E00E940E3F282F30E040E0E6
:1045800050E0C430D105B4F4002E04C0220F331F14
:10459000441F551F0A94D2F7F60183819481A581A7
:1045A000B681820F931FA41FB51F83839483A583B5
:1045B000B68319C0005E1F4F002E04C0220F331FA8
:1045C000441F551F0A94D2F700521040F60187810C
:1045D0009085A185B285820F931FA41FB51F878385
:1045E0009087A187B287219608501040C830D10526
:1045F00009F0BFCF0E94E24B7B018C018FE799E06D
:104600000E94E33E0297D4F30E94E24B6E197F09A9
:10461000800B910B86169706A806B90608F49DC074
:104620008FE799E00E940E3F182F8FE799E00E94D4
:104630000E3F312F20E0280F391FF60134872387E2
:104640000E94E24B7B018C010CC00E94E24B6E1970
:104650007F09800B910B86169706A806B90608F409
:104660007CC08FE799E00E94E33E181619066CF7AC
:104670008FE799E00E940E3FF60185870E94E24B8A
:104680007B018C01F601808191810C97928B818B4B
:104690000CC00E94E24B6E197F09800B910B8616AD
:1046A0009706A806B90608F458C08FE799E00E945B
:1046B000E33EF601208131812C5030408217930770
:1046C00044F380916707882329F0868597850E94A7
:1046D000D90803C081E080936707F601808191814A
:1046E0000C970E942F08F601978786870097A9F1FB
:1046F000C0E0D0E00CC0F601068517850C0F1D1F29
:104700008FE799E00E940E3FF80180832196F60121
:10471000808191810C97C817D9076CF30E94E24BF6
:104720007B018C010BC00E94E24B6E197F09800B4C
:10473000910B86169706A806B90678F08FE799E0E0
:104740000E94E33E1816190674F78FE799E00E945D
:104750000E3FF601808B81E001C080E0DF91CF91B8
:104760001F910F91FF90EF90DF90CF90BF90AF908F
:104770009F908F907F906F905F904F900895FC0175
:10478000118210821382148215821682178210867B
:10479000118612860895FC01118210821382148200
:1047A0001582168217821086118612860895AF929E
:1047B000BF92CF92DF92FF920F931F93CF93DF931D
:1047C0005B016A01E90180914B058F5F80934B0586
:1047D000882319F481E080934B058FE799E06EE719
:1047E00070E040E050E00E948A418FE799E060E08D
:1047F00070E040E050E00E948A41B601625F7F4F66
:104800008FE799E040E050E00E948A418FE799E00D
:1048100060E070E040E050E00E948A418FE799E05C
:1048200060914B0540E050E00E9442410FEE8091C4
:104830004B05081B6D2F772767FD7A95162F8FE79D
:1048400099E040E050E00E944241011B8FE799E06F
:104850006C2F40E050E00E9442410C1B8FE799E032
:1048600060E070E040E050E00E948A41C0E0D0E0AB
:104870000DC0F501EC0FFD1F10818FE799E0612F4E
:1048800040E050E00E944241011B2196CC15DD051D
:1048900084F38FE799E0602F40E050E00E944241AE
:1048A00081E0DF91CF911F910F91FF90DF90CF902A
:1048B000BF90AF9008958F929F92AF92BF92CF9288
:1048C000DF92EF92FF920F931F93CF93DF934B01F1
:1048D0005A01122FF32E80914C058F5F80934C0567
:1048E000882319F481E080934C058FE799E06EE707
:1048F00070E040E050E00E948A418FE799E060E07C
:1049000070E040E050E00E948A41B501625F7F4F55
:104910008FE799E040E050E00E948A418FE799E0FC
:1049200060E070E040E050E00E948A418FE799E04B
:1049300060914C0540E050E00E94424100914C05DE
:104940000095212F3F2DC9016C01EE24FF2426C0C4
:10495000F60120813181428153810C2E04C055958E
:104960004795379527950A94D2F7122F8FE799E04C
:10497000622F40E050E00E944241011B2897FFEF68
:10498000C83FDF0729F70894E11CF11C84E090E0A0
:10499000C80ED91E92E0E916F10419F0C8E1D0E082
:1049A000D7CF8FE799E060E070E040E050E00E94F0
:1049B0008A41C0E0D0E00DC0F401EC0FFD1F108172
:1049C0008FE799E0612F40E050E00E944241011BD7
:1049D0002196CA15DB0584F38FE799E0602F40E04C
:1049E00050E00E94424181E0DF91CF911F910F91F1
:1049F000FF90EF90DF90CF90BF90AF909F908F90FF
:104A000008956F927F928F929F92AF92BF92CF92B2
:104A1000DF92EF92FF920F931F93CF93DF937C016E
:104A20008B010E94E24B5B016C01380188249924C0
:104A30008FE799E00E94E33E181619060CF0B3C107
:104A40008FE799E00E940E3F182F0E94E24B6A19EF
:104A50007B098C099D09661677068806990608F475
:104A6000A2C11E3729F70E94E24B5B016C010CC00A
:104A70000E94E24B6A197B098C099D09661677062C
:104A80008806990608F48FC18FE799E00E94E33EFB
:104A9000029774F38FE799E00E94E33E029784F057
:104AA0008FE799E00E940E3F182F8FE799E00E9450
:104AB0000E3F312F20E0280F391FF701318320836B
:104AC000F70180819181181619060CF06AC18AE5F8
:104AD000F70182830E94E24B5B016C010CC00E94D3
:104AE000E24B6A197B098C099D09661677068806D0
:104AF000990608F458C18FE799E00E94E33E181622
:104B000019066CF78FE799E00E94E33E1816190624
:104B10000CF049C18FE799E00E940E3FF7018283B4
:104B2000803809F06CC013821482158216821782B5
:104B30001086118612860E94E24B5B016C010CC04C
:104B40000E94E24B6A197B098C099D09661677065B
:104B50008806990608F427C18FE799E00E94E33E92
:104B6000089774F38FE799E00E94E33E08970CF4EE
:104B70001AC1C0E0D0E008E110E08FE799E00E94A0
:104B80000E3F282F30E040E050E0C430D105B4F4AF
:104B9000002E04C0220F331F441F551F0A94D2F762
:104BA000F70183819481A581B681820F931FA41F91
:104BB000B51F83839483A583B68319C0005E1F4FFE
:104BC000002E04C0220F331F441F551F0A94D2F732
:104BD00000521040F70187819085A185B285820F30
:104BE000931FA41FB51F87839087A187B287219643
:104BF00008501040C830D10509F0BFCF29C0813816
:104C000039F50E94E24B5B016C010CC00E94E24B43
:104C10006A197B098C099D0966167706880699062C
:104C200008F4C1C08FE799E00E94E33E029774F355
:104C30008FE799E00E940E3F182F8FE799E00E94BE
:104C40000E3F312F20E0280F391FF70134872387CB
:104C50000E94E24B5B016C010CC00E94E24B6A199E
:104C60007B098C099D09661677068806990608F463
:104C70009AC08FE799E00E94E33E181619066CF778
:104C80008FE799E00E940E3FF70185870E94E24B73
:104C90005B016C010CC00E94E24B6A197B098C0914
:104CA0009D09661677068806990608F47CC08FE78A
:104CB00099E00E94E33E181619066CF78FE799E019
:104CC0000E940E3FF70186870E94E24B5B016C0158
:104CD000F701808191810C97938B828B0CC00E948D
:104CE000E24B6A197B098C099D09661677068806CE
:104CF000990608F458C08FE799E00E94E33EF70157
:104D0000208131812C5030408217930744F38091E9
:104D10006807882329F0878590890E94D90803C0F5
:104D200081E080936807F701808191810C970E9450
:104D30002F08F701908B87870097A9F1C0E0D0E09A
:104D40000CC0F701078510890C0F1D1F8FE799E034
:104D50000E940E3FF80180832196F70180819181A6
:104D60000C97C817D9076CF30E94E24B5B016C01EA
:104D70000BC00E94E24B6A197B098C099D096616DB
:104D800077068806990678F08FE799E00E94E33E5F
:104D90001816190674F78FE799E00E940E3FF70185
:104DA000818B81E001C080E0DF91CF911F910F9155
:104DB000FF90EF90DF90CF90BF90AF909F908F903B
:104DC0007F906F900895FC011182108213821482EB
:104DD00015821682178210861186128613A614A6D3
:104DE00015A616A617A610AA11AA12AA13AA14AAE3
:104DF00015AA16AA17AA10AE11AE12AEDC0180E0F9
:104E000090E05B961C925B9701961196803191051C
:104E1000C1F78AE2848B858B0895FC011182108290
:104E200013821482158216821782108611861286CA
:104E300013A614A615A616A617A610AA11AA12AA9A
:104E400013AA14AA15AA16AA17AA10AE11AE12AE6A
:104E5000DC0180E090E05B961C925B9701961196D6
:104E600080319105C1F78AE2848B858B08956F921A
:104E70007F928F929F92AF92BF92CF92DF92EF92EA
:104E8000FF920F931F93CF93DF936C015B01DC01C3
:104E90005A961C921E92599758961C921E9257979A
:104EA00061E070E0F501E60FF71FE081D601599649
:104EB0002D913C915A9780E090E040E050E0EE2345
:104EC00011F041E050E0240F351FE695019688303F
:104ED000910599F7F601328F218F6F5F7F4F633015
:104EE000710501F7108E178AD50113968C9160E039
:104EF00070E040E050E090E09C0121703070420F83
:104F0000531F959587956F5F7F4F6830710599F7AF
:104F1000F601508F478B818D928D892B21F486016C
:104F2000C0E0D0E01DC0F50140E050E095819A015D
:104F3000485F5F4F255E3F4FD601A20FB31F2B5135
:104F4000304006C0892F81708D9396952F5F3F4F1B
:104F500024173507BCF331974031510501F3E6CFF3
:104F60008FE799E06CEF73E00E9404428FE799E0CD
:104F7000D8015B966C9140E150E00E94EA41219695
:104F80000F5F1F4FC031D10559F7F6018789908D0A
:104F9000892B09F4EFC0818D928D9601255D3F4FDD
:104FA000892B21F039018824992467C0390188248C
:104FB0009924D3C0D5011496DC91C0E07E0100276E
:104FC000F7FC0095102F8FE799E067E074E00E94EE
:104FD00004428FE799E0B801A7012AE030E00E947F
:104FE000C641F5018581E80EF11C011D111D8FE7F9
:104FF00099E06FE074E00E9404428FE799E0B80105
:10500000A7012AE030E00E94C641C801B70120EBA9
:1050100034E040E050E00E94EB4E3AE096958795F0
:10502000779567953A95D1F7D3016D937D938D93DD
:105030009C9313978FE799E067E174E00E94044224
:105040008FE799E0B801A7012AE030E00E94C6414D
:105050008FE799E06FE174E00E940442F30141910F
:105060005191619171913F018FE799E02AE030E021
:105070000E941A420894811C911C82E090E0A80EC4
:10508000B91ED60157968D919C915897881699060E
:105090000CF490CF6FC0F501D281C0E07E010027F3
:1050A000F7FC0095102F8FE799E067E074E00E940D
:1050B00004428FE799E0B801A7012AE030E00E949E
:1050C000C641D50113968C91E80EF11C011D111DEE
:1050D0008FE799E06FE074E00E9404428FE799E067
:1050E000B801A7012AE030E00E94C641C801B7011B
:1050F00020EB34E040E050E00E94EB4E2AE0969531
:105100008795779567952A95D1F7F3016083718329
:10511000828393838FE799E067E174E00E94044201
:105120008FE799E0B801A7012AE030E00E94C6416C
:105130008FE799E06FE174E00E940442D3014D9142
:105140005D916D917D913D018FE799E02AE030E01E
:105150000E941A420894811C911CE2E0F0E0AE0E1D
:10516000BF1ED60157968D919C9158978816990627
:105170000CF491CFDF91CF911F910F91FF90EF90A1
:10518000DF90CF90BF90AF909F908F907F906F9067
:1051900008952F923F924F925F926F927F928F92DB
:1051A0009F92AF92BF92CF92DF92EF92FF920F93B6
:1051B0001F93CF93DF936C011B018A010E94E24B86
:1051C0002B013C014801AA24BB248FE799E00E94EF
:1051D000E33E181619060CF070C18FE799E00E94A3
:1051E0000E3F182F0E94E24B641975098609970932
:1051F00086169706A806B90608F45FC11E3729F778
:105200000E94E24B7B018C010CC00E94E24B6E19A4
:105210007F09800B910B86169706A806B90608F43D
:105220004CC18FE799E00E94E33E029774F38FE749
:1052300099E00E94E33E029784F08FE799E00E9494
:105240000E3F182F8FE799E00E940E3F312F20E08C
:10525000280F391FF60131832083F6018081918167
:10526000181619060CF027C18AE5F60182830E9400
:10527000E24B7B018C010CC00E94E24B6E197F094E
:10528000800B910B86169706A806B90608F415C17F
:105290008FE799E00E94E33E181619066CF78FE736
:1052A00099E00E94E33E181619060CF006C18FE73C
:1052B00099E00E940E3FF6018283138214821582C8
:1052C000168217821086118612860E94E24B7B019D
:1052D0008C010CC00E94E24B6E197F09800B910B70
:1052E00086169706A806B90608F4E7C08FE799E086
:1052F0000E94E33E089774F38FE799E00E94E33E33
:1053000008970CF4DAC000E010E0C8E1D0E08FE7C5
:1053100099E00E940E3F282F30E040E050E004303A
:105320001105B4F40C2E04C0220F331F441F551F67
:105330000A94D2F7F60183819481A581B681820F08
:10534000931FA41FB51F83839483A583B68317C0BF
:10535000A0960C2E04C0220F331F441F551F0A9421
:10536000D2F7A097F60187819085A185B285820F3B
:10537000931FA41FB51F87839087A187B2870F5FF4
:105380001F4F28970830110511F60E94E24B7B0150
:105390008C018FE799E00E94E33E0297D4F30E94CC
:1053A000E24B6E197F09800B910B86169706A806B3
:1053B000B90608F482C08FE799E00E940E3F182FCB
:1053C0008FE799E00E940E3F312F20E0280F391F10
:1053D000F601348723870E94E24B7B018C010CC0CD
:1053E0000E94E24B6E197F09800B910B861697067F
:1053F000A806B90608F461C08FE799E00E94E33E71
:10540000181619066CF78FE799E00E940E3FF60117
:1054100085870E94E24B7B018C01F601808191819E
:105420000C97928B818B0BC00E94E24B6E197F0907
:10543000800B910B86169706A806B906F0F18FE748
:1054400099E00E94E33EF601208131812C503040EA
:10545000821793074CF3C0E0D0E009C08FE799E0D2
:105460000E940E3FF101EC0FFD1F80832196F60193
:10547000808191810C97C817D90784F30E94E24B71
:105480007B018C010BC00E94E24B6E197F09800BDF
:10549000910B86169706A806B90678F08FE799E073
:1054A0000E94E33E1816190674F78FE799E00E94F0
:1054B0000E3FF601808B81E001C080E0DF91CF914B
:1054C0001F910F91FF90EF90DF90CF90BF90AF9022
:1054D0009F908F907F906F905F904F903F902F9014
:1054E00008954F925F926F927F928F929F92AF92A8
:1054F000BF92CF92DF92EF92FF920F931F93CF93C1
:10550000DF936C018B010E94E24B2B013C014801AF
:10551000AA24BB248FE799E00E94E33E18161906DF
:105520000CF0DDC18FE799E00E940E3F182F0E941A
:10553000E24B641975098609970986169706A8062D
:10554000B90608F4CCC11E3729F70E94E24B7B0153
:105550008C010CC00E94E24B6E197F09800B910BED
:1055600086169706A806B90608F4B9C18FE799E030
:105570000E94E33E029774F38FE799E00E94E33EB6
:10558000029784F08FE799E00E940E3F182F8FE773
:1055900099E00E940E3F312F20E0280F391FF601BD
:1055A00031832083F60180819181181619060CF051
:1055B00096C18AE582830E94E24B7B018C010CC07C
:1055C0000E94E24B6E197F09800B910B861697069D
:1055D000A806B90608F483C18FE799E00E94E33E6C
:1055E000181619066CF78FE799E00E94E33E18162B
:1055F00019060CF074C18FE799E00E940E3FF60186
:1056000082830E94E24B7B018C010CC00E94E24B22
:105610006E197F09800B910B86169706A806B906AE
:1056200008F45DC18FE799E00E94E33E1816190661
:105630006CF78FE799E00E94E33E181619060CF00C
:105640004EC18FE799E00E940E3FF601838B1382D3
:1056500014821582168217821086118612860E9485
:10566000E24B7B018C010CC00E94E24B6E197F095A
:10567000800B910B86169706A806B90608F42FC171
:105680008FE799E00E94E33E089774F38FE799E073
:105690000E94E33E08970CF422C1C0E0D0E008E18C
:1056A00010E08FE799E00E940E3F282F30E040E0A5
:1056B00050E0C430D105B4F4002E04C0220F331FD3
:1056C000441F551F0A94D2F7F60183819481A58166
:1056D000B681820F931FA41FB51F83839483A58374
:1056E000B68319C0005E1F4F002E04C0220F331F67
:1056F000441F551F0A94D2F700521040F6018781CB
:105700009085A185B285820F931FA41FB51F878343
:105710009087A187B287219608501040C830D105E4
:1057200009F0BFCF0E94E24B7B018C018FE799E02B
:105730000E94E33E0297D4F30E94E24B6E197F0968
:10574000800B910B86169706A806B90608F4C7C009
:105750008FE799E00E940E3F182F8FE799E00E9493
:105760000E3F312F20E0280F391FF60134872387A1
:105770000E94E24B7B018C010CC00E94E24B6E192F
:105780007F09800B910B86169706A806B90608F4C8
:10579000A6C08FE799E00E94E33E039774F38FE77A
:1057A00099E00E94E33E02970CF499C08FE799E0DC
:1057B0000E940E3FF601848B8FE799E00E940E3F16
:1057C000F601858B0E94E24B7B018C010CC00E948C
:1057D000E24B6E197F09800B910B86169706A8067F
:1057E000B90608F47CC08FE799E00E94E33E1816E2
:1057F00019066CF78FE799E00E940E3FF601868B41
:105800000E94E24B7B018C01F601808191810F9710
:10581000928B818B0CC00E94E24B6E197F09800B2A
:10582000910B86169706A806B90608F458C08FE7AC
:1058300099E00E94E33EF601208131812F503040F3
:105840008217930744F380916907882329F086859E
:1058500097850E94D90803C081E080936907F6010B
:10586000808191810F970E942F08F6019787868784
:105870000097A9F1C0E0D0E00CC0F60106851785BD
:105880000C0F1D1F8FE799E00E940E3FF8018083E7
:105890002196F601808191810F97C817D9076CF383
:1058A0000E94E24B7B018C010BC00E94E24B6E19FF
:1058B0007F09800B910B86169706A806B90678F02B
:1058C0008FE799E00E94E33E1816190674F78FE7F8
:1058D00099E00E940E3FF601808B81E001C080E0DC
:1058E000DF91CF911F910F91FF90EF90DF90CF90BC
:1058F000BF90AF909F908F907F906F905F904F90F0
:1059000008956F927F928F929F92AF92BF92CF92A3
:10591000DF92EF92FF920F931F93CF93DF937C015F
:105920008B010E94E24B5B016C01380188249924B1
:105930008FE799E00E94E33E181619060CF04CC15F
:105940008FE799E00E940E3F182F0E94E24B6A19E0
:105950007B098C099D09661677068806990608F466
:105960003BC11E3729F70E94E24B5B016C010CC062
:105970000E94E24B6A197B098C099D09661677061D
:105980008806990608F428C18FE799E00E94E33E53
:10599000029774F38FE799E00E94E33E029784F048
:1059A0008FE799E00E940E3F182F8FE799E00E9441
:1059B0000E3F312F20E0280F391FF701318320835C
:1059C000F70180819181181619060CF005C18AE54E
:1059D00082830E94E24B5B016C010CC00E94E24B8F
:1059E0006A197B098C099D0966167706880699064F
:1059F00008F4F2C08FE799E00E94E33E18161906FA
:105A00006CF78FE799E00E94E33E181619060CF038
:105A1000E3C08FE799E00E940E3FF70182830E9466
:105A2000E24B5B016C010CC00E94E24B6A197B09DE
:105A30008C099D09661677068806990608F4CCC07D
:105A40008FE799E00E94E33E181619066CF78FE77E
:105A500099E00E94E33E181619060CF0BDC08FE7CE
:105A600099E00E940E3FF701838B0E94E24B5B019D
:105A70006C010CC00E94E24B6A197B098C099D09DC
:105A8000661677068806990608F4A6C08FE799E09F
:105A90000E94E33E039774F38FE799E00E94E33E90
:105AA00002970CF499C08FE799E00E940E3FF7012E
:105AB000848B8FE799E00E940E3FF701858B0E944F
:105AC000E24B5B016C010CC00E94E24B6A197B093E
:105AD0008C099D09661677068806990608F47CC02D
