:100000000C940B020C9436020C9436020C943602BB
:100010000C9436020C9436020C9436020C94360280
:100020000C9436020C9436020C9436020C94360270
:100030000C9436020C9436020C9436020C94360260
:100040000C9436020C9436020C9436020C94360250
:100050000C9436020C9436020C9436020C947333D2
:100060000C9436020C9405250C9436020C9436023E
:100070000C9436020C9436020C9436020C94360220
:100080000C9436020C9436020C9436020C94360210
:100090000C943A250C9436020C9436020C943602D9
:1000A0000C9436020C9436020C9436020C943602F0
:1000B0000C9436020C9436020C9436020C943602E0
:1000C0000C9436020C9436020C9436020C946F2574
:1000D0000C9436020C9436020C94A4250C9436022F
:1000E0000C94360252096AD53036A538BF40A39E1B
:1000F00081F3D7FB7CE339829B2FFF87348E434407
:10010000C4DEE9CB547B9432A6C2233DEE4C950B62
:1001100042FAC34E082EA16628D924B2765BA249C2
:100120006D8BD12572F8F66486689816D4A45CCCE1
:100130005D65B6926C704850FDEDB9DA5E154657B4
:10014000A78D9D8490D8AB008CBCD30AF7E45805EA
:10015000B8B34506D02C1E8FCA3F0F02C1AFBD03F6
:1001600001138A6B3A9111414F67DCEA97F2CFCEC7
:10017000F0B4E67396AC7422E7AD3585E2F937E862
:100180001C75DF6E47F11A711D29C5896FB7620EA4
:10019000AA18BE1BFC563E4BC6D279209ADBC0FE85
:1001A00078CD5AF41FDDA8338807C731B112105932
:1001B0002780EC5F60517FA919B54A0D2DE57A9F24
:1001C00093C99CEFA0E03B4DAE2AF5B0C8EBBB3C19
:1001D00083539961172B047EBA77D626E16914639D
:1001E00055210C7D01020408102040801B36637CE1
:1001F000777BF26B6FC53001672BFED7AB76CA8277
:10020000C97DFA5947F0ADD4A2AF9CA472C0B7FD26
:100210009326363FF7CC34A5E5F171D8311504C7E4
:1002200023C31896059A071280E2EB27B27509835B
:100230002C1A1B6E5AA0523BD6B329E32F8453D1FC
:1002400000ED20FCB15B6ACBBE394A4C58CFD0EFF1
:10025000AAFB434D338545F9027F503C9FA851A32B
:10026000408F929D38F5BCB6DA2110FFF3D2CD0C49
:1002700013EC5F974417C4A77E3D645D19736081DA
:100280004FDC222A908846EEB814DE5E0BDBE032AB
:100290003A0A4906245CC2D3AC629195E479E7C876
:1002A000376D8DD54EA96C56F4EA657AAE08BA78EA
:1002B000252E1CA6B4C6E8DD741F4BBD8B8A703E8C
:1002C000B5664803F60E613557B986C11D9EE1F843
:1002D000981169D98E949B1E87E9CE5528DF8CA191
:1002E000890DBFE6426841992D0FB054BB1600003E
:1002F0002100240027002A002D00300033000101D6
:100300000000040107010A01000022002500280066
:100310002B002E003100340002010000050108010D
:100320000B01000020002300260029002C002F00D4
:100330003200000100000301060109010505050561
:10034000070508080808020202020A0A080804044D
:10035000040401010101010101010303030303037B
:100360000303040707070C0C0C0C0C0C0C0C02020A
:10037000020206060606060606060B0B0B0B0B0B07
:100380000B0B010210202008081020401020408094
:100390000201020108040201010204081020408049
:1003A00080402010080402018004020180402010D7
:1003B0000804020108040201010204081020408020
:1003C00001020408102040800000090A02080B0CFA
:1003D0000D070603040100000000000000000000FB
:1003E000000000000000000000000000000000000D
:1003F00000000000100F0E000000000000000000D0
:1004000000000000000000000000000000007E115D
:100410003C232A27771111241FBECFEFD1E2DEBF84
:10042000CDBF15E0A0E0B2E0E2E3FFE600E00BBFE5
:1004300002C007900D92A83AB107D9F71BBE19E088
:10044000A8EAB5E001C01D92A731B107E1F714E0B9
:10045000C4E1D4E004C02297FE010E945937CE3097
:10046000D107C9F70E94B3120C948C370C9400008A
:100470004AE00E948C0208954AE00E9435040895E3
:10048000DF93CF9300D000D0CDB7DEB7DC018C91E5
:10049000898314968C9114978A8318968C91189757
:1004A0008B831C968C911C978C8370E0EE27FF2722
:1004B000E61BF70BE370F0709E012F5F3F4FE20FDA
:1004C000F31F80818C93E5E0F0E0E61BF70BE3700F
:1004D000F070E20FF31F808114968C931497E6E07E
:1004E000F0E0E61BF70BE370F070E20FF31F808182
:1004F00018968C9318976095709563707070260F9E
:10050000371FF90180811C968C930F900F900F90EC
:100510000F90CF91DF9108952F923F924F925F926B
:100520006F927F928F929F92AF92BF92CF92DF9203
:10053000EF92FF920F931F93DF93CF93CDB7DEB768
:100540006B970FB6F894DEBF0FBECDBF2C01798F2D
:10055000688F142F1C01E42FF0E094E0EE0FFF1FD2
:100560009A95E1F7E60FF71FD20120E08C91919167
:1005700089278D932F5F2031C9F7C20101969B8B8C
:100580008A8B61E00E944002D2011296BD8BAC8B37
:10059000CD0162E00E944002F2013396FF8BEE8BA8
:1005A000CF0163E00E944002D20180E0EC91F0E0D4
:1005B000EC51FF4FE491ED938F5F8031B9F7A12E9D
:1005C000CE0141969B8F8A8F9CC0AA946A2D70E0C1
:1005D00084E0660F771F8A95E1F7A88DB98D6A0FC1
:1005E0007B1F40E050E021E030E02C0F3D1F240F46
:1005F000351FFB01E40FF51FD201A40FB51F808149
:100600009C918927F90180834F5F5F4F40315105ED
:1006100051F74E010894811C911C3201D4011396AC
:100620001C9113971296EC901297CE2CC12611961E
:100630000C911197FC90BF2DB027B98B6B2F6C25B7
:1006400089E04BE10E943A06D82E6F2D6E2584E09A
:100650004BE10E943A06B82EBD24602F612784E04A
:100660004BE10E943A06D8266F2D612782E04BE1CC
:100670000E943A0618271D25F301138382E06C2D92
:100680004BE10E943A068E258B25D30112968C935E
:10069000E02682E06E2D4BE10E943A0608270D25E8
:1006A000F301018382E069894BE10E943A06F82652
:1006B000FB24D301FC92E4E0F0E08E0E9F1E6E0E50
:1006C0007F1E8A8D9B8D8816990609F0A7CF8A898F
:1006D0009B8961E00E9440028C899D8962E00E94B2
:1006E00040028E899F8963E00E944002D20180E02F
:1006F000EC91F0E0EC51FF4FE491ED938F5F80318E
:10070000B9F791E09A1508F460CF20E030E0E88D69
:10071000F98DE20FF31FD1018C9190818927F101AE
:1007200081931F012F5F3F4F2031310581F76B9679
:100730000FB6F894DEBF0FBECDBFCF91DF911F91F2
:100740000F91FF90EF90DF90CF90BF90AF909F9070
:100750008F907F906F905F904F903F902F90089573
:10076000DF93CF9300D000D0CDB7DEB79C01A62F8A
:10077000B0E0EE27FF27EA1BFB0BE370F070E80FF9
:10078000F91F80818983E5E0F0E0EA1BFB0BE37051
:10079000F070E20FF31F80818A83E6E0F0E0EA1B4D
:1007A000FB0BE370F070E20FF31F80818B83A09549
:1007B000B095A370B070A20FB31F8C918C83898108
:1007C0009A81AB81BC81F90180839183A283B38339
:1007D0000F900F900F900F90CF91DF910895DF93BE
:1007E000CF9300D000D0CDB7DEB7DC018C918983E8
:1007F00014968C9114978A8318968C9118978B83F2
:100800001C968C911C978C8370E0FB01E370F07058
:100810009E012F5F3F4FE20FF31F80818C93FB01FE
:100820003196E370F070E20FF31F808114968C9381
:1008300014976E5F7F4FFB01E370F070E20FF31FC0
:10084000808118968C9318976F5F7F4F63707070DC
:10085000260F371FF90180811C968C930F900F9003
:100860000F900F90CF91DF9108953F924F925F923A
:100870006F927F928F929F92AF92BF92CF92DF92B0
:10088000EF92FF920F931F93DF93CF93CDB7DEB715
:1008900062970FB6F894DEBF0FBECDBF5C013B017F
:1008A000342E2C01DC0120E030E0F301E20FF31FD5
:1008B0008C91908189278D932F5F3F4F2031310597
:1008C000A1F701E0CE0141969A8B898B8FC0470139
:1008D00094E0880C991C9A95E1F7860C971C80E0AF
:1008E00090E0F501E80FF91FE081F0E0E251FE4FE2
:1008F000E491A1E0B0E0AC0FBD1FA80FB91FEC93CD
:1009000001968031910569F7CE01029661E00E945F
:10091000EF03CE01039662E00E94EF03CE0104963E
:1009200063E00E94EF037E010894E11CF11C650165
:10093000D70111966C9111978C91682713961C9191
:10094000139712968C911827162782E04BE10E948C
:100950003A06F701908191279827D6019C936281EE
:100960008181682782E04BE10E943A06F70191817C
:1009700091279827D60111969C93638182816827DD
:1009800082E04BE10E943A06F70192819127982775
:10099000D60112969C9360818381682782E04BE1A7
:1009A0000E943A06F701938119271827D60113965A
:1009B0001C93E4E0F0E0EE0EFF1ECE0EDF1E8989F0
:1009C0009A89E816F90609F0B3CFD50120E030E0A6
:1009D000F401E20FF31F8C91908189278D932F5F93
:1009E0003F4F20313105A1F70F5F3A94E02EFF24ED
:1009F00091E0931508F46BCFD50180E0EC91F0E025
:100A0000E251FE4FE491ED938F5F8031B9F7C5015C
:100A1000019661E00E94EF03C501029662E00E9428
:100A2000EF03C501039663E00E94EF03F70184E042
:100A3000EE0FFF1F8A95E1F7E60DF71D20E0D201CA
:100A40008C91919189278D932D012F5F2031B9F7DA
:100A500062960FB6F894DEBF0FBECDBFCF91DF9187
:100A60001F910F91FF90EF90DF90CF90BF90AF90CC
:100A70009F908F907F906F905F904F903F900895E0
:100A80002F923F924F925F926F927F928F929F929E
:100A9000AF92BF92CF92DF92EF92FF920F931F938C
:100AA000DF93CF9300D000D0CDB7DEB7FC019B0120
:100AB000F42EE52E8B0155E0169507955A95E1F732
:100AC000902EA02EBB2487E090E0A80EB91E8A2CA1
:100AD000880C880C89EF9FEFA80EB91E43E036956D
:100AE00027954A95E1F78F2D9E2DBF01A9010E9400
:100AF000A20FCF2CDE2CE02EEE0CF02E10E02E01FB
:100B00000894411C511C32010894611C711C34E092
:100B1000232E312C2C0E3D1E81C06F2D70E0FB0169
:100B2000E150F040EE0FFF1FEE0FFF1FEC0DFD1D1B
:100B300080819181A281B38189839A83AB83BC83B5
:100B4000F01619F198E0991609F045C0CB018770AD
:100B50009070049709F03FC0E981F0E0E251FE4F48
:100B6000E491E983EA81F0E0E251FE4FE491EA8307
:100B7000EB81F0E0E251FE4FE491EB83EC81F0E099
:100B8000E251FE4FE491EC8326C0F1012081F20195
:100B90003081F3018081E82FF0E0E251FE4F949123
:100BA000EB81F0E0E251FE4FE491EA83E22FF0E0C6
:100BB000E251FE4F84918B83E32FF0E0E251FE4F30
:100BC00084918C83E12FF0E0EC51FE4FE4919E275D
:100BD00099831F5F0E2D660F771F660F771F6C0DB1
:100BE0007D1DEF2DF0E0EA19FB09EE0FFF1FEE0F60
:100BF000FF1FEC0DFD1D80819181A281B3812981B0
:100C00003A814B815C8182279327A427B527FB017A
:100C100080839183A283B383F394E394F81408F45C
:100C20007CCF0F900F900F900F90CF91DF911F917D
:100C30000F91FF90EF90DF90CF90BF90AF909F907B
:100C40008F907F906F905F904F903F902F9008957E
:100C5000AB0160E071E00E9440050895AB0160ECDB
:100C600070E00E9440050895AB0160E870E00E94CA
:100C700040050895782F8827769531F008F4862767
:100C8000660F08F46427F8CF08F486270895EF92DA
:100C9000FF920F931F937B018C0120E030E040E036
:100CA0005FE40E94C30988238CF0C801B70120E0EB
:100CB00030E040E05FE40E94BF070E94810A9B0190
:100CC000AC01205030404040504806C0C801B70138
:100CD0000E94810A9B01AC01B901CA011F910F91C9
:100CE000FF90EF900895A0E0B0E0E9E7F6E00C9403
:100CF0002037DC012B01FA019C91923008F439C1B4
:100D0000EB018881823008F433C1943069F4843077
:100D100009F02FC111969C9111978981981709F4B8
:100D200028C1A9E9B3E025C1843009F421C182308A
:100D3000A9F4923009F01DC19A01AD0188E0EA01E1
:100D40000990AE01E90109929E018150C1F7E201CB
:100D5000898111969C918923818308C1923009F47D
:100D600007C112962D903C901397EB018A819B81CD
:100D70001496AD90BD90CD90DC901797EC80FD80DF
:100D80000E811F819101281B390BB90137FF04C067
:100D900066277727621B730B603271050CF061C008
:100DA000121613066CF537014801062E04C09694FE
:100DB0008794779467940A94D2F721E030E040E07A
:100DC00050E004C0220F331F441F551F6A95D2F70D
:100DD00021503040404050402E213F21402351239C
:100DE000211531054105510521F021E030E040E0B9
:100DF00050E079018A01E628F728082919293CC022
:100E0000232BD1F1260E371E35014601062E04C0D4
:100E100096948794779467940A94D2F721E030E00F
:100E200040E050E004C0220F331F441F551F6A9555
:100E3000D2F721503040404050402A213B214C21E4
:100E40005D21211531054105510521F021E030E0FA
:100E500040E050E059016A01A628B728C828D928DF
:100E60000BC0821593052CF01C01AA24BB2465013C
:100E700003C0EE24FF24870111969C91D2011196A4
:100E80008C91981709F445C0992339F0A80197016E
:100E90002A193B094C095D0906C0A60195012E19C6
:100EA0003F09400B510B57FD08C01182338222824B
:100EB00024833583468357831DC081E08183338239
:100EC000228288279927DC01821B930BA40BB50B88
:100ED00084839583A683B7830DC0220F331F441FDD
:100EE000551F2483358346835783828193810197DD
:100EF000938382832481358146815781DA01C90138
:100F00000197A109B1098F5F9F4FAF4FBF4328F3EE
:100F10000BC0918333822282EA0CFB1C0C1D1D1D29
:100F2000E482F5820683178383E080832481358100
:100F30004681578157FF1AC0C901AA2797FDA0957E
:100F4000BA2F81709070A070B07056954795379504
:100F50002795822B932BA42BB52B84839583A68373
:100F6000B78382819381019693838283DF0101C0DD
:100F7000D201CD01CDB7DEB7E2E10C943C37A0E25F
:100F8000B0E0E5ECF7E00C942C3769837A838B832F
:100F90009C832D833E834F835887E9E0EE2EF12C0E
:100FA000EC0EFD1ECE010196B7010E94720C8E015F
:100FB0000F5E1F4FCE010596B8010E94720C8A8900
:100FC00091E089278A8BC701B801AE01475E5F4F68
:100FD0000E9473060E949D0BA096E6E00C94483791
:100FE000A0E2B0E0E6EFF7E00C942C3769837A8357
:100FF0008B839C832D833E834F835887F9E0EF2EAC
:10100000F12CEC0EFD1ECE010196B7010E94720C70
:101010008E010F5E1F4FCE010596B8010E94720C23
:10102000C701B801AE01475E5F4F0E9473060E9480
:101030009D0BA096E6E00C944837A0E2B0E0E3E216
:10104000F8E00C94203769837A838B839C832D830B
:101050003E834F835887CE010196BE01675F7F4F65
:101060000E94720CCE010596BE016F5E7F4F0E94FA
:10107000720C9985923088F089898230C8F094305A
:1010800019F4823051F404C0843029F4923081F490
:1010900089E993E0C6C0923049F420E09A858A89B4
:1010A000981321E02A87CE010996BBC0823049F40B
:1010B00020E09A858A89981321E02A8BCE014196F7
:1010C000B0C02D843E844F8458886D887E888F8878
:1010D000988CEE24FF248701AA24BB24650140E0FC
:1010E00050E060E070E0E0E0F0E0C10181709070FD
:1010F000892BE9F0E60CF71C081D191D9A01AB01BC
:101100002A0D3B1D4C1D5D1D80E090E0A0E0B0E08D
:10111000E614F7040805190520F481E090E0A0E04A
:10112000B0E0BA01A901480F591F6A1F7B1FAA0C22
:10113000BB1CCC1CDD1C97FE08C081E090E0A0E049
:10114000B0E0A82AB92ACA2ADB2A3196E032F10592
:1011500049F0660C771C881C991C56944794379468
:101160002794C3CFFA85EA892B893C898B859C8596
:10117000280F391F2E5F3F4F17C0CA018170907032
:10118000892B61F016950795F794E79480E090E03D
:10119000A0E0B0E8E82AF92A0A2B1B2B7695679580
:1011A000579547952F5F3F4F77FDE7CF0CC0440F12
:1011B000551F661F771F17FD4160EE0CFF1C001FB7
:1011C000111F21503040403090E0590790E06907EE
:1011D00090E4790760F32B8F3C8FDB01CA018F7796
:1011E0009070A070B07080349105A105B10561F4D4
:1011F00047FD0AC0E114F1040105110529F0405C26
:101200005F4F6F4F7F4F40781A8EFE1711F081E0CD
:101210008A8F4D8F5E8F6F8F78A383E0898FCE0189
:1012200049960E949D0BA096E2E10C943C37A8E100
:10123000B0E0EDE1F9E00C94283769837A838B8381
:101240009C832D833E834F835887B9E0EB2EF12C8E
:10125000EC0EFD1ECE010196B7010E94720C8E01AC
:101260000F5E1F4FCE010596B8010E94720C2985B2
:10127000223008F47EC03989323010F4B8017CC0C5
:101280008A859A8989278A87243011F0223031F49F
:10129000231709F06EC069E973E06EC0343039F489
:1012A0001D861E861F86188A1C861B8604C0323047
:1012B00021F484E08987B7015FC02B853C858B8949
:1012C0009C89281B390B3C872B87ED84FE840F8576
:1012D0001889AD88BE88CF88D88CEA14FB040C0529
:1012E0001D0540F4EE0CFF1C001F111F2150304063
:1012F0003C872B8720E030E040E050E080E090E049
:10130000A0E0B0E460E070E0EA14FB040C051D0509
:1013100040F0282B392B4A2B5B2BEA18FB080C09D1
:101320001D09B695A79597958795EE0CFF1C001F94
:10133000111F6F5F7F4F6F31710531F7DA01C901FE
:101340008F779070A070B07080349105A105B105C1
:1013500061F427FD0AC0E114F1040105110529F02B
:10136000205C3F4F4F4F5F4F20782D873E874F8740
:10137000588BBE01675F7F4FCB010E949D0B689623
:10138000EAE00C944437A8E1B0E0E9ECF9E00C9411
:101390002C3769837A838B839C832D833E834F8391
:1013A000588789E0E82EF12CEC0EFD1ECE01019647
:1013B000B7010E94720C8E010F5E1F4FCE01059681
:1013C000B8010E94720C8985823040F08989823090
:1013D00028F0C701B8010E94EA0C01C08FEF68969F
:1013E000E6E00C944837A8E1B0E0E9EFF9E00C94AE
:1013F0002C3769837A838B839C832D833E834F8331
:10140000588789E0E82EF12CEC0EFD1ECE010196E6
:10141000B7010E94720C8E010F5E1F4FCE01059620
:10142000B8010E94720C8985823040F0898982302F
:1014300028F0C701B8010E94EA0C01C081E068965B
:10144000E6E00C944837A8E0B0E0E9E2FAE00C945A
:1014500029379B01AC0183E08983DA01C901882720
:10146000B7FD83959927AA27BB27B82E21153105EB
:101470004105510519F482E089833AC08823A9F017
:10148000203080E0380780E0480780E8580729F4DA
:1014900060E070E080E09FEC30C0EE24FF24870124
:1014A000E21AF30A040B150B02C079018A018EE1DE
:1014B000C82ED12CDC82CB82ED82FE820F8318876E
:1014C000C801B7010E944E0B01971816190684F443
:1014D000082E04C0EE0CFF1C001F111F0A94D2F747
:1014E000ED82FE820F831887C81AD90ADC82CB826C
:1014F000BA82CE0101960E949D0B2896E9E00C94D9
:101500004537ACE0B0E0E7E8FAE00C9430376983A7
:101510007A838B839C83CE010196BE016B5F7F4FE4
:101520000E94720C8D81823061F1823050F18430E2
:1015300021F48E81882351F12EC02F81388537FD0B
:1015400020C06E812F3131051CF06623F9F023C0D5
:101550008EE190E0821B930B29853A854B855C8553
:1015600004C056954795379527958A95D2F76623F7
:10157000B1F050954095309521953F4F4F4F5F4FBB
:101580000EC020E030E040E050E009C02FEF3FEF18
:101590004FEF5FE704C020E030E040E050E8B901E1
:1015A000CA012C96E2E00C944C37A8E0B0E0EBEDD9
:1015B000FAE00C9428377B018C01611571058105D7
:1015C000910519F482E0898360C083E089838EE10C
:1015D000C82ED12CDC82CB82ED82FE820F8318874D
:1015E000C801B7010E944E0BFC013197F7FF3BC0C9
:1015F000222733272E1B3F0B57016801022E04C000
:10160000D694C794B794A7940A94D2F740E050E0D8
:1016100060E070E081E090E0A0E0B0E004C0880FFE
:10162000991FAA1FBB1F2A95D2F70197A109B109DB
:101630008E219F21A023B1230097A105B10521F0A0
:1016400041E050E060E070E04A295B296C297D2987
:101650004D835E836F8378878EE190E08E1B9F0BB6
:101660009C838B8312C0309781F00E2E04C0EE0C49
:10167000FF1C001F111F0A94D2F7ED82FE820F8318
:101680001887CE1ADF0ADC82CB821A82CE0101963D
:101690000E949D0B2896EAE00C944437EF92FF924B
:1016A0000F931F937B018C0180E0E81680E0F80621
:1016B00081E0080780E0180788F48FEFE816F1044E
:1016C0000105110531F028F088E090E0A0E0B0E0DD
:1016D00017C080E090E0A0E0B0E012C080E0E81623
:1016E00080E0F80680E0080781E0180728F088E12C
:1016F00090E0A0E0B0E004C080E190E0A0E0B0E0C5
:1017000020E230E040E050E0281B390B4A0B5B0B35
:1017100004C016950795F794E7948A95D2F7F701D8
:10172000EF55FC4F8081281B310941095109C9013E
:101730001F910F91FF90EF900895DF92EF92FF922B
:101740000F931F93FC01E480F58006811781D180FF
:101750008081823048F480E090E0A0E1B0E0E82AA7
:10176000F92A0A2B1B2BA5C0843009F49FC08230B4
:1017700021F4EE24FF24870105C0E114F1040105E2
:10178000110519F4E0E0F0E096C0628173819FEFEB
:10179000623879070CF05BC022E83FEF261B370B5D
:1017A0002A3131052CF020E030E040E050E02AC042
:1017B000B801A701022E04C0769567955795479505
:1017C0000A94D2F781E090E0A0E0B0E004C0880F76
:1017D000991FAA1FBB1F2A95D2F70197A109B1092A
:1017E0008E219F21A023B1230097A105B10521F0EF
:1017F00081E090E0A0E0B0E09A01AB01282B392B0A
:101800004A2B5B2BDA01C9018F779070A070B07002
:1018100080349105A105B10539F427FF09C0205C8A
:101820003F4F4F4F5F4F04C0215C3F4F4F4F5F4FC3
:10183000E0E0F0E02030A0E03A07A0E04A07A0E4B2
:101840005A0710F0E1E0F0E079018A0127C0603822
:10185000710564F5FB01E158FF4FD801C7018F778F
:101860009070A070B07080349105A105B10539F475
:10187000E7FE0DC080E490E0A0E0B0E004C08FE39C
:1018800090E0A0E0B0E0E80EF91E0A1F1B1F17FF52
:1018900005C016950795F794E794319687E016955D
:1018A0000795F794E7948A95D1F705C0EE24FF24B5
:1018B0008701EFEFF0E06E2F679566276795902F11
:1018C0009F77D794DD24D7948E2F8695492F462B6A
:1018D000582F5D29B701CA011F910F91FF90EF901A
:1018E000DF900895FC01DB01408151812281622F4C
:1018F0006F7770E0221F2227221F9381892F880F84
:10190000822B282F30E0991F9927991F11969C93BD
:10191000119721153105A9F541155105610571058D
:1019200011F482E037C082E89FEF13969C938E9368
:1019300012979A01AB0167E0220F331F441F551F16
:101940006A95D1F783E08C930DC0220F331F441F9B
:10195000551F12968D919C911397019713969C9306
:101960008E931297203080E0380780E0480780E4AB
:10197000580758F314962D933D934D935C93179706
:1019800008952F3F310579F4411551056105710521
:1019900019F484E08C93089564FF03C081E08C9374
:1019A00012C01C9210C02F57304013963C932E93B8
:1019B000129783E08C9387E0440F551F661F771FB3
:1019C0008A95D1F7706414964D935D936D937C93D3
:1019D000179708951F93DC01FB019C91923008F446
:1019E00047C08081823008F443C0943051F411968E
:1019F0001C91843099F58181682F70E0611B710919
:101A00003FC0843021F0923031F48230B9F18181CD
:101A1000882389F12DC011961C9111978230F1F025
:101A200081811817D9F412962D913C9113978281D8
:101A300093818217930794F028173907BCF0149606
:101A40008D919D910D90BC91A02D24813581468171
:101A50005781281739074A075B0718F4112341F00B
:101A60000AC082179307A407B50740F4112319F0A1
:101A700061E070E005C06FEF7FEF02C060E070E0F2
:101A8000CB011F910895CF93DF93BC018230910564
:101A900010F462E070E0A0911509B0911609ED0113
:101AA000E0E0F0E040E050E021C0888199818617B5
:101AB000970769F48A819B81309719F09383828319
:101AC00004C09093160980931509FE0134C068176D
:101AD000790738F44115510519F08417950708F472
:101AE000AC01FE018A819B819C01E9012097E9F606
:101AF00041155105A9F1CA01861B970B049708F4FB
:101B0000BA01E0E0F0E02AC08D919C911197841712
:101B10009507F9F46417750781F412968D919C91DD
:101B20001397309719F09383828304C0909316091A
:101B300080931509FD0132964CC0CA01861B970B94
:101B4000FD01E80FF91F6193719302978D939C93A8
:101B500040C0FD01828193819C01D9011097A1F6BB
:101B60008091130990911409892B41F48091A30469
:101B70009091A40490931409809313094091A504B3
:101B80005091A6044115510541F44DB75EB78091BF
:101B9000A1049091A204481B590B20911309309184
:101BA0001409CA01821B930B8617970780F0AB01BB
:101BB0004E5F5F4F8417950750F0420F531F5093AD
:101BC000140940931309F9016193719302C0E0E095
:101BD000F0E0CF01DF91CF910895CF93DF9300978D
:101BE00009F450C0EC0122971B821A82A0911509BA
:101BF000B0911609109709F140E050E0AC17BD070D
:101C000008F1BB83AA83FE0121913191E20FF31FFA
:101C1000AE17BF0779F48D919C911197280F391F4A
:101C20002E5F3F4F3983288312968D919C91139795
:101C30009B838A834115510571F4D0931609C09393
:101C4000150920C012968D919C911397AD010097B4
:101C500011F0DC01D3CFFA01D383C28321913191FA
:101C6000E20FF31FCE17DF0769F488819981280FEF
:101C7000391F2E5F3F4FFA01318320838A819B8178
:101C800093838283DF91CF910895A0E0B0E0EBE4ED
:101C9000FEE00C942837EC01A880B980CA80DB8074
:101CA000A114B104C104D10441F484E2A82E89ED49
:101CB000B82E8BE5C82E87E0D82EC601B5012DE1E0
:101CC00033EF41E050E00E94053727EA31E440E07D
:101CD00050E00E94C4367B018C01C601B5012DE1A4
:101CE00033EF41E050E00E940537CA01B9012CEE04
:101CF00034EF4FEF5FEF0E94C4366E0D7F1D801FE3
:101D0000911F97FF04C061507040804090486883E5
:101D100079838A839B839B01AC015F77B901CA01F8
:101D2000CDB7DEB7EAE00C9444370E94450E089523
:101D300087EA94E00E94450E08956093A70470938B
:101D4000A8048093A9049093AA040895A0E0B0E0A9
:101D5000ECEAFEE00C9422376C01009729F4CB01E9
:101D60000E94430D6C01C1C08EEF882E8FEF982E1C
:101D70008C0C9D1C8601060F171F0815190508F409
:101D8000B2C0F401A081B181A617B707B8F0A530A1
:101D9000B10508F4AAC0CD0104978617970708F487
:101DA000A4C01297A61BB70BF801A193B193D4015D
:101DB0006D937C93CF010E94ED0D97C07B01EA1AD1
:101DC000FB0AEEEFFFEFEE0EFF1E36016A0E7B1EE2
:101DD000C0911509D091160944245524AA24BB2486
:101DE0004AC0C615D705E1F5488159814E155F05F2
:101DF000B8F1CA0104978E159F05B0F41296A40F8E
:101E0000B51FF401B183A0832A813B8141145104A1
:101E100031F0D20113963C932E93129766C0309303
:101E200016092093150961C08A819B81F80193836B
:101E30008283425050404E195F09518340834114C0
:101E4000510431F0D20113961C930E93129704C0E3
:101E50001093160900931509F4017183608345C03E
:101E600088819981A816B90608F45C012E018A813F
:101E70009B819C01E901209709F0B3CF8091130960
:101E80009091140986159705E9F4A616B706D0F4C3
:101E90002091A5043091A6042115310541F42DB7F8
:101EA0003EB78091A1049091A204281B390B021720
:101EB0001307C8F41093140900931309D4016D9308
:101EC0007C9313C0CB010E94430DEC01009759F0A5
:101ED000F40140815181B6010E94A20FC6010E9407
:101EE000ED0D6E0102C0CC24DD24C601CDB7DEB7F6
:101EF000E0E10C943E371F93FC0199278827BC0131
:101F0000E89411911032E9F3193010F01E30C8F343
:101F10001B3251F01D3249F4689406C00E946810CB
:101F2000610F711D811D911D119110531A30B0F375
:101F30003EF490958095709561957F4F8F4F9F4FA0
:101F40001F910895FB01DC0102C001900D924150E8
:101F50005040D8F70895FB01DC010D900020E9F70F
:101F6000119701900D920020E1F70895FC018191F5
:101F7000861721F08823D9F7992708953197CF0143
:101F80000895FB01DC018D91019080190110D9F3B6
:101F9000990B0895FB01DC0101900D920020E1F7FF
:101FA0000895FB01DC014150504030F08D910190CB
:101FB000801919F40020B9F7881B990B0895FB01CB
:101FC000DC014150504048F001900D920020C9F7CB
:101FD00001C01D9241505040E0F70895FC0181E09E
:101FE00090E00190061609F4CF010020D1F7019787
:101FF0000895FB0151915523A9F0BF01DC014D91DA
:1020000045174111E1F759F4CD010190002049F045
:102010004D9140154111C9F3FB014111EFCF81E012
:1020200090E001970895FB019F01E8944230C4F0CD
:102030004532B4F44A3029F497FB1EF4909581950B
:102040009F4F642F77270E947837805D8A330CF08A
:10205000895D8193CB010097A1F716F45DE251935E
:102060001082C9010C94A210FA01CF93FF93EF9351
:10207000223044F1253234F5C22FE894CA3049F4B5
:1020800097FB3EF490958095709561957F4F8F4FAB
:102090009F4F2C2F332744275527FF93EF930E9400
:1020A000E336EF91FF91605D6A330CF0695D6193F7
:1020B000B901CA01605070408040904051F716F459
:1020C000CDE2C19310828F919F91CF910C94A21079
:1020D000592F482F372F262F660F771F881F991FDC
:1020E000660F771F881F991F620F731F841F951F2C
:1020F000660F771F881F991F0895FA01CF93FF93EA
:10210000EF932230CCF02532BCF4C22F2C2F332792
:1021100044275527FF93EF930E94E336EF91FF91F9
:10212000605D6A330CF0695D6193B901CA0160506A
:1021300070408040904051F710828F919F91CF91D5
:102140000C94A210DC01FC01672F71917723E1F759
:10215000329704C07C916D9370836291AE17BF0774
:10216000C8F30895F894FFCFFC0182EA95E09183CB
:10217000808308950F931F938C010E94B41080EE0A
:1021800094E0F801918380831F910F910895EF925D
:10219000FF920F931F938C017B010E94BA108EE770
:1021A00095E0F80191838083F70182819381F801A2
:1021B00093838283F70184819581F80195838483D9
:1021C000F70186819781F80197838683F7018085DF
:1021D0009185F80191878087F70182859385F801C1
:1021E00093878287F70184859585F8019587848791
:1021F000F7018685F8018687F7018785F8018787CB
:10220000F7018089F801808BF7018189F801818BC2
:10221000F7018289F801828B1F910F91FF90EF9057
:102220000895E8EAF5E0119285E0E03DF807D9F776
:102230000895E0EDF5E0119285E0E83FF807D9F761
:1022400008950F931F938C01FC01808191810E945E
:10225000ED0DF80113821282158214821F910F91E5
:1022600008958130910589F56F5F7F4F09F03EC079
:1022700088EF95E060E072E00E94782F8EEF95E0A5
:102280006DE072E00E94782F84E096E068E172E0F1
:102290000E94782F9091B5048091B60480930A062D
:1022A00090930B068CE096E00E94DA1888E896E09E
:1022B0000E94A81482E996E061EB74E00E94E2209B
:1022C0008BE996E00E94B0140895892B79F46F5F32
:1022D0007F4F61F484E096E00E9421118EEF95E03B
:1022E0000E94211188EF95E00E942111089580E05D
:1022F00090E06FEF7FEF0E943111089581E090E050
:102300006FEF7FEF0E94311108951F938CE096E0EC
:1023100068EE73E00E94C824882319F18CE096E0EF
:102320000E9438190E949113893809F58CE096E0D3
:102330000E94381968E876E00E94881888E896E0DC
:102340000E94CD15882341F48DEB98E06DE272E098
:102350000E94DD2911E00CC08DEB98E063E472E08F
:1023600004C08DEB98E063E672E00E94DD2910E086
:102370000E9411110E941911812F1F910895CF936E
:10238000DF938CE096E062E976E00E9474238CE0B3
:1023900096E068E873E10E94C824882309F4A5C088
:1023A0008CE096E00E9438190E949113883809F059
:1023B00088C08CE096E00E9438196BE976E00E94B4
:1023C0001F188BE996E00E940415882309F469C060
:1023D0008DEB98E06BE872E00E9431288BE996E083
:1023E0000E940C15FC018DEB98E0608140E050E00C
:1023F0000E941B298BE996E00E940C15FC018DEBD5
:1024000098E0618140E050E00E941B298DEB98E04C
:1024100065E972E00E94DD298BE996E00E94B11423
:10242000882309F484C08DEB98E067EA72E00E948B
:1024300031288BE996E00E94B114682F8DEB98E06B
:102440004AE050E00E94C3298DEB98E060EC72E016
:102450000E943128C0E0D0E015C08BE996E00E94D0
:10246000EB14FC01EC0FFD1F8DEB98E0608140E167
:1024700050E00E941B298DEB98E060ED72E00E9415
:10248000312821968BE996E00E94B11490E0C8179C
:10249000D9071CF38DEB98E062ED72E00E94DD2914
:1024A00046C08DEB98E063ED72E00E9431288BE925
:1024B00096E00E94FF14682F8DEB98E040E150E019
:1024C0002DC08DEB98E06FEE72E00E9431288CE019
:1024D00096E00E9438190E949113682F8DEB98E0C6
:1024E00040E150E00E941B2922C08CE096E00E944F
:1024F00038190E94B5138823A1F08DEB98E06DE0A8
:1025000073E00E9431288CE096E00E9438190E9406
:10251000BA13682F8DEB98E040E050E00E94C32989
:1025200006C08DEB98E061E373E00E943128DF91F3
:10253000CF9108950E94111160E070E080E090E07A
:1025400023E030E040E050E00E94402B26E0629F14
:10255000C001112488509A4F68EA75E048E250E0C3
:102560000E94C42B0895AF92BF92CF92DF92EF9258
:10257000FF920F931F93DF93CF93CDB7DEB7CD5E5E
:10258000D0400FB6F894DEBF0FBECDBF0E945234CC
:1025900080ED98E040E855E260E070E00E94392666
:1025A0008E01055D1F4FC80160ED78E00E94C710E5
:1025B0008CE096E0B8010E9433198CE096E040E888
:1025C00055E260E070E00E94002580E00E94B73490
:1025D0000E945E2B68E873E180E090E00E94EF3398
:1025E0008DEB98E068E473E00E94DD298DEB98E0C4
:1025F00065E573E00E94DD29DE011B96ECECF4E05A
:1026000080E101900D928150E1F7DE015B96ECEBE9
:10261000F4E080E101900D928150E1F7CE010B963C
:10262000BE01625C7F4F0E9434068BE1E82EF12CE4
:10263000EC0EFD1E6701C701BE2CA92E8E01055DA3
:102640001F4F8DEB98E0F60161916F0140E150E082
:102650000E941B29C016D106A1F78DEB98E00E94BD
:1026600088298B2D9A2DBE01625C7F4F0E943C020F
:1026700087018DEB98E0F80161918F0140E150E016
:102680000E941B290C151D05A1F78DEB98E00E94F7
:102690008829CE014B96BE01625C7F4F0E943802B2
:1026A0008DEB98E0F70161917F0140E150E00E94DD
:1026B0001B29EC14FD04A1F78DEB98E00E948829FA
:1026C0008DEB98E068E673E00E9431288E010F5F81
:1026D0001F4F64E670E080E090E00E94EF330E94BC
:1026E0009A128DEB98E069E773E00E94DD29609112
:1026F000B7047091B804C80148EA55E028E20E9486
:10270000041F8CE096E0B8010E9474230E9485119A
:1027100060E177E280E090E00E94EF33DACF089545
:102720000895FC0182810895FC0162830895FC01F3
:1027300083810895FC0163830895FC0184810895D9
:10274000FC0164830895FC0185810895FC01658383
:102750000895FC0186810895FC0166830895FC01BB
:1027600087810895FC0167830895FC0180858111AC
:1027700081E00895FC0180850895FC01608708953B
:10278000EF92FF920F931F938C017B010E94911394
:10279000682FC7010E949413C8010E94AF13682FCD
:1027A000C7010E94B213C8010E94A313682FC7017A
:1027B0000E94A613C8010E94BA13682FC7010E9485
:1027C000BD13C8010E94A913682FC7010E94AC1352
:1027D000C8010E949713682FC7010E949A13C8016D
:1027E0000E949D13682FC7010E94A0131F910F9193
:1027F000FF90EF9008958BE008959C01255F3F4F77
:10280000C90108959C01255F3F4FC9010895FC014E
:10281000A081B18114962D913C911597F9010995EC
:102820008E5F089582E008959C01255F3F4FC901A6
:10283000089588E00895FC01A081B18114962D913E
:102840003C911597F90109958E5F089582E00895EE
:1028500088E008950E94A9138E5008959C01265F78
:102860003F4FC9010895FC0184E695E09183808380
:1028700008950F931F938C010E9433148EE295E00C
:10288000F801918380831F910F9108950F931F93F7
:102890008C010E9433148EE295E0F80191838083CD
:1028A0001F910F9108950F931F938C010E9446145E
:1028B0008CE695E0F801918380831F910F91089534
:1028C0000F931F938C010E9446148CE695E0F8014B
:1028D000918380831F910F9108950F931F938C0113
:1028E0000E94601482E495E0F801918380831F9137
:1028F0000F9108950F931F938C010E94601482E43E
:1029000095E0F801918380831F910F9108950F93B3
:102910001F938C010E94461484E295E0F801918394
:1029200080831F910F9108950F931F938C010E9434
:10293000461484E295E0F801918380831F910F9102
:102940000895FC0184E695E09183808308950895BD
:10295000089508950895089508950895089508958F
:1029600008950E94A91384500895FC01848190E089
:102970000895FF920F931F938C0102960E94B51445
:10298000F82ED801ED91FC910280F381E02DC80171
:102990000995FA94F81A8F2D1F910F91FF900895C1
:1029A000FF920F931F938C0102960E94B514F82E8C
:1029B000D801ED91FC910280F381E02DC8010995C9
:1029C000FA94F81A8F2D1F910F91FF900895FC0132
:1029D000808191810895CF93DF93EC010E94B1141F
:1029E000882319F420E030E006C0CE010E94E714ED
:1029F0009C012C5F3F4FC901DF91CF9108950E9448
:102A0000E714FC01838108950E94FF1490E088235D
:102A100009F491E0892F08950E94E7149C012F5F2B
:102A20003F4FC90108950E94E714FC018081089579
:102A30000E94E714FC0180810895EF92FF920F93AA
:102A40001F937C0102960E94E7148C01D701ED913F
:102A5000FC910280F381E02DC7010995080F111D3B
:102A6000C8011F910F91FF90EF900895CF92DF92D0
:102A7000EF92FF920F931F937C016B0102960E94CD
:102A8000E7148C01D701ED91FC910280F381E02DD8
:102A9000C70109950C0D1D1D080F111DF80180813E
:102AA0001F910F91FF90EF90DF90CF9008950E94BB
:102AB000E714FC01318520E08285280F311DC90112
:102AC0000895CF93DF93EC010E942A14882319F410
:102AD00020E030E006C0CE010E94E7149C01225F96
:102AE0003F4FC901DF91CF9108950E94E714FC0187
:102AF000858508950E94751590E0882309F491E07A
:102B0000892F08950E94E7149C01255F3F4FC9015A
:102B10000895EF92FF920F931F938C0102960E94EB
:102B2000E7147C01D801ED91FC910480F581E02D42
:102B3000C8010995E80EF11CF70181811F910F91E1
:102B4000FF90EF9008950E94891590E096958795E3
:102B500096958795817008950E94891590E09695C5
:102B6000879581700895EF92FF920F931F938C01C8
:102B700002960E94E7147C01D801ED91FC9104803B
:102B8000F581E02DC8010995E80EF11CF70180815F
:102B90001F910F91FF90EF9008950E94E714FC01A0
:102BA000818108950E94CD1590E0882309F491E079
:102BB000892F089502960E94E714FC0181813081DB
:102BC00020E0280F311DC9010895FF920F931F9334
:102BD000CF93DF93EC01F62E029627E0261788F0BC
:102BE0000E94E7148C01CE010E940714080F111DEA
:102BF000F801848190E002C095958795FA94E2F7F8
:102C00000AC00E94E7148C01CE010E940714080F2D
:102C1000111DF80183818170DF91CF911F910F9178
:102C2000FF900895FF920F931F93CF93DF93EC01D2
:102C3000F62E029627E0261788F00E94E7148C01F2
:102C4000CE010E940714080F111DF801848190E045
:102C500002C095958795FA94E2F70AC00E94E7149E
:102C60008C01CE010E940714080F111DF801838109
:102C70008170DF91CF911F910F91FF900895CF92B6
:102C8000DF92EF92FF920F931F936C01E62E029654
:102C90000E94E7148C01C6010E940714080F111D41
:102CA000F801818190E0FF240894E11CF11C02C02E
:102CB00095958795EA94E2F781701F910F91FF90A7
:102CC000EF90DF90CF900895EF92FF920F931F93B4
:102CD000CF93DF93EC0142E0E42EF12CE80EF91ED5
:102CE000C7010E94E7148C01CE010E940714080F4F
:102CF000111DF801818180FD0CC0C7010E94E714FD
:102D00008C01CE010E940714080F111DF801828169
:102D1000811181E0DF91CF911F910F91FF90EF9092
:102D200008958F929F92AF92BF92CF92DF92EF92CF
:102D3000FF920F931F93CF93DF934C01A62EF42E97
:102D40000E946416882319F4E3E0EE2E08C08F2D4C
:102D500090E00196880F991F63E0E62EE80ECC24E0
:102D600000E0C401602F0E943F16882311F082E02A
:102D7000C80E0F5F0630A9F7C0E0D0E00A2D10E0C2
:102D800009C0C4016A2D0E943F16882311F0E2E0B9
:102D9000EE0E2196C017D107A4F352E0A52EB12C58
:102DA000A80CB91CC5010E94E7148C01C4010E9443
:102DB0000714CF9C902D1124E90ECE2CDD240C0D90
:102DC0001D1D080F111DF801F080EE24C5010E94A1
:102DD000E7148C01C4010E9407140C0D1D1D080F7F
:102DE000111DF8018181E80EF11CC701DF91CF911F
:102DF0001F910F91FF90EF90DF90CF90BF90AF9019
:102E00009F908F900895EF92FF920F931F937C01F4
:102E100002960E94E7148C01C7010E94071490E0FB
:102E2000080F111DF80181818E7709F091E0892F3B
:102E30001F910F91FF90EF900895EF92FF920F93E3
:102E40001F937C0102960E94E7148C01C7010E9427
:102E50000714080F111DF80180811F910F91FF9039
:102E6000EF90089502960E94E714FC018181308161
:102E700020E0280F311DC90108951F93162F0296D7
:102E8000683058F40E94E714FC01808990E002C089
:102E9000959587951A95E2F70EC00E94E714FC01FC
:102EA000278530E0812F90E0089702C0359527955F
:102EB0008A95E2F7822F81701F91089502960E94F1
:102EC000E714FC0186858F7808951F93162F0E94C2
:102ED0005E1790E002C0959587951A95E2F781708C
:102EE0001F9108950E945E17811181E00895029656
:102EF0000E94E714FC018585089502960E94E7145C
:102F0000FC0184858C7108951F93162F683048F456
:102F10000E94771790E002C0959587951A95E2F781
:102F20000CC00E947D1790E0212F30E028503040E7
:102F300002C0959587952A95E2F781701F910895B3
:102F4000CF93DF93EC010E947D17882321F4CE01FB
:102F50000E947717811181E0DF91CF910895CF9280
:102F6000DF92EF92FF920F931F93CF93DF938C0129
:102F7000E62E0E94A017882319F0A1E1FA2E02C0C4
:102F8000FFE0FF2EC0E0D0E0CE2CDD2409C0C80158
:102F90006E2D0E946517882311F082E0F80E2196AD
:102FA000CC15DD05A4F3C80102960E94E714FC01CC
:102FB000EF0DF11D8181308120E0280F311DC90105
:102FC000DF91CF911F910F91FF90EF90DF90CF9005
:102FD000089502960E94E714FC01828508950296E6
:102FE0000E94E714FC01308520E08185280F311D07
:102FF000C90108950E94E714FC01858108950E948B
:10300000E714FC01848108950E94FF1790E0882353
:1030100009F491E0892F08950E94E714FC0183814F
:1030200008950E94E714FC01318120E08281280F7D
:10303000311DC9010895FC01718360830895EF92E9
:10304000FF920F931F938C017B010E94E714BC0138
:10305000C7010E941B18C801B7010E94C0131F912D
:103060000F91FF90EF900895EF92FF920F931F93AF
:103070008C017B010E94E714BC01C7010E941B1850
:10308000C801B7010E94C0131F910F91FF90EF90EC
:103090000895EF92FF920F931F938C017B010E9482
:1030A000E714BC01C7010E941B18C801B7010E94A8
:1030B000C0131F910F91FF90EF900895EF92FF9230
:1030C0000F931F938C017B010E94E714BC01C70181
:1030D0000E941B18C801B7010E94C0131F910F91D5
:1030E000FF90EF900895EF92FF920F931F938C0142
:1030F0007B010E94E714BC01C7010E941B18C80194
:10310000B7010E94C0131F910F91FF90EF90089597
:10311000EF92FF920F931F938C017B010E94E714A3
:10312000BC01C7010E941B18C801B7010E94C0134F
:103130001F910F91FF90EF900895FC011782108668
:10314000158208950F931F93CF93DF93EC010E9494
:103150009D181A821B821C821D821E8200E010E0D4
:10316000CE010E94E714FC01E00FF11F10820F5FF7
:103170001F4F0E361105A1F7DF91CF911F910F91CF
:103180000895FC01128611860E94A21808950F93DB
:103190001F938C01FC0112861186148615860E94ED
:1031A0009D18C801025F1F4FB8010E941B181F9194
:1031B0000F9108950F931F938C01FC0112861186C5
:1031C000148615860E949D18C801025F1F4FB80122
:1031D0000E941B181F910F910895FC0185858F5F38
:1031E0008587882311F481E0858785850895DC0132
:1031F000FB018281938113969C938E931297848115
:10320000958115969C938E93149786819781179636
:103210009C938E9316978085918519969C938E9397
:103220001897828593851B969C938E931A97848515
:1032300095851D969C938E931C9786851E968C93E0
:103240001E9787851F968C931F97808950968C9325
:103250005097818951968C935197828952968C937D
:103260005297CD0108958DEB98E00E94F7180895CC
:103270000895EF92FF920F931F93F82EE92E8B0182
:103280000E949713682FC8010E949A138F2D9E2DBC
:103290000E949D13682FC8010E94A0138F2D9E2DA0
:1032A0000E949113682FC8010E9494138F2D9E2DA8
:1032B0000E94A913682FC8010E94AC138F2D9E2D68
:1032C0000E94E714BC01C8010E941B181F910F91B6
:1032D000FF90EF900895FC018CE595E09183808349
:1032E000628343830895FC018CE595E0918380839C
:1032F000628343830895FC0163830895FC01838105
:103300000895FC0182810895FC0162830895CF92A3
:10331000DF92EF92FF920F937C0169010E946B197B
:1033200084E595E0F70191838083D582C48206838A
:103330000F91FF90EF90DF90CF900895CF92DF92A2
:10334000EF92FF920F937C0169010E946B1984E553
:1033500095E0F70191838083D582C48206830F9123
:10336000FF90EF90DF90CF900895FC0184819581CC
:103370000895FC01758364830895FC018681089596
:10338000FC016683089508950895089508950895A9
:1033900008950F931F93DF93CF93CDB7DEB7289790
:1033A0000FB6F894DEBF0FBECDBF8C010E94601433
:1033B00088E395E0F80191838083D8011B96FE0194
:1033C000319688E001900D928150E1F728960FB672
:1033D000F894DEBF0FBECDBFCF91DF911F910F914B
:1033E00008950F931F93DF93CF93CDB7DEB7289740
:1033F0000FB6F894DEBF0FBECDBF8C010E946014E3
:1034000088E395E0F80191838083D8011B96FE0143
:10341000319688E001900D928150E1F728960FB621
:10342000F894DEBF0FBECDBFCF91DF911F910F91FA
:1034300008950F931F93DF93CF93CDB7DEB72897EF
:103440000FB6F894DEBF0FBECDBF8C010E944614AC
:103450008AE195E0F80191838083D8011B96FE01F3
:10346000319688E001900D928150E1F728960FB6D1
:10347000F894DEBF0FBECDBFCF91DF911F910F91AA
:1034800008950F931F93DF93CF93CDB7DEB728979F
:103490000FB6F894DEBF0FBECDBF8C010E9446145C
:1034A0008AE195E0F80191838083D8011B96FE01A3
:1034B000319688E001900D928150E1F728960FB681
:1034C000F894DEBF0FBECDBFCF91DF911F910F915A
:1034D00008950F931F93DF93CF93CDB7DEB728974F
:1034E0000FB6F894DEBF0FBECDBF8C010E9433141F
:1034F0008CE495E0F80191838083D8011B96FE014E
:10350000319688E001900D928150E1F728960FB630
:10351000F894DEBF0FBECDBFCF91DF911F910F9109
:1035200008950F931F93DF93CF93CDB7DEB72897FE
:103530000FB6F894DEBF0FBECDBF8C010E943314CE
:103540008CE495E0F80191838083D8011B96FE01FD
:10355000319688E001900D928150E1F728960FB6E0
:10356000F894DEBF0FBECDBFCF91DF911F910F91B9
:1035700008950F931F938C010E94911A86E795E09E
:10358000F801918380831F910F9108950F931F93EA
:103590008C010E94911A86E795E0F801918380835F
:1035A0001F910F9108950F931F93FC014083518346
:1035B0006283738304831583268337831F910F915E
:1035C00008950F931F93FC0140835183628373839B
:1035D00004831583268337831F910F910895FC017F
:1035E00060817181828193810895FC0140835183C0
:1035F000628373830895FC0164817581868197815C
:103600000895FC0144835583668377830895EF9280
:10361000FF920F931F937C01162F072F0E94E71430
:10362000BC01812F902F0E941B18C701612F702FA2
:103630000E94C013812F902F0E942E148C01C7016D
:103640000E94E714FC01418150E060E070E0742FBB
:10365000662755274427828190E0A0E0B0E0DC0196
:1036600099278827480F591F6A1F7B1F8481480F9D
:10367000511D611D711D938180E0A0E0B0E0480FF5
:10368000591F6A1F7B1FC8010E94F51AC7010E94BB
:10369000E714FC01458150E060E070E0742F66277C
:1036A00055274427868190E0A0E0B0E0DC0199270F
:1036B0008827480F591F6A1F7B1F8085480F511D9F
:1036C000611D711D978180E0A0E0B0E0480F591F97
:1036D0006A1F7B1FC8010E94011B1F910F91FF9061
:1036E000EF900895EF92FF920F931F937C018B014F
:1036F0000E94E714BC01C8010E941B18C701B80151
:103700000E94C01302501040C8010E9402148C0194
:10371000C7010E94E714FC018381408150E060E012
:1037200070E0742F662755274427480F511D611DEF
:10373000711D818190E0A0E0B0E0DC01992788272D
:10374000480F591F6A1F7B1F928180E0A0E0B0E004
:10375000480F591F6A1F7B1FC8010E94F51AC70135
:103760000E94E714FC01448150E060E070E0742F97
:10377000662755274427858190E0A0E0B0E0DC0172
:1037800099278827480F591F6A1F7B1F8781480F79
:10379000511D611D711D968180E0A0E0B0E0480FD1
:1037A000591F6A1F7B1FC8010E94011B1F910F91A7
:1037B000FF90EF900895EF92FF920F931F937C017B
:1037C0008B010E94E714BC01C8010E941B18C701AD
:1037D000B8010E94C01302501040C8010E94141486
:1037E0008C01C7010E94E714FC018381408150E0F5
:1037F00060E070E0742F662755274427480F511D5D
:10380000611D711D818190E0A0E0B0E0DC0199278D
:103810008827480F591F6A1F7B1F928180E0A0E014
:10382000B0E0480F591F6A1F7B1FC8010E94F51A9C
:10383000C7010E94E714FC01448150E060E070E0A1
:10384000742F662755274427858190E0A0E0B0E0DB
:10385000DC0199278827480F591F6A1F7B1F878122
:10386000480F511D611D711D968180E0A0E0B0E000
:10387000480F591F6A1F7B1FC8010E94011B1F911F
:103880000F91FF90EF900895EF92FF920F931F9387
:103890007C018B010E94E714BC01C8010E941B1827
:1038A000C701B8010E94C01302501040C8010E9415
:1038B000FD138C01C7010E94E714FC018381408144
:1038C00050E060E070E0742F662755274427480FCA
:1038D000511D611D711D818190E0A0E0B0E0DC010F
:1038E00099278827480F591F6A1F7B1F928180E004
:1038F000A0E0B0E0480F591F6A1F7B1FC8010E945B
:10390000F51AC7010E94E714FC01448150E060E011
:1039100070E0742F662755274427858190E0A0E04A
:10392000B0E0DC0199278827480F591F6A1F7B1FC9
:103930008781480F511D611D711D968180E0A0E0B7
:10394000B0E0480F591F6A1F7B1FC8010E94011B6E
:103950001F910F91FF90EF900895EF92FF920F93B8
:103960001F937C018B010E94E714BC01C8010E94D7
:103970001B18C701B8010E94C01302501040C801B3
:103980000E94FD138C01C7010E94E714FC01838192
:10399000408150E060E070E0742F6627552744278F
:1039A000480F511D611D711D818190E0A0E0B0E0C4
:1039B000DC0199278827480F591F6A1F7B1F9281B6
:1039C00080E0A0E0B0E0480F591F6A1F7B1FC801CC
:1039D0000E94F51AC7010E94E714FC01448150E0DF
:1039E00060E070E0742F662755274427858190E0BA
:1039F000A0E0B0E0DC0199278827480F591F6A1F13
:103A00007B1F8781480F511D611D711D968180E0CC
:103A1000A0E0B0E0480F591F6A1F7B1FC8010E9439
:103A2000011B1F910F91FF90EF900895EF92FF926D
:103A30000F937C0160E141E020E030E000E00E9473
:103A4000871982E195E0F701918380830F91FF90C0
:103A5000EF900895EF92FF920F937C0160E141E0B7
:103A600020E030E000E00E94871982E195E0F70154
:103A7000918380830F91FF90EF9008957F928F92B2
:103A80009F92AF92BF92CF92DF92EF92FF920F93ED
:103A90001F93CF93DF93EC01162FD72E4A01B22E3E
:103AA000702E97010C2D4A2D60E10E94871982E14A
:103AB00095E099838883DE011796212F3D2DC9015A
:103AC000FC0188E001900D928150E1F7988A8F8681
:103AD000B98A7A8ADF91CF911F910F91FF90EF9071
:103AE000DF90CF90BF90AF909F908F907F90089580
:103AF0007F928F929F92AF92BF92CF92DF92EF927E
:103B0000FF920F931F93CF93DF93EC01162FD72EC5
:103B10004A01B22E702E97010C2D4A2D60E10E94B1
:103B2000871982E195E099838883DE011796212F1A
:103B30003D2DC901FC0188E001900D928150E1F713
:103B4000988A8F86B98A7A8ADF91CF911F910F91D7
:103B5000FF90EF90DF90CF90BF90AF909F908F90AD
:103B60007F900895FF920F931F93CF93DF93EC0103
:103B7000162FF72EFA01022F60E141E09F010E940B
:103B8000871982E195E099838883DE011796212FBA
:103B90003F2DC901FC0188E001900D928150E1F7B1
:103BA0008EEF9FEF988B8F87198A1A8ADF91CF91BA
:103BB0001F910F91FF900895FF920F931F93CF9342
:103BC000DF93EC01162FF72EFA01022F60E141E09E
:103BD0009F010E94871982E195E099838883DE0125
:103BE0001796212F3F2DC901FC0188E001900D920D
:103BF0008150E1F78EEF9FEF988B8F87198A1A8A91
:103C0000DF91CF911F910F91FF9008951F93FC01B9
:103C1000162F662321F407960E94EF1A17C0613011
:103C200021F407960E94EF1A1BC0623021F4079618
:103C30000E94EF1A1EC0633021F407960E94EF1A0B
:103C40003AC0643041F407960E94FB1A692F772727
:103C50008827992730C0653039F407960E94FB1AEF
:103C6000BC018827992727C0663041F407960E9437
:103C7000FB1A672F782F892F99271DC0673021F4F1
:103C800007960E94FB1A17C0683011F4608913C0B0
:103C9000693011F467850FC06A3011F461890BC077
:103CA0006B3011F4628907C00E94B519FC01E10F65
:103CB000F11D3C976081862F1F9108950E94BD19C8
:103CC000845F08959C01295F3F4FC9010895FC015D
:103CD000878590890895FC0181890895FC01828976
:103CE0000895DC011796FB0188E001900D92815048
:103CF000E1F70895FC01708B67870895FC01618BE3
:103D00000895FC01628B0895EF92FF920F937C015E
:103D100061E041E020E030E000E00E9487198AE0A5
:103D200095E0F701918380830F91FF90EF900895C4
:103D3000EF92FF920F937C0161E041E020E030E0E0
:103D400000E00E9487198AE095E0F7019183808363
:103D50000F91FF90EF900895AF92BF92CF92DF92B4
:103D6000EF920F931F936C015B01142F4E2D61E0B6
:103D70000E9487198AE095E0F60191838083B086DE
:103D8000A78211871F910F91EF90DF90CF90BF9086
:103D9000AF900895AF92BF92CF92DF92EF920F93C0
:103DA0001F936C015B01142F4E2D61E00E94871957
:103DB0008AE095E0F60191838083B086A78211871F
:103DC0001F910F91EF90DF90CF90BF90AF9008952B
:103DD000CF92DF92EF92FF920F937C016B01FA0179
:103DE000022F61E041E09F010E9487198AE095E07F
:103DF000F70191838083D086C78211860F91FF904F
:103E0000EF90DF90CF900895CF92DF92EF92FF92E4
:103E10000F937C016B01FA01022F61E041E09F01E9
:103E20000E9487198AE095E0F70191838083D0860C
:103E3000C78211860F91FF90EF90DF90CF90089589
:103E40001F93FC01162F662311F480850FC061308B
:103E500011F487810BC0623011F4818507C00E9484
:103E6000B519FC01E10FF11D339780811F91089571
:103E70000E94BD198D5F0895FC018781908508958A
:103E8000FC01708767830895FC0181850895FC011A
:103E900061870895EF92FF920F937C0160E041E00B
:103EA00020E030E000E00E94871982E095E0F70111
:103EB000918380830F91FF90EF900895EF92FF928E
:103EC0000F937C0160E041E020E030E000E00E94E0
:103ED000871982E095E0F701918380830F91FF902D
:103EE000EF900895DF92EF92FF920F931F93CF937D
:103EF000DF93EC01162FF72ED42E4E2D60E00E949A
:103F0000871982E095E099838883DE011796212F37
:103F10003F2DC901FC0188E001900D928150E1F72D
:103F2000DF86DF91CF911F910F91FF90EF90DF908F
:103F30000895DF92EF92FF920F931F93CF93DF9339
:103F4000EC01162FF72ED42E4E2D60E00E9487191B
:103F500082E095E099838883DE011796212F3F2D1B
:103F6000C901FC0188E001900D928150E1F7DF86E4
:103F7000DF91CF911F910F91FF90EF90DF90089507
:103F8000FF920F931F93CF93DF93EC01162FF72E21
:103F9000FA01022F60E041E09F010E94871982E050
:103FA00095E099838883DE011796212F3F2DC90163
:103FB000FC0188E001900D928150E1F71F86DF91AE
:103FC000CF911F910F91FF900895FF920F931F9330
:103FD000CF93DF93EC01162FF72EFA01022F60E04A
:103FE00041E09F010E94871982E095E099838883D0
:103FF000DE011796212F3F2DC901FC0188E00190B9
:104000000D928150E1F71F86DF91CF911F910F91A3
:10401000FF9008951F93FC01162F662321F4079645
:104020000E94EF1A17C0613021F407960E94EF1A20
:104030001BC0623021F407960E94EF1A1EC0633045
:1040400021F407960E94EF1A2EC0643041F40796BF
:104050000E94FB1A692F77278827992724C065308B
:1040600039F407960E94FB1ABC01882799271BC0C8
:10407000663041F407960E94FB1A672F782F892F2C
:10408000992711C0673021F407960E94FB1A0BC0D4
:10409000683011F4678507C00E94B519FC01E10F73
:1040A000F11D39976081862F1F9108950E94BD19D7
:1040B000875F08959C01295F3F4FC9010895DC0186
:1040C0001796FB0188E001900D928150E1F7089569
:1040D000FC0187850895FC0167870895BF92CF9200
:1040E000DF92EF92FF920F931F938C017B016A0185
:1040F000B22E68E041E00E946B198AEF94E0F8016B
:1041000091838083F582E482D782C682B0861F9134
:104110000F91FF90EF90DF90CF90BF900895BF92E6
:10412000CF92DF92EF92FF920F931F938C017B014E
:104130006A01B22E68E041E00E946B198AEF94E0B8
:10414000F80191838083F582E482D782C682B086AB
:104150001F910F91FF90EF90DF90CF90BF90089547
:10416000FC01848195810895FC01868197810895E1
:10417000FC0180850895FC01758364830895FC012A
:10418000778366830895FC0160870895FC016623A8
:1041900029F40480F581E02D80810895613029F4AF
:1041A0000480F581E02D818108950680F781E02D5E
:1041B000E60FF11D329780810895FC011782168267
:1041C00010860895EF92FF920F931F938C017B014D
:1041D00068E041E00E946B198AEF94E0F801918356
:1041E0008083F582E482C8010E94DD201F910F9137
:1041F000FF90EF900895EF92FF920F931F938C0121
:104200007B0168E041E00E946B198AEF94E0F801BD
:1042100091838083F582E482C8010E94DD201F9192
:104220000F91FF90EF9008950F931F938C0168E01A
:1042300041E00E946B198AEF94E0F801918380833A
:1042400015821482C8010E94DD201F910F910895EC
:104250000F931F938C0168E041E00E946B198AEF75
:1042600094E0F8019183808315821482C8010E9432
:10427000DD201F910F910895FC0180858E5F0895C8
:104280000F931F938C0160E070E040E050E020E06D
:104290000E946E2082EF94E0F80191838083128A5D
:1042A000118A138AC80167E10E9484191F910F9136
:1042B00008950F931F938C0160E070E040E050E0A0
:1042C00020E00E946E2082EF94E0F80191838083C9
:1042D000128A118A138AC80167E10E9484191F910A
:1042E0000F910895EF92FF920F93CF93DF93EC011C
:1042F0007B01BA01A901202F0E946E2082EF94E079
:1043000099838883DE011996E5EAF6E088E001905A
:104310000D928150E1F7FA8AE98A81E08B8BCE0118
:1043200067E10E948419DF91CF910F91FF90EF9088
:104330000895EF92FF920F93CF93DF93EC017B01EF
:10434000BA01A901202F0E946E2082EF94E0998388
:104350008883DE011996E5EAF6E088E001900D9287
:104360008150E1F7FA8AE98A81E08B8BCE0167E11F
:104370000E948419DF91CF910F91FF90EF900895E3
:104380000F931F93CF93DF93EC018B01BA0140E0B1
:1043900050E020E00E946E2082EF94E099838883B1
:1043A000DE011996E5EAF6E088E001900D92815071
:1043B000E1F71A8B098B1B8ACE0167E10E948419F1
:1043C000DF91CF911F910F9108950F931F93CF937A
:1043D000DF93EC018B01BA0140E050E020E00E9445
:1043E0006E2082EF94E099838883DE011996E5EAD6
:1043F000F6E088E001900D928150E1F71A8B098B6D
:104400001B8ACE0167E10E948419DF91CF911F9131
:104410000F910895FF920F931F93CF93DF93EC01B9
:10442000162FF72EBA01A901202F0E946E2082EFCD
:1044300094E099838883DE011996212F3F2DC901CD
:10444000FC0188E001900D928150E1F78EEF9FEF23
:104450009A8B898B81E08B8BCE0167E10E94841956
:10446000DF91CF911F910F91FF900895FF920F93CD
:104470001F93CF93DF93EC01162FF72EBA01A901FA
:10448000202F0E946E2082EF94E099838883DE01C2
:104490001996212F3F2DC901FC0188E001900D9252
:1044A0008150E1F78EEF9FEF9A8B898B81E08B8BA8
:1044B000CE0167E10E948419DF91CF911F910F9186
:1044C000FF9008950F931F93CF93DF93EC01162F66
:1044D000072FBA0140E050E020E00E946E2082EFFA
:1044E00094E099838883DE011996212F302FC9012A
:1044F000FC0188E001900D928150E1F78EEF9FEF73
:104500009A8B898B1B8ACE0167E10E948419DF9107
:10451000CF911F910F9108950F931F93CF93DF9326
:10452000EC01162F072FBA0140E050E020E00E9476
:104530006E2082EF94E099838883DE011996212F03
:10454000302FC901FC0188E001900D928150E1F704
:104550008EEF9FEF9A8B898B1B8ACE0167E10E94B9
:104560008419DF91CF911F910F910895FC018189EA
:1045700092890895FC01728B618B08959C01275FDD
:104580003F4FC9010895DC011996FB0188E00190B5
:104590000D928150E1F70895FC0183890895FC0193
:1045A000638B08951F93FC01162F662321F409964F
:1045B0000E94EF1A17C0613021F409960E94EF1A89
:1045C0001BC0623021F409960E94EF1A1EC06330AE
:1045D00021F409960E94EF1A48C0643041F409960C
:1045E0000E94FB1A692F7727882799273EC06530DC
:1045F00039F409960E94FB1ABC018827992735C017
:10460000663041F409960E94FB1A672F782F892F94
:1046100099272BC0673021F409960E94FB1A25C008
:10462000683011F4628921C0693011F461891DC0BC
:104630006A3039F48389882311F460E016C062E09F
:1046400014C06B3021F40E94B020FC010DC06C300E
:1046500029F40E94B020FC01618107C00E94B420AF
:10466000FC01E10FF11D3D976081862F1F91089598
:104670000E94B820835F08950F931F9385EA96E008
:1046800040E050E060E070E00FEF1FEF20E030E02E
:104690000E94E11A1F910F9108951F93162F442332
:1046A000D1F0862F8D57823020F0613111F06331C7
:1046B00091F48DEB98E06DE770E040E050E00E94EF
:1046C000632960E261278DEB98E070E040E050E004
:1046D0000E94632907C08DEB98E0612F40E050E015
:1046E0000E941B291F910895CF92DF92FF920F9392
:1046F0001F93CF93DF936C01EB016EE740E00E94C4
:104700004D23E881F9810280F381E02DCE010995E6
:10471000082FE881F9810280F381E02DCE0109950F
:10472000F82E10E00E5F1F4FC601612F41E00E947E
:104730004D2382E0F80EC6016F2D41E00E944D230B
:10474000CE010E948119682FC60141E00E944D23CD
:10475000CE010E947E19682FC60141E00E944D23C0
:10476000CE010E948119F82ECE010E947E19F80E0A
:1047700000E010E018C0E881F9810190F081E02D9F
:10478000CE01602F0995682FC60141E00E944D239C
:10479000E881F9810190F081E02DCE01602F09952B
:1047A000F80E0F5F1F4FE881F9810280F381E02D41
:1047B000CE01099590E008171907ECF2F094C601B4
:1047C0006F2D41E00E944D238DEB98E00E940B2756
:1047D000DF91CF911F910F91FF90DF90CF900895BF
:1047E000CF92DF92EF92FF920F931F93CF93DF93BD
:1047F000EC01F82EED2E0E94AF13882331F4CE0188
:104800000E94B513882309F494C0CE010E94C118F8
:1048100090C08DEB98E00E94E726982F8B878A85C1
:104820008823B9F09E3721F48F2D9E2D63E046C07A
:104830009D3779F48DEB98E00E94BC26892B39F0E6
:104840008DEB98E00E94E7268D258B8702C0C986F4
:1048500074C08985882321F08B858D258B871986E7
:104860008A85833020F08C859B85890F8C878A858B
:10487000813069F0813028F0823079F08330C9F4DA
:1048800012C08B858E3709F058C0CA8656C08F2D4E
:104890009E2D6B850E949A1348C08F2D9E2D6B858F
:1048A0000E94A01342C08F2D9E2D6B850E949413F1
:1048B0003CC08F3630F08F2D9E2D62E00E94BD13DC
:1048C00043C0082F10E08F2D9E2D0E94B514039633
:1048D00008171907F9F48C858F3F71F48F2D9E2DE1
:1048E0006B850E94A6138F2D9E2D61E00E94B2134E
:1048F0008F2D9E2D60E003C08F2D9E2D61E00E94C4
:10490000BD136A8564508F2D9E2D0E94AC131A86AC
:104910001C861AC08F2D9E2D0E94E714080F191FA8
:10492000045010408B85F80180838A858F5F8A87C9
:1049300004C0CC24C39440E2D42E8DEB98E00E94B6
:10494000BC26892B09F065CFDF91CF911F910F9184
:10495000FF90EF90DF90CF9008950F931F93CF9328
:10496000DF938C010E943819EC01CE010E94AF1335
:10497000882349F4CE010E94B513882321F4C8018D
:104980000E94F023F2CFDF91CF911F910F910895F4
:10499000AF92BF92CF92DF92EF92FF920F931F934D
:1049A000CF93DF935C016B0177FD1EC00E94BB3388
:1049B0007B018C0112C0C5010E94F023C5010E9439
:1049C0003819EC010E94AF13882311F081E00DC06B
:1049D000CE010E94B513882339F40E94BB336E19AF
:1049E0007F096C157D053CF380E0DF91CF911F912D
:1049F0000F91FF90EF90DF90CF90BF90AF90089510
:104A00008DEB98E00E94392608951F920F920FB601
:104A10000F920BB60F9211242F933F934F938F93C6
:104A20009F93EF93FF934091C600E0912D07F09183
:104A30002E0731969F012F773070319780912F0785
:104A4000909130072817390739F0E355F94F408323
:104A500030932E0720932D07FF91EF919F918F9117
:104A60004F913F912F910F900BBE0F900FBE0F9063
:104A70001F9018951F920F920FB60F920BB60F92C0
:104A800011242F933F934F938F939F93EF93FF9313
:104A90004091CE00E091B107F091B20731969F01AD
:104AA0002F77307031978091B3079091B407281712
:104AB000390739F0EF5CF84F40833093B207209309
:104AC000B107FF91EF919F918F914F913F912F915E
:104AD0000F900BBE0F900FBE0F901F9018951F9256
:104AE0000F920FB60F920BB60F9211242F933F9394
:104AF0004F938F939F93EF93FF934091D600E09154
:104B00003508F091360831969F012F773070319734
:104B100080913708909138082817390739F0EB54FD
:104B2000F84F40833093360820933508FF91EF917A
:104B30009F918F914F913F912F910F900BBE0F90AE
:104B40000FBE0F901F9018951F920F920FB60F92E5
:104B50000BB60F9211242F933F934F938F939F93F4
:104B6000EF93FF9340913601E091B908F091BA08B4
:104B700031969F012F77307031978091BB089091CB
:104B8000BC082817390739F0E75CF74F40833093AA
:104B9000BA082093B908FF91EF919F918F914F919F
:104BA0003F912F910F900BBE0F900FBE0F901F9053
:104BB00018958F92AF92CF92DF92EF92FF920F9360
:104BC0001F93DF93CF93CDB7DEB7FC018EE795E05F
:104BD00091838083738362835583448337832683E1
:104BE00011870087F386E286D586C486A6868786E7
:104BF0008D85808B8E85818B8F85828BCF91DF9188
:104C00001F910F91FF90EF90DF90CF90AF908F901A
:104C100008958F92AF92CF92DF92EF92FF920F930F
:104C20001F93DF93CF93CDB7DEB7FC018EE795E0FE
:104C30009183808373836283558344833783268380
:104C400011870087F386E286D586C486A686878686
:104C50008D85808B8E85818B8F85828BCF91DF9127
:104C60001F910F91FF90EF90DF90CF90AF908F90BA
:104C70000895CF93DF93EC019A01AB01E885F985A4
:104C8000203081EE380780E0480780E0580709F4BB
:104C900045C081E090E00A8802C0880F991F0A94FD
:104CA000E2F7808360E079E08DE390E00E94E336F4
:104CB00021503040404050405695479537952795B4
:104CC000EC81FD813083EE81FF812083EA85FB85C5
:104CD000208141E050E0CA010E8402C0880F991F74
:104CE0000A94E2F7282B2083EA85FB852081CA01FC
:104CF0000F8402C0880F991F0A94E2F7282B2083A3
:104D0000EA85FB858081088802C0440F551F0A94FC
:104D1000E2F7842B8083DF91CF910895108220E108
:104D200030E0CECFFC01A285B3854C9121E030E08C
:104D3000C901068402C0880F991F0A94E2F7809582
:104D400084238C93A285B3854C91C901078402C04A
:104D5000880F991F0A94E2F7809584238C93A2858B
:104D6000B3858C91008802C0220F331F0A94E2F7AA
:104D7000209528232C930895DC011296ED91FC9147
:104D80001397E058FF4F2191319180819181281B29
:104D9000390B2F773070C9010895DC011296ED911F
:104DA000FC911397EE57FF4F2081318192918291B0
:104DB000E058F0408217930719F42FEF3FEF05C03A
:104DC000E20FF31F8081282F30E0C9010895DC0134
:104DD0001296ED91FC911397DF01AE57BF4F2D91C5
:104DE0003C911197E058FF4F80819181E058F0404D
:104DF0008217930719F42FEF3FEF0BC0E20FF31F59
:104E000080812F5F3F4F2F7730702D933C93282F59
:104E100030E0C9010895DC011296ED91FC911397E1
:104E2000EE57FF4F80819181929382930895FC0108
:104E3000A085B18521898C9190E0022E02C09595C4
:104E400087950A94E2F780FFF6CF0484F585E02D7C
:104E5000608308952EE735E03093BE082093BD08A7
:104E60008DEA96E09093C0088093BF0885EC90E0AF
:104E70009093C2088093C10884EC90E09093C4089A
:104E80008093C30880EC90E09093C6088093C50897
:104E900081EC90E09093C8088093C70886EC90E07E
:104EA0009093CA088093C908E4E0E093CB0873E0CC
:104EB0007093CC0867E06093CD0855E05093CE081E
:104EC00041E04093CF083093D1082093D00881E38C
:104ED00097E09093D3088093D2088DEC90E0909364
:104EE000D5088093D4088CEC90E09093D7088093F9
:104EF000D60888EC90E09093D9088093D80889EC84
:104F000090E09093DB088093DA088EEC90E0909329
:104F1000DD088093DC08E093DE087093DF0860937F
:104F2000E0085093E1084093E2083093E4082093AE
:104F3000E30885EB97E09093E6088093E50885ED1C
:104F400090E09093E8088093E70884ED90E09093D8
:104F5000EA088093E90880ED90E09093EC08809354
:104F6000EB0881ED90E09093EE088093ED0886EDDC
:104F700090E09093F0088093EF08E093F10870932D
:104F8000F2086093F3085093F4084093F5083093C7
:104F9000F7082093F60889E398E09093F908809346
:104FA000F80885E391E09093FB088093FA0884E386
:104FB00091E09093FD088093FC0880E391E090934A
:104FC000FF088093FE0881E391E0909301098093AC
:104FD000000986E391E09093030980930209E0932E
:104FE00004097093050960930609509307094093DB
:104FF000080908950F931F93CF93DF938C01EB0162
:1050000009C02196D801ED91FC910190F081E02D2D
:10501000C801099568816623A1F7DF91CF911F919F
:105020000F910895EF92FF920F931F93CF93DF9309
:105030008C017B01EA010CC0D7016D917D01D80183
:10504000ED91FC910190F081E02DC8010995219727
:10505000209791F7DF91CF911F910F91FF90EF90E3
:105060000895DC01ED91FC910280F381E02D09951A
:105070000895CF92DF92EF92FF920F931F93CF93F9
:10508000DF936C017B01C0E0D0E00EC0D601ED9152
:10509000FC9100811181C701BE010E94942B682FF1
:1050A000C601F80109952196F70184819581C817F9
:1050B000D90760F3DF91CF911F910F91FF90EF908F
:1050C000DF90CF9008952F923F924F925F926F9210
:1050D0007F928F929F92AF92BF92CF92DF92EF9288
:1050E000FF920F931F93DF93CF93CDB7DEB7A097B7
:1050F0000FB6F894DEBF0FBECDBF1C016A017B0165
:10510000411551056105710549F440E350E060E047
:1051100070E020E030E00E942D2954C088249924BA
:105120005401422E55246624772401E010E00C0F30
:105130001D1F080D191DC701B601A30192010E9490
:10514000E336F80160830894811C911CA11CB11CFA
:10515000C701B601A30192010E94E336C901DA0139
:105160006C017D01C114D104E104F104F1F681E088
:10517000E82EF12CEC0EFD1EE80CF91C3E01089403
:10518000611C711CD501C4010197A109B1096C0111
:10519000C818D90814C0F601EE0DFF1D40814A3031
:1051A00010F4405D01C0495C50E060E070E0C10176
:1051B00020E030E00E942D290894E108F1086E14E7
:1051C0007F0449F7A0960FB6F894DEBF0FBECDBF9F
:1051D000CF91DF911F910F91FF90EF90DF90CF90D3
:1051E000BF90AF909F908F907F906F905F904F9007
:1051F0003F902F900895DC012115310541F4ED9188
:10520000FC910190F081E02D642F099508950E9492
:1052100063280895EF92FF920F931F939A017B01E9
:1052200000E010E0B801A7010E94FB281F910F9138
:10523000FF90EF900895EF92FF920F931F939A01C2
:10524000E62EFF2400E010E0B801A7010E94FB2831
:105250001F910F91FF90EF900895EF92FF920F939F
:105260001F93CF93DF93EC017A018B012115310558
:1052700041F4E881F9810190F081E02D642F0995D6
:105280001BC02A303105B1F477FF10C04DE250E069
:1052900060E070E020E030E00E942D29109500953C
:1052A000F094E094E11CF11C011D111DCE01B80128
:1052B000A7012AE00E946328DF91CF911F910F91EF
:1052C000FF90EF900895EF92FF920F931F937B0151
:1052D0009A010027F7FC0095102FB801A7010E9442
:1052E0002D291F910F91FF90EF900895EF92FF925B
:1052F0000F931F939A01E62EFF2400E010E0B801FF
:10530000A7010E942D291F910F91FF90EF90089502
:105310000F931F938C014DE050E060E070E020E0BF
:1053200030E00E942D29C8014AE050E060E070E0C2
:1053300020E030E00E942D291F910F9108950F93D6
:105340001F938C010E94FB28C8010E9488291F918D
:105350000F910895CF92DF92EF92FF920F931F93D8
:105360008C019A016B01EE24FF24B701A6010E9473
:10537000FB28C8010E9488291F910F91FF90EF9090
:10538000DF90CF900895CF92DF92EF92FF920F932C
:105390001F938C019A01C62EDD24EE24FF24B70151
:1053A000A6010E94FB28C8010E9488291F910F9125
:1053B000FF90EF90DF90CF9008950F931F938C0193
:1053C0000E943128C8010E9488291F910F910895D9
:1053D0000F931F938C010E943928C8010E948829CD
:1053E0001F910F9108950F931F938C010E942D29F7
:1053F000C8010E9488291F910F910895CF92DF92D2
:10540000EF92FF920F931F938C016B019A01EE2490
:10541000D7FCE094FE2CB701A6010E942D29C801FB
:105420000E9488291F910F91FF90EF90DF90CF90FD
:105430000895CF92DF92EF92FF920F931F938C010A
:105440009A01C62EDD24EE24FF24B701A6010E9496
:105450002D29C8010E9488291F910F91FF90EF907C
:10546000DF90CF9008959F92AF92BF92CF92DF923C
:10547000EF92FF920F931F93CF93DF93EC017A018A
:105480008B01922ECB01BA0120E030E040E050E0E9
:105490000E94F30988236CF4CE014DE250E060E0F5
:1054A00070E020E030E00E942D2917FB109517F9DD
:1054B000109520E030E040E05FE3AA240BC0CA0171
:1054C000B90120E030E040E251E40E9417099B015D
:1054D000AC01A394A91498F3C801B7010E94F00786
:1054E0005B016C010E9447067B018C01CE01B80173
:1054F000A7012AE030E00E94FB28992029F0CE0184
:1055000066E973E00E943128C801B7010E94D50AFC
:105510009B01AC01C601B5010E94BF0722C020E07B
:1055200030E040E251E40E941D087B018C010E94A2
:10553000810A5B016C01CC24B7FCC094DC2CCE0149
:10554000B601A5012AE030E00E942D29C601B5016F
:105550000E94230A9B01AC01C801B7010E94BF074A
:105560009A949920E1F6DF91CF911F910F91FF90CE
:10557000EF90DF90CF90BF90AF909F9008950E94E2
:10558000332A08950F931F938C010E94332AC80178
:105590000E9488291F910F9108952F923F924F9258
:1055A0005F926F927F928F929F92AF92BF92CF92B3
:1055B000DF92EF92FF920F931F93DF93CF93CDB7BC
:1055C000DEB73B014C0119012A016D897E898F8963
:1055D000988D6A197B098C099D09621A730A840ADD
:1055E000950AA40193010E94C436E218F308040945
:1055F0001509A80197010E9405372A0D3B1D4C1D76
:105600005D1DB901CA01CF91DF911F910F91FF90EC
:10561000EF90DF90CF90BF90AF909F908F907F9052
:105620006F905F904F903F902F900895089570E095
:10563000382F20E0622B732BCB010895EF92FF925D
:105640000F931F937B018C016115710581059105F5
:1056500029F420E030E040E050E00BC00E94980EBA
:10566000A80197010E940537AC01CB01DA019C012A
:10567000AD01B901CA011F910F91FF90EF900895FC
:10568000EF92FF920F931F937B018C0162177307B8
:105690008407950764F4261B370B480B590BCA0186
:1056A000B9010E941E2BE60EF71E081F191FB70135
:1056B000C8011F910F91FF90EF900895009729F076
:1056C000BC0180E090E00E949D0E0895FC010190D5
:1056D000F081E02DE60FF71F80810895DC01ED9148
:1056E000FC911197309751F014968D919C911597DC
:1056F0006817790718F4E60FF71F40830895FC0137
:105700009B01848195816817790728F460817181F4
:105710006115710529F41092090969E079E002C068
:10572000620F731FCB010895FC010190F081E02D01
:10573000E60FF71F80810895FC01808191810E940E
:105740007B0F08950F931F93CF93DF93FC018B0181
:1057500041155105A1F06115710589F0848195818C
:10576000EA0121978C179D0708F4EC016081718193
:10577000C801AE010E94DF0FC00FD11F1882DF9158
:10578000CF911F910F9108950F931F93CF93DF93A4
:10579000FC018B0141155105A1F06115710589F0DE
:1057A00084819581EA0121978C179D0708F4EC010B
:1057B00060817181C801AE010E94DF0FC00FD11F4F
:1057C0001882DF91CF911F910F9108950F931F932E
:1057D0008C01FC01808191810E94ED0DF801138202
:1057E0001282158214821F910F910895FC01DB0132
:1057F00014962D913C91159784819581821B930B72
:105800008417950710F480E00895808191816D914F
:105810007C91840F951FA9010E94D10F9C0180E00B
:10582000232B09F481E00895FC01DB0124813581FB
:1058300014968D919C9115972817390710F480E0E4
:105840000895CF0140E050E00E94F62B0895DF92CA
:10585000EF92FF920F931F93CF93DF93EC018C8114
:105860009D8148175907B8F47A010894E11CF11C8E
:10587000E881F981EE0DFF1DD08010820881198129
:10588000C80170E00E94EE0F9C010E0D1F1DF80173
:10589000D082009719F4EFEFFFEF05C0888199815E
:1058A000F901E81BF90BCF01DF91CF911F910F9107
:1058B000FF90EF90DF900895FC01448155814150A5
:1058C00050400E94272C0895CF93DF93FC01DB0109
:1058D000848195814817590760F4C081D1816D9109
:1058E0007C91CE01840F951F0E94F90F9C010097B7
:1058F00019F42FEF3FEF02C02C1B3D0BC901DF91C4
:10590000CF91089540E050E00E94642C0895CF9319
:10591000DF93FC01848195814817590758F4C081B1
:10592000D181CE01840F951F70E00E94B60F9C01BB
:10593000009719F42FEF3FEF02C02C1B3D0BC9015C
:10594000DF91CF91089540E050E00E94872C0895A8
:10595000DC01FB0114962D913C9115978481958172
:105960002817390711F080E00895608171818D91C9
:105970009C910E94C10F9C0180E0232B09F481E0DF
:105980000895FC01DB012481358114968D919C9151
:1059900015972817390710F480E00895281B390B54
:1059A000808191816D917C91820F931F0E94C10F24
:1059B0009C0180E0232B09F481E00895DC01FB01C8
:1059C000608171818D919C910E94C10F292F332795
:1059D00027FD3095209530952227330F221F33273E
:1059E000C9010895DC01FB01608171818D919C9159
:1059F0000E94C10F40E050E01816190614F041E073
:105A000050E0CA010895DC01FB01608171818D9134
:105A10009C910E94C10F40E050E01816190614F442
:105A200041E050E0CA010895DC01FB016081718111
:105A30008D919C910E94C10F292F332727FD30950E
:105A40002227330F221F3327C9010895DC01FB01F0
:105A500014962D913C9115978481958128173907CB
:105A600051F4608171818D919C910E94C10F9C01C4
:105A700080E0232B09F081E090E00895DC01FB0138
:105A800014962D913C91159784819581281739079B
:105A900011F080E00BC0608171818D919C910E941A
:105AA000C10F9C0180E0232B09F481E090E0089570
:105AB000FC01DB016D917C91808191810E94C10F7D
:105AC00008950F931F93CF93DF93EC018B01FB019C
:105AD000648175818C819D81680F791F7D836C83C2
