:100000000C94B2010C94DA010C94DA010C944C2596
:100010000C9470250C9494250C94DA010C94DA015C
:100020000C94DA010C94DA010C94DA010C94DA01E4
:100030000C94DA010C94DA010C94DA010C94DA01D4
:100040000C9452350C94DA010C941D280C94DA01AE
:100050000C94DA010C94DA010C94DA010C94DA01B4
:100060000C94DA010C94DA0100C2010001001100C5
:1000700011000C0000E100000A002500250021000D
:10008000009600001900390039003600127A00008D
:100090001F004600460044008070000022004D0012
:1000A0004D004A00004B00003600750075007200DC
:1000B000403800004A009C009C0099008025000008
:1000C0007200EC00EC00E900C0120000E900DA0167
:1000D000DA01D70160090000D701B603B603B30304
:1000E000B0040000B3036E076E076B072C0100001D
:1000F000DC0EC11DC11DBE1D52096AD53036A538A2
:10010000BF40A39E81F3D7FB7CE339829B2FFF87FF
:10011000348E4344C4DEE9CB547B9432A6C2233DE3
:10012000EE4C950B42FAC34E082EA16628D924B294
:10013000765BA2496D8BD12572F8F66486689816B5
:10014000D4A45CCC5D65B6926C704850FDEDB9DA14
:100150005E154657A78D9D8490D8AB008CBCD30A02
:10016000F7E45805B8B34506D02C1E8FCA3F0F02DE
:10017000C1AFBD0301138A6B3A9111414F67DCEAAD
:1001800097F2CFCEF0B4E67396AC7422E7AD358526
:10019000E2F937E81C75DF6E47F11A711D29C58930
:1001A0006FB7620EAA18BE1BFC563E4BC6D2792012
:1001B0009ADBC0FE78CD5AF41FDDA8338807C7311B
:1001C000B11210592780EC5F60517FA919B54A0D13
:1001D0002DE57A9F93C99CEFA0E03B4DAE2AF5B088
:1001E000C8EBBB3C83539961172B047EBA77D626A4
:1001F000E169146355210C7D010204081020408040
:100200001B36637C777BF26B6FC53001672BFED7A3
:10021000AB76CA82C97DFA5947F0ADD4A2AF9CA48F
:1002200072C0B7FD9326363FF7CC34A5E5F171D8FF
:10023000311504C723C31896059A071280E2EB27ED
:10024000B27509832C1A1B6E5AA0523BD6B329E310
:100250002F8453D100ED20FCB15B6ACBBE394A4CF0
:1002600058CFD0EFAAFB434D338545F9027F503C70
:100270009FA851A3408F929D38F5BCB6DA2110FF9C
:10028000F3D2CD0C13EC5F974417C4A77E3D645D99
:10029000197360814FDC222A908846EEB814DE5E26
:1002A0000BDBE0323A0A4906245CC2D3AC6291957A
:1002B000E479E7C8376D8DD54EA96C56F4EA657AB6
:1002C000AE08BA78252E1CA6B4C6E8DD741F4BBD57
:1002D0008B8A703EB5664803F60E613557B986C104
:1002E0001D9EE1F8981169D98E949B1E87E9CE5521
:1002F00028DF8CA1890DBFE6426841992D0FB054CB
:10030000BB1600000000240027002A0000000000A7
:10031000250028002B0000000000230026002900F3
:10032000040404040404040402020202020203039B
:1003300003030303010204081020408001020408A3
:100340001020010204081020000000070002010034
:10035000000304060000000000000000DE1065221B
:100360009F29D71011241FBECFEFD8E0DEBFCDBF2D
:1003700014E0A0E0B1E0E4E5F1E702C005900D92E1
:10038000AE38B107D9F716E0AEE8B4E001C01D926F
:10039000A339B107E1F713E0C2E6D3E004C0229726
:1003A000FE010E947E38CC35D107C9F70E94D911D1
:1003B0000C949D380C9400004AE00E94300208958D
:1003C0004AE00E94DE030895DF93CF9300D000D06F
:1003D000CDB7DEB7DC018C91898314968C9114978C
:1003E0008A8318968C9118978B831C968C911C97F6
:1003F0008C8370E0EE27FF27E61BF70BE370F070AD
:100400009E012F5F3F4FE20FF31F80818C93E5E049
:10041000F0E0E61BF70BE370F070E20FF31F808152
:1004200014968C931497E6E0F0E0E61BF70BE3706C
:10043000F070E20FF31F808118968C9318976095E7
:10044000709563707070260F371FF90180811C96BC
:100450008C930F900F900F900F90CF91DF91089594
:100460002F923F924F925F926F927F928F929F92C4
:10047000AF92BF92CF92DF92EF92FF920F931F93B2
:10048000DF93CF93CDB7DEB76B970FB6F894DEBF8F
:100490000FBECDBF2C01798F688F142F50E094E0F0
:1004A000440F551F9A95E1F7460F571F1201D201CD
:1004B00020E030E0FA01E20FF31F8C919081892750
:1004C0008D932F5F3F4F20313105A1F7C201019677
:1004D0009B8B8A8B61E00E94E401D2011296BD8B56
:1004E000AC8BCD0162E00E94E401F2013396FF8BF8
:1004F000EE8BCF0163E00E94E401D20180E0EC9139
:10050000F0E0E850FF4FE491ED938F5F8031B9F751
:10051000A12ECE0141969B8F8A8F9CC0AA946A2DF2
:1005200070E084E0660F771F8A95E1F7A88DB98D9A
:100530006A0F7B1F40E050E021E030E02C0F3D1FB0
:10054000240F351FFB01E40FF51FD201A40FB51FC7
:1005500080819C918927F90180834F5F5F4F4031F3
:10056000510551F74E010894811C911C3201D401B0
:1005700013961C9113971296EC901297CE2CC126CD
:1005800011960C911197FC90BF2DB027B98B6B2F52
:100590006C2589E04BE10E94EA05D82E6F2D6E256F
:1005A00084E04BE10E94EA05B82EBD24602F61274C
:1005B00084E04BE10E94EA05D8266F2D612782E096
:1005C0004BE10E94EA0518271D25F301138382E001
:1005D0006C2D4BE10E94EA058E258B25D3011296E6
:1005E0008C93E02682E06E2D4BE10E94EA050827FD
:1005F0000D25F301018382E069894BE10E94EA0540
:10060000F826FB24D301FC92E4E0F0E08E0E9F1E5E
:100610006E0E7F1E8A8D9B8D8816990609F0A7CFD6
:100620008A899B8961E00E94E4018C899D8962E04E
:100630000E94E4018E899F8963E00E94E401D20157
:1006400080E0EC91F0E0E850FF4FE491ED938F5F94
:100650008031B9F791E09A1508F460CF20E030E0DE
:10066000E88DF98DE20FF31FD1018C9190818927DC
:10067000F10181931F012F5F3F4F2031310581F739
:100680006B960FB6F894DEBF0FBECDBFCF91DF9152
:100690001F910F91FF90EF90DF90CF90BF90AF90A0
:1006A0009F908F907F906F905F904F903F902F9092
:1006B0000895DF93CF9300D000D0CDB7DEB79C0173
:1006C000A62FB0E0EE27FF27EA1BFB0BE370F070CC
:1006D000E80FF91F80818983E5E0F0E0EA1BFB0B5E
:1006E000E370F070E20FF31F80818A83E6E0F0E0B0
:1006F000EA1BFB0BE370F070E20FF31F80818B832A
:10070000A095B095A370B070A20FB31F8C918C838D
:1007100089819A81AB81BC81F90180839183A28315
:10072000B3830F900F900F900F90CF91DF910895AA
:10073000DF93CF9300D000D0CDB7DEB7DC018C9132
:10074000898314968C9114978A8318968C911897A4
:100750008B831C968C911C978C8370E0FB01E3705B
:10076000F0709E012F5F3F4FE20FF31F80818C934B
:10077000FB013196E370F070E20FF31F8081149655
:100780008C9314976E5F7F4FFB01E370F070E20F64
:10079000F31F808118968C9318976F5F7F4F63705B
:1007A0007070260F371FF90180811C968C930F9073
:1007B0000F900F900F90CF91DF9108953F924F923D
:1007C0005F926F927F928F929F92AF92BF92CF92E1
:1007D000DF92EF92FF920F931F93DF93CF93CDB7EA
:1007E000DEB762970FB6F894DEBF0FBECDBF5C01D7
:1007F0003B01342E2C01DC0120E030E0F301E20F5C
:10080000F31F8C91908189278D932F5F3F4F20316B
:100810003105A1F701E0CE0141969A8B898B8FC0FB
:100820004F0194E0880C991C9A95E1F7860C971C6F
:1008300080E090E0F501E80FF91FE081F0E0EE5F65
:10084000FD4FE491A1E0B0E0AC0FBD1FA80FB91FB0
:10085000EC9301968031910569F7CE01029661E033
:100860000E949803CE01039662E00E949803CE0195
:10087000049663E00E9498037E010894E11CF11C39
:100880006501D70111966C9111978C916827139689
:100890001C91139712968C911827162782E04BE132
:1008A0000E94EA05F701908191279827D6019C9331
:1008B00062818181682782E04BE10E94EA05F701AD
:1008C000918191279827D60111969C93638182810B
:1008D000682782E04BE10E94EA05F70192819127A7
:1008E0009827D60112969C9360818381682782E0C5
:1008F0004BE10E94EA05F701938119271827D601D9
:1009000013961C93E4E0F0E0EE0EFF1ECE0EDF1E09
:1009100089899A89E816F90609F0B3CFD50120E054
:1009200030E0F401E20FF31F8C91908189278D93C1
:100930002F5F3F4F20313105A1F70F5F3A94E02F31
:10094000F0E091E0931508F46BCF7F0184E0EE0CAA
:10095000FF1C8A95E1F7E60CF71CD50180E0EC91CD
:10096000F0E0EE5FFD4FE491ED938F5F8031B9F7DA
:10097000C501019661E00E949803C501029662E0FC
:100980000E949803C501039663E00E94980320E04B
:1009900030E0F701E20FF31FD2018C91908189279B
:1009A000F20181932F012F5F3F4F2031310589F7ED
:1009B00062960FB6F894DEBF0FBECDBFCF91DF9128
:1009C0001F910F91FF90EF90DF90CF90BF90AF906D
:1009D0009F908F907F906F905F904F903F90089581
:1009E0002F923F924F925F926F927F928F929F923F
:1009F000AF92BF92CF92DF92EF92FF920F931F932D
:100A0000DF93CF9300D000D0CDB7DEB7FC019B01C0
:100A1000F42EE52E8B0155E0169507955A95E1F7D2
:100A2000902EA02EBB2487E090E0A80EB91E8A2C41
:100A3000880C880C89EF9FEFA80EB91E43E036950D
:100A400027954A95E1F78F2D9E2DBF01A9010E94A0
:100A5000520FCF2CDE2CE02EEE0CF02E10E02E01EB
:100A60000894411C511C32010894611C711C34E033
:100A7000232E312C2C0E3D1E81C06F2D70E0FB010A
:100A8000E150F040EE0FFF1FEE0FFF1FEC0DFD1DBC
:100A900080819181A281B38189839A83AB83BC8356
:100AA000F01619F198E0991609F045C0CB0187704E
:100AB0009070049709F03FC0E981F0E0EE5FFD4FD0
:100AC000E491E983EA81F0E0EE5FFD4FE491EA838F
:100AD000EB81F0E0EE5FFD4FE491EB83EC81F0E021
:100AE000EE5FFD4FE491EC8326C0F1012081F2011D
:100AF0003081F3018081E82FF0E0EE5FFD4F9491AB
:100B0000EB81F0E0EE5FFD4FE491EA83E22FF0E04D
:100B1000EE5FFD4F84918B83E32FF0E0EE5FFD4F9E
:100B200084918C83E12FF0E0E850FE4FE4919E2702
:100B300099831F5F0E2D660F771F660F771F6C0D51
:100B40007D1DEF2DF0E0EA19FB09EE0FFF1FEE0F00
:100B5000FF1FEC0DFD1D80819181A281B381298150
:100B60003A814B815C8182279327A427B527FB011B
:100B700080839183A283B383F394E394F81408F4FD
:100B80007CCF0F900F900F900F90CF91DF911F911E
:100B90000F91FF90EF90DF90CF90BF90AF909F901C
:100BA0008F907F906F905F904F903F902F9008951F
:100BB000AB0160E071E00E94F0040895AB0160ECCD
:100BC00070E00E94F0040895AB0160E870E00E94BC
:100BD000F0040895782F8827769531F008F4862759
:100BE000660F08F46427F8CF08F486270895EF927B
:100BF000FF920F931F937B018C0120E030E040E0D7
:100C00005FE40E94730988238CF0C801B70120E0DB
:100C100030E040E05FE40E946F070E94310A9B01D0
:100C2000AC01205030404040504806C0C801B701D8
:100C30000E94310A9B01AC01B901CA011F910F91B9
:100C4000FF90EF900895A0E0B0E0E9E2F6E00C94A8
:100C50004538DC012B01FA019C91923008F439C12E
:100C6000EB018881823008F433C1943069F4843018
:100C700009F02FC111969C9111978981981709F459
:100C800028C1A6E8B2E025C1843009F421C1823030
:100C9000A9F4923009F01DC19A01AD0188E0EA0182
:100CA0000990AE01E90109929E018150C1F7E2016C
:100CB000898111969C918923818308C1923009F41E
:100CC00007C112962D903C901397EB018A819B816E
:100CD0001496AD90BD90CD90DC901797EC80FD8080
:100CE0000E811F819101281B390BB90137FF04C008
:100CF00066277727621B730B603271050CF061C0A9
:100D0000121613066CF537014801062E04C096949E
:100D10008794779467940A94D2F721E030E040E01A
:100D200050E004C0220F331F441F551F6A95D2F7AD
:100D300021503040404050402E213F21402351233C
:100D4000211531054105510521F021E030E040E059
:100D500050E079018A01E628F728082919293CC0C2
:100D6000232BD1F1260E371E35014601062E04C075
:100D700096948794779467940A94D2F721E030E0B0
:100D800040E050E004C0220F331F441F551F6A95F6
:100D9000D2F721503040404050402A213B214C2185
:100DA0005D21211531054105510521F021E030E09B
:100DB00040E050E059016A01A628B728C828D92880
:100DC0000BC0821593052CF01C01AA24BB246501DD
:100DD00003C0EE24FF24870111969C91D201119645
:100DE0008C91981709F445C0992339F0A80197010F
:100DF0002A193B094C095D0906C0A60195012E1967
:100E00003F09400B510B57FD08C0118233822282EB
:100E100024833583468357831DC081E081833382D9
:100E2000228288279927DC01821B930BA40BB50B28
:100E300084839583A683B7830DC0220F331F441F7D
:100E4000551F24833583468357838281938101977D
:100E5000938382832481358146815781DA01C901D8
:100E60000197A109B1098F5F9F4FAF4FBF4328F38F
:100E70000BC0918333822282EA0CFB1C0C1D1D1DCA
:100E8000E482F5820683178383E0808324813581A1
:100E90004681578157FF1AC0C901AA2797FDA0951F
:100EA000BA2F81709070A070B070569547953795A5
:100EB0002795822B932BA42BB52B84839583A68314
:100EC000B78382819381019693838283DF0101C07E
:100ED000D201CD01CDB7DEB7E2E10C946138A0E2DA
:100EE000B0E0E5E7F7E00C94513869837A838B83AF
:100EF0009C832D833E834F835887E9E0EE2EF12CAF
:100F0000EC0EFD1ECE010196B7010E94220C8E014F
:100F10000F5E1F4FCE010596B8010E94220C8A89F0
:100F200091E089278A8BC701B801AE01475E5F4F08
:100F30000E9423060E944D0BA096E6E00C946D38AB
:100F4000A0E2B0E0E6EAF7E00C94513869837A83D6
:100F50008B839C832D833E834F835887F9E0EF2E4C
:100F6000F12CEC0EFD1ECE010196B7010E94220C61
:100F70008E010F5E1F4FCE010596B8010E94220C14
:100F8000C701B801AE01475E5F4F0E9423060E9471
:100F90004D0BA096E6E00C946D38A0E2B0E0E3EDD6
:100FA000F7E00C94453869837A838B839C832D8387
:100FB0003E834F835887CE010196BE01675F7F4F06
:100FC0000E94220CCE010596BE016F5E7F4F0E94EB
:100FD000220C9985923088F089898230C8F094304B
:100FE00019F4823051F404C0843029F4923081F431
:100FF00086E892E0C6C0923049F420E09A858A895A
:10100000981321E02A87CE010996BBC0823049F4AB
:1010100020E09A858A89981321E02A8BCE01419697
:10102000B0C02D843E844F8458886D887E888F8818
:10103000988CEE24FF248701AA24BB24650140E09C
:1010400050E060E070E0E0E0F0E0C101817090709D
:10105000892BE9F0E60CF71C081D191D9A01AB015C
:101060002A0D3B1D4C1D5D1D80E090E0A0E0B0E02E
:10107000E614F7040805190520F481E090E0A0E0EB
:10108000B0E0BA01A901480F591F6A1F7B1FAA0CC3
:10109000BB1CCC1CDD1C97FE08C081E090E0A0E0EA
:1010A000B0E0A82AB92ACA2ADB2A3196E032F10533
:1010B00049F0660C771C881C991C56944794379409
:1010C0002794C3CFFA85EA892B893C898B859C8537
:1010D000280F391F2E5F3F4F17C0CA0181709070D3
:1010E000892B61F016950795F794E79480E090E0DE
:1010F000A0E0B0E8E82AF92A0A2B1B2B7695679521
:10110000579547952F5F3F4F77FDE7CF0CC0440FB2
:10111000551F661F771F17FD4160EE0CFF1C001F57
:10112000111F21503040403090E0590790E069078E
:1011300090E4790760F32B8F3C8FDB01CA018F7736
:101140009070A070B07080349105A105B10561F474
:1011500047FD0AC0E114F1040105110529F0405CC6
:101160005F4F6F4F7F4F40781A8EFE1711F081E06E
:101170008A8F4D8F5E8F6F8F78A383E0898FCE012A
:1011800049960E944D0BA096E2E10C946138A8E1CB
:10119000B0E0EDECF8E00C944D3869837A838B83F2
:1011A0009C832D833E834F835887B9E0EB2EF12C2F
:1011B000EC0EFD1ECE010196B7010E94220C8E019D
:1011C0000F5E1F4FCE010596B8010E94220C2985A3
:1011D000223008F47EC03989323010F4B8017CC066
:1011E0008A859A8989278A87243011F0223031F440
:1011F000231709F06EC066E872E06EC0343039F42F
:101200001D861E861F86188A1C861B8604C03230E7
:1012100021F484E08987B7015FC02B853C858B89E9
:101220009C89281B390B3C872B87ED84FE840F8516
:101230001889AD88BE88CF88D88CEA14FB040C05C9
:101240001D0540F4EE0CFF1C001F111F2150304003
:101250003C872B8720E030E040E050E080E090E0E9
:10126000A0E0B0E460E070E0EA14FB040C051D05AA
:1012700040F0282B392B4A2B5B2BEA18FB080C0972
:101280001D09B695A79597958795EE0CFF1C001F35
:10129000111F6F5F7F4F6F31710531F7DA01C9019F
:1012A0008F779070A070B07080349105A105B10562
:1012B00061F427FD0AC0E114F1040105110529F0CC
:1012C000205C3F4F4F4F5F4F20782D873E874F87E1
:1012D000588BBE01675F7F4FCB010E944D0B689614
:1012E000EAE00C946938A8E1B0E0E9E7F9E00C9491
:1012F000513869837A838B839C832D833E834F830C
:10130000588789E0E82EF12CEC0EFD1ECE010196E7
:10131000B7010E94220C8E010F5E1F4FCE01059671
:10132000B8010E94220C8985823040F08989823080
:1013300028F0C701B8010E949A0C01C08FEF68968F
:10134000E6E00C946D38A8E1B0E0E9EAF9E00C942D
:10135000513869837A838B839C832D833E834F83AB
:10136000588789E0E82EF12CEC0EFD1ECE01019687
:10137000B7010E94220C8E010F5E1F4FCE01059611
:10138000B8010E94220C8985823040F08989823020
:1013900028F0C701B8010E949A0C01C081E068964C
:1013A000E6E00C946D38A8E0B0E0E9EDF9E00C94CB
:1013B0004E389B01AC0183E08983DA01C90188279B
:1013C000B7FD83959927AA27BB27B82E211531058C
:1013D0004105510519F482E089833AC08823A9F0B8
:1013E000203080E0380780E0480780E8580729F47B
:1013F00060E070E080E09FEC30C0EE24FF248701C5
:10140000E21AF30A040B150B02C079018A018EE17E
:10141000C82ED12CDC82CB82ED82FE820F8318870E
:10142000C801B7010E94FE0A01971816190684F434
:10143000082E04C0EE0CFF1C001F111F0A94D2F7E7
:10144000ED82FE820F831887C81AD90ADC82CB820C
:10145000BA82CE0101960E944D0B2896E9E00C94C9
:101460006A38ACE0B0E0E7E3FAE00C945538698301
:101470007A838B839C83CE010196BE016B5F7F4F85
:101480000E94220C8D81823061F1823050F18430D3
:1014900021F48E81882351F12EC02F81388537FDAC
:1014A00020C06E812F3131051CF06623F9F023C076
:1014B0008EE190E0821B930B29853A854B855C85F4
:1014C00004C056954795379527958A95D2F7662398
:1014D000B1F050954095309521953F4F4F4F5F4F5C
:1014E0000EC020E030E040E050E009C02FEF3FEFB9
:1014F0004FEF5FE704C020E030E040E050E8B90182
:10150000CA012C96E2E00C947138A8E0B0E0EBE858
:10151000FAE00C944D387B018C0161157105810551
:10152000910519F482E0898360C083E089838EE1AC
:10153000C82ED12CDC82CB82ED82FE820F831887ED
:10154000C801B7010E94FE0AFC013197F7FF3BC0BA
:10155000222733272E1B3F0B57016801022E04C0A0
:10156000D694C794B794A7940A94D2F740E050E079
:1015700060E070E081E090E0A0E0B0E004C0880F9F
:10158000991FAA1FBB1F2A95D2F70197A109B1097C
:101590008E219F21A023B1230097A105B10521F041
:1015A00041E050E060E070E04A295B296C297D2928
:1015B0004D835E836F8378878EE190E08E1B9F0B57
:1015C0009C838B8312C0309781F00E2E04C0EE0CEA
:1015D000FF1C001F111F0A94D2F7ED82FE820F83B9
:1015E0001887CE1ADF0ADC82CB821A82CE010196DE
:1015F0000E944D0B2896EAE00C946938EF92FF9216
:101600000F931F937B018C0180E0E81680E0F806C1
:1016100081E0080780E0180788F48FEFE816F104EE
:101620000105110531F028F088E090E0A0E0B0E07D
:1016300017C080E090E0A0E0B0E012C080E0E816C3
:1016400080E0F80680E0080781E0180728F088E1CC
:1016500090E0A0E0B0E004C080E190E0A0E0B0E065
:1016600020E230E040E050E0281B390B4A0B5B0BD6
:1016700004C016950795F794E7948A95D2F7F70179
:10168000E257FD4F8081281B310941095109C901E9
:101690001F910F91FF90EF900895DF92EF92FF92CC
:1016A0000F931F93FC01E480F58006811781D180A0
:1016B0008081823048F480E090E0A0E1B0E0E82A48
:1016C000F92A0A2B1B2BA5C0843009F49FC0823055
:1016D00021F4EE24FF24870105C0E114F104010583
:1016E000110519F4E0E0F0E096C0628173819FEF8C
:1016F000623879070CF05BC022E83FEF261B370BFE
:101700002A3131052CF020E030E040E050E02AC0E2
:10171000B801A701022E04C07695679557954795A5
:101720000A94D2F781E090E0A0E0B0E004C0880F16
:10173000991FAA1FBB1F2A95D2F70197A109B109CA
:101740008E219F21A023B1230097A105B10521F08F
:1017500081E090E0A0E0B0E09A01AB01282B392BAA
:101760004A2B5B2BDA01C9018F779070A070B070A3
:1017700080349105A105B10539F427FF09C0205C2B
:101780003F4F4F4F5F4F04C0215C3F4F4F4F5F4F64
:10179000E0E0F0E02030A0E03A07A0E04A07A0E453
:1017A0005A0710F0E1E0F0E079018A0127C06038C3
:1017B000710564F5FB01E158FF4FD801C7018F7730
:1017C0009070A070B07080349105A105B10539F416
:1017D000E7FE0DC080E490E0A0E0B0E004C08FE33D
:1017E00090E0A0E0B0E0E80EF91E0A1F1B1F17FFF3
:1017F00005C016950795F794E794319687E01695FE
:101800000795F794E7948A95D1F705C0EE24FF2455
:101810008701EFEFF0E06E2F679566276795902FB1
:101820009F77D794DD24D7948E2F8695492F462B0A
:10183000582F5D29B701CA011F910F91FF90EF90BA
:10184000DF900895FC01DB01408151812281622FEC
:101850006F7770E0221F2227221F9381892F880F24
:10186000822B282F30E0991F9927991F11969C935E
:10187000119721153105A9F541155105610571052E
:1018800011F482E037C082E89FEF13969C938E9309
:1018900012979A01AB0167E0220F331F441F551FB7
:1018A0006A95D1F783E08C930DC0220F331F441F3C
:1018B000551F12968D919C911397019713969C93A7
:1018C0008E931297203080E0380780E0480780E44C
:1018D000580758F314962D933D934D935C931797A7
:1018E00008952F3F310579F44115510561057105C2
:1018F00019F484E08C93089564FF03C081E08C9315
:1019000012C01C9210C02F57304013963C932E9358
:10191000129783E08C9387E0440F551F661F771F53
:101920008A95D1F7706414964D935D936D937C9373
:10193000179708951F93DC01FB019C91923008F4E6
:1019400047C08081823008F443C0943051F411962E
:101950001C91843099F58181682F70E0611B7109B9
:101960003FC0843021F0923031F48230B9F181816E
:10197000882389F12DC011961C9111978230F1F0C6
:1019800081811817D9F412962D913C911397828179
:1019900093818217930794F028173907BCF01496A7
:1019A0008D919D910D90BC91A02D24813581468112
:1019B0005781281739074A075B0718F4112341F0AC
:1019C0000AC082179307A407B50740F4112319F042
:1019D00061E070E005C06FEF7FEF02C060E070E093
:1019E000CB011F910895CF93DF93BC018230910505
:1019F00010F462E070E0A0919106B0919206ED01C2
:101A0000E0E0F0E040E050E021C088819981861755
:101A1000970769F48A819B81309719F093838283B9
:101A200004C09093920680939106FE0134C068171B
:101A3000790738F44115510519F08417950708F412
:101A4000AC01FE018A819B819C01E9012097E9F6A6
:101A500041155105A9F1CA01861B970B049708F49B
:101A6000BA01E0E0F0E02AC08D919C9111978417B3
:101A70009507F9F46417750781F412968D919C917E
:101A80001397309719F09383828304C09093920642
:101A900080939106FD0132964CC0CA01861B970BBC
:101AA000FD01E80FF91F6193719302978D939C9349
:101AB00040C0FD01828193819C01D9011097A1F65C
:101AC00080918F0690919006892B41F4809190032C
:101AD000909191039093900680938F06409192038A
:101AE000509193034115510541F44DB75EB7809174
:101AF0008E0390918F03481B590B20918F063091D4
:101B00009006CA01821B930B8617970780F0AB01E2
:101B10004E5F5F4F8417950750F0420F531F50934D
:101B2000900640938F06F9016193719302C0E0E043
:101B3000F0E0CF01DF91CF910895CF93DF9300972D
:101B400009F450C0EC0122971B821A82A0919106E1
:101B5000B0919206109709F140E050E0AC17BD0734
:101B600008F1BB83AA83FE0121913191E20FF31F9B
:101B7000AE17BF0779F48D919C911197280F391FEB
:101B80002E5F3F4F3983288312968D919C91139736
:101B90009B838A834115510571F4D0939206C093BB
:101BA000910620C012968D919C911397AD010097DC
:101BB00011F0DC01D3CFFA01D383C283219131919B
:101BC000E20FF31FCE17DF0769F488819981280F90
:101BD000391F2E5F3F4FFA01318320838A819B8119
:101BE00093838283DF91CF910895A0E0B0E0EBEF83
:101BF000FDE00C944D38EC01A880B980CA80DB80F0
:101C0000A114B104C104D10441F484E2A82E89EDE9
:101C1000B82E8BE5C82E87E0D82EC601B5012DE180
:101C200033EF41E050E00E94163827EA31E440E00B
:101C300050E00E94C2377B018C01C601B5012DE145
:101C400033EF41E050E00E941638CA01B9012CEE92
:101C500034EF4FEF5FEF0E94C2376E0D7F1D801F84
:101C6000911F97FF04C06150704080409048688386
:101C700079838A839B839B01AC015F77B901CA0199
:101C8000CDB7DEB7EAE00C9469380E94F50D0895EF
:101C900084E993E00E94F50D089560939403709396
:101CA000950380939603909397030895A0E0B0E086
:101CB000ECE5FEE00C9447386C01009729F4CB0169
:101CC0000E94F30C6C01C1C08EEF882E8FEF982E0E
:101CD0008C0C9D1C8601060F171F0815190508F4AA
:101CE000B2C0F401A081B181A617B707B8F0A53042
:101CF000B10508F4AAC0CD0104978617970708F428
:101D0000A4C01297A61BB70BF801A193B193D401FD
:101D10006D937C93CF010E949D0D97C07B01EA1AC1
:101D2000FB0AEEEFFFEFEE0EFF1E36016A0E7B1E82
:101D3000C0919106D091920644245524AA24BB2434
:101D40004AC0C615D705E1F5488159814E155F0592
:101D5000B8F1CA0104978E159F05B0F41296A40F2E
:101D6000B51FF401B183A0832A813B814114510442
:101D700031F0D20113963C932E93129766C03093A4
:101D800092062093910661C08A819B81F80193831A
:101D90008283425050404E195F0951834083411461
:101DA000510431F0D20113961C930E93129704C084
:101DB0001093920600939106F4017183608345C0ED
:101DC00088819981A816B90608F45C012E018A81E0
:101DD0009B819C01E901209709F0B3CF80918F0688
:101DE0009091900686159705E9F4A616B706D0F4EB
:101DF00020919203309193032115310541F42DB7C1
:101E00003EB780918E0390918F03281B390B0217E8
:101E10001307C8F41093900600938F06D4016D93B6
:101E20007C9313C0CB010E94F30CEC01009759F096
:101E3000F40140815181B6010E94520FC6010E94F7
:101E40009D0D6E0102C0CC24DD24C601CDB7DEB7E6
:101E5000E0E10C9463381F93FC0199278827BC01AB
:101E6000E89411911032E9F3193010F01E30C8F3E4
:101E70001B3251F01D3249F4689406C00E941810BC
:101E8000610F711D811D911D119110531A30B0F316
:101E90003EF490958095709561957F4F8F4F9F4F41
:101EA0001F910895FB01DC0102C001900D92415089
:101EB0005040D8F70895FB01DC010D900020E9F7B0
:101EC000119701900D920020E1F70895FC01819196
:101ED000861721F08823D9F7992708953197CF01E4
:101EE0000895FB01DC018D91019080190110D9F357
:101EF000990B0895FB01DC0101900D920020E1F7A0
:101F00000895FB01DC014150504030F08D9101906B
:101F1000801919F40020B9F7881B990B0895FB016B
:101F2000DC014150504048F001900D920020C9F76B
:101F300001C01D9241505040E0F70895FC0181E03E
:101F400090E00190061609F4CF010020D1F7019727
:101F50000895FB0151915523A9F0BF01DC014D917A
:101F600045174111E1F759F4CD010190002049F0E6
:101F70004D9140154111C9F3FB014111EFCF81E0B3
:101F800090E001970895FB019F01E8944230C4F06E
:101F90004532B4F44A3029F497FB1EF490958195AC
:101FA0009F4F642F77270E943138805D8A330CF071
:101FB000895D8193CB010097A1F716F45DE25193FF
:101FC0001082C9010C945210FA01CF93FF93EF9342
:101FD000223044F1253234F5C22FE894CA3049F456
:101FE00097FB3EF490958095709561957F4F8F4F4C
:101FF0009F4F2C2F332744275527FF93EF930E94A1
:10200000F437EF91FF91605D6A330CF0695D619385
:10201000B901CA01605070408040904051F716F4F9
:10202000CDE2C19310828F919F91CF910C94521069
:10203000592F482F372F262F660F771F881F991F7C
:10204000660F771F881F991F620F731F841F951FCC
:10205000660F771F881F991F0895FA01CF93FF938A
:10206000EF932230CCF02532BCF4C22F2C2F332733
:1020700044275527FF93EF930E94F437EF91FF9188
:10208000605D6A330CF0695D6193B901CA0160500B
:1020900070408040904051F710828F919F91CF9176
:1020A0000C945210DC01FC01672F71917723E1F74A
:1020B000329704C07C916D9370836291AE17BF0715
:1020C000C8F30895F894FFCFEEE8F4E0119284E0AD
:1020D000E63BF807D9F70895E6EBF4E0119284E0C7
:1020E000EE3DF807D9F708950F931F938C01FC017B
:1020F000808191810E949D0DF801138212821582C8
:1021000014821F910F91089581309105D1F56F5F71
:102110007F4F09F04BC08EED94E060E071E00E94CB
:10212000573184EE94E06DE071E00E9457318AEE01
:1021300094E068E171E00E9457319091A203809190
:10214000A3038093F0049093F10482EF94E06091F4
:1021500098034091990320E00E94C12784E095E014
:102160000E94291885E895E00E94ED138FE895E01C
:102170006EE973E00E940B2088E995E00E94F51358
:102180000895892B99F46F5F7F4F81F482EF94E07B
:102190000E9498268AEE94E00E94741084EE94E0E7
:1021A0000E9474108EED94E00E947410089580E0F7
:1021B00090E06FEF7FEF0E948410089581E090E03F
:1021C0006FEF7FEF0E9484100895CF93DF9384E038
:1021D00095E06FE875E00E94A92284E095E068E848
:1021E00073E10E943C24882309F4A5C084E095E0B3
:1021F0000E9461180E94D612883809F088C084E0D5
:1022000095E00E94611868E975E00E94621788E90C
:1022100095E00E944914882309F469C082E796E09A
:102220006DE271E00E94102A88E995E00E94511445
:10223000FC0182E796E0608140E050E00E94FA2ACB
:1022400088E995E00E945114FC0182E796E06181E3
:1022500040E050E00E94FA2A82E796E067E371E0EE
:102260000E94BC2B88E995E00E94F613882309F4AC
:1022700084C082E796E069E471E00E94102A88E950
:1022800095E00E94F613682F82E796E04AE050E05E
:102290000E94A22B82E796E062E671E00E94102A7B
:1022A000C0E0D0E015C088E995E00E943014FC0140
:1022B000EC0FFD1F82E796E0608140E150E00E9454
:1022C000FA2A82E796E062E771E00E94102A2196DE
:1022D00088E995E00E94F61390E0C817D9071CF32F
:1022E00082E796E064E771E00E94BC2B46C082E77B
:1022F00096E065E771E00E94102A88E995E00E9467
:102300004414682F82E796E040E150E02DC082E758
:1023100096E061E971E00E94102A84E095E00E9455
:1023200061180E94D612682F82E796E040E150E0E3
:102330000E94FA2A22C084E095E00E9461180E945F
:10234000FA128823A1F082E796E06FEA71E00E941A
:10235000102A84E095E00E9461180E94FF12682F05
:1023600082E796E040E050E00E94A22B06C082E7A0
:1023700096E063ED71E00E94102ADF91CF910895FD
:102380000E94641060E070E080E090E023E030E0C4
:1023900040E050E00E941F2D26E0629FC001112402
:1023A00082529B4F6EE874E048E250E00E94A32DF9
:1023B0000895AF92BF92CF92DF92EF92FF920F9368
:1023C0001F93DF93CF93CDB7DEB7CA5DD0400FB672
:1023D000F894DEBF0FBECDBF0E94313684E095E099
:1023E00062EF74E00E94591884E095E040E855E2FD
:1023F00060E070E00E948F2480E00E946F360E94AF
:102400003D2D68E873E180E090E00E94CE3582E7E0
:1024100096E040E855E260E070E00E94AE2882E776
:1024200096E06AEE71E00E94BC2BDE011B96E9EBA0
:10243000F3E080E101900D928150E1F7DE015B96BF
:10244000E9EAF3E080E101900D928150E1F78E011D
:10245000055D1F4FCE010B96B8010E94E4058BE18C
:10246000C82ED12CCC0EDD1E7601C601BC2CA92EA7
:1024700082E796E0F70161917F0140E150E00E9420
:10248000FA2AE016F106A1F782E796E00E94672B90
:102490008B2D9A2DB7010E94E001860182E796E01C
:1024A000F80161918F0140E150E00E94FA2A0E1577
:1024B0001F05A1F782E796E00E94672BCE014B969D
:1024C000BE01655D7F4F0E94DC0182E796E0F60168
:1024D00061916F0140E150E00E94FA2ACE14DF04BE
:1024E000A1F782E796E00E94672B82E796E067EF0C
:1024F00071E00E94102A8E010F5F1F4F64E670E0AA
:1025000080E090E00E94CE350E94C01182E796E004
:1025100068E072E00E94BC2B6091A4037091A50357
:10252000C8014EE854E028E20E942D1E84E095E0A8
:10253000B8010E94A92284E095E068EE73E00E9451
:102540003C24882301F184E095E00E9461180E94F8
:10255000D6128938F1F484E095E00E94611865E8AC
:1025600075E00E94CB1785E895E00E94121588233C
:1025700029F482E796E065E272E009C082E796E01E
:102580006BE372E004C082E796E06BE572E00E94C4
:10259000BC2B0E9464100E946C1060E177E280E026
:1025A00090E00E94CE35AACF08950895FC01828163
:1025B0000895FC0162830895FC0183810895FC0164
:1025C00063830895FC0184810895FC016483089568
:1025D000FC0185810895FC0165830895FC018681D5
:1025E0000895FC0166830895FC0187810895FC012C
:1025F00067830895FC018085811181E00895FC01C5
:1026000080850895FC0160870895EF92FF920F93F3
:102610001F938C017B010E94D612682FC7010E9474
:10262000D912C8010E94F412682FC7010E94F71244
:10263000C8010E94E812682FC7010E94EB12C8016E
:102640000E94FF12682FC7010E940213C8010E9456
:10265000EE12682FC7010E94F112C8010E94DC121D
:10266000682FC7010E94DF12C8010E94E212682F82
:10267000C7010E94E5121F910F91FF90EF900895FE
:102680008BE008959C01255F3F4FC90108959C018F
:10269000255F3F4FC9010895FC01A081B1811496C7
:1026A0002D913C911597F90109958E5F089582E06F
:1026B00008959C01255F3F4FC901089588E0089562
:1026C000FC01A081B18114962D913C911597F901DF
:1026D00009958E5F089582E0089588E008950E942C
:1026E000EE128E5008959C01265F3F4FC901089558
:1026F000FC018FE394E09183808308950F931F93EF
:102700008C010E94781389E094E0F8019183808322
:102710001F910F9108950F931F938C010E947813BE
:1027200089E094E0F801918380831F910F910895CF
:102730000F931F938C010E948B1387E494E0F801A0
:10274000918380831F910F9108950F931F938C01A4
:102750000E948B1387E494E0F801918380831F919A
:102760000F9108950F931F938C010E94A5138DE183
:1027700094E0F801918380831F910F9108950F9346
:102780001F938C010E94A5138DE194E0F8019183C1
:1027900080831F910F9108950F931F938C010E94C6
:1027A0008B138FEF93E0F801918380831F910F913A
:1027B00008950F931F938C010E948B138FEF93E06A
:1027C000F801918380831F910F910895FC018FE39D
:1027D00094E091838083089508950895089508955D
:1027E0000895089508950895089508950E94EE1299
:1027F00084500895FC01848190E00895FF920F9326
:102800001F938C0102960E94FA13F82ED801ED91C5
:10281000FC910280F381E02DC8010995FA94F81A21
:102820008F2D1F910F91FF900895FF920F931F938B
:102830008C0102960E94FA13F82ED801ED91FC91BA
:102840000280F381E02DC8010995FA94F81A8F2DC2
:102850001F910F91FF900895FC018081918108954F
:10286000CF93DF93EC010E94F613882319F420E044
:1028700030E006C0CE010E942C149C012C5F3F4F1B
:10288000C901DF91CF9108950E942C14FC0183812E
:1028900008950E94441490E0882309F491E0892F60
:1028A00008950E942C149C012F5F3F4FC901089589
:1028B0000E942C14FC01808108950E942C14FC01BC
:1028C00080810895EF92FF920F931F937C010296EF
:1028D0000E942C148C01D701ED91FC910280F381B0
:1028E000E02DC7010995080F111DC8011F910F9117
:1028F000FF90EF900895CF92DF92EF92FF920F93A7
:102900001F937C016B0102960E942C148C01D7014D
:10291000ED91FC910280F381E02DC70109950C0D2A
:102920001D1D080F111DF80180811F910F91FF904F
:10293000EF90DF90CF9008950E942C14FC01318518
:1029400020E08285280F311DC9010895CF93DF93C0
:10295000EC010E946F13882319F420E030E006C0D8
:10296000CE010E942C149C01225F3F4FC901DF91D0
:10297000CF9108950E942C14FC01858508950E9432
:10298000BA1490E0882309F491E0892F08950E94F9
:102990002C149C01255F3F4FC9010895EF92FF92CF
:1029A0000F931F938C0102960E942C147C01D80176
:1029B000ED91FC910480F581E02DC8010995E80EA8
:1029C000F11CF70181811F910F91FF90EF90089505
:1029D0000E94CE1490E09695879596958795817084
:1029E00008950E94CE1490E0969587958170089581
:1029F000EF92FF920F931F938C0102960E942C146A
:102A00007C01D801ED91FC910480F581E02DC80195
:102A10000995E80EF11CF70180811F910F91FF903D
:102A2000EF9008950E942C14FC01818108950E946A
:102A3000121590E0882309F491E0892F08950296F9
:102A40000E942C14FC018181308120E0280F311D6F
:102A5000C9010895FF920F931F93CF93DF93EC0169
:102A6000F62E029627E0261788F00E942C148C017F
:102A7000CE010E944C13080F111DF801848190E0D3
:102A800002C095958795FA94E2F70AC00E942C142B
:102A90008C01CE010E944C13080F111DF801838197
:102AA0008170DF91CF911F910F91FF900895FF9258
:102AB0000F931F93CF93DF93EC01F62E029627E03E
:102AC000261788F00E942C148C01CE010E944C1312
:102AD000080F111DF801848190E002C0959587953B
:102AE000FA94E2F70AC00E942C148C01CE010E94D5
:102AF0004C13080F111DF80183818170DF91CF9174
:102B00001F910F91FF900895CF92DF92EF92FF9265
:102B10000F931F936C01E62E02960E942C148C01D9
:102B2000C6010E944C13080F111DF801818190E02D
:102B3000FF240894E11CF11C02C095958795EA9446
:102B4000E2F781701F910F91FF90EF90DF90CF908F
:102B50000895EF92FF920F931F93CF93DF93EC01B1
:102B600042E0E42EF12CE80EF91EC7010E942C145D
:102B70008C01CE010E944C13080F111DF8018181B8
:102B800080FD0CC0C7010E942C148C01CE010E9454
:102B90004C13080F111DF8018281811181E0DF9132
:102BA000CF911F910F91FF90EF9008958F929F9278
:102BB000AF92BF92CF92DF92EF92FF920F931F934B
:102BC000CF93DF934C01162FF42E0E94A915882372
:102BD00019F4E3E0EE2E08C08F2D90E00196880FE7
:102BE000991F63E0E62EE80ECC2400E0C401602FBC
:102BF0000E948415882311F082E0C80E0F5F063012
:102C0000A9F7C0E0D0E0012F10E009C0C4016C2F8B
:102C10000E948415882311F0E2E0EE0E2196C01781
:102C2000D107A4F352E0A52EB12CA80CB91CC50104
:102C30000E942C148C01C4010E944C13CF9C902D37
:102C40001124E90ECE2CDD240C0D1D1D080F111DC5
:102C5000F801F080EE24C5010E942C148C01C401FF
:102C60000E944C130C0D1D1D080F111DF8018181D0
:102C7000E80EF11CC701DF91CF911F910F91FF90DA
:102C8000EF90DF90CF90BF90AF909F908F9008957E
:102C9000EF92FF920F931F937C0102960E942C14D7
:102CA0008C01C7010E944C1390E0080F111DF80120
:102CB00081818E7709F091E0892F1F910F91FF900C
:102CC000EF900895EF92FF920F931F937C0102966D
:102CD0000E942C148C01C7010E944C13080F111D77
:102CE000F80180811F910F91FF90EF900895029657
:102CF0000E942C14FC018181308120E0280F311DBD
:102D0000C90108951F93162F0296683058F40E9447
:102D10002C14FC01808990E002C0959587951A9546
:102D2000E2F70EC00E942C14FC01278530E0812FB1
:102D300090E0089702C0359527958A95E2F7822F93
:102D400081701F91089502960E942C14FC018685C3
:102D50008F7808951F93162F0E94A31690E002C04B
:102D6000959587951A95E2F781701F9108950E94B5
:102D7000A316811181E0089502960E942C14FC0193
:102D80008585089502960E942C14FC0184858C711F
:102D900008951F93162F683048F40E94BC1690E0E7
:102DA00002C0959587951A95E2F70CC00E94C2164D
:102DB00090E0212F30E02850304002C09595879553
:102DC0002A95E2F781701F910895CF93DF93EC016C
:102DD0000E94C216882321F4CE010E94BC168111E4
:102DE00081E0DF91CF910895CF92DF92FF920F9310
:102DF0001F93CF93DF938C01D62E0E94E516882374
:102E000019F0A1E1FA2E02C0FFE0FF2EC0E0D0E0F1
:102E1000CD2CDD2409C0C8016C2F0E94AA1688237E
:102E200011F082E0F80E2196CC15DD05A4F3C8015F
:102E300002960E942C14FC01EF0DF11D818130815E
:102E400020E0280F311DC901DF91CF911F910F9113
:102E5000FF90DF90CF90089502960E942C14FC0101
:102E60008285089502960E942C14FC01308520E092
:102E70008185280F311DC90108950E942C14FC0181
:102E8000858108950E942C14FC01848108950E947C
:102E9000421790E0882309F491E0892F08950E9459
:102EA0002C14FC01838108950E942C14FC013181B3
:102EB00020E08281280F311DC9010895FC01718332
:102EC00060830895EF92FF920F931F938C017B0113
:102ED0000E942C14BC01C7010E945E17C801B701F3
:102EE0000E9405131F910F91FF90EF900895EF92AC
:102EF000FF920F931F938C017B010E942C14BC0145
:102F0000C7010E945E17C801B7010E9405131F91F7
:102F10000F91FF90EF900895EF92FF920F931F9300
:102F20008C017B010E942C14BC01C7010E945E171A
:102F3000C801B7010E9405131F910F91FF90EF90F8
:102F40000895EF92FF920F931F938C017B010E94D3
:102F50002C14BC01C7010E945E17C801B7010E9472
:102F600005131F910F91FF90EF900895EF92FF923C
:102F70000F931F938C017B010E942C14BC01C7018D
:102F80000E945E17C801B7010E9405131F910F919F
:102F9000FF90EF900895EF92FF920F931F938C0193
:102FA0007B010E942C14BC01C7010E945E17C8015E
:102FB000B7010E9405131F910F91FF90EF900895A4
:102FC000FC0117821086158208950F931F93CF93EB
:102FD000DF93EC010E94E0171A821B821C821D8283
:102FE0001E82188600E010E0CE010E942C14FC0125
:102FF000E00FF11F10820F5F1F4F0E361105A1F772
:10300000DF91CF911F910F910895FC0112861186D7
:103010000E94E51708950F931F938C01FC011286FF
:103020001186148615860E94E017C801025F1F4FA3
:10303000B8010E945E170E581F4FF801108204500D
:103040001040F80111921192118210821F910F917C
:1030500008950F931F938C01FC011286118614862C
:1030600015860E94E017C801025F1F4FB8010E9439
:103070005E170E581F4FF801108204501040F801DF
:1030800011921192118210821F910F910895FC01EB
:1030900085858F5F8587882311F481E08587858505
:1030A0000895FC01E458FF4F7183608334961082C9
:1030B0000895FC01E258FF4F6193719381E0808392
:1030C00008950895EF92FF920F931F93F82EE92E23
:1030D0008B010E94DC12682FC8010E94DF128F2D25
:1030E0009E2D0E94E212682FC8010E94E5128F2DCA
:1030F0009E2D0E94D612682FC8010E94D9128F2DD2
:103100009E2D0E94EE12682FC8010E94F1128F2D91
:103110009E2D0E942C14BC01C8010E945E171F91B5
:103120000F91FF90EF900895FC0187E394E0918365
:103130008083628343830895FC0187E394E0918355
:103140008083628343830895FC0163830895FC01B7
:1031500083810895FC0182810895FC0162830895B2
:10316000CF92DF92EF92FF920F937C0169010E9450
:1031700094188FE294E0F70191838083D582C48212
:1031800006830F91FF90EF90DF90CF900895CF923C
:10319000DF92EF92FF920F937C0169010E949418D5
:1031A0008FE294E0F70191838083D582C482068305
:1031B0000F91FF90EF90DF90CF900895FC018481F4
:1031C00095810895FC01758364830895FC018681CF
:1031D0000895FC016683089508950895089508955B
:1031E000089508950F931F93DF93CF93CDB7DEB764
:1031F00028970FB6F894DEBF0FBECDBF8C010E949A
:10320000A51383E194E0F80191838083D8011B9694
:10321000FE01319688E001900D928150E1F72896E9
:103220000FB6F894DEBF0FBECDBFCF91DF911F91D7
:103230000F9108950F931F93DF93CF93CDB7DEB710
:1032400028970FB6F894DEBF0FBECDBF8C010E9449
:10325000A51383E194E0F80191838083D8011B9644
:10326000FE01319688E001900D928150E1F7289699
:103270000FB6F894DEBF0FBECDBFCF91DF911F9187
:103280000F9108950F931F93DF93CF93CDB7DEB7C0
:1032900028970FB6F894DEBF0FBECDBF8C010E94F9
:1032A0008B1385EF93E0F80191838083D8011B96FF
:1032B000FE01319688E001900D928150E1F7289649
:1032C0000FB6F894DEBF0FBECDBFCF91DF911F9137
:1032D0000F9108950F931F93DF93CF93CDB7DEB770
:1032E00028970FB6F894DEBF0FBECDBF8C010E94A9
:1032F0008B1385EF93E0F80191838083D8011B96AF
:10330000FE01319688E001900D928150E1F72896F8
:103310000FB6F894DEBF0FBECDBFCF91DF911F91E6
:103320000F9108950F931F93DF93CF93CDB7DEB71F
:1033300028970FB6F894DEBF0FBECDBF8C010E9458
:10334000781387E294E0F80191838083D8011B967B
:10335000FE01319688E001900D928150E1F72896A8
:103360000FB6F894DEBF0FBECDBFCF91DF911F9196
:103370000F9108950F931F93DF93CF93CDB7DEB7CF
:1033800028970FB6F894DEBF0FBECDBF8C010E9408
:10339000781387E294E0F80191838083D8011B962B
:1033A000FE01319688E001900D928150E1F7289658
:1033B0000FB6F894DEBF0FBECDBFCF91DF911F9146
:1033C0000F9108950F931F938C010E94BA1981E504
:1033D00094E0F801918380831F910F9108950F93DA
:1033E0001F938C010E94BA1981E594E0F801918342
:1033F00080831F910F9108950F931F93FC014083C9
:1034000051836283738304831583268337831F91DB
:103410000F9108950F931F93FC01408351836283A2
:10342000738304831583268337831F910F91089537
:10343000FC0160817181828193810895FC01408348
:103440005183628373830895FC0164817581868151
:1034500097810895FC01448355836683778308959B
:10346000EF92FF920F931F937C01162F072F0E945C
:103470002C14BC01812F902F0E945E17C701612F71
:10348000702F0E940513812F902F0E9473138C01BF
:10349000C7010E942C14FC01418150E060E070E003
:1034A000742F662755274427828190E0A0E0B0E082
:1034B000DC0199278827480F591F6A1F7B1F8481C9
:1034C000480F511D611D711D938180E0A0E0B0E0A7
:1034D000480F591F6A1F7B1FC8010E941E1AC7018F
:1034E0000E942C14FC01458150E060E070E0742FD4
:1034F000662755274427868190E0A0E0B0E0DC01F4
:1035000099278827480F591F6A1F7B1F8085480FFE
:10351000511D611D711D978180E0A0E0B0E0480F52
:10352000591F6A1F7B1FC8010E942A1A1F910F9101
:10353000FF90EF900895EF92FF920F931F937C01FD
:103540008B010E942C14BC01C8010E945E17C701A8
:10355000B8010E94051302501040C8010E94471391
:103560008C01C7010E942C14FC018381408150E032
:1035700060E070E0742F662755274427480F511DDF
:10358000611D711D818190E0A0E0B0E0DC01992710
:103590008827480F591F6A1F7B1F928180E0A0E097
:1035A000B0E0480F591F6A1F7B1FC8010E941E1AF6
:1035B000C7010E942C14FC01448150E060E070E0DF
:1035C000742F662755274427858190E0A0E0B0E05E
:1035D000DC0199278827480F591F6A1F7B1F8781A5
:1035E000480F511D611D711D968180E0A0E0B0E083
:1035F000480F591F6A1F7B1FC8010E942A1A1F917A
:103600000F91FF90EF900895EF92FF920F931F9309
:103610007C018B010E942C14BC01C8010E945E1722
:10362000C701B8010E94051302501040C8010E9452
:1036300059138C01C7010E942C14FC018381408125
:1036400050E060E070E0742F662755274427480F4C
:10365000511D611D711D818190E0A0E0B0E0DC0191
:1036600099278827480F591F6A1F7B1F928180E086
:10367000A0E0B0E0480F591F6A1F7B1FC8010E94DD
:103680001E1AC7010E942C14FC01448150E060E026
:1036900070E0742F662755274427858190E0A0E0CD
:1036A000B0E0DC0199278827480F591F6A1F7B1F4C
:1036B0008781480F511D611D711D968180E0A0E03A
:1036C000B0E0480F591F6A1F7B1FC8010E942A1AC9
:1036D0001F910F91FF90EF900895EF92FF920F933B
:1036E0001F937C018B010E942C14BC01C8010E9415
:1036F0005E17C701B8010E94051302501040C801AF
:103700000E9442138C01C7010E942C14FC0183818A
:10371000408150E060E070E0742F66275527442711
:10372000480F511D611D711D818190E0A0E0B0E046
:10373000DC0199278827480F591F6A1F7B1F928138
:1037400080E0A0E0B0E0480F591F6A1F7B1FC8014E
:103750000E941E1AC7010E942C14FC01448150E0F3
:1037600060E070E0742F662755274427858190E03C
:10377000A0E0B0E0DC0199278827480F591F6A1F95
:103780007B1F8781480F511D611D711D968180E04F
:10379000A0E0B0E0480F591F6A1F7B1FC8010E94BC
:1037A0002A1A1F910F91FF90EF900895EF92FF92C8
:1037B0000F931F937C018B010E942C14BC01C80144
:1037C0000E945E17C701B8010E9405130250104005
:1037D000C8010E9442138C01C7010E942C14FC01F5
:1037E0008381408150E060E070E0742F66275527A8
:1037F0004427480F511D611D711D818190E0A0E09B
:10380000B0E0DC0199278827480F591F6A1F7B1FEA
:10381000928180E0A0E0B0E0480F591F6A1F7B1F33
:10382000C8010E941E1AC7010E942C14FC01448189
:1038300050E060E070E0742F6627552744278581AB
:1038400090E0A0E0B0E0DC0199278827480F591FDD
:103850006A1F7B1F8781480F511D611D711D968155
:1038600080E0A0E0B0E0480F591F6A1F7B1FC8012D
:103870000E942A1A1F910F91FF90EF900895EF92E6
:10388000FF920F937C0160E141E020E030E000E036
:103890000E94B0188DEE93E0F701918380830F9121
:1038A000FF90EF900895EF92FF920F937C0160E1FB
:1038B00041E020E030E000E00E94B0188DEE93E09F
:1038C000F701918380830F91FF90EF9008957F928D
:1038D0008F929F92AF92BF92CF92DF92EF92FF9220
:1038E0000F931F93CF93DF93EC01162FD72E4A012E
:1038F000B22E702E97010C2D4A2D60E10E94B01857
:103900008DEE93E099838883DE011796212F3D2D5C
:10391000C901FC0188E001900D928150E1F7988A7D
:103920008F86B98A7A8ADF91CF911F910F91FF908C
:10393000EF90DF90CF90BF90AF909F908F907F904F
:1039400008957F928F929F92AF92BF92CF92DF9213
:10395000EF92FF920F931F93CF93DF93EC01162FFB
:10396000D72E4A01B22E702E97010C2D4A2D60E100
:103970000E94B0188DEE93E099838883DE0117963C
:10398000212F3D2DC901FC0188E001900D9281504D
:10399000E1F7988A8F86B98A7A8ADF91CF911F9151
:1039A0000F91FF90EF90DF90CF90BF90AF909F90DE
:1039B0008F907F900895FF920F931F93CF93DF9383
:1039C000EC01162FF72EFA01022F60E141E09F0172
:1039D0000E94B0188DEE93E099838883DE011796DC
:1039E000212F3F2DC901FC0188E001900D928150EB
:1039F000E1F78EEF9FEF988B8F87198A1A8ADF91F4
:103A0000CF911F910F91FF900895FF920F931F93F5
:103A1000CF93DF93EC01162FF72EFA01022F60E10E
:103A200041E09F010E94B0188DEE93E09983888356
:103A3000DE011796212F3F2DC901FC0188E001907E
:103A40000D928150E1F78EEF9FEF988B8F87198A47
:103A50001A8ADF91CF911F910F91FF9008951F93C4
:103A6000FC01162F662321F407960E94181A17C02E
:103A7000613021F407960E94181A1BC0623021F4AD
:103A800007960E94181A1EC0633021F407960E9400
:103A9000181A3AC0643041F407960E94241A692F1C
:103AA00077278827992730C0653039F407960E9418
:103AB000241ABC018827992727C0663041F407964D
:103AC0000E94241A672F782F892F99271DC06730ED
:103AD00021F407960E94241A17C0683011F46089F7
:103AE00013C0693011F467850FC06A3011F4618921
:103AF0000BC06B3011F4628907C00E94DE18FC0114
:103B0000E10FF11D3C976081862F1F9108950E945F
:103B1000E618845F08959C01295F3F4FC90108950D
:103B2000FC01878590890895FC0181890895FC0135
:103B300082890895DC011796FB0188E001900D92BF
:103B40008150E1F70895FC01708B67870895FC01AF
:103B5000618B0895FC01628B0895EF92FF920F93A1
:103B60007C0161E041E020E030E000E00E94B0181C
:103B700085EE93E0F701918380830F91FF90EF90A2
:103B80000895EF92FF920F937C0161E041E020E005
:103B900030E000E00E94B01885EE93E0F7019183D9
:103BA00080830F91FF90EF900895AF92BF92CF92D4
:103BB000DF92EF920F931F936C015B01142F4E2D38
:103BC00061E00E94B01885EE93E0F6019183808356
:103BD000B086A78211871F910F91EF90DF90CF9051
:103BE000BF90AF900895AF92BF92CF92DF92EF92C5
:103BF0000F931F936C015B01142F4E2D61E00E9407
:103C0000B01885EE93E0F60191838083B086A78299
:103C100011871F910F91EF90DF90CF90BF90AF90E1
:103C20000895CF92DF92EF92FF920F937C016B0188
:103C3000FA01022F61E041E09F010E94B01885EE79
:103C400093E0F70191838083D086C78211860F911C
:103C5000FF90EF90DF90CF900895CF92DF92EF9298
:103C6000FF920F937C016B01FA01022F61E041E0AA
:103C70009F010E94B01885EE93E0F7019183808345
:103C8000D086C78211860F91FF90EF90DF90CF9082
:103C900008951F93FC01162F662311F480850FC031
:103CA000613011F487810BC0623011F4818507C047
:103CB0000E94DE18FC01E10FF11D339780811F91F6
:103CC00008950E94E6188D5F0895FC018781908514
:103CD0000895FC01708767830895FC01818508952C
:103CE000FC0161870895EF92FF920F937C0160E0E1
:103CF00041E020E030E000E00E94B0188DED93E05C
:103D0000F701918380830F91FF90EF900895EF92D8
:103D1000FF920F937C0160E041E020E030E000E0A2
:103D20000E94B0188DED93E0F701918380830F918D
:103D3000FF90EF900895DF92EF92FF920F931F9301
:103D4000CF93DF93EC01162FF72ED42E4E2D60E08B
:103D50000E94B0188DED93E099838883DE01179659
:103D6000212F3F2DC901FC0188E001900D92815067
:103D7000E1F7DF86DF91CF911F910F91FF90EF90D8
:103D8000DF900895DF92EF92FF920F931F93CF93EE
:103D9000DF93EC01162FF72ED42E4E2D60E00E94FB
:103DA000B0188DED93E099838883DE011796212F5B
:103DB0003F2DC901FC0188E001900D928150E1F78F
:103DC000DF86DF91CF911F910F91FF90EF90DF90F1
:103DD0000895FF920F931F93CF93DF93EC01162F5B
:103DE000F72EFA01022F60E041E09F010E94B01817
:103DF0008DED93E099838883DE011796212F3F2D67
:103E0000C901FC0188E001900D928150E1F71F8605
:103E1000DF91CF911F910F91FF900895FF920F9323
:103E20001F93CF93DF93EC01162FF72EFA01022F89
:103E300060E041E09F010E94B0188DED93E099830E
:103E40008883DE011796212F3F2DC901FC0188E0F0
:103E500001900D928150E1F71F86DF91CF911F9164
:103E60000F91FF9008951F93FC01162F662321F4F4
:103E700007960E94181A17C0613021F407960E9415
:103E8000181A1BC0623021F407960E94181A1EC02F
:103E9000633021F407960E94181A2EC0643041F452
:103EA00007960E94241A692F77278827992724C00C
:103EB000653039F407960E94241ABC018827992797
:103EC0001BC0663041F407960E94241A672F782F92
:103ED000892F992711C0673021F407960E94241A70
:103EE0000BC0683011F4678507C00E94DE18FC0122
:103EF000E10FF11D39976081862F1F9108950E946F
:103F0000E618875F08959C01295F3F4FC901089516
:103F1000DC011796FB0188E001900D928150E1F7DA
:103F20000895FC0187850895FC0167870895BF9275
:103F3000CF92DF92EF92FF920F931F938C017B0140
:103F40006A01B22E68E041E00E94941885ED93E08A
:103F5000F80191838083F582E482D782C682B0869D
:103F60001F910F91FF90EF90DF90CF90BF90089539
:103F7000BF92CF92DF92EF92FF920F931F938C012B
:103F80007B016A01B22E68E041E00E94941885ED41
:103F900093E0F80191838083F582E482D782C68220
:103FA000B0861F910F91FF90EF90DF90CF90BF9060
:103FB0000895FC01848195810895FC018681978193
:103FC0000895FC0180850895FC017583648308953C
:103FD000FC01778366830895FC0160870895FC01E6
:103FE000662329F40480F581E02D808108956130F5
:103FF00029F40480F581E02D818108950680F78100
:10400000E02DE60FF11D329780810895FC011782A3
:10401000168210860895EF92FF920F931F938C01E2
:104020007B0168E041E00E94941885ED93E0F8017F
:1040300091838083F582E482C8010E9406201F914B
:104040000F91FF90EF900895EF92FF920F931F93BF
:104050008C017B0168E041E00E94941885ED93E0BB
:10406000F80191838083F582E482C8010E940620D2
:104070001F910F91FF90EF9008950F931F938C0164
:1040800068E041E00E94941885ED93E0F801918387
:10409000808315821482C8010E9406201F910F910F
:1040A00008950F931F938C0168E041E00E949418DB
:1040B00085ED93E0F8019183808315821482C80115
:1040C0000E9406201F910F910895FC0180858E5F4C
:1040D00008950F931F938C0160E070E040E050E082
:1040E00020E00E94971F8DEC93E0F801918380837C
:1040F000128A118A138AC80167E10E94AD181F91C4
:104100000F9108950F931F938C0160E070E040E0E1
:1041100050E020E00E94971F8DEC93E0F80191831E
:104120008083128A118A138AC80167E10E94AD1840
:104130001F910F910895EF92FF920F93CF93DF930A
:10414000EC017B01BA01A901202F0E94971F8DEC81
:1041500093E099838883DE011996E2EAF5E088E02E
:1041600001900D928150E1F7FA8AE98A81E08B8B08
:10417000CE0167E10E94AD18DF91CF910F91FF90C2
:10418000EF900895EF92FF920F93CF93DF93EC019E
:104190007B01BA01A901202F0E94971F8DEC93E0AB
:1041A00099838883DE011996E2EAF5E088E00190C0
:1041B0000D928150E1F7FA8AE98A81E08B8BCE017A
:1041C00067E10E94AD18DF91CF910F91FF90EF90C2
:1041D00008950F931F93CF93DF93EC018B01BA01E6
:1041E00040E050E020E00E94971F8DEC93E099831F
:1041F0008883DE011996E2EAF5E088E001900D92ED
:104200008150E1F71A8B098B1B8ACE0167E10E946E
:10421000AD18DF91CF911F910F9108950F931F93C8
:10422000CF93DF93EC018B01BA0140E050E020E036
:104230000E94971F8DEC93E099838883DE01199685
:10424000E2EAF5E088E001900D928150E1F71A8BE7
:10425000098B1B8ACE0167E10E94AD18DF91CF91D7
:104260001F910F910895FF920F931F93CF93DF93A8
:10427000EC01162FF72EBA01A901202F0E94971FDB
:104280008DEC93E099838883DE011996212F3F2DD1
:10429000C901FC0188E001900D928150E1F78EEF99
:1042A0009FEF9A8B898B81E08B8BCE0167E10E9417
:1042B000AD18DF91CF911F910F91FF900895FF925C
:1042C0000F931F93CF93DF93EC01162FF72EBA01B4
:1042D000A901202F0E94971F8DEC93E0998388837A
:1042E000DE011996212F3F2DC901FC0188E00190C4
:1042F0000D928150E1F78EEF9FEF9A8B898B81E0D1
:104300008B8BCE0167E10E94AD18DF91CF911F9199
:104310000F91FF9008950F931F93CF93DF93EC01BC
:10432000162F072FBA0140E050E020E00E94971FAF
:104330008DEC93E099838883DE011996212F302F2D
:10434000C901FC0188E001900D928150E1F78EEFE8
:104350009FEF9A8B898B1B8ACE0167E10E94AD1873
:10436000DF91CF911F910F9108950F931F93CF93DA
:10437000DF93EC01162F072FBA0140E050E020E058
:104380000E94971F8DEC93E099838883DE01199634
:10439000212F302FC901FC0188E001900D9281503E
:1043A000E1F78EEF9FEF9A8B898B1B8ACE0167E135
:1043B0000E94AD18DF91CF911F910F910895FC01DC
:1043C000818992890895FC01728B618B08959C010B
:1043D000275F3F4FC9010895DC011996FB0188E072
:1043E00001900D928150E1F70895FC0183890895B1
:1043F000FC01638B08951F93FC01162F662321F4A3
:1044000009960E94181A17C0613021F409960E947B
:10441000181A1BC0623021F409960E94181A1EC097
:10442000633021F409960E94181A48C0643041F4A0
:1044300009960E94241A692F7727882799273EC05A
:10444000653039F409960E94241ABC0188279927FF
:1044500035C0663041F409960E94241A672F782FE0
:10446000892F99272BC0673021F409960E94241ABE
:1044700025C0683011F4628921C0693011F4618966
:104480001DC06A3039F48389882311F460E016C0B6
:1044900062E014C06B3021F40E94D91FFC010DC0F2
:1044A0006C3029F40E94D91FFC01618107C00E9471
:1044B000DD1FFC01E10FF11D3D976081862F1F91EB
:1044C00008950E94E11F835F08950F931F9382EA6E
:1044D00095E040E050E060E070E00FEF1FEF20E07B
:1044E00030E00E940A1A1F910F910895FC01E058D4
:1044F000FF4F8081E058F040882319F0E258FF4FC9
:1045000002C0E458FF4F8081918140E050E00E945A
:10451000FA2A08951F93CF93DF93EC01162F4423BB
:1045200081F0862F8D57823020F0613111F0633198
:1045300041F4CE016DE70E94762260E26127CE0150
:1045400002C0CE01612F0E947622DF91CF911F9190
:104550000895CF92DF92FF920F931F93CF93DF9333
:104560006C01EB016EE740E00E948A22E881F9814C
:104570000280F381E02DCE010995082FE881F981B1
:104580000280F381E02DCE010995F82E10E00E5F38
:104590001F4FC601612F41E00E948A2282E0F80E7F
:1045A000C6016F2D41E00E948A22CE010E94AA1806
:1045B000682FC60141E00E948A22CE010E94A718FE
:1045C000682FC60141E00E948A22CE010E94AA18EB
:1045D000F82ECE010E94A718F80E00E010E018C0D7
:1045E000E881F9810190F081E02DCE01602F0995DD
:1045F000682FC60141E00E948A22E881F98101907A
:10460000F081E02DCE01602F0995F80E0F5F1F4F4E
:10461000E881F9810280F381E02DCE01099590E0D7
:1046200008171907ECF2F094C6016F2D41E00E94C3
:104630008A22DF91CF911F910F91FF90DF90CF9051
:104640000895FC01E058FF4F8081E058F040882336
:1046500039F0E258FF4F808191810E945A270895D6
:10466000E458FF4F0190F081E02DA081B1811C96AC
:104670002D913C911D97CF01F90109950895FC01F9
:10468000E058FF4F8081E058F040882339F0E2582D
:10469000FF4F808191810E94AA260895E458FF4F20
:1046A0000190F081E02DA081B18118962D913C916F
:1046B0001997CF01F90109950895FC01E058FF4FC2
:1046C0008081E058F040882351F0E258FF4F80810C
:1046D00091810E94C826811181E0282F12C0E458E0
:1046E000FF4F0190F081E02DA081B18116962D91B0
:1046F0003C911797CF01F901099520E0892B09F02A
:1047000021E0822F0895CF92DF92EF92FF920F93D4
:104710001F93CF93DF93EC01F82EED2E0E94F4123D
:10472000882331F4CE010E94FA12882309F491C043
:10473000CE010E9405188DC0CE010E943F23982F04
:104740008B878A858823A9F09E3721F48F2D9E2D93
:1047500063E044C09D3769F4CE010E945D23882345
:1047600031F0CE010E943F238D258B8702C0C98680
:1047700074C08985882321F08B858D258B871986C8
:104780008A85833020F08C859B85890F8C878A856C
:10479000813069F0813028F0823079F08330C9F4BB
:1047A00012C08B858E3709F058C0CA8656C08F2D2F
:1047B0009E2D6B850E94DF1248C08F2D9E2D6B852C
:1047C0000E94E51242C08F2D9E2D6B850E94D9124A
:1047D0003CC08F3630F08F2D9E2D62E00E94021378
:1047E00042C0082F10E08F2D9E2D0E94FA130396D1
:1047F00008171907F9F48C858F3F71F48F2D9E2DC2
:104800006B850E94EB128F2D9E2D61E00E94F712A6
:104810008F2D9E2D60E003C08F2D9E2D61E00E94A4
:1048200002136A8564508F2D9E2D0E94F1121A8604
:104830001C8619C08F2D9E2D0E942C14080F191F45
:10484000045010408B85F80180838A858F5F8A87AA
:1048500004C0CC24C39440E2D42ECE010E945D2338
:10486000882309F069CFDF91CF911F910F91FF90BD
:10487000EF90DF90CF900895AF92BF92CF92DF92EA
:10488000EF92FF920F931F93CF93DF935C016B0125
:1048900077FD1EC00E949A357B018C0112C0C501B4
:1048A0000E948323C5010E946118EC010E94F4124A
:1048B000882311F081E00DC0CE010E94FA128823F6
:1048C00039F40E949A356E197F096C157D053CF309
:1048D00080E0DF91CF911F910F91FF90EF90DF90DB
:1048E000CF90BF90AF9008950F931F93CF93DF9316
:1048F0008C010E946118EC01CE010E94F412882301
:1049000049F4CE010E94FA12882321F4C8010E94C2
:104910008323F2CFDF91CF911F910F910895FC0176
:10492000E058FF4F8081E058F040882339F0E2588A
:10493000FF4F808191810E94BE250895E458FF4F6A
:10494000808191810E94AE28089520E001972FEF89
:104950008F3F9207D9F70895FC018091AA059091A5
:10496000AB058E179F0711F480E0089581898E7F33
:10497000818B9FB7F8941092EC058091EC058093A1
:10498000ED05F093AB05E093AA059FBF81E0089584
:10499000FC01A781B0859681662329F48C919095BE
:1049A00098239C9308958C91892B8C930895DC0116
:1049B0001496ED91FC911597808113969C91892313
:1049C0000895EF92FF920F931F93CF93DF93EC0123
:1049D000898981FF09C0CE010E94D724811181E01D
:1049E000882309F449C006C0CE010E94D724882339
:1049F00009F042C089859A850E94A524FF24EE24EF
:104A0000E39400E010E08B859C850E94A524CE01F4
:104A10000E94D724882311F0FE2803C08E2D809594
:104A2000F822EE0C0F5F1F4F0830110561F78D85DE
:104A30009E850E94A524898981FDF0948091EC05D2
:104A40002091ED0590E001968F73907030E0821711
:104A5000930779F0E091EC05F0E0E455FA4FF0822D
:104A60008091EC0590E001968F7390708093EC0537
:104A700003C089898160898BDF91CF911F910F914C
:104A8000FF90EF9008958091AA059091AB05009753
:104A900011F00E94E12408951F920F920FB60F9219
:104AA00011242F933F934F935F936F937F938F9333
:104AB0009F93AF93BF93EF93FF930E944325FF9182
:104AC000EF91BF91AF919F918F917F916F915F9186
:104AD0004F913F912F910F900FBE0F901F901895FF
:104AE0001F920F920FB60F9211242F933F934F9363
:104AF0005F936F937F938F939F93AF93BF93EF9346
:104B0000FF930E944325FF91EF91BF91AF919F9139
:104B10008F917F916F915F914F913F912F910F9066
:104B20000FBE0F901F9018951F920F920FB60F9205
:104B300011242F933F934F935F936F937F938F93A2
:104B40009F93AF93BF93EF93FF930E944325FF91F1
:104B5000EF91BF91AF919F918F917F916F915F91F5
:104B60004F913F912F910F900FBE0F901F9018956E
:104B7000FC0187E894E0918380830895CF92DF92CF
:104B8000EF92FF920F931F93CF93DF93EC017A0183
:104B90008B01188A1F861E861D861C861B861A8618
:104BA000198620E030E06901CC0CDD1CC20ED31E5A
:104BB000B601660F771F660F771FAB0148595F4F2D
:104BC000FA0185919591A591B4918E159F05A00745
:104BD000B107E9F4FB01E459FF4F859194919A875D
:104BE0008987FB01E259FF4F859194919C878B87C0
:104BF000FB01E059FF4F859194919E878D87FB01C2
:104C0000EE58FF4F85919491988B8F8706C02F5F48
:104C10003F4F2C30310509F0C6CF8D859E85892BFD
:104C200009F445C04A81463108F03DC090916800C2
:104C3000483010F484E005C04E3010F082E001C02E
:104C400081E0892B80936800483028F4EDE6F0E09D
:104C5000ADE6B0E00BC04E3028F0ECE6F0E0ACE69C
:104C6000B0E004C0EBE6F0E0ABE6B0E050814830E5
:104C700040F481E090E002C0880F991F4A95E2F766
:104C800010C0242F30E04E3018F42850304002C0BD
:104C90002E50304081E090E002C0880F991F2A9585
:104CA000E2F7852B8C938F8598890E94A524CE01ED
:104CB0000E94AC24DF91CF911F910F91FF90EF9054
:104CC000DF90CF900895FC014281463180F5483055
:104CD00028F4EDE6F0E0ADE6B0E00BC04E3028F48D
:104CE000EBE6F0E0ABE6B0E004C0ECE6F0E0ACE60A
:104CF000B0E05081483040F481E090E002C0880F7D
:104D0000991F4A95E2F710C0242F30E04E3018F476
:104D10002850304002C02E50304081E090E002C068
:104D2000880F991F2A95E2F7809585238C93089523
:104D3000FC0189E594E091838083CF010E94632682
:104D40000895FC0189E594E091838083CF010E945E
:104D5000632608950E94AC24882331F49091ED05D8
:104D60008091EC05981719F42FEF3FEF0FC0E091F9
:104D7000ED05F0E0E455FA4F20818091ED0590E0DB
:104D800001968F7390708093ED0530E0C90108950E
:104D90000E94AC24882311F080E008958091EC05F6
:104DA0002091ED0590E0805C9F4F821B910960E4AB
:104DB00070E00E94E1370895CF92DF92EF92FF9268
:104DC0000F931F93CF93DF93EC01D62E8F85988995
:104DD000892B09F45AC0CE010E94AC24EFB6F89496
:104DE00060E0898981FD61E0CE010E94C8248F8541
:104DF000988905960E94A524898981FF20C0FF24F7
:104E0000F39400E010E0CD2CDD248F2D90E08C2178
:104E10009D21892B19F0CE0160E002C0CE0161E036
:104E20000E94C8248F8598890E94A524FF0C0F5FDB
:104E30001F4F0830110549F7CE0160E01FC0FF2465
:104E4000F39400E010E0CD2CDD248F2D90E08C2138
:104E50009D21892B19F0CE0161E002C0CE0160E0F6
:104E60000E94C8248F8598890E94A524FF0C0F5F9B
:104E70001F4F0830110549F7CE0161E00E94C82498
:104E8000EFBE8F8598890E94A524DF91CF911F9155
:104E90000F91FF90EF90DF90CF900895882321F03D
:104EA00080916E00816003C080916E008E7F809340
:104EB0006E0008952091AA053091AB052817390797
:104EC00049F49FB7F8941092EC058091EC0580931B
:104ED000ED059FBF08951F93CF93DF93EC01162F2D
:104EE000862F60E00E94F136898981FD04C0812F00
:104EF00061E00E9417371A83212F30E0C9018C5CD2
:104F00009C4FFC0184918B83205E3C4FF90164919E
:104F1000E62FF0E0EE0FFF1FEA5EFC4F85919491C3
:104F20009D838C83DF91CF911F910895FF920F9302
:104F30001F938C01F62E862F61E00E94F1368F2D93
:104F400061E00E9417378F2D90E0FC01EC5CFC4F74
:104F5000E491D8011696EC931697805E9C4FFC0165
:104F60006491E62FF0E0EE0FFF1FE45FFC4F8591A8
:104F7000949118969C938E9317971F910F91FF9081
:104F80000895DF92EF92FF920F931F938C01D62E1C
:104F9000E42EF22E0E94B82589E594E0F801918371
:104FA0008083128611861486138616861586108ACB
:104FB00017868189F1E0FF22FF0C8C7F8F29F80191
:104FC000818BC8016E2D0E949627C8016D2D0E940D
:104FD0006B271F910F91FF90EF90DF900895DF9264
:104FE000EF92FF920F931F938C01D62EE42EF22E98
:104FF0000E94B82589E594E0F801918380831286A8
:1050000011861486138616861586108A178681895E
:10501000F1E0FF22FF0C8C7F8F29F801818BC80102
:105020006E2D0E949627C8016D2D0E946B271F913F
:105030000F91FF90EF90DF9008951F920F920FB69F
:105040000F9211242F933F934F938F939F93EF933E
:10505000FF934091C600E0916E06F0916F06319685
:105060009F012F7730703197809170069091710673
:105070002817390739F0E251FA4F408330936F0611
:1050800020936E06FF91EF919F918F914F913F91E9
:105090002F910F900FBE0F901F9018958F92AF9287
:1050A000CF92DF92EF92FF920F931F93DF93CF93F4
:1050B000CDB7DEB7FC0183E694E0918380837383F0
:1050C0006283558344833783268311870087F38661
:1050D000E286D586C486A68687868D85808B8E855A
:1050E000818B8F85828BCF91DF911F910F91FF90E4
:1050F000EF90DF90CF90AF908F9008958F92AF9206
:10510000CF92DF92EF92FF920F931F93DF93CF9393
:10511000CDB7DEB7FC0183E694E09183808373838F
:105120006283558344833783268311870087F38600
:10513000E286D586C486A68687868D85808B8E85F9
:10514000818B8F85828BCF91DF911F910F91FF9083
:10515000EF90DF90CF90AF908F900895CF93DF9333
:10516000EC019A01AB01E885F985203081EE380722
:1051700080E0480780E0580709F445C081E090E0EE
:105180000A8802C0880F991F0A94E2F7808360E0C2
:1051900079E08DE390E00E94F437215030404040A8
:1051A00050405695479537952795EC81FD81308382
:1051B000EE81FF812083EA85FB85208141E050E07C
:1051C000CA010E8402C0880F991F0A94E2F7282BA7
:1051D0002083EA85FB852081CA010F8402C0880FE5
:1051E000991F0A94E2F7282B2083EA85FB858081AA
:1051F000088802C0440F551F0A94E2F7842B80836D
:10520000DF91CF910895108220E130E0CECFFC01F4
:10521000A285B3854C9121E030E0C901068402C02B
:10522000880F991F0A94E2F7809584238C93A285B6
:10523000B3854C91C901078402C0880F991F0A9455
:10524000E2F7809584238C93A285B3858C910088A6
:1052500002C0220F331F0A94E2F7209528232C93D3
:105260000895DC011296ED91FC911397E058FF4FE1
:105270002191319180819181281B390B2F773070DA
:10528000C9010895DC011296ED91FC911397EE5738
:10529000FF4F2081318192918291E058F040821736
:1052A000930719F42FEF3FEF05C0E20FF31F808142
:1052B000282F30E0C9010895DC011296ED91FC9190
:1052C0001397DF01AE57BF4F2D913C911197E058D6
:1052D000FF4F80819181E058F0408217930719F4C5
:1052E0002FEF3FEF0BC0E20FF31F80812F5F3F4F87
:1052F0002F7730702D933C93282F30E0C90108950B
:10530000DC011296ED91FC911397EE57FF4F8081CF
:105310009181929382930895FC01A085B1852189A2
:105320008C9190E0022E02C0959587950A94E2F741
:1053300080FFF6CF0484F585E02D6083089583E631
:1053400094E090937306809372068EEE95E09093AE
:1053500075068093740685EC90E0909377068093B1
:10536000760684EC90E0909379068093780680EC42
:1053700090E090937B0680937A0681EC90E0909386
:105380007D0680937C0686EC90E090937F06809368
:105390007E0684E08093800683E08093810687E028
:1053A0008093820685E08093830681E08093840663
:1053B00008950F931F93CF93DF938C01EB0109C0E6
:1053C0002196D801ED91FC910190F081E02DC8016A
:1053D000099568816623A1F7DF91CF911F910F9105
:1053E0000895EF92FF920F931F93CF93DF938C0159
:1053F0007B01EA010CC0D7016D917D01D801ED91CF
:10540000FC910190F081E02DC8010995219720972A
:1054100091F7DF91CF911F910F91FF90EF90089539
:10542000DC01ED91FC910280F381E02D0995089556
:10543000CF92DF92EF92FF920F931F93CF93DF9360
:105440006C017B01C0E0D0E00EC0D601ED91FC9173
:1054500000811181C701BE010E94732D682FC60112
:10546000F80109952196F70184819581C817D9071C
:1054700060F3DF91CF911F910F91FF90EF90DF903C
:10548000CF9008952F923F924F925F926F927F92AA
:105490008F929F92AF92BF92CF92DF92EF92FF9244
:1054A0000F931F93DF93CF93CDB7DEB7A0970FB6BF
:1054B000F894DEBF0FBECDBF1C016A017B01411510
:1054C00051056105710549F440E350E060E070E08A
:1054D00020E030E00E940C2B54C088249924540111
:1054E000422E55246624772401E010E00C0F1D1F86
:1054F000080D191DC701B601A30192010E94F437DE
:10550000F80160830894811C911CA11CB11CC70187
:10551000B601A30192010E94F437C901DA016C01BE
:105520007D01C114D104E104F104F1F681E0E82E1B
:10553000F12CEC0EFD1EE80CF91C3E010894611CD8
:10554000711CD501C4010197A109B1096C01C818EA
:10555000D90814C0F601EE0DFF1D40814A3010F449
:10556000405D01C0495C50E060E070E0C10120E0B6
:1055700030E00E940C2B0894E108F1086E147F04BF
:1055800049F7A0960FB6F894DEBF0FBECDBFCF91FE
:10559000DF911F910F91FF90EF90DF90CF90BF9020
:1055A000AF909F908F907F906F905F904F903F90C3
:1055B0002F900895DC012115310541F4ED91FC9106
:1055C0000190F081E02D642F099508950E94422AF0
:1055D0000895EF92FF920F931F939A017B0100E0D1
:1055E00010E0B801A7010E94DA2A1F910F91FF90E5
:1055F000EF900895EF92FF920F931F939A01E62E7A
:10560000FF2400E010E0B801A7010E94DA2A1F91F0
:105610000F91FF90EF900895EF92FF920F931F93D9
:10562000CF93DF93EC017A018B012115310541F411
:10563000E881F9810190F081E02D642F09951BC06C
:105640002A303105B1F477FF10C04DE250E060E040
:1056500070E020E030E00E940C2B10950095F09453
:10566000E094E11CF11C011D111DCE01B801A70140
:105670002AE00E94422ADF91CF911F910F91FF9063
:10568000EF900895EF92FF920F931F937B019A0181
:105690000027F7FC0095102FB801A7010E940C2BE2
:1056A0001F910F91FF90EF900895EF92FF920F934B
:1056B0001F939A01E62EFF2400E010E0B801A70135
:1056C0000E940C2B1F910F91FF90EF9008950F9364
:1056D0001F938C014DE050E060E070E020E030E08E
:1056E0000E940C2BC8014AE050E060E070E020E02E
:1056F00030E00E940C2B1F910F9108950F931F9380
:105700008C010E94DA2AC8010E94672B1F910F9119
:105710000895CF92DF92EF92FF920F931F938C0127
:105720009A016B01EE24FF24B701A6010E94DA2A38
:10573000C8010E94672B1F910F91FF90EF90DF909F
:10574000CF900895CF92DF92EF92FF920F931F9325
:105750008C019A01C62EDD24EE24FF24B701A60198
:105760000E94DA2AC8010E94672B1F910F91FF90B7
:10577000EF90DF90CF9008950F931F938C010E94BC
:10578000102AC8010E94672B1F910F9108950F9353
:105790001F938C010E94182AC8010E94672B1F9139
:1057A0000F9108950F931F938C010E940C2BC80139
:1057B0000E94672B1F910F910895CF92DF92EF9275
:1057C000FF920F931F938C016B019A01EE24D7FC7B
:1057D000E094FE2CB701A6010E940C2BC8010E9488
:1057E000672B1F910F91FF90EF90DF90CF9008955E
:1057F000CF92DF92EF92FF920F931F938C019A0149
:10580000C62EDD24EE24FF24B701A6010E940C2B36
:10581000C8010E94672B1F910F91FF90EF90DF90BE
:10582000CF9008959F92AF92BF92CF92DF92EF9266
:10583000FF920F931F93CF93DF93EC017A018B01BB
:10584000922ECB01BA0120E030E040E050E00E940F
:10585000A30988236CF4CE014DE250E060E070E0D3
:1058600020E030E00E940C2B17FB109517F91095E3
:1058700020E030E040E05FE3AA240BC0CA01B90198
:1058800020E030E040E251E40E94C7089B01AC01F7
:10589000A394A91498F3C801B7010E94A0075B0163
:1058A0006C010E94F7057B018C01CE01B801A701B4
:1058B0002AE030E00E94DA2A992029F0CE0163E83C
:1058C00072E00E94102AC801B7010E94850A9B015C
:1058D000AC01C601B5010E946F0722C020E030E094
:1058E00040E251E40E94CD077B018C010E94310A05
:1058F0005B016C01CC24B7FCC094DC2CCE01B6015A
:10590000A5012AE030E00E940C2BC601B5010E94DF
:10591000D3099B01AC01C801B7010E946F079A949B
:105920009920E1F6DF91CF911F910F91FF90EF90B9
:10593000DF90CF90BF90AF909F9008950E94122C5F
:1059400008950F931F938C010E94122CC8010E948E
:10595000672B1F910F9108952F923F924F925F9264
:105960006F927F928F929F92AF92BF92CF92DF926F
:10597000EF92FF920F931F93DF93CF93CDB7DEB7D4
:105980003B014C0119012A016D897E898F89988D0F
:105990006A197B098C099D09621A730A840A950A9F
:1059A000A40193010E94C237E218F3080409150903
:1059B000A80197010E9416382A0D3B1D4C1D5D1D44
:1059C000B901CA01CF91DF911F910F91FF90EF9024
:1059D000DF90CF90BF90AF909F908F907F906F900F
:1059E0005F904F903F902F900895089570E0382F6A
:1059F00020E0622B732BCB010895EF92FF920F935F
:105A00001F937B018C01611571058105910529F4B6
:105A100020E030E040E050E00BC00E94480EA801BA
:105A200097010E941638AC01CB01DA019C01AD014F
:105A3000B901CA011F910F91FF90EF900895EF9265
:105A4000FF920F931F937B018C01621773078407EA
:105A5000950764F4261B370B480B590BCA01B90193
:105A60000E94FD2CE60EF71E081F191FB701C80182
:105A70001F910F91FF90EF900895009729F0BC01BE
:105A800080E090E00E944D0E0895FC010190F081AD
:105A9000E02DE60FF71F80810895DC01ED91FC9168
:105AA0001197309751F014968D919C911597681726
:105AB000790718F4E60FF71F40830895FC019B0156
:105AC000848195816817790728F460817181611557
:105AD000710529F41092850665E876E002C0620F30
