:100000000C943A010C9462010C9462010C9462010C
:100010000C9462010C9462010C9462010C946201D4
:100020000C9462010C9462010C9462010C946201C4
:100030000C9462010C9462010C9462010C946201B4
:100040000C94B71C0C9462010C941B100C9462016C
:100050000C9462010C9462010C9462010C94620194
:100060000C9462010C94620152096AD53036A538AD
:10007000BF40A39E81F3D7FB7CE339829B2FFF8790
:10008000348E4344C4DEE9CB547B9432A6C2233D74
:10009000EE4C950B42FAC34E082EA16628D924B225
:1000A000765BA2496D8BD12572F8F6648668981646
:1000B000D4A45CCC5D65B6926C704850FDEDB9DAA5
:1000C0005E154657A78D9D8490D8AB008CBCD30A93
:1000D000F7E45805B8B34506D02C1E8FCA3F0F026F
:1000E000C1AFBD0301138A6B3A9111414F67DCEA3E
:1000F00097F2CFCEF0B4E67396AC7422E7AD3585B7
:10010000E2F937E81C75DF6E47F11A711D29C589C0
:100110006FB7620EAA18BE1BFC563E4BC6D27920A2
:100120009ADBC0FE78CD5AF41FDDA8338807C731AB
:10013000B11210592780EC5F60517FA919B54A0DA3
:100140002DE57A9F93C99CEFA0E03B4DAE2AF5B018
:10015000C8EBBB3C83539961172B047EBA77D62634
:10016000E169146355210C7D0102040810204080D0
:100170001B36637C777BF26B6FC53001672BFED734
:10018000AB76CA82C97DFA5947F0ADD4A2AF9CA420
:1001900072C0B7FD9326363FF7CC34A5E5F171D890
:1001A000311504C723C31896059A071280E2EB277E
:1001B000B27509832C1A1B6E5AA0523BD6B329E3A1
:1001C0002F8453D100ED20FCB15B6ACBBE394A4C81
:1001D00058CFD0EFAAFB434D338545F9027F503C01
:1001E0009FA851A3408F929D38F5BCB6DA2110FF2D
:1001F000F3D2CD0C13EC5F974417C4A77E3D645D2A
:10020000197360814FDC222A908846EEB814DE5EB6
:100210000BDBE0323A0A4906245CC2D3AC6291950A
:10022000E479E7C8376D8DD54EA96C56F4EA657A46
:10023000AE08BA78252E1CA6B4C6E8DD741F4BBDE7
:100240008B8A703EB5664803F60E613557B986C194
:100250001D9EE1F8981169D98E949B1E87E9CE55B1
:1002600028DF8CA1890DBFE6426841992D0FB0545B
:10027000BB169D1111241FBECFEFD8E0DEBFCDBF4E
:1002800012E0A0E0B1E0E2ECFCE302C005900D92C8
:10029000AE37B107D9F713E0AEE7B2E001C01D9267
:1002A000A332B107E1F712E0C4E7D2E004C022971D
:1002B000FE010E942C1EC237D107C9F70E948B0F86
:1002C0000C945F1E0C9400004AE00E94B80108954F
:1002D0004AE00E9466030895DF93CF9300D000D0D8
:1002E000CDB7DEB7DC018C91898314968C9114977D
:1002F0008A8318968C9118978B831C968C911C97E7
:100300008C8370E0EE27FF27E61BF70BE370F0709D
:100310009E012F5F3F4FE20FF31F80818C93E5E03A
:10032000F0E0E61BF70BE370F070E20FF31F808143
:1003300014968C931497E6E0F0E0E61BF70BE3705D
:10034000F070E20FF31F808118968C9318976095D8
:10035000709563707070260F371FF90180811C96AD
:100360008C930F900F900F900F90CF91DF91089585
:100370002F923F924F925F926F927F928F929F92B5
:10038000AF92BF92CF92DF92EF92FF920F931F93A3
:10039000DF93CF93CDB7DEB76B970FB6F894DEBF80
:1003A0000FBECDBF2C01798F688F142F50E094E0E1
:1003B000440F551F9A95E1F7460F571F1201D201BE
:1003C00020E030E0FA01E20FF31F8C919081892741
:1003D0008D932F5F3F4F20313105A1F7C201019668
:1003E0009B8B8A8B61E00E946C01D2011296BD8BBF
:1003F000AC8BCD0162E00E946C01F2013396FF8B61
:10040000EE8BCF0163E00E946C01D20180E0EC91A1
:10041000F0E0E859FF4FE491ED938F5F8031B9F739
:10042000A12ECE0141969B8F8A8F9CC0AA946A2DE3
:1004300070E084E0660F771F8A95E1F7A88DB98D8B
:100440006A0F7B1F40E050E021E030E02C0F3D1FA1
:10045000240F351FFB01E40FF51FD201A40FB51FB8
:1004600080819C918927F90180834F5F5F4F4031E4
:10047000510551F74E010894811C911C3201D401A1
:1004800013961C9113971296EC901297CE2CC126BE
:1004900011960C911197FC90BF2DB027B98B6B2F43
:1004A0006C2589E04BE10E947205D82E6F2D6E25D8
:1004B00084E04BE10E947205B82EBD24602F6127B5
:1004C00084E04BE10E947205D8266F2D612782E0FF
:1004D0004BE10E94720518271D25F301138382E06A
:1004E0006C2D4BE10E9472058E258B25D30112964F
:1004F0008C93E02682E06E2D4BE10E947205082766
:100500000D25F301018382E069894BE10E947205A8
:10051000F826FB24D301FC92E4E0F0E08E0E9F1E4F
:100520006E0E7F1E8A8D9B8D8816990609F0A7CFC7
:100530008A899B8961E00E946C018C899D8962E0B7
:100540000E946C018E899F8963E00E946C01D20138
:1005500080E0EC91F0E0E859FF4FE491ED938F5F7C
:100560008031B9F791E09A1508F460CF20E030E0CF
:10057000E88DF98DE20FF31FD1018C9190818927CD
:10058000F10181931F012F5F3F4F2031310581F72A
:100590006B960FB6F894DEBF0FBECDBFCF91DF9143
:1005A0001F910F91FF90EF90DF90CF90BF90AF9091
:1005B0009F908F907F906F905F904F903F902F9083
:1005C0000895DF93CF9300D000D0CDB7DEB79C0164
:1005D000A62FB0E0EE27FF27EA1BFB0BE370F070BD
:1005E000E80FF91F80818983E5E0F0E0EA1BFB0B4F
:1005F000E370F070E20FF31F80818A83E6E0F0E0A1
:10060000EA1BFB0BE370F070E20FF31F80818B831A
:10061000A095B095A370B070A20FB31F8C918C837E
:1006200089819A81AB81BC81F90180839183A28306
:10063000B3830F900F900F900F90CF91DF9108959B
:10064000DF93CF9300D000D0CDB7DEB7DC018C9123
:10065000898314968C9114978A8318968C91189795
:100660008B831C968C911C978C8370E0FB01E3704C
:10067000F0709E012F5F3F4FE20FF31F80818C933C
:10068000FB013196E370F070E20FF31F8081149646
:100690008C9314976E5F7F4FFB01E370F070E20F55
:1006A000F31F808118968C9318976F5F7F4F63704C
:1006B0007070260F371FF90180811C968C930F9064
:1006C0000F900F900F90CF91DF9108953F924F922E
:1006D0005F926F927F928F929F92AF92BF92CF92D2
:1006E000DF92EF92FF920F931F93DF93CF93CDB7DB
:1006F000DEB762970FB6F894DEBF0FBECDBF5C01C8
:100700003B01342E2C01DC0120E030E0F301E20F4C
:10071000F31F8C91908189278D932F5F3F4F20315C
:100720003105A1F701E0CE0141969A8B898B8FC0EC
:100730004F0194E0880C991C9A95E1F7860C971C60
:1007400080E090E0F501E80FF91FE081F0E0EE585D
:10075000FE4FE491A1E0B0E0AC0FBD1FA80FB91FA0
:10076000EC9301968031910569F7CE01029661E024
:100770000E942003CE01039662E00E942003CE0176
:10078000049663E00E9420037E010894E11CF11CA2
:100790006501D70111966C9111978C91682713967A
:1007A0001C91139712968C911827162782E04BE123
:1007B0000E947205F701908191279827D6019C939A
:1007C00062818181682782E04BE10E947205F70116
:1007D000918191279827D60111969C9363818281FC
:1007E000682782E04BE10E947205F7019281912710
:1007F0009827D60112969C9360818381682782E0B6
:100800004BE10E947205F701938119271827D60141
:1008100013961C93E4E0F0E0EE0EFF1ECE0EDF1EFA
:1008200089899A89E816F90609F0B3CFD50120E045
:1008300030E0F401E20FF31F8C91908189278D93B2
:100840002F5F3F4F20313105A1F70F5F3A94E02F22
:10085000F0E091E0931508F46BCF7F0184E0EE0C9B
:10086000FF1C8A95E1F7E60CF71CD50180E0EC91BE
:10087000F0E0EE58FE4FE491ED938F5F8031B9F7D1
:10088000C501019661E00E942003C501029662E065
:100890000E942003C501039663E00E94200320E02C
:1008A00030E0F701E20FF31FD2018C91908189278C
:1008B000F20181932F012F5F3F4F2031310589F7DE
:1008C00062960FB6F894DEBF0FBECDBFCF91DF9119
:1008D0001F910F91FF90EF90DF90CF90BF90AF905E
:1008E0009F908F907F906F905F904F903F90089572
:1008F0002F923F924F925F926F927F928F929F9230
:10090000AF92BF92CF92DF92EF92FF920F931F931D
:10091000DF93CF9300D000D0CDB7DEB7FC019B01B1
:10092000F42EE52E8B0155E0169507955A95E1F7C3
:10093000902EA02EBB2487E090E0A80EB91E8A2C32
:10094000880C880C89EF9FEFA80EB91E43E03695FE
:1009500027954A95E1F78F2D9E2DBF01A9010E9491
:10096000790ECF2CDE2CE02EEE0CF02E10E02E01B6
:100970000894411C511C32010894611C711C34E024
:10098000232E312C2C0E3D1E81C06F2D70E0FB01FB
:10099000E150F040EE0FFF1FEE0FFF1FEC0DFD1DAD
:1009A00080819181A281B38189839A83AB83BC8347
:1009B000F01619F198E0991609F045C0CB0187703F
:1009C0009070049709F03FC0E981F0E0EE58FE4FC7
:1009D000E491E983EA81F0E0EE58FE4FE491EA8386
:1009E000EB81F0E0EE58FE4FE491EB83EC81F0E018
:1009F000EE58FE4FE491EC8326C0F1012081F20114
:100A00003081F3018081E82FF0E0EE58FE4F9491A1
:100A1000EB81F0E0EE58FE4FE491EA83E22FF0E044
:100A2000EE58FE4F84918B83E32FF0E0EE58FE4F9B
:100A300084918C83E12FF0E0E859FE4FE4919E27EA
:100A400099831F5F0E2D660F771F660F771F6C0D42
:100A50007D1DEF2DF0E0EA19FB09EE0FFF1FEE0FF1
:100A6000FF1FEC0DFD1D80819181A281B381298141
:100A70003A814B815C8182279327A427B527FB010C
:100A800080839183A283B383F394E394F81408F4EE
:100A90007CCF0F900F900F900F90CF91DF911F910F
:100AA0000F91FF90EF90DF90CF90BF90AF909F900D
:100AB0008F907F906F905F904F903F902F90089510
:100AC000AB0160E071E00E9478040895AB0160EC36
:100AD00070E00E9478040895AB0160E870E00E9425
:100AE00078040895782F8827769531F008F48627C2
:100AF000660F08F46427F8CF08F486270895EF926C
:100B0000FF920F931F937B018C0120E030E040E0C7
:100B10005FE40E94FB0888238CF0C801B70120E045
:100B200030E040E05FE40E94F7060E94B9099B01B3
:100B3000AC01205030404040504806C0C801B701C9
:100B40000E94B9099B01AC01B901CA011F910F9123
:100B5000FF90EF900895A0E0B0E0E1EBF5E00C9499
:100B6000F31DDC012B01FA019C91923008F439C18C
:100B7000EB018881823008F433C1943069F4843009
:100B800009F02FC111969C9111978981981709F44A
:100B900028C1A1E2B1E025C1843009F421C182302D
:100BA000A9F4923009F01DC19A01AD0188E0EA0173
:100BB0000990AE01E90109929E018150C1F7E2015D
:100BC000898111969C918923818308C1923009F40F
:100BD00007C112962D903C901397EB018A819B815F
:100BE0001496AD90BD90CD90DC901797EC80FD8071
:100BF0000E811F819101281B390BB90137FF04C0F9
:100C000066277727621B730B603271050CF061C099
:100C1000121613066CF537014801062E04C096948F
:100C20008794779467940A94D2F721E030E040E00B
:100C300050E004C0220F331F441F551F6A95D2F79E
:100C400021503040404050402E213F21402351232D
:100C5000211531054105510521F021E030E040E04A
:100C600050E079018A01E628F728082919293CC0B3
:100C7000232BD1F1260E371E35014601062E04C066
:100C800096948794779467940A94D2F721E030E0A1
:100C900040E050E004C0220F331F441F551F6A95E7
:100CA000D2F721503040404050402A213B214C2176
:100CB0005D21211531054105510521F021E030E08C
:100CC00040E050E059016A01A628B728C828D92871
:100CD0000BC0821593052CF01C01AA24BB246501CE
:100CE00003C0EE24FF24870111969C91D201119636
:100CF0008C91981709F445C0992339F0A801970100
:100D00002A193B094C095D0906C0A60195012E1957
:100D10003F09400B510B57FD08C0118233822282DC
:100D200024833583468357831DC081E081833382CA
:100D3000228288279927DC01821B930BA40BB50B19
:100D400084839583A683B7830DC0220F331F441F6E
:100D5000551F24833583468357838281938101976E
:100D6000938382832481358146815781DA01C901C9
:100D70000197A109B1098F5F9F4FAF4FBF4328F380
:100D80000BC0918333822282EA0CFB1C0C1D1D1DBB
:100D9000E482F5820683178383E080832481358192
:100DA0004681578157FF1AC0C901AA2797FDA09510
:100DB000BA2F81709070A070B07056954795379596
:100DC0002795822B932BA42BB52B84839583A68305
:100DD000B78382819381019693838283DF0101C06F
:100DE000D201CD01CDB7DEB7E2E10C940F1EA0E237
:100DF000B0E0EDEFF6E00C94FF1D69837A838B83FE
:100E00009C832D833E834F835887E9E0EE2EF12C9F
:100E1000EC0EFD1ECE010196B7010E94AA0B8E01B9
:100E20000F5E1F4FCE010596B8010E94AA0B8A895A
:100E300091E089278A8BC701B801AE01475E5F4FF9
:100E40000E94AB050E94D50AA096E6E00C941B1EFA
:100E5000A0E2B0E0EEE2F7E00C94FF1D69837A8334
:100E60008B839C832D833E834F835887F9E0EF2E3D
:100E7000F12CEC0EFD1ECE010196B7010E94AA0BCB
:100E80008E010F5E1F4FCE010596B8010E94AA0B7E
:100E9000C701B801AE01475E5F4F0E94AB050E94DB
:100EA000D50AA096E6E00C941B1EA0E2B0E0EBE5AC
:100EB000F7E00C94F31D69837A838B839C832D83E5
:100EC0003E834F835887CE010196BE01675F7F4FF7
:100ED0000E94AA0BCE010596BE016F5E7F4F0E9455
:100EE000AA0B9985923088F089898230C8F09430B5
:100EF00019F4823051F404C0843029F4923081F422
:100F000081E291E0C6C0923049F420E09A858A8956
:100F1000981321E02A87CE010996BBC0823049F49C
:100F200020E09A858A89981321E02A8BCE01419688
:100F3000B0C02D843E844F8458886D887E888F8809
:100F4000988CEE24FF248701AA24BB24650140E08D
:100F500050E060E070E0E0E0F0E0C101817090708E
:100F6000892BE9F0E60CF71C081D191D9A01AB014D
:100F70002A0D3B1D4C1D5D1D80E090E0A0E0B0E01F
:100F8000E614F7040805190520F481E090E0A0E0DC
:100F9000B0E0BA01A901480F591F6A1F7B1FAA0CB4
:100FA000BB1CCC1CDD1C97FE08C081E090E0A0E0DB
:100FB000B0E0A82AB92ACA2ADB2A3196E032F10524
:100FC00049F0660C771C881C991C569447943794FA
:100FD0002794C3CFFA85EA892B893C898B859C8528
:100FE000280F391F2E5F3F4F17C0CA0181709070C4
:100FF000892B61F016950795F794E79480E090E0CF
:10100000A0E0B0E8E82AF92A0A2B1B2B7695679511
:10101000579547952F5F3F4F77FDE7CF0CC0440FA3
:10102000551F661F771F17FD4160EE0CFF1C001F48
:10103000111F21503040403090E0590790E069077F
:1010400090E4790760F32B8F3C8FDB01CA018F7727
:101050009070A070B07080349105A105B10561F465
:1010600047FD0AC0E114F1040105110529F0405CB7
:101070005F4F6F4F7F4F40781A8EFE1711F081E05F
:101080008A8F4D8F5E8F6F8F78A383E0898FCE011B
:1010900049960E94D50AA096E2E10C940F1EA8E1A1
:1010A000B0E0E5E5F8E00C94FB1D69837A838B835F
:1010B0009C832D833E834F835887B9E0EB2EF12C20
:1010C000EC0EFD1ECE010196B7010E94AA0B8E0107
:1010D0000F5E1F4FCE010596B8010E94AA0B29850D
:1010E000223008F47EC03989323010F4B8017CC057
:1010F0008A859A8989278A87243011F0223031F431
:10110000231709F06EC061E271E06EC0343039F42B
:101110001D861E861F86188A1C861B8604C03230D8
:1011200021F484E08987B7015FC02B853C858B89DA
:101130009C89281B390B3C872B87ED84FE840F8507
:101140001889AD88BE88CF88D88CEA14FB040C05BA
:101150001D0540F4EE0CFF1C001F111F21503040F4
:101160003C872B8720E030E040E050E080E090E0DA
:10117000A0E0B0E460E070E0EA14FB040C051D059B
:1011800040F0282B392B4A2B5B2BEA18FB080C0963
:101190001D09B695A79597958795EE0CFF1C001F26
:1011A000111F6F5F7F4F6F31710531F7DA01C90190
:1011B0008F779070A070B07080349105A105B10553
:1011C00061F427FD0AC0E114F1040105110529F0BD
:1011D000205C3F4F4F4F5F4F20782D873E874F87D2
:1011E000588BBE01675F7F4FCB010E94D50A68967E
:1011F000EAE00C94171EA8E1B0E0E1E0F9E00C94FD
:10120000FF1D69837A838B839C832D833E834F8369
:10121000588789E0E82EF12CEC0EFD1ECE010196D8
:10122000B7010E94AA0B8E010F5E1F4FCE010596DB
:10123000B8010E94AA0B8985823040F089898230EA
:1012400028F0C701B8010E94220C01C08FEF6896F8
:10125000E6E00C941B1EA8E1B0E0E1E3F9E00C9499
:10126000FF1D69837A838B839C832D833E834F8309
:10127000588789E0E82EF12CEC0EFD1ECE01019678
:10128000B7010E94AA0B8E010F5E1F4FCE0105967B
:10129000B8010E94AA0B8985823040F0898982308A
:1012A00028F0C701B8010E94220C01C081E06896B5
:1012B000E6E00C941B1EA8E0B0E0E1E6F9E00C9437
:1012C000FC1D9B01AC0183E08983DA01C9018827F9
:1012D000B7FD83959927AA27BB27B82E211531057D
:1012E0004105510519F482E089833AC08823A9F0A9
:1012F000203080E0380780E0480780E8580729F46C
:1013000060E070E080E09FEC30C0EE24FF248701B5
:10131000E21AF30A040B150B02C079018A018EE16F
:10132000C82ED12CDC82CB82ED82FE820F831887FF
:10133000C801B7010E94860A01971816190684F49D
:10134000082E04C0EE0CFF1C001F111F0A94D2F7D8
:10135000ED82FE820F831887C81AD90ADC82CB82FD
:10136000BA82CE0101960E94D50A2896E9E00C9433
:10137000181EACE0B0E0EFEBF9E00C94031E6983BB
:101380007A838B839C83CE010196BE016B5F7F4F76
:101390000E94AA0B8D81823061F1823050F184303D
:1013A00021F48E81882351F12EC02F81388537FD9D
:1013B00020C06E812F3131051CF06623F9F023C067
:1013C0008EE190E0821B930B29853A854B855C85E5
:1013D00004C056954795379527958A95D2F7662389
:1013E000B1F050954095309521953F4F4F4F5F4F4D
:1013F0000EC020E030E040E050E009C02FEF3FEFAA
:101400004FEF5FE704C020E030E040E050E8B90172
:10141000CA012C96E2E00C941F1EA8E0B0E0E3E1C4
:10142000FAE00C94FB1D7B018C01611571058105AF
:10143000910519F482E0898360C083E089838EE19D
:10144000C82ED12CDC82CB82ED82FE820F831887DE
:10145000C801B7010E94860AFC013197F7FF3BC023
:10146000222733272E1B3F0B57016801022E04C091
:10147000D694C794B794A7940A94D2F740E050E06A
:1014800060E070E081E090E0A0E0B0E004C0880F90
:10149000991FAA1FBB1F2A95D2F70197A109B1096D
:1014A0008E219F21A023B1230097A105B10521F032
:1014B00041E050E060E070E04A295B296C297D2919
:1014C0004D835E836F8378878EE190E08E1B9F0B48
:1014D0009C838B8312C0309781F00E2E04C0EE0CDB
:1014E000FF1C001F111F0A94D2F7ED82FE820F83AA
:1014F0001887CE1ADF0ADC82CB821A82CE010196CF
:101500000E94D50A2896EAE00C94171EEF92FF92EB
:101510000F931F937B018C0180E0E81680E0F806B2
:1015200081E0080780E0180788F48FEFE816F104DF
:101530000105110531F028F088E090E0A0E0B0E06E
:1015400017C080E090E0A0E0B0E012C080E0E816B4
:1015500080E0F80680E0080781E0180728F088E1BD
:1015600090E0A0E0B0E004C080E190E0A0E0B0E056
:1015700020E230E040E050E0281B390B4A0B5B0BC7
:1015800004C016950795F794E7948A95D2F7F7016A
:10159000E75DFE4F8081281B310941095109C901CE
:1015A0001F910F91FF90EF900895DF92EF92FF92BD
:1015B0000F931F93FC01E480F58006811781D18091
:1015C0008081823048F480E090E0A0E1B0E0E82A39
:1015D000F92A0A2B1B2BA5C0843009F49FC0823046
:1015E00021F4EE24FF24870105C0E114F104010574
:1015F000110519F4E0E0F0E096C0628173819FEF7D
:10160000623879070CF05BC022E83FEF261B370BEE
:101610002A3131052CF020E030E040E050E02AC0D3
:10162000B801A701022E04C0769567955795479596
:101630000A94D2F781E090E0A0E0B0E004C0880F07
:10164000991FAA1FBB1F2A95D2F70197A109B109BB
:101650008E219F21A023B1230097A105B10521F080
:1016600081E090E0A0E0B0E09A01AB01282B392B9B
:101670004A2B5B2BDA01C9018F779070A070B07094
:1016800080349105A105B10539F427FF09C0205C1C
:101690003F4F4F4F5F4F04C0215C3F4F4F4F5F4F55
:1016A000E0E0F0E02030A0E03A07A0E04A07A0E444
:1016B0005A0710F0E1E0F0E079018A0127C06038B4
:1016C000710564F5FB01E158FF4FD801C7018F7721
:1016D0009070A070B07080349105A105B10539F407
:1016E000E7FE0DC080E490E0A0E0B0E004C08FE32E
:1016F00090E0A0E0B0E0E80EF91E0A1F1B1F17FFE4
:1017000005C016950795F794E794319687E01695EE
:101710000795F794E7948A95D1F705C0EE24FF2446
:101720008701EFEFF0E06E2F679566276795902FA2
:101730009F77D794DD24D7948E2F8695492F462BFB
:10174000582F5D29B701CA011F910F91FF90EF90AB
:10175000DF900895FC01DB01408151812281622FDD
:101760006F7770E0221F2227221F9381892F880F15
:10177000822B282F30E0991F9927991F11969C934F
:10178000119721153105A9F541155105610571051F
:1017900011F482E037C082E89FEF13969C938E93FA
:1017A00012979A01AB0167E0220F331F441F551FA8
:1017B0006A95D1F783E08C930DC0220F331F441F2D
:1017C000551F12968D919C911397019713969C9398
:1017D0008E931297203080E0380780E0480780E43D
:1017E000580758F314962D933D934D935C93179798
:1017F00008952F3F310579F44115510561057105B3
:1018000019F484E08C93089564FF03C081E08C9305
:1018100012C01C9210C02F57304013963C932E9349
:10182000129783E08C9387E0440F551F661F771F44
:101830008A95D1F7706414964D935D936D937C9364
:10184000179708951F93DC01FB019C91923008F4D7
:1018500047C08081823008F443C0943051F411961F
:101860001C91843099F58181682F70E0611B7109AA
:101870003FC0843021F0923031F48230B9F181815F
:10188000882389F12DC011961C9111978230F1F0B7
:1018900081811817D9F412962D913C91139782816A
:1018A00093818217930794F028173907BCF0149698
:1018B0008D919D910D90BC91A02D24813581468103
:1018C0005781281739074A075B0718F4112341F09D
:1018D0000AC082179307A407B50740F4112319F033
:1018E00061E070E005C06FEF7FEF02C060E070E084
:1018F000CB011F910895CF93DF93BC0182309105F6
:1019000010F462E070E0A0912103B0912203ED0198
:10191000E0E0F0E040E050E021C088819981861746
:10192000970769F48A819B81309719F093838283AA
:1019300004C09093220380932103FE0134C06817F2
:10194000790738F44115510519F08417950708F403
:10195000AC01FE018A819B819C01E9012097E9F697
:1019600041155105A9F1CA01861B970B049708F48C
:10197000BA01E0E0F0E02AC08D919C9111978417A4
:101980009507F9F46417750781F412968D919C916F
:101990001397309719F09383828304C090932203A6
:1019A00080932103FD0132964CC0CA01861B970B20
:1019B000FD01E80FF91F6193719302978D939C933A
:1019C00040C0FD01828193819C01D9011097A1F64D
:1019D00080911F0390912003892B41F480912B0269
:1019E00090912C029093200380931F0340912D022D
:1019F00050912E024115510541F44DB75EB78091CB
:101A0000290290912A02481B590B20911F03309103
:101A10002003CA01821B930B8617970780F0AB0146
:101A20004E5F5F4F8417950750F0420F531F50933E
:101A3000200340931F03F9016193719302C0E0E01A
:101A4000F0E0CF01DF91CF910895CF93DF9300971E
:101A500009F450C0EC0122971B821A82A091210345
:101A6000B0912203109709F140E050E0AC17BD0798
:101A700008F1BB83AA83FE0121913191E20FF31F8C
:101A8000AE17BF0779F48D919C911197280F391FDC
:101A90002E5F3F4F3983288312968D919C91139727
:101AA0009B838A834115510571F4D0932203C0931F
:101AB000210320C012968D919C911397AD01009740
:101AC00011F0DC01D3CFFA01D383C283219131918C
:101AD000E20FF31FCE17DF0769F488819981280F81
:101AE000391F2E5F3F4FFA01318320838A819B810A
:101AF00093838283DF91CF910895A0E0B0E0E3E883
:101B0000FDE00C94F51D6C01009729F4CB010E94B7
:101B10007B0C6C01C1C08EEF882E8FEF982E8C0C41
:101B20009D1C8601060F171F0815190508F4B2C081
:101B3000F401A081B181A617B707B8F0A530B105AF
:101B400008F4AAC0CD0104978617970708F4A4C02B
:101B50001297A61BB70BF801A193B193D4016D9313
:101B60007C93CF010E94250D97C07B01EA1AFB0AE6
:101B7000EEEFFFEFEE0EFF1E36016A0E7B1EC091E8
:101B80002103D091220344245524AA24BB244AC013
:101B9000C615D705E1F5488159814E155F05B8F1A5
:101BA000CA0104978E159F05B0F41296A40FB51FB5
:101BB000F401B183A0832A813B814114510431F0A7
:101BC000D20113963C932E93129766C03093220352
:101BD0002093210361C08A819B81F80193838283D2
:101BE000425050404E195F095183408341145104C3
:101BF00031F0D20113961C930E93129704C01093E8
:101C0000220300932103F4017183608345C088811E
:101C10009981A816B90608F45C012E018A819B817E
:101C20009C01E901209709F0B3CF80911F039091A7
:101C3000200386159705E9F4A616B706D0F420917F
:101C40002D0230912E022115310541F42DB73EB7FA
:101C50008091290290912A02281B390B0217130741
:101C6000C8F41093200300931F03D4016D937C9359
:101C700013C0CB010E947B0CEC01009759F0F401DA
:101C800040815181B6010E94790EC6010E94250D46
:101C90006E0102C0CC24DD24C601CDB7DEB7E0E181
:101CA0000C94111E1F93FC0199278827BC01E8940E
:101CB00011911032E9F3193010F01E30C8F31B32C5
:101CC00051F01D3249F4689406C00E943F0F610F25
:101CD000711D811D911D119110531A30B0F33EF406
:101CE00090958095709561957F4F8F4F9F4F1F9175
:101CF0000895FB01DC0102C001900D92415050405B
:101D0000D8F70895FB01DC010D900020E9F7119749
:101D100001900D920020E1F70895FC018191861752
:101D200021F08823D9F7992708953197CF01089595
:101D3000FB01DC018D91019080190110D9F3990B01
:101D40000895FB01DC0101900D920020E1F7089558
:101D5000FB01DC014150504030F08D910190801921
:101D600019F40020B9F7881B990B0895FB01DC01D9
:101D70004150504048F001900D920020C9F701C039
:101D80001D9241505040E0F70895FC0181E090E041
:101D90000190061609F4CF010020D1F701970895AC
:101DA000FB0151915523A9F0BF01DC014D9145176D
:101DB0004111E1F759F4CD010190002049F04D9116
:101DC00040154111C9F3FB014111EFCF81E090E0D3
:101DD00001970895FB019F01E8944230C4F0453219
:101DE000B4F44A3029F497FB1EF4909581959F4FE7
:101DF000642F77270E944B1E805D8A330CF0895D2B
:101E00008193CB010097A1F716F45DE25193108204
:101E1000C9010C94790FFA01CF93FF93EF9322300D
:101E200044F1253234F5C22FE894CA3049F497FBC7
:101E30003EF490958095709561957F4F8F4F9F4FA1
:101E40002C2F332744275527FF93EF930E94D11D52
:101E5000EF91FF91605D6A330CF0695D6193B901A8
:101E6000CA01605070408040904051F716F4CDE2B6
:101E7000C19310828F919F91CF910C94790F592F1C
:101E8000482F372F262F660F771F881F991F660F41
:101E9000771F881F991F620F731F841F951F660F7E
:101EA000771F881F991F0895FA01CF93FF93EF932F
:101EB0002230CCF02532BCF4C22F2C2F33274427FC
:101EC0005527FF93EF930E94D11DEF91FF91605D25
:101ED0006A330CF0695D6193B901CA0160507040CA
:101EE0008040904051F710828F919F91CF910C9438
:101EF000790FDC01FC01672F71917723E1F73297AD
:101F000004C07C916D9370836291AE17BF07C8F3D4
:101F10000895F894FFCFAF92BF92CF92DF92EF92E5
:101F2000FF920F931F93DF93CF93CDB7DEB7C05DC2
:101F3000D0400FB6F894DEBF0FBECDBF0E94961DF5
:101F400082E093E040E855E260E070E00E94AC106F
:101F500082E093E060E071E00E94BA13DE01119626
:101F6000EFE3F2E080E101900D928150E1F7DE01B4
:101F70005196EFE2F2E080E101900D928150E1F79D
:101F80008E010F5D1F4FCE010196B8010E946C05B6
:101F900081E1C82ED12CCC0EDD1E7601C601BC2CF1
:101FA000A92E82E093E0F70161917F0140E150E0CA
:101FB0000E94F812E016F106A1F782E093E00E9479
:101FC00065138B2D9A2DB7010E946801860182E06E
:101FD00093E0F80161918F0140E150E00E94F81216
:101FE0000E151F05A1F782E093E00E946513CE0154
:101FF0004196BE016F5D7F4F0E94640182E093E0D5
:10200000F60161916F0140E150E00E94F812CE1498
:10201000DF04A1F782E093E00E94651382E093E081
:102020006DE071E00E940E1264E670E080E090E0E6
:102030000E94331DF9CF1F920F920FB60F921124F9
:102040002F933F934F938F939F93EF93FF934091E1
:10205000C600E091FE02F091FF0231969F012F77BA
:102060003070319780910003909101032817390750
:1020700039F0E258FD4F40833093FF022093FE0277
:10208000FF91EF919F918F914F913F912F910F90E1
:102090000FBE0F901F9018958F92AF92CF92DF9244
:1020A000EF92FF920F931F93DF93CF93CDB7DEB7DD
:1020B000FC0183E592E0918380837383628355837F
:1020C00044833783268311870087F386E286D5868B
:1020D000C486A68687868D85808B8E85818B8F852D
:1020E000828BCF91DF911F910F91FF90EF90DF9046
:1020F000CF90AF908F9008958F92AF92CF92DF9252
:10210000EF92FF920F931F93DF93CF93CDB7DEB77C
:10211000FC0183E592E0918380837383628355831E
:1021200044833783268311870087F386E286D5862A
:10213000C486A68687868D85808B8E85818B8F85CC
:10214000828BCF91DF911F910F91FF90EF90DF90E5
:10215000CF90AF908F900895CF93DF93EC019A01C9
:10216000AB01E885F985203081EE380780E048072B
:1021700080E0580709F445C081E090E00A8802C079
:10218000880F991F0A94E2F7808360E079E08DE37D
:1021900090E00E94D11D2150304040405040569563
:1021A000479537952795EC81FD813083EE81FF813E
:1021B0002083EA85FB85208141E050E0CA010E843E
:1021C00002C0880F991F0A94E2F7282B2083EA8522
:1021D000FB852081CA010F8402C0880F991F0A94D1
:1021E000E2F7282B2083EA85FB858081088802C0DE
:1021F000440F551F0A94E2F7842B8083DF91CF911F
:102200000895108220E130E0CECFFC01A285B38595
:102210004C9121E030E0C901068402C0880F991F6B
:102220000A94E2F7809584238C93A285B3854C9120
:10223000C901078402C0880F991F0A94E2F78095AC
:1022400084238C93A285B3858C91008802C0220FD1
:10225000331F0A94E2F7209528232C930895DC017C
:102260001296ED91FC911397E058FF4F2191319117
:1022700080819181281B390B2F773070C901089517
:10228000DC011296ED91FC911397EE57FF4F2081E0
:10229000318192918291E058F0408217930719F4AE
:1022A0002FEF3FEF05C0E20FF31F8081282F30E0B2
:1022B000C9010895DC011296ED91FC911397DF019D
:1022C000AE57BF4F2D913C911197E058FF4F808141
:1022D0009181E058F0408217930719F42FEF3FEFF8
:1022E0000BC0E20FF31F80812F5F3F4F2F773070BD
:1022F0002D933C93282F30E0C9010895DC011296FC
:10230000ED91FC911397EE57FF4F8081918192934D
:1023100082930895FC01A085B18521898C9190E07C
:10232000022E02C0959587950A94E2F780FFF6CFBA
:102330000484F585E02D6083089583E592E0909311
:102340000303809302038EE792E09093050380934A
:10235000040385EC90E0909307038093060384ECDC
:1023600090E0909309038093080380EC90E09093B1
:102370000B0380930A0381EC90E090930D0380930C
:102380000C0386EC90E090930F0380930E0384E09F
:102390008093100383E08093110387E080931203FE
:1023A00085E08093130381E08093140308950F93D5
:1023B0001F93CF93DF938C01EB0109C02196D801C5
:1023C000ED91FC910190F081E02DC80109956881A3
:1023D0006623A1F7DF91CF911F910F910895EF929E
:1023E000FF920F931F93CF93DF938C017B01EA0140
:1023F0000CC0D7016D917D01D801ED91FC91019048
:10240000F081E02DC80109952197209791F7DF9180
:10241000CF911F910F91FF90EF900895DC01ED9106
:10242000FC910280F381E02D09950895CF92DF920F
:10243000EF92FF920F931F93CF93DF936C017B0179
:10244000C0E0D0E00EC0D601ED91FC910081118179
:10245000C701BE010E94D814682FC601F801099572
:102460002196F70184819581C817D90760F3DF9120
:10247000CF911F910F91FF90EF90DF90CF90089533
:102480002F923F924F925F926F927F928F929F9284
:10249000AF92BF92CF92DF92EF92FF920F931F9372
:1024A000DF93CF93CDB7DEB7A0970FB6F894DEBF1A
:1024B0000FBECDBF1C016A017B01411551056105AD
:1024C000710549F440E350E060E070E020E030E066
:1024D0000E940A1354C0882499245401422E552482
:1024E0006624772401E010E00C0F1D1F080D191D54
:1024F000C701B601A30192010E94D11DF8016083BA
:102500000894811C911CA11CB11CC701B601A30138
:1025100092010E94D11DC901DA016C017D01C11433
:10252000D104E104F104F1F681E0E82EF12CEC0E87
:10253000FD1EE80CF91C3E010894611C711CD501BC
:10254000C4010197A109B1096C01C818D90814C0C8
:10255000F601EE0DFF1D40814A3010F4405D01C0D0
:10256000495C50E060E070E0C10120E030E00E9492
:102570000A130894E108F1086E147F0449F7A09645
:102580000FB6F894DEBF0FBECDBFCF91DF911F9184
:102590000F91FF90EF90DF90CF90BF90AF909F9002
:1025A0008F907F906F905F904F903F902F90089505
:1025B000DC012115310541F4ED91FC910190F08190
:1025C000E02D642F099508950E9440120895EF921E
:1025D000FF920F931F939A017B0100E010E0B80176
:1025E000A7010E94D8121F910F91FF90EF900895BC
:1025F000EF92FF920F931F939A01E62EFF2400E0C3
:1026000010E0B801A7010E94D8121F910F91FF900E
:10261000EF900895EF92FF920F931F93CF93DF9364
:10262000EC017A018B012115310541F4E881F98132
:102630000190F081E02D642F09951BC02A303105EF
:10264000B1F477FF10C04DE250E060E070E020E0B0
:1026500030E00E940A1310950095F094E094E11C7C
:10266000F11C011D111DCE01B801A7012AE00E9435
:102670004012DF91CF911F910F91FF90EF9008953D
:10268000EF92FF920F931F937B019A010027F7FCB3
:102690000095102FB801A7010E940A131F910F91F6
:1026A000FF90EF900895EF92FF920F931F939A017E
:1026B000E62EFF2400E010E0B801A7010E940A13F3
:1026C0001F910F91FF90EF9008950F931F938C012E
:1026D0004DE050E060E070E020E030E00E940A133E
:1026E000C8014AE050E060E070E020E030E00E9485
:1026F0000A131F910F9108950F931F938C010E944D
:10270000D812C8010E9465131F910F910895CF92AE
:10271000DF92EF92FF920F931F938C019A016B014E
:10272000EE24FF24B701A6010E94D812C8010E941E
:1027300065131F910F91FF90EF90DF90CF90089558
:10274000CF92DF92EF92FF920F931F938C019A0129
:10275000C62EDD24EE24FF24B701A6010E94D81264
:10276000C8010E9465131F910F91FF90EF90DF90B9
:10277000CF9008950F931F938C010E940E12C801F1
:102780000E9465131F910F9108950F931F938C0161
:102790000E941612C8010E9465131F910F9108959F
:1027A0000F931F938C010E940A13C8010E946513A6
:1027B0001F910F910895CF92DF92EF92FF920F93A6
:1027C0001F938C016B019A01EE24D7FCE094FE2C40
:1027D000B701A6010E940A13C8010E9465131F9148
:1027E0000F91FF90EF90DF90CF900895CF92DF92FE
:1027F000EF92FF920F931F938C019A01C62EDD2456
:10280000EE24FF24B701A6010E940A13C8010E940A
:1028100065131F910F91FF90EF90DF90CF90089577
:102820009F92AF92BF92CF92DF92EF92FF920F935F
:102830001F93CF93DF93EC017A018B01922ECB0192
:10284000BA0120E030E040E050E00E942B098823EC
:102850006CF4CE014DE250E060E070E020E030E04A
:102860000E940A1317FB109517F9109520E030E02D
:1028700040E05FE3AA240BC0CA01B90120E030E0C8
:1028800040E251E40E944F089B01AC01A394A914BB
:1028900098F3C801B7010E9428075B016C010E94F0
:1028A0007F057B018C01CE01B801A7012AE030E051
:1028B0000E94D812992029F0CE016EE171E00E94A9
:1028C0000E12C801B7010E940D0A9B01AC01C6019E
:1028D000B5010E94F70622C020E030E040E251E45A
:1028E0000E9455077B018C010E94B9095B016C01B4
:1028F000CC24B7FCC094DC2CCE01B601A5012AE0A3
:1029000030E00E940A13C601B5010E945B099B01D9
:10291000AC01C801B7010E94F7069A949920E1F62C
:10292000DF91CF911F910F91FF90EF90DF90CF90AB
:10293000BF90AF909F9008950E94101408950F9338
:102940001F938C010E941014C8010E9465131F91EF
:102950000F910895FC010190F081E02DE60FF71F23
:1029600080810895DC01ED91FC911197309751F031
:1029700014968D919C9115976817790718F4E60FB6
:10298000F71F40830895FC019B018481958168179E
:10299000790728F4608171816115710529F410921D
:1029A000150365E173E002C0620F731FCB01089548
:1029B000FC010190F081E02DE60FF71F8081089562
:1029C000FC01808191810E94520E08950F931F9304
:1029D000CF93DF93FC018B0141155105A1F06115E7
:1029E000710589F084819581EA0121978C179D07F3
:1029F00008F4EC0160817181C801AE010E94B60E3D
:102A0000C00FD11F1882DF91CF911F910F910895B0
:102A10000F931F93CF93DF93FC018B014115510559
:102A2000A1F06115710589F084819581EA012197F2
:102A30008C179D0708F4EC0160817181C801AE011B
:102A40000E94B60EC00FD11F1882DF91CF911F9147
:102A50000F9108950F931F938C01FC018081918148
:102A60000E94250DF80113821282158214821F9193
:102A70000F910895FC01DB0114962D913C9115975F
:102A800084819581821B930B8417950710F480E055
:102A90000895808191816D917C91840F951FA9018A
:102AA0000E94A80E9C0180E0232B09F481E0089588
:102AB000FC01DB012481358114968D919C91159741
:102AC0002817390710F480E00895CF0140E050E066
:102AD0000E943A150895DF92EF92FF920F931F9391
:102AE000CF93DF93EC018C819D8148175907B8F48F
:102AF0007A010894E11CF11CE881F981EE0DFF1DBB
:102B0000D080108208811981C80170E00E94C50E32
:102B10009C010E0D1F1DF801D082009719F4EFEFF4
:102B2000FFEF05C088819981F901E81BF90BCF01FE
:102B3000DF91CF911F910F91FF90EF90DF9008955B
:102B4000FC0144815581415050400E946B1508950D
:102B5000CF93DF93FC01DB018481958148175907EE
:102B600060F4C081D1816D917C91CE01840F951F5D
:102B70000E94D00E9C01009719F42FEF3FEF02C086
:102B80002C1B3D0BC901DF91CF91089540E050E02F
:102B90000E94A8150895CF93DF93FC01848195814D
:102BA0004817590758F4C081D181CE01840F951F71
:102BB00070E00E948D0E9C01009719F42FEF3FEFFB
:102BC00002C02C1B3D0BC901DF91CF91089540E05D
:102BD00050E00E94CB150895DC01FB0114962D9165
:102BE0003C911597848195812817390711F080E071
:102BF0000895608171818D919C910E94980E9C0135
:102C000080E0232B09F481E00895FC01DB0124819D
:102C1000358114968D919C9115972817390710F4DA
:102C200080E00895281B390B808191816D917C9102
:102C3000820F931F0E94980E9C0180E0232B09F4C1
:102C400081E00895DC01FB01608171818D919C918F
:102C50000E94980E292F332727FD30952095309517
:102C60002227330F221F3327C9010895DC01FB01FE
:102C7000608171818D919C910E94980E40E050E09E
:102C80001816190614F041E050E0CA010895DC015D
:102C9000FB01608171818D919C910E94980E40E0B2
:102CA00050E01816190614F441E050E0CA010895E6
:102CB000DC01FB01608171818D919C910E94980ED5
:102CC000292F332727FD30952227330F221F332743
:102CD000C9010895DC01FB0114962D913C911597D3
:102CE000848195812817390751F4608171818D9114
:102CF0009C910E94980E9C0180E0232B09F081E0BA
:102D000090E00895DC01FB0114962D913C911597FC
:102D1000848195812817390711F080E00BC060810C
:102D200071818D919C910E94980E9C0180E0232BD3
:102D300009F481E090E00895FC01DB016D917C9144
:102D4000808191810E94980E08950F931F93CF93D5
:102D5000DF93EC018B01FB01648175818C819D8186
:102D6000680F791F7D836C838A819B818617970703
:102D7000B8F46F5F7F4F888199810E947D0D4C81EF
:102D80005D81009729F0998388835B834A8308C01B
:102D9000F80184819581481B590B5D834C8307C0E2
:102DA000F80160817181888199810E94820ECE0133
:102DB000DF91CF911F910F9108950E94A51608955C
:102DC000CF93DF93EC01CB017B836A8301960E9452
:102DD0007B0C99838883009721F41B821A821D82C1
:102DE0001C82DF91CF9108950F931F93CF93DF93B0
:102DF000EC018B018617970709F1FB0124813581CE
:102E00008C819D818217930750F4888199810E945B
:102E1000250DF80164817581CE010E94E01628819C
:102E200039812115310551F0F801848195819D8307
:102E30008C8360817181C9010E94A10ECE01DF9156
:102E4000CF911F910F9108951F93CF93DF93EC01C2
:102E5000162F81E090E09D838C83CE0161E070E0CD
:102E60000E94E016E881F981309721F01083E88113
:102E7000F9811182DF91CF911F9108951F93CF9314
:102E8000DF93EC01162F81E090E09D838C83CE01CF
:102E900061E070E00E94E016E881F981309721F04E
:102EA0001083E881F9811182DF91CF911F910895FC
:102EB0001F93CF93DF93EC01162F81E090E09D8369
:102EC0008C83CE0161E070E00E94E016E881F98118
:102ED000309721F01083E881F9811182DF91CF9141
:102EE0001F9108951F93CF93DF93EC01162F81E07C
:102EF00090E09D838C83CE0161E070E00E94E0163B
:102F0000E881F981309721F01083E881F9811182FD
:102F1000DF91CF911F9108950F931F93CF93DF936C
:102F20008C01EB016C817D81FC01758364830E94BF
:102F3000E016F80180819181009721F06881798104
:102F40000E94A10EDF91CF911F910F9108950F93D1
:102F50001F93CF93DF938C01EB016C817D81FC018A
:102F6000758364830E94E016F80180819181009747
:102F700021F0688179810E94A10EDF91CF911F918C
:102F80000F910895EF92FF920F931F93DF93CF93CA
:102F9000CDB7DEB7A1970FB6F894DEBF0FBECDBF99
:102FA0008C01CB01BA017E010894E11CF11CA70140
:102FB0002AE030E00E94540FF70101900020E9F769
:102FC0003197EE19FF09D8011596FC93EE931497EB
:102FD000C801BF010E94E016F8018081918100972D
:102FE00019F0B7010E94A10EA1960FB6F894DEBFAA
:102FF0000FBECDBFCF91DF911F910F91FF90EF904A
:103000000895EF92FF920F931F93DF93CF93CDB765
:10301000DEB7A1970FB6F894DEBF0FBECDBF8C010F
:10302000CB01BA017E010894E11CF11CA7012AE042
:1030300030E00E94540FF70101900020E9F731972A
:10304000EE19FF09D8011596FC93EE931497C80169
:10305000BF010E94E016F80180819181009719F06C
:10306000B7010E94A10EA1960FB6F894DEBF0FBE65
:10307000CDBFCF91DF911F910F91FF90EF900895F9
:10308000EF92FF920F931F93DF93CF93CDB7DEB7ED
:10309000A1970FB6F894DEBF0FBECDBF8C019A0189
:1030A00080E090E07E010894E11CF11CA7010E94E1
:1030B000540FF70101900020E9F73197EE19FF094D
:1030C000D8011596FC93EE931497C801BF010E9496
:1030D000E016F80180819181009719F0B7010E94F4
:1030E000A10EA1960FB6F894DEBF0FBECDBFCF9153
:1030F000DF911F910F91FF90EF900895EF92FF9253
:103100000F931F93DF93CF93CDB7DEB7A1970FB681
:10311000F894DEBF0FBECDBF8C019A0180E090E035
:103120007E010894E11CF11CA7010E94540FF701D5
:1031300001900020E9F73197EE19FF09D8011596A3
:10314000FC93EE931497C801BF010E94E016F801AA
:1031500080819181009719F0B7010E94A10EA1967C
:103160000FB6F894DEBF0FBECDBFCF91DF911F9198
:103170000F91FF90EF9008950F931F93CF93DF93DC
:103180008C01EB016115710511F4C0E2D1E0FE0183
:1031900001900020E9F73197EC1BFD0BD801159643
:1031A000FC93EE931497C801BF010E94E016F8014A
:1031B00080819181009719F0BE010E94A10EDF91DC
:1031C000CF911F910F910895AF92BF92CF92DF924E
:1031D000EF92FF920F931F93CF93DF93B82EA92EF8
:1031E0006B01C82FD92FFB0160817181CE010E9434
:1031F000BC18EE24FF240EC0088119810E0D1F1D7E
:10320000F801808190E00E94401EF80180830894BC
:10321000E11CF11CF60184819581E816F90660F342
:103220008B2D9A2DDF91CF911F910F91FF90EF90F1
:10323000DF90CF90BF90AF900895AF92BF92CF92A2
:10324000DF92EF92FF920F931F93CF93DF93B82EED
:10325000A92E6B01C82FD92FFB0160817181CE018E
:103260000E94BC18EE24FF240EC0088119810E0DA7
:103270001F1DF801808190E00E94381EF8018083B4
:103280000894E11CF11CF60184819581E816F90689
:1032900060F38B2D9A2DDF91CF911F910F91FF90AD
:1032A000EF90DF90CF90BF90AF900895EF92FF9294
:1032B0000F931F93DF93CF93CDB7DEB72C970FB645
:1032C000F894DEBF0FBECDBFFC017B0186179707C8
:1032D00011F401E029C024813581DB0114968D9120
:1032E0009C9115972817390711F000E01DC0CE01F9
:1032F0000196BF010E941D1909811A81CE0107960E
:10330000B7010E941D196F817885C8010E94980E2F
:1033100000E0009709F401E0CE0107960E942A150B
:10332000CE0101960E942A15802F2C960FB6F89494
:10333000DEBF0FBECDBFCF91DF911F910F91FF90E8
:10334000EF900895CF92DF92EF92FF921F93CF9369
:10335000DF936C017B01B9012417350710F4BA0122
:10336000A901D70114968D919C911597EB018617B1
:10337000970708F4EC01D701ED91FC911197EC0F40
:10338000FD1F108110826D917C91640F751FC60125
:103390000E94BC18D701ED91FC91EC0FFD1F10832A
:1033A000C601DF91CF911F91FF90EF90DF90CF90FA
:1033B00008950F931F938C01FB01248135810E9496
:1033C000A219C8011F910F9108958F929F92AF92F9
:1033D000BF92CF92DF92EF92FF920F931F93DF93F2
:1033E000CF9300D000D000D0CDB7DEB75C016B0129
:1033F000DB0114968D919C9115970097A1F101978F
:103400004817590780F1F5018481958148175907BC
:1034100050F5ED91FC9100817A014E010894811CD8
:10342000911C1FC0D501ED91FC91EE0DFF1D808117
:103430008017A1F4F601248135812E0D3F1DC401B2
:10344000B501A7010E94A219C401B6010E94EC15A2
:10345000182FC4010E942A15112341F40894E10891
:10346000F108F7FEDFCFEE24EA94FE2CC701269682
:103470000FB6F894DEBF0FBECDBFCF91DF911F9185
:103480000F91FF90EF90DF90CF90BF90AF909F9003
:103490008F900895FC01DB014481558114968D9134
:1034A0009C911597481B590BCF010E94E51908956F
:1034B000AF92BF92CF92DF92EF92FF920F931F9342
:1034C000DF93CF9300D000D000D0CDB7DEB75C0142
:1034D0008B01DB016D917C916115710521F4B801BF
:1034E0000E948C173EC0CE0101960E94BC18F801C4
:1034F000E480F580CC24DD240EC0D801ED91FC9150
:10350000EC0DFD1D808190E00E94301E892B31F072
:103510000894C11CD11CCE14DF0478F3ED80FE802A
:103520000BC0D801ED91FC91EE0DFF1D808190E064
:103530000E94301E892B31F00894E108F108CE1466
:10354000DF0478F30894E11CF11CC5018E010F5FC4
:103550001F4FB801A60197010E94A219C8010E943D
:103560002A15C50126960FB6F894DEBF0FBECDBF53
:10357000CF91DF911F910F91FF90EF90DF90CF904F
:10358000BF90AF9008952F923F924F925F926F92AB
:103590007F928F929F92AF92BF92CF92DF92EF92E3
:1035A000FF920F931F93DF93CF93CDB7DEB768974A
:1035B0000FB6F894DEBF0FBECDBF3C01FB012A0160
:1035C0001901608171816115710521F4BF010E94AB
:1035D0008C175AC07E010894E11CF11CC7010E949F
:1035E000BC188E01095F1F4FC80160E271E00E94A4
:1035F000BC18D02EC12E3DE0832E912C8C0E9D1E2A
:1036000023E1A22EB12CAC0EBD1E24C0C401B70113
:1036100040E050E098010E94A2198D2D9C2DB4012C
:103620000E94A516C4010E942A158D2D9C2DB10162
:103630000E94A516F20144815581400F511FC5011A
:10364000B7010E94D919C701B5010E94F416C5013E
:103650000E942A15C701B2010E94C6158C01FFEF16
:103660008F3F9F0799F68D2D9C2DB7010E94A516BF
:10367000C3016D2D7C2D0E948C178D2D9C2D0E94D9
:103680002A15C7010E942A15C30168960FB6F8943F
:10369000DEBF0FBECDBFCF91DF911F910F91FF9085
:1036A000EF90DF90CF90BF90AF909F908F907F90E2
:1036B0006F905F904F903F902F900895EF92FF9200
:1036C0000F931F93DF93CF9300D000D000D0CDB7DE
:1036D000DEB77C01FB01142F022F6081718161151F
:1036E000710521F4BF010E948C1719C0CE0101960B
:1036F0000E94BC1889819A8101C00083612F70E00B
:103700000E948D0EFC010097C1F7C7018E010F5F6B
:103710001F4FB8010E948C17C8010E942A15C701CB
:1037200026960FB6F894DEBF0FBECDBFCF91DF91C6
:103730001F910F91FF90EF9008950F931F93CF93D8
:10374000DF938C01EB016115710511F4C0E2D1E04A
:10375000FE0101900020E9F73197EC1BFD0BD80129
:103760001596FC93EE931497C801BF010E94E016D2
:10377000F80180819181009719F0BE010E94A10E8D
:10378000DF91CF911F910F910895EF92FF920F93C8
:103790001F93DF93CF93CDB7DEB7A1970FB6F89401
:1037A000DEBF0FBECDBF8C01CB01BA017E010894F4
:1037B000E11CF11CA7010E940B0FF70101900020F2
:1037C000E9F73197EE19FF09D8011596FC93EE93AE
:1037D0001497C801BF010E94E016F8018081918111
:1037E000009719F0B7010E94A10EA1960FB6F894A8
:1037F000DEBF0FBECDBFCF91DF911F910F91FF9024
:10380000EF900895EF92FF920F931F93DF93CF9362
:10381000CDB7DEB7A1970FB6F894DEBF0FBECDBF10
:103820008C01CB01BA017E010894E11CF11CA701B7
:103830000E940B0FF70101900020E9F73197EE1974
:10384000FF09D8011596FC93EE931497C801BF01A8
:103850000E94E016F80180819181009719F0B7016C
:103860000E94A10EA1960FB6F894DEBF0FBECDBF89
:10387000CF91DF911F910F91FF90EF900895EF92FC
:10388000FF920F931F93DF93CF93CDB7DEB7A1972E
:103890000FB6F894DEBF0FBECDBF8C01CB017E0109
:1038A0000894E11CF11CB7010E94EA0EF701019097
:1038B0000020E9F73197EE19FF09D8011596FC931E
:1038C000EE931497C801BF010E94E016F8018081B1
:1038D0009181009719F0B7010E94A10EA1960FB631
:1038E000F894DEBF0FBECDBFCF91DF911F910F9136
:1038F000FF90EF900895EF92FF920F931F93DF9345
:10390000CF93CDB7DEB7A1970FB6F894DEBF0FBE49
:10391000CDBF8C01CB017E010894E11CF11CB701E5
:103920000E94EA0EF70101900020E9F73197EE19A5
:10393000FF09D8011596FC93EE931497C801BF01B7
:103940000E94E016F80180819181009719F0B7017B
:103950000E94A10EA1960FB6F894DEBF0FBECDBF98
:10396000CF91DF911F910F91FF90EF9008951F92DB
:103970000F920FB60F9211242F933F938F939F9323
:10398000AF93BF9380911A0390911B03A0911C03E6
:10399000B0911D0330911E030196A11DB11D232F6F
:1039A0002D5F2D3720F02D570196A11DB11D2093BD
:1039B0001E0380931A0390931B03A0931C03B093E0
:1039C0001D038091160390911703A0911803B091E5
:1039D00019030196A11DB11D80931603909317033F
:1039E000A0931803B0931903BF91AF919F918F914A
:1039F0003F912F910F900FBE0F901F9018958FB78A
:103A0000F89420911A0330911B0340911C035091AC
:103A10001D038FBFB901CA0108959FB7F894209183
:103A2000160330911703409118035091190386B57E
:103A3000A89B06C08F3F21F02F5F3F4F4F4F5F4F36
:103A40009FBF542F432F322F2227280F311D411D96
:103A5000511D82E0220F331F441F551F8A95D1F755
:103A6000B901CA0108959B01AC017FB7F894809118
:103A7000160390911703A0911803B091190366B52E
:103A8000A89B05C06F3F19F00196A11DB11D7FBF16
:103A9000BA2FA92F982F8827860F911DA11DB11D20
:103AA00062E0880F991FAA1FBB1F6A95D1F7BC015E
:103AB0002DC0FFB7F8948091160390911703A09141
:103AC0001803B0911903E6B5A89B05C0EF3F19F0A4
:103AD0000196A11DB11DFFBFBA2FA92F982F8827CE
:103AE0008E0F911DA11DB11DE2E0880F991FAA1F25
:103AF000BB1FEA95D1F7861B970B885E9340C8F2EF
:103B0000215030404040504068517C4F21153105D4
:103B10004105510571F60895019739F0880F991FF5
:103B2000880F991F02970197F1F70895789484B54B
:103B3000826084BD84B5816084BD85B5826085BDA9
:103B400085B5816085BDEEE6F0E08081816080838F
:103B5000E1E8F0E010828081826080838081816072
:103B60008083E0E8F0E0808181608083E1EBF0E039
:103B7000808184608083E0EBF0E0808181608083DD
:103B8000EAE7F0E0808184608083808182608083C6
:103B90008081816080838081806880831092C100F1
:103BA0000895A1E21A2EAA1BBB1BFD010DC0AA1F7E
:103BB000BB1FEE1FFF1FA217B307E407F50720F096
:103BC000A21BB30BE40BF50B661F771F881F991F11
:103BD0001A9469F760957095809590959B01AC015A
:103BE000BD01CF0108952F923F924F925F926F9245
:103BF0007F928F929F92AF92BF92CF92DF92EF927D
:103C0000FF920F931F93CF93DF93CDB7DEB7CA1BFD
:103C1000DB0B0FB6F894DEBF0FBECDBF09942A8828
:103C2000398848885F846E847D848C849B84AA84D0
:103C3000B984C884DF80EE80FD800C811B81AA815D
:103C4000B981CE0FD11D0FB6F894DEBF0FBECDBF28
:103C5000ED010895EE0FFF1F0590F491E02D0994FA
:103C6000911116C0803219F089508550D0F708950F
:103C70009111089581548A5108F4805E855A0895FF
:103C80009111089581568A5108F4805285580895FB
:103C9000992788270895AA1BBB1B51E107C0AA1FBB
:103CA000BB1FA617B70710F0A61BB70B881F991FDD
:103CB0005A95A9F780959095BC01CD010895F89487
:023CC000FFCF34
:103CC20048656C6C6F20576F726C642100446F6E94
:103CD2006520456E6372797074696E6721002E00EB
:103CE20000000000000000000000010202030303C4
:103CF200030404040404040404050505050505057C
:103D0200050505050505050505060606060606065A
:103D12000606060606060606060606060606060641
:103D2200060606060606060606070707070707072A
:103D32000707070707070707070707070707070711
:103D42000707070707070707070707070707070701
:103D520007070707070707070707070707070707F1
:103D620007070707070707070708080808080808DA
:103D720008080808080808080808080808080808C1
:103D820008080808080808080808080808080808B1
:103D920008080808080808080808080808080808A1
:103DA2000808080808080808080808080808080891
:103DB2000808080808080808080808080808080881
:103DC2000808080808080808080808080808080871
:103DD2000808080808080808080808080808080861
:103DE2000808080808080808082000230300003211
:103DF20043F6A8885A308D313198A2E03707342B28
:103E02007E151628AED2A6ABF7158809CF4F3C0017
:103E12000000008A11D711EF112F115A1140117EA3
:103E22001100000000890FD711EF11890F890F8946
:0E3E32000F890F00000000890FD711EF11005B
:00000001FF
