:100000000C9406010C9431010C9431010C943101D3
:100010000C9431010C9431010C9431010C94310198
:100020000C9431010C9431010C9431010C94310188
:100030000C9431010C9431010C9431010C94310178
:100040000C9431010C9431010C9431010C94310168
:100050000C9431010C9431010C9431010C94BE2D9F
:100060000C9431010C94501F0C9431010C9431010B
:100070000C9431010C9431010C9431010C94310138
:100080000C9431010C9431010C9431010C94310128
:100090000C94851F0C9431010C9431010C943101A6
:1000A0000C9431010C9431010C9431010C94310108
:1000B0000C9431010C9431010C9431010C943101F8
:1000C0000C9431010C9431010C9431010C94BA1F41
:1000D0000C9431010C9431010C94EF1F0C943101FC
:1000E0000C94310100002100240027002A002D007B
:1000F0003000330001010000040107010A01000083
:100100002200250028002B002E00310034000201BF
:100110000000050108010B0100002000230026005B
:1001200029002C002F00320000010000030106010D
:10013000090105050505070508080808020202026D
:100140000A0A080804040404010101010101010173
:100150000303030303030303040707070C0C0C0C3E
:100160000C0C0C0C02020202060606060606060627
:100170000B0B0B0B0B0B0B0B0102102020080810B4
:100180002040102040800201020108040201010207
:1001900004081020408080402010080402018004E0
:1001A000020180402010080402010804020101023B
:1001B0000408102040800102040810204080000044
:1001C000090A02080B0C0D070603040100000000D9
:1001D000000000000000000000000000000000001F
:1001E00000000000000000000000100F0E000000E2
:1001F00000000000000000000000000000000000FF
:1002000000000000360C871D75212F0C11241FBE25
:10021000CFEFD1E2DEBFCDBF15E0A0E0B2E0E8EC69
:10022000F3E600E00BBF02C007900D92A03CB107BF
:10023000D9F71BBE19E0A0ECB5E001C01D92AA37AA
:10024000B107E1F712E0CAE0D2E004C02297FE0154
:100250000E94A431C430D107C9F70E94710D0C94DB
:10026000D7310C940000EF92FF920F931F937B0104
:100270008C0120E030E040E05FE40E94AF0488237E
:100280008CF0C801B70120E030E040E05FE40E945C
:10029000AB020E946D059B01AC01205030404040F4
:1002A000504806C0C801B7010E946D059B01AC0112
:1002B000B901CA011F910F91FF90EF900895A0E03E
:1002C000B0E0E5E6F1E00C946B31DC012B01FA01C2
:1002D0009C91923008F439C1EB018881823008F496
:1002E00033C1943069F4843009F02FC111969C9188
:1002F00011978981981709F428C1A2EEB3E025C1AE
:10030000843009F421C18230A9F4923009F01DC172
:100310009A01AD0188E0EA010990AE01E901099274
:100320009E018150C1F7E201898111969C91892338
:10033000818308C1923009F407C112962D903C9038
:100340001397EB018A819B811496AD90BD90CD905F
:10035000DC901797EC80FD800E811F819101281B96
:10036000390BB90137FF04C066277727621B730B6F
:10037000603271050CF061C0121613066CF537017E
:100380004801062E04C096948794779467940A9443
:10039000D2F721E030E040E050E004C0220F331FEC
:1003A000441F551F6A95D2F72150304040405040BD
:1003B0002E213F21402351232115310541055105AF
:1003C00021F021E030E040E050E079018A01E628A8
:1003D000F728082919293CC0232BD1F1260E371EF6
:1003E00035014601062E04C096948794779467944D
:1003F0000A94D2F721E030E040E050E004C0220F40
:10040000331F441F551F6A95D2F72150304040409A
:1004100050402A213B214C215D2121153105410508
:10042000510521F021E030E040E050E059016A013F
:10043000A628B728C828D9280BC0821593052CF008
:100440001C01AA24BB24650103C0EE24FF248701FC
:1004500011969C91D20111968C91981709F445C080
:10046000992339F0A80197012A193B094C095D0924
:1004700006C0A60195012E193F09400B510B57FDEF
:1004800008C01182338222822483358346835783B6
:100490001DC081E081833382228288279927DC0175
:1004A000821B930BA40BB50B84839583A683B78320
:1004B0000DC0220F331F441F551F248335834683ED
:1004C000578382819381019793838283248135812D
:1004D00046815781DA01C9010197A109B1098F5FEE
:1004E0009F4FAF4FBF4328F30BC0918333822282CB
:1004F000EA0CFB1C0C1D1D1DE482F582068317838C
:1005000083E08083248135814681578157FF1AC05B
:10051000C901AA2797FDA095BA2F81709070A0708D
:10052000B0705695479537952795822B932BA42B22
:10053000B52B84839583A683B783828193810196AB
:1005400093838283DF0101C0D201CD01CDB7DEB735
:10055000E2E10C948731A0E2B0E0E1EBF2E00C9430
:10056000773169837A838B839C832D833E834F838A
:100570005887E9E0EE2EF12CEC0EFD1ECE0101961F
:10058000B7010E945E078E010F5E1F4FCE010596D8
:10059000B8010E945E078A8991E089278A8BC7018A
:1005A000B801AE01475E5F4F0E945F010E9489065D
:1005B000A096E6E00C949331A0E2B0E0E2EEF2E027
:1005C0000C94773169837A838B839C832D833E835C
:1005D0004F835887F9E0EF2EF12CEC0EFD1ECE0173
:1005E0000196B7010E945E078E010F5E1F4FCE017C
:1005F0000596B8010E945E07C701B801AE01475ECB
:100600005F4F0E945F010E948906A096E6E00C946D
:100610009331A0E2B0E0EFE0F3E00C946B3169833A
:100620007A838B839C832D833E834F835887CE01AF
:100630000196BE01675F7F4F0E945E07CE0105965F
:10064000BE016F5E7F4F0E945E079985923088F0F1
:1006500089898230C8F0943019F4823051F404C092
:10066000843029F4923081F482EE93E0C6C0923057
:1006700049F420E09A858A89981321E02A87CE01DF
:100680000996BBC0823049F420E09A858A89981384
:1006900021E02A8BCE014196B0C02D843E844F8448
:1006A00058886D887E888F88988CEE24FF24870177
:1006B000AA24BB24650140E050E060E070E0E0E087
:1006C000F0E0C10181709070892BE9F0E60CF71C15
:1006D000081D191D9A01AB012A0D3B1D4C1D5D1D06
:1006E00080E090E0A0E0B0E0E614F704080519050A
:1006F00020F481E090E0A0E0B0E0BA01A901480F49
:10070000591F6A1F7B1FAA0CBB1CCC1CDD1C97FE4B
:1007100008C081E090E0A0E0B0E0A82AB92ACA2A87
:10072000DB2A3196E032F10549F0660C771C881C13
:10073000991C5694479437942794C3CFFA85EA8935
:100740002B893C898B859C85280F391F2E5F3F4F55
:1007500017C0CA0181709070892B61F016950795BA
:10076000F794E79480E090E0A0E0B0E8E82AF92A66
:100770000A2B1B2B76956795579547952F5F3F4F13
:1007800077FDE7CF0CC0440F551F661F771F17FD7D
:100790004160EE0CFF1C001F111F21503040403003
:1007A00090E0590790E0690790E4790760F32B8F98
:1007B0003C8FDB01CA018F779070A070B0708034DD
:1007C0009105A105B10561F447FD0AC0E114F104EA
:1007D0000105110529F0405C5F4F6F4F7F4F407856
:1007E0001A8EFE1711F081E08A8F4D8F5E8F6F8F0A
:1007F00078A383E0898FCE0149960E948906A0964E
:10080000E2E10C948731A8E1B0E0E9E0F4E00C9477
:10081000733169837A838B839C832D833E834F83DB
:100820005887B9E0EB2EF12CEC0EFD1ECE0101969F
:10083000B7010E945E078E010F5E1F4FCE01059625
:10084000B8010E945E072985223008F47EC03989EC
:10085000323010F4B8017CC08A859A8989278A874A
:10086000243011F0223031F4231709F06EC062EE0B
:1008700073E06EC0343039F41D861E861F86188AD8
:100880001C861B8604C0323021F484E08987B701BE
:100890005FC02B853C858B899C89281B390B3C8745
:1008A0002B87ED84FE840F851889AD88BE88CF889C
:1008B000D88CEA14FB040C051D0540F4EE0CFF1C5B
:1008C000001F111F215030403C872B8720E030E073
:1008D00040E050E080E090E0A0E0B0E460E070E054
:1008E000EA14FB040C051D0540F0282B392B4A2B7C
:1008F0005B2BEA18FB080C091D09B695A79597957F
:100900008795EE0CFF1C001F111F6F5F7F4F6F312B
:10091000710531F7DA01C9018F779070A070B0705E
:1009200080349105A105B10561F427FD0AC0E114E9
:10093000F1040105110529F0205C3F4F4F4F5F4F37
:1009400020782D873E874F87588BBE01675F7F4F8A
:10095000CB010E9489066896EAE00C948F31A8E1E9
:10096000B0E0E5EBF4E00C94773169837A838B8314
:100970009C832D833E834F83588789E0E82EF12C9A
:10098000EC0EFD1ECE010196B7010E945E078E019E
:100990000F5E1F4FCE010596B8010E945E07898544
:1009A000823040F08989823028F0C701B8010E9466
:1009B000D60701C08FEF6896E6E00C949331A8E16A
:1009C000B0E0E5EEF4E00C94773169837A838B83B1
:1009D0009C832D833E834F83588789E0E82EF12C3A
:1009E000EC0EFD1ECE010196B7010E945E078E013E
:1009F0000F5E1F4FCE010596B8010E945E078985E4
:100A0000823040F08989823028F0C701B8010E9405
:100A1000D60701C081E06896E6E00C949331A8E027
:100A2000B0E0E5E1F5E00C9474319B01AC0183E0AA
:100A30008983DA01C9018827B7FD83959927AA27F9
:100A4000BB27B82E211531054105510519F482E067
:100A500089833AC08823A9F0203080E0380780E0FD
:100A6000480780E8580729F460E070E080E09FECD8
:100A700030C0EE24FF248701E21AF30A040B150BA1
:100A800002C079018A018EE1C82ED12CDC82CB8292
:100A9000ED82FE820F831887C801B7010E943A06D3
:100AA00001971816190684F4082E04C0EE0CFF1CDA
:100AB000001F111F0A94D2F7ED82FE820F83188760
:100AC000C81AD90ADC82CB82BA82CE0101960E9472
:100AD00089062896E9E00C949031ACE0B0E0E3E7B9
:100AE000F5E00C947B3169837A838B839C83CE0100
:100AF0000196BE016B5F7F4F0E945E078D81823041
:100B000061F1823050F1843021F48E81882351F1DB
:100B10002EC02F81388537FD20C06E812F313105E1
:100B20001CF06623F9F023C08EE190E0821B930B4A
:100B300029853A854B855C8504C056954795379540
:100B400027958A95D2F76623B1F050954095309558
:100B500021953F4F4F4F5F4F0EC020E030E040E007
:100B600050E009C02FEF3FEF4FEF5FE704C020E0F8
:100B700030E040E050E8B901CA012C96E2E00C9464
:100B80009731A8E0B0E0E7ECF5E00C9473317B011D
:100B90008C01611571058105910519F482E0898345
:100BA00060C083E089838EE1C82ED12CDC82CB82A9
:100BB000ED82FE820F831887C801B7010E943A06B2
:100BC000FC013197F7FF3BC0222733272E1B3F0B39
:100BD00057016801022E04C0D694C794B794A79415
:100BE0000A94D2F740E050E060E070E081E090E0ED
:100BF000A0E0B0E004C0880F991FAA1FBB1F2A9570
:100C0000D2F70197A109B1098E219F21A023B12319
:100C10000097A105B10521F041E050E060E070E0EF
:100C20004A295B296C297D294D835E836F837887F0
:100C30008EE190E08E1B9F0B9C838B8312C03097BC
:100C400081F00E2E04C0EE0CFF1C001F111F0A9431
:100C5000D2F7ED82FE820F831887CE1ADF0ADC827C
:100C6000CB821A82CE0101960E9489062896EAE07C
:100C70000C948F31EF92FF920F931F937B018C01A5
:100C800080E0E81680E0F80681E0080780E01807B9
:100C900088F48FEFE816F1040105110531F028F012
:100CA00088E090E0A0E0B0E017C080E090E0A0E035
:100CB000B0E012C080E0E81680E0F80680E00807A7
:100CC00081E0180728F088E190E0A0E0B0E004C0DF
:100CD00080E190E0A0E0B0E020E230E040E050E0D1
:100CE000281B390B4A0B5B0B04C016950795F7942C
:100CF000E7948A95D2F7F701E651FC4F8081281BD3
:100D0000310941095109C9011F910F91FF90EF90DD
:100D10000895DF92EF92FF920F931F93FC01E480FE
:100D2000F58006811781D1808081823048F480E08F
:100D300090E0A0E1B0E0E82AF92A0A2B1B2BA5C01D
:100D4000843009F49FC0823021F4EE24FF2487010F
:100D500005C0E114F1040105110519F4E0E0F0E02B
:100D600096C0628173819FEF623879070CF05BC097
:100D700022E83FEF261B370B2A3131052CF020E00B
:100D800030E040E050E02AC0B801A701022E04C0C4
:100D900076956795579547950A94D2F781E090E04C
:100DA000A0E0B0E004C0880F991FAA1FBB1F2A95BE
:100DB000D2F70197A109B1098E219F21A023B12368
:100DC0000097A105B10521F081E090E0A0E0B0E03E
:100DD0009A01AB01282B392B4A2B5B2BDA01C90175
:100DE0008F779070A070B07080349105A105B10527
:100DF00039F427FF09C0205C3F4F4F4F5F4F04C0BD
:100E0000215C3F4F4F4F5F4FE0E0F0E02030A0E02B
:100E10003A07A0E04A07A0E45A0710F0E1E0F0E04A
:100E200079018A0127C06038710564F5FB01E1583A
:100E3000FF4FD801C7018F779070A070B0708034D9
:100E40009105A105B10539F4E7FE0DC080E490E0FD
:100E5000A0E0B0E004C08FE390E0A0E0B0E0E80ED6
:100E6000F91E0A1F1B1F17FF05C016950795F7945B
:100E7000E794319687E016950795F794E7948A955D
:100E8000D1F705C0EE24FF248701EFEFF0E06E2FCD
:100E9000679566276795902F9F77D794DD24D79421
:100EA0008E2F8695492F462B582F5D29B701CA01F1
:100EB0001F910F91FF90EF90DF900895FC01DB01EF
:100EC000408151812281622F6F7770E0221F22279B
:100ED000221F9381892F880F822B282F30E0991FA2
:100EE0009927991F11969C93119721153105A9F502
:100EF000411551056105710511F482E037C082E8A2
:100F00009FEF13969C938E9312979A01AB0167E023
:100F1000220F331F441F551F6A95D1F783E08C932E
:100F20000DC0220F331F441F551F12968D919C91A7
:100F30001397019713969C938E931297203080E01D
:100F4000380780E0480780E4580758F314962D933B
:100F50003D934D935C93179708952F3F310579F496
:100F6000411551056105710519F484E08C930895CC
:100F700064FF03C081E08C9312C01C9210C02F57F5
:100F8000304013963C932E93129783E08C9387E026
:100F9000440F551F661F771F8A95D1F7706414960A
:100FA0004D935D936D937C93179708951F93DC0188
:100FB000FB019C91923008F447C08081823008F494
:100FC00043C0943051F411961C91843099F581817D
:100FD000682F70E0611B71093FC0843021F09230AE
:100FE00031F48230B9F18181882389F12DC01196C5
:100FF0001C9111978230F1F081811817D9F4129663
:101000002D913C911397828193818217930794F0DD
:1010100028173907BCF014968D919D910D90BC91C5
:10102000A02D2481358146815781281739074A0729
:101030005B0718F4112341F00AC082179307A40735
:10104000B50740F4112319F061E070E005C06FEFBF
:101050007FEF02C060E070E0CB011F910895CF9355
:10106000DF93BC018230910510F462E070E0A09142
:101070007809B0917909ED01E0E0F0E040E050E05E
:1010800021C0888199818617970769F48A819B819D
:10109000309719F09383828304C0909379098093E9
:1010A0007809FE0134C06817790738F441155105F5
:1010B00019F08417950708F4AC01FE018A819B8121
:1010C0009C01E9012097E9F641155105A9F1CA01F2
:1010D000861B970B049708F4BA01E0E0F0E02AC001
:1010E0008D919C91119784179507F9F464177507F2
:1010F00081F412968D919C911397309719F09383F8
:10110000828304C09093790980937809FD01329617
:101110004CC0CA01861B970BFD01E80FF91F6193B4
:10112000719302978D939C9340C0FD0182819381BE
:101130009C01D9011097A1F68091760990917709C9
:10114000892B41F48091EC049091ED049093770900
:10115000809376094091EE045091EF0441155105BA
:1011600041F44DB75EB78091EA049091EB04481BBF
:10117000590B2091760930917709CA01821B930B94
:101180008617970780F0AB014E5F5F4F8417950776
:1011900050F0420F531F5093770940937609F9019D
:1011A0006193719302C0E0E0F0E0CF01DF91CF9155
:1011B0000895CF93DF93009709F450C0EC01229774
:1011C0001B821A82A0917809B0917909109709F1D0
:1011D00040E050E0AC17BD0708F1BB83AA83FE01D5
:1011E00021913191E20FF31FAE17BF0779F48D9172
:1011F0009C911197280F391F2E5F3F4F3983288309
:1012000012968D919C9113979B838A83411551056A
:1012100071F4D0937909C093780920C012968D910A
:101220009C911397AD01009711F0DC01D3CFFA0127
:10123000D383C28321913191E20FF31FCE17DF07D1
:1012400069F488819981280F391F2E5F3F4FFA0179
:10125000318320838A819B8193838283DF91CF9125
:101260000895A0E0B0E0E7E3F9E00C947331EC01FD
:10127000A880B980CA80DB80A114B104C104D10464
:1012800041F484E2A82E89EDB82E8BE5C82E87E0C4
:10129000D82EC601B5012DE133EF41E050E00E94A8
:1012A000503127EA31E440E050E00E940F317B01E9
:1012B0008C01C601B5012DE133EF41E050E00E9401
:1012C0005031CA01B9012CEE34EF4FEF5FEF0E94AD
:1012D0000F316E0D7F1D801F911F97FF04C061505D
:1012E000704080409048688379838A839B839B0108
:1012F000AC015F77B901CA01CDB7DEB7EAE00C9463
:101300008F310E943109089580EF94E00E943109E5
:1013100008956093F0047093F1048093F204909325
:10132000F3040895A0E0B0E0E8E9F9E00C946D3131
:101330006C01009729F4CB010E942F086C01C1C0F9
:101340008EEF882E8FEF982E8C0C9D1C8601060F39
:10135000171F0815190508F4B2C0F401A081B18166
:10136000A617B707B8F0A530B10508F4AAC0CD019B
:1013700004978617970708F4A4C01297A61BB70B0B
:10138000F801A193B193D4016D937C93CF010E9496
:10139000D90897C07B01EA1AFB0AEEEFFFEFEE0EC9
:1013A000FF1E36016A0E7B1EC0917809D091790923
:1013B00044245524AA24BB244AC0C615D705E1F508
:1013C000488159814E155F05B8F1CA0104978E1501
:1013D0009F05B0F41296A40FB51FF401B183A0834A
:1013E0002A813B814114510431F0D20113963C9380
:1013F0002E93129766C0309379092093780961C0C3
:101400008A819B81F80193838283425050404E1918
:101410005F09518340834114510431F0D201139686
:101420001C930E93129704C01093790900937809C6
:10143000F4017183608345C088819981A816B9063B
:1014400008F45C012E018A819B819C01E9012097AF
:1014500009F0B3CF809176099091770986159705A9
:10146000E9F4A616B706D0F42091EE043091EF040B
:101470002115310541F42DB73EB78091EA049091D2
:10148000EB04281B390B02171307C8F410937709D4
:1014900000937609D4016D937C9313C0CB010E9415
:1014A0002F08EC01009759F0F40140815181B601F9
:1014B0000E948E0AC6010E94D9086E0102C0CC2487
:1014C000DD24C601CDB7DEB7E0E10C9489311F936E
:1014D000FC0199278827BC01E89411911032E9F3A7
:1014E000193010F01E30C8F31B3251F01D3249F490
:1014F000689406C00E94540B610F711D811D911DDF
:10150000119110531A30B0F33EF490958095709578
:1015100061957F4F8F4F9F4F1F910895FB01DC0115
:1015200002C001900D9241505040D8F70895FB0140
:10153000DC010D900020E9F7119701900D92002039
:10154000E1F70895FC018191861721F08823D9F7EE
:10155000992708953197CF010895FB01DC018D9102
:10156000019080190110D9F3990B0895FB01DC015A
:1015700001900D920020E1F70895FB01DC0141503C
:10158000504030F08D910190801919F40020B9F786
:10159000881B990B0895FB01DC014150504048F035
:1015A00001900D920020C9F701C01D92415050409A
:1015B000E0F70895FC0181E090E00190061609F43F
:1015C000CF010020D1F701970895FB0151915523D8
:1015D000A9F0BF01DC014D9145174111E1F759F424
:1015E000CD010190002049F04D9140154111C9F302
:1015F000FB014111EFCF81E090E001970895FB01DD
:101600009F01E8944230C4F04532B4F44A3029F4E2
:1016100097FB1EF4909581959F4F642F77270E942A
:10162000C331805D8A330CF0895D8193CB010097D3
:10163000A1F716F45DE251931082C9010C948E0B50
:10164000FA01CF93FF93EF93223044F1253234F522
:10165000C22FE894CA3049F497FB3EF490958095E8
:10166000709561957F4F8F4F9F4F2C2F33274427C5
:101670005527FF93EF930E942E31EF91FF91605D0C
:101680006A330CF0695D6193B901CA016050704022
:101690008040904051F716F4CDE2C19310828F91B3
:1016A0009F91CF910C948E0B592F482F372F262FB7
:1016B000660F771F881F991F660F771F881F991F56
:1016C000620F731F841F951F660F771F881F991F56
:1016D0000895FA01CF93FF93EF932230CCF0253297
:1016E000BCF4C22F2C2F332744275527FF93EF93A9
:1016F0000E942E31EF91FF91605D6A330CF0695DBD
:101700006193B901CA01605070408040904051F728
:1017100010828F919F91CF910C948E0BDC01FC0174
:10172000672F71917723E1F7329704C07C916D9315
:1017300070836291AE17BF07C8F30895F894FFCF86
:10174000FC01DB0112968C911297828313968C9187
:101750008383CF010895EF92FF920F931F937C0133
:101760008B010E94A00BF80184819581F70195837C
:101770008483F80186819781F70197838683F80136
:101780008085F7018087C7011F910F91FF90EF902F
:101790000895E0ECF5E0119285E0E83EF807D9F70E
:1017A0000895E8EEF5E0119286E0E031F807D9F708
:1017B00008950F931F938C01FC01808191810E94F9
:1017C000D908F80113821282158214821F910F9199
:1017D00008958130910589F56F5F7F4F09F03EC014
:1017E0008BE596E060E072E00E94C32981E696E016
:1017F0006DE072E00E94C32987E696E068E172E03E
:101800000E94C3299091FE048091FF0480936D068D
:1018100090936E068FE696E00E9425138BEE96E07D
:101820000E94F30E85EF96E06AEF74E00E942D1B94
:101830008EEF96E00E94FB0E0895892B79F46F5F7E
:101840007F4F61F487E696E00E94D90B81E696E02F
:101850000E94D90B8BE596E00E94D90B089580E099
:1018600090E06FEF7FEF0E94E90B089581E090E038
:101870006FEF7FEF0E94E90B08951F938FE696E0CC
:1018800068EE73E00E94131F882319F18FE696E03B
:101890000E9483130E94DC0D893809F58FE696E0DB
:1018A0000E9483136BEE76E00E94D3128BEE96E0DB
:1018B0000E941810882341F480E299E06DE272E002
:1018C0000E94282411E00CC080E299E063E472E0F9
:1018D00004C080E299E063E672E00E94282410E0F0
:1018E0000E94C90B0E94D10B812F1F910895CF93A5
:1018F000DF9380E299E06BE872E00E9428248FE693
:1019000096E065EF76E00E94BF1D8FE696E068E8FE
:1019100073E10E94131F882309F4A5C08FE696E0A7
:101920000E9483130E94DC0D883809F088C08FE67E
:1019300096E00E9483136EEF76E00E946A128EEFAB
:1019400096E00E944F0F882309F469C080E299E075
:1019500067EA72E00E947C228EEF96E00E94570FA9
:10196000FC0180E299E0608140E050E00E94662343
:101970008EEF96E00E94570FFC0180E299E06181B2
:1019800040E050E00E94662380E299E061EB72E063
:101990000E9428248EEF96E00E94FC0E882309F412
:1019A00084C080E299E063EC72E00E947C228EEFBA
:1019B00096E00E94FC0E682F80E299E04AE050E039
:1019C0000E940E2480E299E06CED72E00E947C227D
:1019D000C0E0D0E015C08EEF96E00E94360FFC010B
:1019E000EC0FFD1F80E299E0608140E150E00E9431
:1019F000662380E299E06CEE72E00E947C222196E0
:101A00008EEF96E00E94FC0E90E0C817D9071CF3F9
:101A100080E299E06EEE72E00E94282446C080E2E7
:101A200099E06FEE72E00E947C228EEF96E00E94B9
:101A30004A0F682F80E299E040E150E02DC080E23B
:101A400099E06BE073E00E947C228FE696E00E94B2
:101A500083130E94DC0D682F80E299E040E150E0A2
:101A60000E94662322C08FE696E00E9483130E94A4
:101A7000000E8823A1F080E299E069E273E00E9401
:101A80007C228FE696E00E9483130E94050E682F49
:101A900080E299E040E050E00E940E2406C080E21F
:101AA00099E06DE473E00E947C22DF91CF9108956C
:101AB0000E94C90B60E070E080E090E023E030E03D
:101AC00040E050E00E948B2526E0629FC001112477
:101AD000855A994F60EC75E048E250E00E940F266D
:101AE00008950F931F93DF93CF93CDB7DEB762971F
:101AF0000FB6F894DEBF0FBECDBF0E949D2E83E3CC
:101B000099E040E855E260E070E00E94842080E0C7
:101B10000E94022F0E94A92580E299E040E855E248
:101B200060E070E00E94842080E299E064E673E067
:101B30000E94282468E873E180E090E00E943A2E39
:101B40008E010F5F1F4FC8016AEF74E04DE656E04B
:101B500022E00E94DA1A85EF96E0B8010E94AB0BF2
:101B60000E94770C8E01065F1F4FC8016CEF74E076
:101B70000E942D1B85EF96E0B8010E94AB0B0E94DE
:101B8000770C80E299E06EEA73E00E94282480E2FC
:101B900099E06BEB73E00E94282480E299E06EEC00
:101BA00073E00E947C2264E670E080E090E00E9496
:101BB0003A2EF9CF08950895FC0182810895FC0121
:101BC00062830895FC0183810895FC016383089575
:101BD000FC0184810895FC0164830895FC018581E2
:101BE0000895FC0165830895FC0186810895FC0138
:101BF00066830895FC0187810895FC016783089539
:101C0000FC018085811181E00895FC0180850895A3
:101C1000FC0160870895EF92FF920F931F938C0150
:101C20007B010E94DC0D682FC7010E94DF0DC801F7
:101C30000E94FA0D682FC7010E94FD0DC8010E9485
:101C4000EE0D682FC7010E94F10DC8010E94050E1C
:101C5000682FC7010E94080EC8010E94F40D682F6A
:101C6000C7010E94F70DC8010E94E20D682FC7014D
:101C70000E94E50DC8010E94E80D682FC7010E946F
:101C8000EB0D1F910F91FF90EF9008958BE0089559
:101C90009C01255F3F4FC90108959C01255F3F4F7F
:101CA000C9010895FC01A081B18114962D913C9148
:101CB0001597F90109958E5F089582E008959C01BA
:101CC000255F3F4FC901089588E00895FC01A08178
:101CD000B18114962D913C911597F90109958E5F6C
:101CE000089582E0089588E008950E94F40D8E50D2
:101CF00008959C01265F3F4FC9010895FC018BE7C1
:101D000095E09183808308950F931F938C010E9427
:101D10007E0E85E495E0F801918380831F910F91F9
:101D200008950F931F938C010E947E0E85E495E029
:101D3000F801918380831F910F9108950F931F9352
:101D40008C010E94910E83E895E0F80191838083D5
:101D50001F910F9108950F931F938C010E94910E74
:101D600083E895E0F801918380831F910F91089596
:101D70000F931F938C010E94AB0E89E595E0F8014B
:101D8000918380831F910F9108950F931F938C016E
:101D90000E94AB0E89E595E0F801918380831F9145
:101DA0000F9108950F931F938C010E94910E8BE366
:101DB00095E0F801918380831F910F9108950F930F
:101DC0001F938C010E94910E8BE395E0F8019183A3
:101DD00080831F910F910895FC018BE795E091831B
:101DE00080830895089508950895089508950895A5
:101DF00008950895089508950E94F40D845008955B
:101E0000FC01848190E00895FF920F931F938C0151
:101E100002960E94000FF82ED801ED91FC910280ED
:101E2000F381E02DC8010995FA94F81A8F2D1F91BE
:101E30000F91FF900895FF920F931F938C010296CC
:101E40000E94000FF82ED801ED91FC910280F381E1
:101E5000E02DC8010995FA94F81A8F2D1F910F9162
:101E6000FF900895FC01808191810895CF93DF93C5
:101E7000EC010E94FC0E882319F420E030E006C03B
:101E8000CE010E94320F9C012C5F3F4FC901DF91B0
:101E9000CF9108950E94320FFC01838108950E9422
:101EA0004A0F90E0882309F491E0892F08950E9459
:101EB000320F9C012F5F3F4FC90108950E94320FDE
:101EC000FC01808108950E94320FFC0180810895F9
:101ED000EF92FF920F931F937C0102960E94320FA4
:101EE0008C01D701ED91FC910280F381E02DC701B7
:101EF0000995080F111DC8011F910F91FF90EF90D8
:101F00000895CF92DF92EF92FF920F931F937C017F
:101F10006B0102960E94320F8C01D701ED91FC916A
:101F20000280F381E02DC70109950C0D1D1D080FDE
:101F3000111DF80180811F910F91FF90EF90DF90AC
:101F4000CF9008950E94320FFC01318520E08285F8
:101F5000280F311DC9010895CF93DF93EC010E9432
:101F6000750E882319F420E030E006C0CE010E94EF
:101F7000320F9C01225F3F4FC901DF91CF9108953D
:101F80000E94320FFC01858508950E94C00F90E0E9
:101F9000882309F491E0892F08950E94320F9C0153
:101FA000255F3F4FC9010895EF92FF920F931F9352
:101FB0008C0102960E94320F7C01D801ED91FC91B8
:101FC0000480F581E02DC8010995E80EF11CF701A8
:101FD00081811F910F91FF90EF9008950E94D40F7F
:101FE00090E09695879596958795817008950E94C3
:101FF000D40F90E09695879581700895EF92FF92A7
:102000000F931F938C0102960E94320F7C01D8011E
:10201000ED91FC910480F581E02DC8010995E80E51
:10202000F11CF70180811F910F91FF90EF900895AF
:102030000E94320FFC01818108950E94181090E0E7
:10204000882309F491E0892F089502960E94320FA7
:10205000FC018181308120E0280F311DC9010895E4
:10206000FF920F931F93CF93DF93EC01F62E02960E
:1020700027E0261788F00E94320F8C01CE010E94C3
:10208000520E080F111DF801848190E002C0959551
:102090008795FA94E2F70AC00E94320F8C01CE01B4
:1020A0000E94520E080F111DF80183818170DF918B
:1020B000CF911F910F91FF900895FF920F931F935F
:1020C000CF93DF93EC01F62E029627E0261788F0D7
:1020D0000E94320F8C01CE010E94520E080F111D7A
:1020E000F801848190E002C095958795FA94E2F713
:1020F0000AC00E94320F8C01CE010E94520E080FBE
:10210000111DF80183818170DF91CF911F910F9193
:10211000FF900895CF92DF92EF92FF920F931F935B
:102120006C01E62E02960E94320F8C01C6010E94BD
:10213000520E080F111DF801818190E0FF240894D0
:10214000E11CF11C02C095958795EA94E2F7817035
:102150001F910F91FF90EF90DF90CF900895EF9235
:10216000FF920F931F93CF93DF93EC0142E0E42E95
:10217000F12CE80EF91EC7010E94320F8C01CE012E
:102180000E94520E080F111DF801818180FD0CC0C4
:10219000C7010E94320F8C01CE010E94520E080F1F
:1021A000111DF8018281811181E0DF91CF911F9192
:1021B0000F91FF90EF9008958F929F92AF92BF92F0
:1021C000CF92DF92EF92FF920F931F93CF93DF9303
:1021D0004C01A62EF42E0E94AF10882319F4E3E0E0
:1021E000EE2E08C08F2D90E00196880F991F63E0B6
:1021F000E62EE80ECC2400E0C401602F0E948A1075
:10220000882311F082E0C80E0F5F0630A9F7C0E006
:10221000D0E00A2D10E009C0C4016A2D0E948A1086
:10222000882311F0E2E0EE0E2196C017D107A4F347
:1022300052E0A52EB12CA80CB91CC5010E94320F8A
:102240008C01C4010E94520ECF9C902D1124E90EE6
:10225000CE2CDD240C0D1D1D080F111DF801F08082
:10226000EE24C5010E94320F8C01C4010E94520E5F
:102270000C0D1D1D080F111DF8018181E80EF11CC8
:10228000C701DF91CF911F910F91FF90EF90DF90E9
:10229000CF90BF90AF909F908F900895EF92FF9254
:1022A0000F931F937C0102960E94320F8C01C7018D
:1022B0000E94520E90E0080F111DF80181818E7767
:1022C00009F091E0892F1F910F91FF90EF900895F1
:1022D000EF92FF920F931F937C0102960E94320FA0
:1022E0008C01C7010E94520E080F111DF801808158
:1022F0001F910F91FF90EF90089502960E94320F68
:10230000FC018181308120E0280F311DC901089531
:102310001F93162F0296683058F40E94320FFC016A
:10232000808990E002C0959587951A95E2F70EC0D6
:102330000E94320FFC01278530E0812F90E0089742
:1023400002C0359527958A95E2F7822F81701F91FB
:10235000089502960E94320FFC0186858F780895B9
:102360001F93162F0E94A91190E002C095958795A2
:102370001A95E2F781701F9108950E94A9118111A9
:1023800081E0089502960E94320FFC018585089530
:1023900002960E94320FFC0184858C7108951F9370
:1023A000162F683048F40E94C21190E002C0959543
:1023B00087951A95E2F70CC00E94C81190E0212F72
:1023C00030E02850304002C0959587952A95E2F775
:1023D00081701F910895CF93DF93EC010E94C81183
:1023E000882321F4CE010E94C211811181E0DF9186
:1023F000CF910895CF92DF92EF92FF920F931F93A8
:10240000CF93DF938C01E62E0E94EB11882319F005
:10241000A1E1FA2E02C0FFE0FF2EC0E0D0E0CE2CFA
:10242000DD2409C0C8016E2D0E94B011882311F06F
:1024300082E0F80E2196CC15DD05A4F3C8010296C2
:102440000E94320FFC01EF0DF11D8181308120E0EF
:10245000280F311DC901DF91CF911F910F91FF907E
:10246000EF90DF90CF90089502960E94320FFC010A
:102470008285089502960E94320FFC01308520E08B
:102480008185280F311DC90108950E94320FFC017A
:10249000858108950E94320FFC01848108950E9475
:1024A0004A1290E0882309F491E0892F08950E9450
:1024B000320FFC01838108950E94320FFC013181AB
:1024C00020E08281280F311DC9010895FC0171832C
:1024D00060830895EF92FF920F931F938C017B010D
:1024E0000E94320FBC01C7010E946612C801B701E9
:1024F0000E940B0E1F910F91FF90EF900895EF92A5
:10250000FF920F931F938C017B010E94320FBC013D
:10251000C7010E946612C801B7010E940B0E1F91ED
:102520000F91FF90EF900895EF92FF920F931F93FA
:102530008C017B010E94320FBC01C7010E94661210
:10254000C801B7010E940B0E1F910F91FF90EF90F1
:102550000895EF92FF920F931F938C017B010E94CD
:10256000320FBC01C7010E946612C801B7010E9468
:102570000B0E1F910F91FF90EF900895EF92FF9235
:102580000F931F938C017B010E94320FBC01C70186
:102590000E946612C801B7010E940B0E1F910F9195
:1025A000FF90EF900895EF92FF920F931F938C018D
:1025B0007B010E94320FBC01C7010E946612C80154
:1025C000B7010E940B0E1F910F91FF90EF9008959D
:1025D000FC0117821086158208950F931F93CF93E5
:1025E000DF93EC010E94E8121A821B821C821D827A
:1025F0001E8200E010E0CE010E94320FFC01E00FCD
:10260000F11F10820F5F1F4F0E361105A1F7DF91EA
:10261000CF911F910F910895FC01128611860E949F
:10262000ED1208950F931F938C01FC011286118601
:10263000148615860E94E812C801025F1F4FB80178
:102640000E9466121F910F9108950F931F938C01A2
:10265000FC0112861186148615860E94E812C801B4
:10266000025F1F4FB8010E9466121F910F910895DB
:10267000FC0185858F5F8587882311F481E085873C
:1026800085850895DC01FB018281938113969C93DB
:102690008E9312978481958115969C938E931497AF
:1026A0008681978117969C938E9316978085918546
:1026B00019969C938E931897828593851B969C936D
:1026C0008E931A97848595851D969C938E931C975F
:1026D00086851E968C931E9787851F968C931F97D1
:1026E000808950968C935097818951968C935197FD
:1026F000828952968C935297CD01089580E299E099
:102700000E94421308950895EF92FF920F931F9332
:10271000F82EE92E8B010E94E20D682FC8010E945D
:10272000E50D8F2D9E2D0E94E80D682FC8010E9497
:10273000EB0D8F2D9E2D0E94DC0D682FC8010E948D
:10274000DF0D8F2D9E2D0E94F40D682FC8010E9471
:10275000F70D8F2D9E2D0E94320FBC01C8010E94E3
:1027600066121F910F91FF90EF900895FC0183E78F
:1027700095E091838083628343830895FC0183E71E
:1027800095E091838083628343830895FC01638392
:102790000895FC0183810895FC0182810895FC0164
:1027A00062830895CF92DF92EF92FF920F937C01A4
:1027B00069010E94B6138BE695E0F701918380834F
:1027C000D582C48206830F91FF90EF90DF90CF9067
:1027D0000895CF92DF92EF92FF920F937C016901EF
:1027E0000E94B6138BE695E0F70191838083D58232
:1027F000C48206830F91FF90EF90DF90CF900895F1
:10280000FC01848195810895FC017583648308959A
:10281000FC0186810895FC0166830895089508955A
:1028200008950895089508950F931F93DF93CF930C
:10283000CDB7DEB728970FB6F894DEBF0FBECDBF79
:102840008C010E94AB0E8FE495E0F80191838083A8
:10285000D8011B96FE01319688E001900D928150BF
:10286000E1F728960FB6F894DEBF0FBECDBFCF912B
:10287000DF911F910F9108950F931F93DF93CF93D3
:10288000CDB7DEB728970FB6F894DEBF0FBECDBF29
:102890008C010E94AB0E8FE495E0F8019183808358
:1028A000D8011B96FE01319688E001900D9281506F
:1028B000E1F728960FB6F894DEBF0FBECDBFCF91DB
:1028C000DF911F910F9108950F931F93DF93CF9383
:1028D000CDB7DEB728970FB6F894DEBF0FBECDBFD9
:1028E0008C010E94910E81E395E0F8019183808331
:1028F000D8011B96FE01319688E001900D9281501F
:10290000E1F728960FB6F894DEBF0FBECDBFCF918A
:10291000DF911F910F9108950F931F93DF93CF9332
:10292000CDB7DEB728970FB6F894DEBF0FBECDBF88
:102930008C010E94910E81E395E0F80191838083E0
:10294000D8011B96FE01319688E001900D928150CE
:10295000E1F728960FB6F894DEBF0FBECDBFCF913A
:10296000DF911F910F9108950F931F93DF93CF93E2
:10297000CDB7DEB728970FB6F894DEBF0FBECDBF38
:102980008C010E947E0E83E695E0F801918380839E
:10299000D8011B96FE01319688E001900D9281507E
:1029A000E1F728960FB6F894DEBF0FBECDBFCF91EA
:1029B000DF911F910F9108950F931F93DF93CF9392
:1029C000CDB7DEB728970FB6F894DEBF0FBECDBFE8
:1029D0008C010E947E0E83E695E0F801918380834E
:1029E000D8011B96FE01319688E001900D9281502E
:1029F000E1F728960FB6F894DEBF0FBECDBFCF919A
:102A0000DF911F910F9108950F931F938C010E94E6
:102A1000DC148DE895E0F801918380831F910F917C
:102A200008950F931F938C010E94DC148DE895E0AC
:102A3000F801918380831F910F9108950F931F9345
:102A4000FC0140835183628373830483158326834F
:102A500037831F910F9108950F931F93FC014083BB
:102A600051836283738304831583268337831F9185
:102A70000F910895FC016081718182819381089595
:102A8000FC0140835183628373830895FC01648158
:102A90007581868197810895FC01448355836683FF
:102AA00077830895EF92FF920F931F937C01162F67
:102AB000072F0E94320FBC01812F902F0E946612B7
:102AC000C701612F702F0E940B0E812F902F0E9443
:102AD000790E8C01C7010E94320FFC01418150E048
:102AE00060E070E0742F662755274427828190E0CC
:102AF000A0E0B0E0DC0199278827480F591F6A1F22
:102B00007B1F8481480F511D611D711D938180E0E1
:102B1000A0E0B0E0480F591F6A1F7B1FC8010E9448
:102B20004015C7010E94320FFC01458150E060E072
:102B300070E0742F662755274427868190E0A0E037
:102B4000B0E0DC0199278827480F591F6A1F7B1FB7
:102B50008085480F511D611D711D978180E0A0E0A7
:102B6000B0E0480F591F6A1F7B1FC8010E944C1517
:102B70001F910F91FF90EF900895EF92FF920F93A6
:102B80001F937C018B010E94320FBC01C8010E947F
:102B90006612C701B8010E940B0E02501040C80116
:102BA0000E944D0E8C01C7010E94320FFC018381EF
:102BB000408150E060E070E0742F6627552744277D
:102BC000480F511D611D711D818190E0A0E0B0E0B2
:102BD000DC0199278827480F591F6A1F7B1F9281A4
:102BE00080E0A0E0B0E0480F591F6A1F7B1FC801BA
:102BF0000E944015C7010E94320FFC01448150E041
:102C000060E070E0742F662755274427858190E0A7
:102C1000A0E0B0E0DC0199278827480F591F6A1F00
:102C20007B1F8781480F511D611D711D968180E0BA
:102C3000A0E0B0E0480F591F6A1F7B1FC8010E9427
:102C40004C151F910F91FF90EF900895EF92FF9216
:102C50000F931F937C018B010E94320FBC01C801AE
:102C60000E946612C701B8010E940B0E025010406C
:102C7000C8010E945F0E8C01C7010E94320FFC0147
:102C80008381408150E060E070E0742F6627552713
:102C90004427480F511D611D711D818190E0A0E006
:102CA000B0E0DC0199278827480F591F6A1F7B1F56
:102CB000928180E0A0E0B0E0480F591F6A1F7B1F9F
:102CC000C8010E944015C7010E94320FFC014481D7
:102CD00050E060E070E0742F662755274427858117
:102CE00090E0A0E0B0E0DC0199278827480F591F49
:102CF0006A1F7B1F8781480F511D611D711D9681C1
:102D000080E0A0E0B0E0480F591F6A1F7B1FC80198
:102D10000E944C151F910F91FF90EF900895EF9234
:102D2000FF920F931F937C018B010E94320FBC0115
:102D3000C8010E946612C701B8010E940B0E025022
:102D40001040C8010E94480E8C01C7010E94320F3A
:102D5000FC018381408150E060E070E0742F6627C1
:102D600055274427480F511D611D711D818190E039
:102D7000A0E0B0E0DC0199278827480F591F6A1F9F
:102D80007B1F928180E0A0E0B0E0480F591F6A1FCE
:102D90007B1FC8010E944015C7010E94320FFC0131
:102DA000448150E060E070E0742F66275527442787
:102DB000858190E0A0E0B0E0DC0199278827480FEA
:102DC000591F6A1F7B1F8781480F511D611D711D8F
:102DD000968180E0A0E0B0E0480F591F6A1F7B1F7A
:102DE000C8010E944C151F910F91FF90EF9008951C
:102DF000EF92FF920F931F937C018B010E94320F81
:102E0000BC01C8010E946612C701B8010E940B0EE6
:102E100002501040C8010E94480E8C01C7010E9458
:102E2000320FFC018381408150E060E070E0742F3C
:102E3000662755274427480F511D611D711D81814B
:102E400090E0A0E0B0E0DC0199278827480F591FE7
:102E50006A1F7B1F928180E0A0E0B0E0480F591FFD
:102E60006A1F7B1FC8010E944015C7010E94320FD4
:102E7000FC01448150E060E070E0742F6627552724
:102E80004427858190E0A0E0B0E0DC019927882705
:102E9000480F591F6A1F7B1F8781480F511D611DF5
:102EA000711D968180E0A0E0B0E0480F591F6A1FB5
:102EB0007B1FC8010E944C151F910F91FF90EF904E
:102EC0000895EF92FF920F937C0160E141E020E0D2
:102ED00030E000E00E94D21389E295E0F70191838F
:102EE00080830F91FF90EF900895EF92FF920F93E0
:102EF0007C0160E141E020E030E000E00E94D2137C
:102F000089E295E0F701918380830F91FF90EF9024
:102F100008957F928F929F92AF92BF92CF92DF924D
:102F2000EF92FF920F931F93CF93DF93EC01162F35
:102F3000D72E4A01B22E702E97010C2D4A2D60E13A
:102F40000E94D21389E295E099838883DE01179667
:102F5000212F3D2DC901FC0188E001900D92815087
:102F6000E1F7988A8F86B98A7A8ADF91CF911F918B
:102F70000F91FF90EF90DF90CF90BF90AF909F9018
:102F80008F907F9008957F928F929F92AF92BF9281
:102F9000CF92DF92EF92FF920F931F93CF93DF9325
:102FA000EC01162FD72E4A01B22E702E97010C2D50
:102FB0004A2D60E10E94D21389E295E099838883CB
:102FC000DE011796212F3D2DC901FC0188E00190FB
:102FD0000D928150E1F7988A8F86B98A7A8ADF91BB
:102FE000CF911F910F91FF90EF90DF90CF90BF9006
:102FF000AF909F908F907F900895FF920F931F93B3
:10300000CF93DF93EC01162FF72EFA01022F60E128
:1030100041E09F010E94D21389E295E09983888361
:10302000DE011796212F3F2DC901FC0188E0019098
:103030000D928150E1F78EEF9FEF988B8F87198A61
:103040001A8ADF91CF911F910F91FF900895FF92FF
:103050000F931F93CF93DF93EC01162FF72EFA01F6
:10306000022F60E141E09F010E94D21389E295E0C6
:1030700099838883DE011796212F3F2DC901FC011A
:1030800088E001900D928150E1F78EEF9FEF988BD1
:103090008F87198A1A8ADF91CF911F910F91FF9024
:1030A00008951F93FC01162F662321F407960E94B2
:1030B0003A1517C0613021F407960E943A151BC0DB
:1030C000623021F407960E943A151EC0633021F445
:1030D00007960E943A153AC0643041F407960E9460
:1030E0004615692F77278827992730C0653039F42E
:1030F00007960E944615BC018827992727C066308D
:1031000041F407960E944615672F782F892F99273B
:103110001DC0673021F407960E94461517C068301D
:1031200011F4608913C0693011F467850FC06A30EB
:1031300011F461890BC06B3011F4628907C00E94E1
:103140000014FC01E10FF11D3C976081862F1F9157
:1031500008950E940814845F08959C01295F3F4FE1
:10316000C9010895FC01878590890895FC01818932
:103170000895FC0182890895DC011796FB0188E01F
:1031800001900D928150E1F70895FC01708B6787E3
:103190000895FC01618B0895FC01628B0895EF9204
:1031A000FF920F937C0161E041E020E030E000E01D
:1031B0000E94D21381E295E0F701918380830F9101
:1031C000FF90EF900895EF92FF920F937C0161E0E2
:1031D00041E020E030E000E00E94D21381E295E07F
:1031E000F701918380830F91FF90EF900895AF9244
:1031F000BF92CF92DF92EF920F931F936C015B010E
:10320000142F4E2D61E00E94D21381E295E0F60169
:1032100091838083B086A78211871F910F91EF90D1
:10322000DF90CF90BF90AF900895AF92BF92CF92B2
:10323000DF92EF920F931F936C015B01142F4E2DC1
:1032400061E00E94D21381E295E0F60191838083D0
:10325000B086A78211871F910F91EF90DF90CF90DA
:10326000BF90AF900895CF92DF92EF92FF920F93AD
:103270007C016B01FA01022F61E041E09F010E9495
:10328000D21381E295E0F70191838083D086C782D3
:1032900011860F91FF90EF90DF90CF900895CF921D
:1032A000DF92EF92FF920F937C016B01FA01022FE4
:1032B00061E041E09F010E94D21381E295E0F701B5
:1032C00091838083D086C78211860F91FF90EF9003
:1032D000DF90CF9008951F93FC01162F662311F401
:1032E00080850FC0613011F487810BC0623011F40A
:1032F000818507C00E940014FC01E10FF11D339786
:1033000080811F9108950E9408148D5F0895FC012B
:10331000878190850895FC01708767830895FC017B
:1033200081850895FC0161870895EF92FF920F93C4
:103330007C0160E041E020E030E000E00E94D21338
:1033400089E195E0F701918380830F91FF90EF90E1
:103350000895EF92FF920F937C0160E041E020E03E
:1033600030E000E00E94D21389E195E0F7019183FB
:1033700080830F91FF90EF900895DF92EF92FF927C
:103380000F931F93CF93DF93EC01162FF72ED42EBC
:103390004E2D60E00E94D21389E195E099838883E5
:1033A000DE011796212F3F2DC901FC0188E0019015
:1033B0000D928150E1F7DF86DF91CF911F910F9140
:1033C000FF90EF90DF900895DF92EF92FF920F93BE
:1033D0001F93CF93DF93EC01162FF72ED42E4E2D93
:1033E00060E00E94D21389E195E099838883DE0131
:1033F0001796212F3F2DC901FC0188E001900D9205
:103400008150E1F7DF86DF91CF911F910F91FF90FF
:10341000EF90DF900895FF920F931F93CF93DF9368
:10342000EC01162FF72EFA01022F60E041E09F0118
:103430000E94D21389E195E099838883DE01179673
:10344000212F3F2DC901FC0188E001900D92815090
:10345000E1F71F86DF91CF911F910F91FF900895A3
:10346000FF920F931F93CF93DF93EC01162FF72E4C
:10347000FA01022F60E041E09F010E94D21389E12E
:1034800095E099838883DE011796212F3F2DC9018E
:10349000FC0188E001900D928150E1F71F86DF91D9
:1034A000CF911F910F91FF9008951F93FC01162F4C
:1034B000662321F407960E943A1517C0613021F463
:1034C00007960E943A151BC0623021F407960E94AD
:1034D0003A151EC0633021F407960E943A152EC09B
:1034E000643041F407960E944615692F7727882794
:1034F000992724C0653039F407960E944615BC010F
:10350000882799271BC0663041F407960E9446150C
:10351000672F782F892F992711C0673021F40796DC
:103520000E9446150BC0683011F4678507C00E94E1
:103530000014FC01E10FF11D39976081862F1F9166
:1035400008950E940814875F08959C01295F3F4FEA
:10355000C9010895DC011796FB0188E001900D92E6
:103560008150E1F70895FC0187850895FC01678784
:103570000895BF92CF92DF92EF92FF920F931F9325
:103580008C017B016A01B22E68E041E00E94B61313
:1035900081E195E0F80191838083F582E482D7820E
:1035A000C682B0861F910F91FF90EF90DF90CF9071
:1035B000BF900895BF92CF92DF92EF92FF920F9348
:1035C0001F938C017B016A01B22E68E041E00E94EA
:1035D000B61381E195E0F80191838083F582E4825E
:1035E000D782C682B0861F910F91FF90EF90DF9037
:1035F000CF90BF900895FC01848195810895FC01CE
:10360000868197810895FC0180850895FC0175836A
:1036100064830895FC01778366830895FC016087C5
:103620000895FC01662329F40480F581E02D808152
:103630000895613029F40480F581E02D8181089599
:103640000680F781E02DE60FF11D32978081089505
:10365000FC011782168210860895EF92FF920F9355
:103660001F938C017B0168E041E00E94B61381E169
:1036700095E0F80191838083F582E482C8010E947D
:10368000281B1F910F91FF90EF900895EF92FF92EA
:103690000F931F938C017B0168E041E00E94B613F9
:1036A00081E195E0F80191838083F582E482C8018D
:1036B0000E94281B1F910F91FF90EF9008950F9388
:1036C0001F938C0168E041E00E94B61381E195E010
:1036D000F8019183808315821482C8010E94281BFF
:1036E0001F910F9108950F931F938C0168E041E0A3
:1036F0000E94B61381E195E0F801918380831582E1
:103700001482C8010E94281B1F910F910895FC018B
:1037100080858E5F08950F931F938C0160E070E0A9
:1037200040E050E020E00E94B91A89E095E0F801FD
:1037300091838083128A118A138AC80167E10E94EB
:10374000CF131F910F9108950F931F938C0160E089
:1037500070E040E050E020E00E94B91A89E095E076
:10376000F80191838083128A118A138AC80167E164
:103770000E94CF131F910F910895EF92FF920F9324
:10378000CF93DF93EC017B01BA01A901202F0E94A6
:10379000B91A89E095E099838883DE011996E8E0FB
:1037A000F7E088E001900D928150E1F7FA8AE98A0A
:1037B00081E08B8BCE0167E10E94CF13DF91CF9127
:1037C0000F91FF90EF900895EF92FF920F93CF9398
:1037D000DF93EC017B01BA01A901202F0E94B91AE5
:1037E00089E095E099838883DE011996E8E0F7E0A7
:1037F00088E001900D928150E1F7FA8AE98A81E030
:103800008B8BCE0167E10E94CF13DF91CF910F9197
:10381000FF90EF9008950F931F93CF93DF93EC01E8
:103820008B01BA0140E050E020E00E94B91A89E023
:1038300095E099838883DE011996E8E0F7E088E057
:1038400001900D928150E1F71A8B098B1B8ACE01F2
:1038500067E10E94CF13DF91CF911F910F910895DF
:103860000F931F93CF93DF93EC018B01BA0140E0DC
:1038700050E020E00E94B91A89E095E0998388839E
:10388000DE011996E8E0F7E088E001900D928150A2
:10389000E1F71A8B098B1B8ACE0167E10E94CF13D7
:1038A000DF91CF911F910F910895FF920F931F9376
:1038B000CF93DF93EC01162FF72EBA01A901202F29
:1038C0000E94B91A89E095E099838883DE011996F0
:1038D000212F3F2DC901FC0188E001900D928150FC
:1038E000E1F78EEF9FEF9A8B898B81E08B8BCE0176
:1038F00067E10E94CF13DF91CF911F910F91FF904D
:103900000895FF920F931F93CF93DF93EC01162F2F
:10391000F72EBA01A901202F0E94B91A89E095E07B
:1039200099838883DE011996212F3F2DC901FC015F
:1039300088E001900D928150E1F78EEF9FEF9A8B16
:10394000898B81E08B8BCE0167E10E94CF13DF91E1
:10395000CF911F910F91FF9008950F931F93CF93D5
:10396000DF93EC01162F072FBA0140E050E020E072
:103970000E94B91A89E095E099838883DE0119963F
:10398000212F302FC901FC0188E001900D92815058
:10399000E1F78EEF9FEF9A8B898B1B8ACE0167E14F
:1039A0000E94CF13DF91CF911F910F9108950F9334
:1039B0001F93CF93DF93EC01162F072FBA0140E03E
:1039C00050E020E00E94B91A89E095E0998388834D
:1039D000DE011996212F302FC901FC0188E00190EA
:1039E0000D928150E1F78EEF9FEF9A8B898B1B8AA6
:1039F000CE0167E10E94CF13DF91CF911F910F910C
:103A00000895FC01818992890895FC01728B618B74
:103A100008959C01275F3F4FC9010895DC01199665
:103A2000FB0188E001900D928150E1F70895FC01BF
:103A300083890895FC01638B08951F93FC01162F61
:103A4000662321F409960E943A1517C0613021F4CB
:103A500009960E943A151BC0623021F409960E9413
:103A60003A151EC0633021F409960E943A1548C0E9
:103A7000643041F409960E944615692F77278827FC
:103A800099273EC0653039F409960E944615BC015D
:103A90008827992735C0663041F409960E9446155B
:103AA000672F782F892F99272BC0673021F409962B
:103AB0000E94461525C0683011F4628921C0693022
:103AC00011F461891DC06A3039F48389882311F4A7
:103AD00060E016C062E014C06B3021F40E94FB1A53
:103AE000FC010DC06C3029F40E94FB1AFC016181BD
:103AF00007C00E94FF1AFC01E10FF11D3D97608194
:103B0000862F1F9108950E94031B835F08950F93D2
:103B10001F9388E097E040E050E060E070E00FEF36
:103B20001FEF20E030E00E942C151F910F910895A7
:103B30001F93162F4423D1F0862F8D57823020F00B
:103B4000613111F0633191F480E299E06DE770E04A
:103B500040E050E00E94AE2360E2612780E299E0FD
:103B600070E040E050E00E94AE2307C080E299E0A0
:103B7000612F40E050E00E9466231F910895CF928C
:103B8000DF92FF920F931F93CF93DF936C01EB01B2
:103B90006EE740E00E94981DE881F9810280F38180
:103BA000E02DCE010995082FE881F9810280F3818B
:103BB000E02DCE010995F82E10E00E5F1F4FC601D3
:103BC000612F41E00E94981D82E0F80EC6016F2D22
:103BD00041E00E94981DCE010E94CC13682FC601BF
:103BE00041E00E94981DCE010E94C913682FC601B2
:103BF00041E00E94981DCE010E94CC13F82ECE0108
:103C00000E94C913F80E00E010E018C0E881F981A5
:103C10000190F081E02DCE01602F0995682FC6013B
:103C200041E00E94981DE881F9810190F081E02D2A
:103C3000CE01602F0995F80E0F5F1F4FE881F981C3
:103C40000280F381E02DCE01099590E00817190755
:103C5000ECF2F094C6016F2D41E00E94981D80E2C5
:103C600099E00E945621DF91CF911F910F91FF9013
:103C7000DF90CF900895CF92DF92EF92FF920F9353
:103C80001F93CF93DF93EC01F82EED2E0E94FA0DD7
:103C9000882331F4CE010E94000E882309F494C0D9
:103CA000CE010E940C1390C080E299E00E94322164
:103CB000982F8B878A858823B9F09E3721F48F2D22
:103CC0009E2D63E046C09D3779F480E299E00E9422
:103CD0000721892B39F080E299E00E9432218D255D
:103CE0008B8702C0C98674C08985882321F08B85A3
:103CF0008D258B8719868A85833020F08C859B855E
:103D0000890F8C878A85813069F0813028F0823074
:103D100079F08330C9F412C08B858E3709F058C012
:103D2000CA8656C08F2D9E2D6B850E94E50D48C01A
:103D30008F2D9E2D6B850E94EB0D42C08F2D9E2DE9
:103D40006B850E94DF0D3CC08F3630F08F2D9E2D8D
:103D500062E00E94080E43C0082F10E08F2D9E2DB8
:103D60000E94000F039608171907F9F48C858F3FFE
:103D700071F48F2D9E2D6B850E94F10D8F2D9E2D40
:103D800061E00E94FD0D8F2D9E2D60E003C08F2D00
:103D90009E2D61E00E94080E6A8564508F2D9E2D35
:103DA0000E94F70D1A861C861AC08F2D9E2D0E9428
:103DB000320F080F191F045010408B85F8018083C3
:103DC0008A858F5F8A8704C0CC24C39440E2D42EB6
:103DD00080E299E00E940721892B09F065CFDF91ED
:103DE000CF911F910F91FF90EF90DF90CF900895AA
:103DF0000F931F93CF93DF938C010E948313EC01E9
:103E0000CE010E94FA0D882349F4CE010E94000ED3
:103E1000882321F4C8010E943B1EF2CFDF91CF918D
:103E20001F910F910895AF92BF92CF92DF92EF92C0
:103E3000FF920F931F93CF93DF935C016B0177FD8C
:103E40001EC00E94062E7B018C0112C0C5010E947B
:103E50003B1EC5010E948313EC010E94FA0D8823CA
:103E600011F081E00DC0CE010E94000E882339F4CC
:103E70000E94062E6E197F096C157D053CF380E0CB
:103E8000DF91CF911F910F91FF90EF90DF90CF9036
:103E9000BF90AF90089580E299E00E948420089539
:103EA0001F920F920FB60F920BB60F9211242F9301
:103EB0003F934F938F939F93EF93FF934091C6004F
:103EC000E0919007F091910731969F012F77307024
:103ED000319780919207909193072817390739F00D
:103EE000E05FF84F40833093910720939007FF9154
:103EF000EF919F918F914F913F912F910F900BBE1A
:103F00000F900FBE0F901F9018951F920F920FB633
:103F10000F920BB60F9211242F933F934F938F93D1
:103F20009F93EF93FF934091CE00E0911408F0919E
:103F3000150831969F012F773070319780911608C0
:103F4000909117082817390739F0EC56F84F40833D
:103F50003093150820931408FF91EF919F918F9152
:103F60004F913F912F910F900BBE0F900FBE0F906E
:103F70001F9018951F920F920FB60F920BB60F92CB
:103F800011242F933F934F938F939F93EF93FF931E
:103F90004091D600E0919808F091990831969F01E0
:103FA0002F773070319780919A0890919B0828174D
:103FB000390739F0E85EF74F408330939908209332
:103FC0009808FF91EF919F918F914F913F912F9181
:103FD0000F900BBE0F900FBE0F901F9018951F9261
:103FE0000F920FB60F920BB60F9211242F933F939F
:103FF0004F938F939F93EF93FF9340913601E091FE
:104000001C09F0911D0931969F012F77307031976F
:1040100080911E0990911F092817390739F0E4563D
:10402000F74F408330931D0920931C09FF91EF91B6
:104030009F918F914F913F912F910F900BBE0F90B9
:104040000FBE0F901F9018958F92AF92CF92DF9274
:10405000EF92FF920F931F93DF93CF93CDB7DEB70D
:10406000FC0185E995E091838083738362835583A6
:1040700044833783268311870087F386E286D586BB
:10408000C486A68687868D85808B8E85818B8F855D
:10409000828BCF91DF911F910F91FF90EF90DF9076
:1040A000CF90AF908F9008958F92AF92CF92DF9282
:1040B000EF92FF920F931F93DF93CF93CDB7DEB7AD
:1040C000FC0185E995E09183808373836283558346
:1040D00044833783268311870087F386E286D5865B
:1040E000C486A68687868D85808B8E85818B8F85FD
:1040F000828BCF91DF911F910F91FF90EF90DF9016
:10410000CF90AF908F900895CF93DF93EC019A01F9
:10411000AB01E885F985203081EE380780E048075B
:1041200080E0580709F445C081E090E00A8802C0A9
:10413000880F991F0A94E2F7808360E079E08DE3AD
:1041400090E00E942E312150304040405040569522
:10415000479537952795EC81FD813083EE81FF816E
:104160002083EA85FB85208141E050E0CA010E846E
:1041700002C0880F991F0A94E2F7282B2083EA8552
:10418000FB852081CA010F8402C0880F991F0A9401
:10419000E2F7282B2083EA85FB858081088802C00E
:1041A000440F551F0A94E2F7842B8083DF91CF914F
:1041B0000895108220E130E0CECFFC01A285B385C6
:1041C0004C9121E030E0C901068402C0880F991F9C
:1041D0000A94E2F7809584238C93A285B3854C9151
:1041E000C901078402C0880F991F0A94E2F78095DD
:1041F00084238C93A285B3858C91008802C0220F02
:10420000331F0A94E2F7209528232C930895DC01AC
:104210001296ED91FC911397E058FF4F2191319147
:1042200080819181281B390B2F773070C901089547
:10423000DC011296ED91FC911397EE57FF4F208110
:10424000318192918291E058F0408217930719F4DE
:104250002FEF3FEF05C0E20FF31F8081282F30E0E2
:10426000C9010895DC011296ED91FC911397DF01CD
:10427000AE57BF4F2D913C911197E058FF4F808171
:104280009181E058F0408217930719F42FEF3FEF28
:104290000BC0E20FF31F80812F5F3F4F2F773070ED
:1042A0002D933C93282F30E0C9010895DC0112962C
:1042B000ED91FC911397EE57FF4F8081918192937E
:1042C00082930895FC01A085B18521898C9190E0AD
:1042D000022E02C0959587950A94E2F780FFF6CFEB
:1042E0000484F585E02D6083089525E935E0309359
:1042F00021092093200980E197E09093230980937E
:10430000220985EC90E0909325098093240984ECA0
:1043100090E0909327098093260980EC90E0909399
:1043200029098093280981EC90E090932B098093D0
:104330002A0986EC90E090932D0980932C09E4E003
:10434000E0932E0973E070932F0967E060933009C2
:1043500055E05093310941E04093320930933409DC
:104360002093330984E997E09093360980933509C7
:104370008DEC90E090933809809337098CEC90E0B5
:1043800090933A098093390988EC90E090933C0926
:1043900080933B0989EC90E090933E0980933D091E
:1043A0008EEC90E09093400980933F09E09341099F
:1043B000709342096093430950934409409345091F
:1043C000309347092093460988E198E09093490982
:1043D0008093480985ED90E090934B0980934A09BA
:1043E00084ED90E090934D0980934C0980ED90E02E
:1043F00090934F0980934E0981ED90E0909351097D
:104400008093500986ED90E0909353098093520970
:10441000E0935409709355096093560950935709D6
:104420004093580930935A09209359098CE998E030
:1044300090935C0980935B0985E391E090935E091A
:1044400080935D0984E391E09093600980935F0914
:1044500080E391E0909362098093610981E391E0A8
:10446000909364098093630986E391E090936609D1
:1044700080936509E09367097093680960936909FF
:1044800050936A0940936B0908950F931F93CF933C
:10449000DF938C01EB0109C02196D801ED91FC91CD
:1044A0000190F081E02DC801099568816623A1F78C
:1044B000DF91CF911F910F910895EF92FF920F938B
:1044C0001F93CF93DF938C017B01EA010CC0D701CE
:1044D0006D917D01D801ED91FC910190F081E02D6D
:1044E000C80109952197209791F7DF91CF911F91EE
:1044F0000F91FF90EF900895DC01ED91FC91028007
:10450000F381E02D09950895CF92DF92EF92FF920B
:104510000F931F93CF93DF936C017B01C0E0D0E03A
:104520000EC0D601ED91FC9100811181C701BE0141
:104530000E94DF25682FC601F80109952196F70131
:1045400084819581C817D90760F3DF91CF911F91BE
:104550000F91FF90EF90DF90CF9008952F923F92B0
:104560004F925F926F927F928F929F92AF92BF9283
:10457000CF92DF92EF92FF920F931F93DF93CF932F
:10458000CDB7DEB7A0970FB6F894DEBF0FBECDBF94
:104590001C016A017B01411551056105710549F452
:1045A00040E350E060E070E020E030E00E947823DB
:1045B00054C0882499245401422E5524662477241B
:1045C00001E010E00C0F1D1F080D191DC701B601F9
:1045D000A30192010E942E31F80160830894811C8E
:1045E000911CA11CB11CC701B601A30192010E943C
:1045F0002E31C901DA016C017D01C114D104E1043D
:10460000F104F1F681E0E82EF12CEC0EFD1EE80C31
:10461000F91C3E010894611C711CD501C40101976D
:10462000A109B1096C01C818D90814C0F601EE0D32
:10463000FF1D40814A3010F4405D01C0495C50E0EC
:1046400060E070E0C10120E030E00E94782308942F
:10465000E108F1086E147F0449F7A0960FB6F894AC
:10466000DEBF0FBECDBFCF91DF911F910F91FF90A5
:10467000EF90DF90CF90BF90AF909F908F907F9002
:104680006F905F904F903F902F900895DC0121151F
:10469000310541F4ED91FC910190F081E02D642F02
:1046A000099508950E94AE220895EF92FF920F930C
:1046B0001F939A017B0100E010E0B801A7010E945E
:1046C00046231F910F91FF90EF900895EF92FF9274
:1046D0000F931F939A01E62EFF2400E010E0B8012B
:1046E000A7010E9446231F910F91FF90EF9008951C
:1046F000EF92FF920F931F93CF93DF93EC017A0118
:104700008B012115310541F4E881F9810190F08197
:10471000E02D642F09951BC02A303105B1F477FFD5
:1047200010C04DE250E060E070E020E030E00E9418
:10473000782310950095F094E094E11CF11C011D84
:10474000111DCE01B801A7012AE00E94AE22DF911F
:10475000CF911F910F91FF90EF900895EF92FF92EC
:104760000F931F937B019A010027F7FC0095102FF0
:10477000B801A7010E9478231F910F91FF90EF903D
:104780000895EF92FF920F931F939A01E62EFF2454
:1047900000E010E0B801A7010E9478231F910F915B
:1047A000FF90EF9008950F931F938C014DE050E020
:1047B00060E070E020E030E00E947823C8014AE029
:1047C00050E060E070E020E030E00E9478231F912C
:1047D0000F9108950F931F938C010E944623C801E7
:1047E0000E94D3231F910F910895CF92DF92EF92F1
:1047F000FF920F931F938C019A016B01EE24FF240B
:10480000B701A6010E944623C8010E94D3231F912D
:104810000F91FF90EF90DF90CF900895CF92DF92AD
:10482000EF92FF920F931F938C019A01C62EDD2405
:10483000EE24FF24B701A6010E944623C8010E946E
:10484000D3231F910F91FF90EF90DF90CF900895A9
:104850000F931F938C010E947C22C8010E94D323D6
:104860001F910F9108950F931F938C010E94842232
:10487000C8010E94D3231F910F9108950F931F9396
:104880008C010E947823C8010E94D3231F910F91AD
:104890000895CF92DF92EF92FF920F931F938C01B6
:1048A0006B019A01EE24D7FCE094FE2CB701A6011F
:1048B0000E947823C8010E94D3231F910F91FF907B
:1048C000EF90DF90CF900895CF92DF92EF92FF921A
:1048D0000F931F938C019A01C62EDD24EE24FF2432
:1048E000B701A6010E947823C8010E94D3231F911B
:1048F0000F91FF90EF90DF90CF9008959F92AF922D
:10490000BF92CF92DF92EF92FF920F931F93CF93BC
:10491000DF93EC017A018B01922ECB01BA0120E0EA
:1049200030E040E050E00E94DF0488236CF4CE01C8
:104930004DE250E060E070E020E030E00E9478233B
:1049400017FB109517F9109520E030E040E05FE389
:10495000AA240BC0CA01B90120E030E040E251E4D2
:104960000E9403049B01AC01A394A91498F3C8010D
:10497000B7010E94DC025B016C010E9433017B01E4
:104980008C01CE01B801A7012AE030E00E94462345
:10499000992029F0CE016FED73E00E947C22C801BE
:1049A000B7010E94C1059B01AC01C601B5010E947F
:1049B000AB0222C020E030E040E251E40E94090353
:1049C0007B018C010E946D055B016C01CC24B7FC5E
:1049D000C094DC2CCE01B601A5012AE030E00E9493
:1049E0007823C601B5010E940F059B01AC01C801E7
:1049F000B7010E94AB029A949920E1F6DF91CF9122
:104A00001F910F91FF90EF90DF90CF90BF90AF90EC
:104A10009F9008950E947E2408950F931F938C0108
:104A20000E947E24C8010E94D3231F910F910895F4
:104A30002F923F924F925F926F927F928F929F92AE
:104A4000AF92BF92CF92DF92EF92FF920F931F939C
:104A5000DF93CF93CDB7DEB73B014C0119012A019B
:104A60006D897E898F89988D6A197B098C099D09CA
:104A7000621A730A840A950AA40193010E940F31F5
:104A8000E218F30804091509A80197010E945031A2
:104A90002A0D3B1D4C1D5D1DB901CA01CF91DF914F
:104AA0001F910F91FF90EF90DF90CF90BF90AF904C
:104AB0009F908F907F906F905F904F903F902F903E
:104AC0000895089570E0382F20E0622B732BCB01FE
:104AD0000895EF92FF920F931F937B018C01611554
:104AE00071058105910529F420E030E040E050E0B7
:104AF0000BC00E948409A80197010E945031AC01AB
:104B0000CB01DA019C01AD01B901CA011F910F91DE
:104B1000FF90EF900895EF92FF920F931F937B0108
:104B20008C01621773078407950764F4261B370B03
:104B3000480B590BCA01B9010E946925E60EF71E00
:104B4000081F191FB701C8011F910F91FF90EF9027
:104B50000895009729F0BC0180E090E00E94890947
:104B60000895FC010190F081E02DE60FF71F808190
:104B70000895DC01ED91FC911197309751F0149656
:104B80008D919C9115976817790718F4E60FF71F18
:104B900040830895FC019B01848195816817790702
:104BA00028F4608171816115710529F410926C09F6
:104BB0006CE679E002C0620F731FCB010895FC011F
:104BC0000190F081E02DE60FF71F80810895FC0130
:104BD000808191810E94670A08950F931F93CF935C
:104BE000DF93FC018B0141155105A1F061157105A1
:104BF00089F084819581EA0121978C179D0708F43B
:104C0000EC0160817181C801AE010E94CB0AC00F26
:104C1000D11F1882DF91CF911F910F9108950F93AB
:104C20001F93CF93DF93FC018B0141155105A1F038
:104C30006115710589F084819581EA0121978C17AE
:104C40009D0708F4EC0160817181C801AE010E94EA
:104C5000CB0AC00FD11F1882DF91CF911F910F9106
:104C600008950F931F938C01FC01808191810E9414
:104C7000D908F80113821282158214821F910F91B4
:104C80000895FC01DB0114962D913C9115978481C8
:104C90009581821B930B8417950710F480E008958B
:104CA000808191816D917C91840F951FA9010E9453
:104CB000BD0A9C0180E0232B09F481E00895FC01EA
:104CC000DB012481358114968D919C9115972817CD
:104CD000390710F480E00895CF0140E050E00E94D1
:104CE00041260895DF92EF92FF920F931F93CF9387
:104CF000DF93EC018C819D8148175907B8F47A0144
:104D00000894E11CF11CE881F981EE0DFF1DD080B3
:104D1000108208811981C80170E00E94DA0A9C01A2
:104D20000E0D1F1DF801D082009719F4EFEFFFEF71
:104D300005C088819981F901E81BF90BCF01DF914A
:104D4000CF911F910F91FF90EF90DF900895FC019C
:104D500044815581415050400E9472260895CF935E
:104D6000DF93FC01DB01848195814817590760F4CA
:104D7000C081D1816D917C91CE01840F951F0E94DD
:104D8000E50A9C01009719F42FEF3FEF02C02C1B9E
:104D90003D0BC901DF91CF91089540E050E00E94A2
:104DA000AF260895CF93DF93FC0184819581481746
:104DB000590758F4C081D181CE01840F951F70E04E
:104DC0000E94A20A9C01009719F42FEF3FEF02C046
:104DD0002C1B3D0BC901DF91CF91089540E050E0BD
:104DE0000E94D2260895DC01FB0114962D913C917E
:104DF0001597848195812817390711F080E008956F
:104E0000608171818D919C910E94AD0A9C0180E02E
:104E1000232B09F481E00895FC01DB012481358115
:104E200014968D919C9115972817390710F480E0FE
:104E30000895281B390B808191816D917C91820F9F
:104E4000931F0E94AD0A9C0180E0232B09F481E0AE
:104E50000895DC01FB01608171818D919C910E941C
:104E6000AD0A292F332727FD30952095309522272D
:104E7000330F221F3327C9010895DC01FB01608134
:104E800071818D919C910E94AD0A40E050E018160E
:104E9000190614F041E050E0CA010895DC01FB015D
:104EA000608171818D919C910E94AD0A40E050E03B
:104EB0001816190614F441E050E0CA010895DC0107
:104EC000FB01608171818D919C910E94AD0A292F17
:104ED000332727FD30952227330F221F3327C9019F
:104EE0000895DC01FB0114962D913C911597848166
:104EF00095812817390751F4608171818D919C91BA
:104F00000E94AD0A9C0180E0232B09F081E090E033
:104F10000895DC01FB0114962D913C911597848135
:104F200095812817390711F080E00BC060817181ED
:104F30008D919C910E94AD0A9C0180E0232B09F485
:104F400081E090E00895FC01DB016D917C9180810E
:104F500091810E94AD0A08950F931F93CF93DF9321
:104F6000EC018B01FB01648175818C819D81680F4F
:104F7000791F7D836C838A819B8186179707B8F49C
:104F80006F5F7F4F888199810E9492094C815D817A
:104F9000009729F0998388835B834A8308C0F801CE
:104FA00084819581481B590B5D834C8307C0F801B0
:104FB00060817181888199810E94970ACE01DF9179
:104FC000CF911F910F9108950E94AC270895CF9320
:104FD000DF93EC01CB017B836A8301960E942F084B
:104FE00099838883009721F41B821A821D821C8278
:104FF000DF91CF9108950F931F93CF93DF93EC012F
:105000008B018617970709F1FB01248135818C817B
:105010009D818217930750F4888199810E94D90855
:10502000F80164817581CE010E94E72728813981CA
:105030002115310551F0F801848195819D838C8380
:1050400060817181C9010E94B60ACE01DF91CF91C2
:105050001F910F9108951F93CF93DF93EC01162FAB
:1050600081E090E09D838C83CE0161E070E00E943E
:10507000E727E881F981309721F01083E881F981F1
:105080001182DF91CF911F9108951F93CF93DF93EA
:10509000EC01162F81E090E09D838C83CE0161E0CE
:1050A00070E00E94E727E881F981309721F01083B2
:1050B000E881F9811182DF91CF911F9108951F93AB
:1050C000CF93DF93EC01162F81E090E09D838C83DA
:1050D000CE0161E070E00E94E727E881F981309716
:1050E00021F01083E881F9811182DF91CF911F9126
:1050F00008951F93CF93DF93EC01162F81E090E08A
:105100009D838C83CE0161E070E00E94E727E881F7
:10511000F981309721F01083E881F9811182DF91C4
:10512000CF911F9108950F931F93CF93DF938C011D
:10513000EB016C817D81FC01758364830E94E7270C
:10514000F80180819181009721F0688179810E9426
:10515000B60ADF91CF911F910F9108950F931F937E
:10516000CF93DF938C01EB016C817D81FC01758312
:1051700064830E94E727F80180819181009721F0E4
:10518000688179810E94B60ADF91CF911F910F91BA
:105190000895EF92FF920F931F93DF93CF93CDB7B4
:1051A000DEB7A1970FB6F894DEBF0FBECDBF8C015E
:1051B000CB01BA017E010894E11CF11CA7012AE091
:1051C00030E00E94690BF70101900020E9F7319768
:1051D000EE19FF09D8011596FC93EE931497C801B8
:1051E000BF010E94E727F80180819181009719F0A3
:1051F000B7010E94B60AA1960FB6F894DEBF0FBEA3
:10520000CDBFCF91DF911F910F91FF90EF90089547
:10521000EF92FF920F931F93DF93CF93CDB7DEB73B
:10522000A1970FB6F894DEBF0FBECDBF8C01CB01A6
:10523000BA017E010894E11CF11CA7012AE030E0CC
:105240000E94690BF70101900020E9F73197EE19F0
:10525000FF09D8011596FC93EE931497C801BF017E
:105260000E94E727F80180819181009719F0B7012A
:105270000E94B60AA1960FB6F894DEBF0FBECDBF4E
:10528000CF91DF911F910F91FF90EF900895EF92D2
:10529000FF920F931F93DF93CF93CDB7DEB7A19704
:1052A0000FB6F894DEBF0FBECDBF8C019A0180E02F
:1052B00090E07E010894E11CF11CA7010E94690B9B
:1052C000F70101900020E9F73197EE19FF09D801A5
:1052D0001596FC93EE931497C801BF010E94E7272F
:1052E000F80180819181009719F0B7010E94B60AF8
:1052F000A1960FB6F894DEBF0FBECDBFCF91DF9160
:105300001F910F91FF90EF900895EF92FF920F93EE
:105310001F93DF93CF93CDB7DEB7A1970FB6F89465
:10532000DEBF0FBECDBF8C019A0180E090E07E0110
:105330000894E11CF11CA7010E94690BF701019080
:105340000020E9F73197EE19FF09D8011596FC9373
:10535000EE931497C801BF010E94E727F8018081EE
:105360009181009719F0B7010E94B60AA1960FB675
:10537000F894DEBF0FBECDBFCF91DF911F910F918B
:10538000FF90EF9008950F931F93CF93DF938C01BD
:10539000EB016115710511F4C1EED3E0FE0101903E
:1053A0000020E9F73197EC1BFD0BD8011596FC9313
:1053B000EE931497C801BF010E94E727F80180818E
:1053C0009181009719F0BE010E94B60ADF91CF913A
:1053D0001F910F910895AF92BF92CF92DF92EF92FB
:1053E000FF920F931F93CF93DF93B82EA92E6B01DB
:1053F000C82FD92FFB0160817181CE010E94C32982
:10540000EE24FF240EC0088119810E0D1F1DF80126
:10541000808190E00E94B831F80180830894E11CFB
:10542000F11CF60184819581E816F90660F38B2D55
:105430009A2DDF91CF911F910F91FF90EF90DF9008
:10544000CF90BF90AF900895AF92BF92CF92DF926E
:10545000EF92FF920F931F93CF93DF93B82EA92E55
:105460006B01C82FD92FFB0160817181CE010E9491
:10547000C329EE24FF240EC0088119810E0D1F1DC3
:10548000F801808190E00E94B031F8018083089497
:10549000E11CF11CF60184819581E816F90660F3A0
:1054A0008B2D9A2DDF91CF911F910F91FF90EF904F
:1054B000DF90CF90BF90AF900895EF92FF920F933F
:1054C0001F93DF93CF93CDB7DEB72C970FB6F89429
:1054D000DEBF0FBECDBFFC017B018617970711F41D
:1054E00001E029C024813581DB0114968D919C91C6
:1054F00015972817390711F000E01DC0CE0101965D
:10550000BF010E94242A09811A81CE010796B701A2
:105510000E94242A6F817885C8010E94AD0A00E0AC
:10552000009709F401E0CE0107960E94D90BCE0145
:1055300001960E94D90B802F2C960FB6F894DEBFEF
:105540000FBECDBFCF91DF911F910F91FF90EF90D4
:105550000895CF92DF92EF92FF921F93CF93DF9344
:105560006C017B01B9012417350710F4BA01A901B8
:10557000D70114968D919C911597EB01861797078B
:1055800008F4EC01D701ED91FC911197EC0FFD1F90
:10559000108110826D917C91640F751FC6010E946D
:1055A000C329D701ED91FC91EC0FFD1F1083C601BB
:1055B000DF91CF911F91FF90EF90DF90CF900895F2
:1055C0000F931F938C01FB01248135810E94A92A2E
:1055D000C8011F910F9108958F929F92AF92BF9231
:1055E000CF92DF92EF92FF920F931F93DF93CF93AF
:1055F00000D000D000D0CDB7DEB75C016B01DB017D
:1056000014968D919C9115970097A1F101974817D9
:10561000590780F1F501848195814817590750F5A4
:10562000ED91FC9100817A014E010894811C911C3E
:105630001FC0D501ED91FC91EE0DFF1D80818017FB
:10564000A1F4F601248135812E0D3F1DC401B50161
:10565000A7010E94A92AC401B6010E94F326182FAF
:10566000C4010E94D90B112341F40894E108F10808
:10567000F7FEDFCFEE24EA94FE2CC70126960FB684
:10568000F894DEBF0FBECDBFCF91DF911F910F9178
:10569000FF90EF90DF90CF90BF90AF909F908F9052
:1056A0000895FC01DB014481558114968D919C91F4
:1056B0001597481B590BCF010E94EC2A0895AF9211
:1056C000BF92CF92DF92EF92FF920F931F93DF93DF
:1056D000CF9300D000D000D0CDB7DEB75C018B01F6
:1056E000DB016D917C916115710521F4B8010E9477
:1056F00093283EC0CE0101960E94C329F801E480A0
:10570000F580CC24DD240EC0D801ED91FC91EC0D88
:10571000FD1D808190E00E94A831892B31F0089412
:10572000C11CD11CCE14DF0478F3ED80FE800BC0C9
:10573000D801ED91FC91EE0DFF1D808190E00E945B
:10574000A831892B31F00894E108F108CE14DF0468
:1057500078F30894E11CF11CC5018E010F5F1F4F07
:10576000B801A60197010E94A92AC8010E94D90B7D
:10577000C50126960FB6F894DEBF0FBECDBFCF9100
:10578000DF911F910F91FF90EF90DF90CF90BF902E
:10579000AF9008952F923F924F925F926F927F92B7
:1057A0008F929F92AF92BF92CF92DF92EF92FF9231
:1057B0000F931F93DF93CF93CDB7DEB768970FB6E4
:1057C000F894DEBF0FBECDBF3C01FB012A011901D9
:1057D000608171816115710521F4BF010E949328D8
:1057E0005AC07E010894E11CF11CC7010E94C32924
:1057F0008E01095F1F4FC80161EE73E00E94C3294B
:10580000D02EC12E3DE0832E912C8C0E9D1E23E1C7
:10581000A22EB12CAC0EBD1E24C0C401B70140E0C5
:1058200050E098010E94A92A8D2D9C2DB4010E9460
:10583000AC27C4010E94D90B8D2D9C2DB1010E9473
:10584000AC27F20144815581400F511FC501B701BA
:105850000E94E02AC701B5010E94FB27C5010E94F2
:10586000D90BC701B2010E94CD268C01FFEF8F3FFB
:105870009F0799F68D2D9C2DB7010E94AC27C3017F
:105880006D2D7C2D0E9493288D2D9C2D0E94D90B6F
:10589000C7010E94D90BC30168960FB6F894DEBF0A
:1058A0000FBECDBFCF91DF911F910F91FF90EF9071
:1058B000DF90CF90BF90AF909F908F907F906F9030
:1058C0005F904F903F902F900895EF92FF920F932B
:1058D0001F93DF93CF9300D000D000D0CDB7DEB7B9
:1058E0007C01FB01142F022F60817181611571050C
:1058F00021F4BF010E94932819C0CE0101960E9495
:10590000C32989819A8101C00083612F70E00E94C0
:10591000A20AFC010097C1F7C7018E010F5F1F4F5C
:10592000B8010E949328C8010E94D90BC70126968E
:105930000FB6F894DEBF0FBECDBFCF91DF911F91A0
:105940000F91FF90EF9008950F931F93CF93DF93E4
:105950008C01EB016115710511F4C1EED3E0FE017C
:1059600001900020E9F73197EC1BFD0BD80115964B
:10597000FC93EE931497C801BF010E94E727F8013A
:1059800080819181009719F0BE010E94B60ADF91D3
:10599000CF911F910F910895EF92FF920F931F9354
:1059A000DF93CF93CDB7DEB7A1970FB6F894DEBFE4
:1059B0000FBECDBF8C01CB01BA017E010894E11C62
:1059C000F11CA7010E94200BF70101900020E9F7CC
:1059D0003197EE19FF09D8011596FC93EE931497B1
:1059E000C801BF010E94E727F801808191810097DB
:1059F00019F0B7010E94B60AA1960FB6F894DEBF5F
:105A00000FBECDBFCF91DF911F910F91FF90EF900F
:105A10000895EF92FF920F931F93DF93CF93CDB72B
:105A2000DEB7A1970FB6F894DEBF0FBECDBF8C01D5
:105A3000CB01BA017E010894E11CF11CA7010E9470
:105A4000200BF70101900020E9F73197EE19FF09CB
:105A5000D8011596FC93EE931497C801BF010E94DC
:105A6000E727F80180819181009719F0B7010E9422
:105A7000B60AA1960FB6F894DEBF0FBECDBFCF9188
:105A8000DF911F910F91FF90EF900895EF92FF9299
:105A90000F931F93DF93CF93CDB7DEB7A1970FB6C8
:105AA000F894DEBF0FBECDBF8C01CB017E01089400
:105AB000E11CF11CB7010E94FF0AF70101900020D0
:105AC000E9F73197EE19FF09D8011596FC93EE938B
:105AD0001497C801BF010E94E727F80180819181D6
